:0400000014EF03F006
:100008000182FACF2AF0FBCF2BF0D9CF2CF0DACF30
:100018002DF0F3CF2EF0F4CF2FF0F2A816EF00F06A
:1000280018EF00F021EF00F0F2A21DEF00F01FEF33
:1000380000F021EF00F001EC19F0F2A426EF00F037
:1000480028EF00F006EF03F0F294316A000E306EEC
:100058007EEF00F0270E3002F3CF23F0F4CF24F028
:100068003102F3502426040E2324D96E020E2420D4
:10007800DA6EDF50D8B443EF00F045EF00F07CEFC4
:1000880000F0270E3002F3CF23F0F4CF24F0310232
:10009800F3502426040E2324D96E020E2420DA6E8F
:1000A800DF06270E3002F3CF23F0F4CF24F031021D
:1000B800F3502426040E2324D96E020E2420DA6E6F
:1000C800DF50D8A46AEF00F06CEF00F07CEF00F08E
:1000D800270E3002F3CF23F0F4CF24F03102F3508F
:1000E8002426010E2324D96E020E2420DA6EDF6A3C
:1000F800304A312A0201C351236E246A2350305CEE
:100108003150800A256E2450800A2558D8A08FEFD8
:1001180000F091EF00F02EEF00F034063450D8A430
:1001280098EF00F09AEF00F006EF03F0050E346E3A
:1001380020EE01F0C451D926C551DA22020EDE188C
:10014800D8A4A9EF00F0ABEF00F0A8EF01F020EE83
:1001580001F0C451D926C551DA22DF6A20EE08F031
:10016800C451D926C551DA22E0CFDFFF20EE0CF0CA
:10017800C451D926C551DA22EACFDFFF20EE0BF0B1
:10018800C451D926C551DA22E9CFDFFF20EE0EF09F
:10019800C451D926C551DA22E2CFDFFF20EE0DF097
:1001A800C451D926C551DA22E1CFDFFF20EE10F085
:1001B800C451D926C551DA22DACFDFFF20EE0FF07D
:1001C800C451D926C551DA22D9CFDFFF20EE15F068
:1001D800C451D926C551DA22FACFDFFF20EE16F036
:1001E800C451D926C551DA22FBCFDFFF20EE0AF031
:1001F800C451D926C551DA22F4CFDFFF20EE09F029
:10020800C451D926C551DA22F3CFDFFF20EE11F011
:10021800C451D926C551DA22F5CFDFFF20EE13F0FD
:10022800C451D926C551DA22F7CFDFFF20EE12F0EC
:10023800C451D926C551DA22F6CFDFFF20EE14F0DB
:10024800C451D926C551DA22F8CFDFFF20EE06F0D7
:10025800C451D926C551DA22E8CFDFFF20EE07F0D6
:10026800C451D926C551DA22D8CFDFFF20EE26F0B7
:10027800C451D926C551DA22DF6AA0EF01F0020184
:1002880020EE26F0C451D926C551DA22DF50236E5C
:100298002350030DF3CF24F0F4CF25F02450C425C8
:1002A800266E2550C521276E170E2624D96E000EFE
:1002B8002720DA6EFDCFDFFF20EE26F0C451D926C5
:1002C800C551DA22DF50236E2350030DF3CF24F0FB
:1002D800F4CF25F02450C425266E2550C521276E5D
:1002E800180E2624D96E000E2720DA6EFECFDFFF07
:1002F80020EE26F0C451D926C551DA22DF50236EEC
:100308002350030DF3CF24F0F4CF25F02450C42557
:10031800266E2550C521276E190E2624D96E000E8B
:100328002720DA6EFFCFDFFF20EE26F0C451D92652
:10033800C551DA22DF2A0600FC50D8A4A6EF01F046
:10034800A8EF01F043EF01F0A3EC19F0020120EE51
:1003580001F0C451D926C551DA22DF50D8A4B7EF2D
:1003680001F0B9EF01F006EF03F020EE01F0C451FF
:10037800D926C551DA22020EDF6E20EE08F0C451EC
:10038800D926C551DA22DF50E06E20EE0CF0C451B8
:10039800D926C551DA22DF50EA6E20EE0BF0C4519F
:1003A800D926C551DA22DF50E96E20EE0EF0C4518D
:1003B800D926C551DA22DF50E26E20EE0DF0C45185
:1003C800D926C551DA22DF50E16E20EE10F0C45173
:1003D800D926C551DA22DF50DA6E20EE0FF0C4516B
:1003E800D926C551DA22DF50D96E20EE15F0C45156
:1003F800D926C551DA22DF50FA6E20EE16F0C45124
:10040800D926C551DA22DF50FB6E20EE0AF0C4511E
:10041800D926C551DA22DF50F46E20EE09F0C45116
:10042800D926C551DA22DF50F36E20EE11F0C451FF
:10043800D926C551DA22DF50F56E20EE13F0C451EB
:10044800D926C551DA22DF50F76E20EE12F0C451DA
:10045800D926C551DA22DF50F66E20EE14F0C451C9
:10046800D926C551DA22DF50F86E20EE07F0C451C4
:10047800D926C551DA22DF50D86E20EE06F0C451D5
:10048800D926C551DA22DF50236E2350FC6A20EEAC
:1004980026F0C451D926C551DA22DF50D8B457EF17
:1004A80002F059EF02F0C6EF02F00500020120EE5B
:1004B80026F0C451D926C551DA22DF0620EE26F0EF
:1004C800C451D926C551DA22DF50236E2350030DBB
:1004D800F3CF24F0F4CF25F02450C425266E255000
:1004E800C521276E170E2624D96E000E2720DA6E36
:1004F800DF50FD6E20EE26F0C451D926C551DA2210
:10050800DF50236E2350030DF3CF24F0F4CF25F0F2
:100518002450C425266E2550C521276E180E262482
:10052800D96E000E2720DA6EDF50FE6E20EE26F020
:10053800C451D926C551DA22DF50236E2350030D4A
:10054800F3CF24F0F4CF25F02450C425266E25508F
:10055800C521276E190E2624D96E000E2720DA6EC3
:10056800DF50FF6E20EE26F0C451D926C551DA229D
:10057800DF50D8A4C2EF02F0C4EF02F059EF02F046
:1005880004EF03F00500020120EE02F0C451D92661
:10059800C551DA22DF50FD6E20EE02F0C451D92693
:1005A800C551DA22DECF23F0DDCF24F023C025F0B9
:1005B80024C026F0276A26C025F027C026F0276A1F
:1005C8002550FE6E100E236E20EE02F0C451D9267F
:1005D800C551DA22DECF24F0DDCF25F024C026F085
:1005E80025C027F0286A2328296EFFEF02F0D8904B
:1005F800283227322632292EFBEF02F02650FF6ED2
:10060800050E346E2FC0F4FF2EC0F3FF2DC0DAFFA5
:100618002CC0D9FF2BC0FBFF2AC0FAFF01921100A2
:0406280095EF17F043
:101000000000F29E00019551D96EDA6ADF50D8A433
:101010000CEF08F00EEF08F01DEF08F09551D96EB7
:10102000DA6A010EDF6E9551D96EDA6A010ED926A1
:10103000C6C2DFFFF28EE8EF0AF09551D96EDA6A88
:10104000060ED926040EDF6028EF08F02AEF08F01C
:10105000E7EF0AF09551D96EDA6A070ED926DF500C
:10106000966F95519625D96EDA6A020ED926C6C2B8
:10107000DFFF9551D96EDA6A070ED9269551E16ED8
:10108000E26A070EE126E750966F9629030BDF6EA2
:101090009551D96EDA6A060ED926DF2A020120EEB2
:1010A00001F0C451D926C551DA22020EDE18D8A4A7
:1010B0005CEF08F05EEF08F06EEF09F020EE01F053
:1010C000C451D926C551DA22040EDF6E20EE08F095
:1010D000C451D926C551DA22E0CFDFFF20EE0CF053
:1010E000C451D926C551DA22EACFDFFF20EE0BF03A
:1010F000C451D926C551DA22E9CFDFFF20EE0EF028
:10110000C451D926C551DA22E2CFDFFF20EE0DF01F
:10111000C451D926C551DA22E1CFDFFF20EE10F00D
:10112000C451D926C551DA22DACFDFFF20EE0FF005
:10113000C451D926C551DA22D9CFDFFF20EE15F0F0
:10114000C451D926C551DA22FACFDFFF20EE16F0BE
:10115000C451D926C551DA22FBCFDFFF20EE0AF0B9
:10116000C451D926C551DA22F4CFDFFF20EE09F0B1
:10117000C451D926C551DA22F3CFDFFF20EE11F09A
:10118000C451D926C551DA22F5CFDFFF20EE13F086
:10119000C451D926C551DA22F7CFDFFF20EE12F075
:1011A000C451D926C551DA22F6CFDFFF20EE14F064
:1011B000C451D926C551DA22F8CFDFFF20EE06F060
:1011C000C451D926C551DA22E8CFDFFF20EE07F05F
:1011D000C451D926C551DA22D8CFDFFF20EE26F040
:1011E000C451D926C551DA22DF6A66EF09F002013F
:1011F00020EE26F0C451D926C551DA22DF50000175
:10120000966F9651030DF3CF97F0F4CF98F0975166
:101210000201C4250001996F98510201C521000106
:101220009A6F170E9925D96E000E9A21DA6EFDCFAE
:10123000DFFF020120EE26F0C451D926C551DA2283
:10124000DF500001966F9651030DF3CF97F0F4CF66
:1012500098F097510201C4250001996F985102013D
:10126000C52100019A6F180E9925D96E000E9A219A
:10127000DA6EFECFDFFF020120EE26F0C451D92640
:10128000C551DA22DF500001966F9651030DF3CF5E
:1012900097F0F4CF98F097510201C4250001996F9F
:1012A00098510201C52100019A6F190E9925D96E36
:1012B000000E9A21DA6EFFCFDFFF020120EE26F04A
:1012C000C451D926C551DA22DF2A0600FC50D8A421
:1012D0006CEF09F06EEF09F0F7EF08F096EC19F0FB
:1012E000020120EE01F0C451D926C551DA22DF50A7
:1012F000D8A47DEF09F07FEF09F0E4EF0AF020EECB
:1013000001F0C451D926C551DA22020EDF6E20EE5B
:1013100008F0C451D926C551DA22DF50E06E20EE24
:101320000CF0C451D926C551DA22DF50EA6E20EE06
:101330000BF0C451D926C551DA22DF50E96E20EEF8
:101340000EF0C451D926C551DA22DF50E26E20EEEC
:101350000DF0C451D926C551DA22DF50E16E20EEDE
:1013600010F0C451D926C551DA22DF50DA6E20EED2
:101370000FF0C451D926C551DA22DF50D96E20EEC4
:1013800015F0C451D926C551DA22DF50FA6E20EE8D
:1013900016F0C451D926C551DA22DF50FB6E20EE7B
:1013A0000AF0C451D926C551DA22DF50F46E20EE7E
:1013B00009F0C451D926C551DA22DF50F36E20EE70
:1013C00011F0C451D926C551DA22DF50F56E20EE56
:1013D00013F0C451D926C551DA22DF50F76E20EE42
:1013E00012F0C451D926C551DA22DF50F66E20EE34
:1013F00014F0C451D926C551DA22DF50F86E20EE20
:1014000007F0C451D926C551DA22DF50D86E20EE3C
:1014100006F0C451D926C551DA22DF500001966F7B
:101420009651FC6A020120EE26F0C451D926C5511E
:10143000DA22DF50D8B41FEF0AF021EF0AF0A0EF54
:101440000AF00500020120EE26F0C451D926C5514C
:10145000DA22DF0620EE26F0C451D926C551DA2261
:10146000DF500001966F9651030DF3CF97F0F4CF44
:1014700098F097510201C4250001996F985102011B
:10148000C52100019A6F170E9925D96E000E9A2179
:10149000DA6EDF50FD6E020120EE26F0C451D9262F
:1014A000C551DA22DF500001966F9651030DF3CF3C
:1014B00097F0F4CF98F097510201C4250001996F7D
:1014C00098510201C52100019A6F180E9925D96E15
:1014D000000E9A21DA6EDF50FE6E020120EE26F039
:1014E000C451D926C551DA22DF500001966F9651BA
:1014F000030DF3CF97F0F4CF98F097510201C42574
:101500000001996F98510201C52100019A6F190ECF
:101510009925D96E000E9A21DA6EDF50FF6E020116
:1015200020EE26F0C451D926C551DA22DF50D8A4C6
:101530009CEF0AF09EEF0AF021EF0AF0E2EF0AF0CA
:101540000500020120EE02F0C451D926C551DA226D
:10155000DF50FD6E20EE02F0C451D926C551DA22CB
:10156000DECF96F0DDCF97F096C098F097C099F057
:1015700000019A6B99C098F09AC099F09A6B9851B3
:10158000FE6E100E966F020120EE02F0C451D926B5
:10159000C551DA22DECF97F0DDCF98F097C099F0F1
:1015A00098C09AF000019B6B96299C6FDCEF0AF0C3
:1015B000D8909B339A3399339C2FD8EF0AF00001CF
:1015C0009951FF6E050E346EF28EE8EF0AF0F28E3E
:1015D0001200F29E01015D51D96EDA6ADE06000E3C
:1015E000DD5A5D51D96EDA6A010EDBBEFCEF0AF0FE
:1015F000FAEF0AF0B0EF0DF05D51D96EDA6A060E1F
:10160000D926DF505E6F5D515E25D96EDA6A020E13
:10161000D926C6C2DFFF5D51D96EDA6A060ED92619
:101620005D51E16EE26A060EE126E7505E6F5E29CB
:10163000030BDF6E020120EE01F0C451D926C55123
:10164000DA22020EDE18D8A428EF0BF02AEF0BF0F6
:101650003AEF0CF020EE01F0C451D926C551DA2240
:10166000030EDF6E20EE08F0C451D926C551DA22F0
:10167000E0CFDFFF20EE0CF0C451D926C551DA22AD
:10168000EACFDFFF20EE0BF0C451D926C551DA2294
:10169000E9CFDFFF20EE0EF0C451D926C551DA2282
:1016A000E2CFDFFF20EE0DF0C451D926C551DA227A
:1016B000E1CFDFFF20EE10F0C451D926C551DA2268
:1016C000DACFDFFF20EE0FF0C451D926C551DA2260
:1016D000D9CFDFFF20EE15F0C451D926C551DA224B
:1016E000FACFDFFF20EE16F0C451D926C551DA2219
:1016F000FBCFDFFF20EE0AF0C451D926C551DA2214
:10170000F4CFDFFF20EE09F0C451D926C551DA220B
:10171000F3CFDFFF20EE11F0C451D926C551DA22F4
:10172000F5CFDFFF20EE13F0C451D926C551DA22E0
:10173000F7CFDFFF20EE12F0C451D926C551DA22CF
:10174000F6CFDFFF20EE14F0C451D926C551DA22BE
:10175000F8CFDFFF20EE06F0C451D926C551DA22BA
:10176000E8CFDFFF20EE07F0C451D926C551DA22B9
:10177000D8CFDFFF20EE26F0C451D926C551DA229A
:10178000DF6A32EF0CF0020120EE26F0C451D926B8
:10179000C551DA22DF5001015E6F5E51030DF3CFB8
:1017A0005FF1F4CF60F15F510201C4250101616F67
:1017B00060510201C5210101626F170E6125D96ECA
:1017C000000E6221DA6EFDCFDFFF020120EE26F06F
:1017D000C451D926C551DA22DF5001015E6F5E5136
:1017E000030DF3CF5FF1F4CF60F15F510201C42527
:1017F0000101616F60510201C5210101626F180E84
:101800006125D96E000E6221DA6EFECFDFFF020184
:1018100020EE26F0C451D926C551DA22DF5001014D
:101820005E6F5E51030DF3CF5FF1F4CF60F15F5156
:101830000201C4250101616F60510201C52101014E
:10184000626F190E6125D96E000E6221DA6EFFCF2C
:10185000DFFF020120EE26F0C451D926C551DA225D
:10186000DF2A0600FC50D8A438EF0CF03AEF0CF059
:10187000C3EF0BF096EC19F0020120EE01F0C45119
:10188000D926C551DA22DF50D8A449EF0CF04BEF2E
:101890000CF0B0EF0DF020EE01F0C451D926C55187
:1018A000DA22020EDF6E20EE08F0C451D926C551AF
:1018B000DA22DF50E06E20EE0CF0C451D926C5517B
:1018C000DA22DF50EA6E20EE0BF0C451D926C55162
:1018D000DA22DF50E96E20EE0EF0C451D926C55150
:1018E000DA22DF50E26E20EE0DF0C451D926C55148
:1018F000DA22DF50E16E20EE10F0C451D926C55136
:10190000DA22DF50DA6E20EE0FF0C451D926C5512D
:10191000DA22DF50D96E20EE15F0C451D926C55118
:10192000DA22DF50FA6E20EE16F0C451D926C551E6
:10193000DA22DF50FB6E20EE0AF0C451D926C551E1
:10194000DA22DF50F46E20EE09F0C451D926C551D9
:10195000DA22DF50F36E20EE11F0C451D926C551C2
:10196000DA22DF50F56E20EE13F0C451D926C551AE
:10197000DA22DF50F76E20EE12F0C451D926C5519D
:10198000DA22DF50F66E20EE14F0C451D926C5518C
:10199000DA22DF50F86E20EE07F0C451D926C55187
:1019A000DA22DF50D86E20EE06F0C451D926C55198
:1019B000DA22DF5001015E6F5E51FC6A020120EE07
:1019C00026F0C451D926C551DA22DF50D8B4EBEF46
:1019D0000CF0EDEF0CF06CEF0DF00500020120EEC5
:1019E00026F0C451D926C551DA22DF0620EE26F0B2
:1019F000C451D926C551DA22DF5001015E6F5E5114
:101A0000030DF3CF5FF1F4CF60F15F510201C42504
:101A10000101616F60510201C5210101626F170E62
:101A20006125D96E000E6221DA6EDF50FD6E020173
:101A300020EE26F0C451D926C551DA22DF5001012B
:101A40005E6F5E51030DF3CF5FF1F4CF60F15F5134
:101A50000201C4250101616F60510201C52101012C
:101A6000626F180E6125D96E000E6221DA6EDF50AA
:101A7000FE6E020120EE26F0C451D926C551DA22AD
:101A8000DF5001015E6F5E51030DF3CF5FF1F4CFC4
:101A900060F15F510201C4250101616F60510201D3
:101AA000C5210101626F190E6125D96E000E6221F8
:101AB000DA6EDF50FF6E020120EE26F0C451D92607
:101AC000C551DA22DF50D8A468EF0DF06AEF0DF0AF
:101AD000EDEF0CF0AEEF0DF00500020120EE02F08C
:101AE000C451D926C551DA22DF50FD6E20EE02F036
:101AF000C451D926C551DA22DECF5EF1DDCF5FF1C8
:101B00005EC160F15FC161F10101626B61C160F1B1
:101B100062C161F1626B6051FE6E100E5E6F020178
:101B200020EE02F0C451D926C551DA22DECF5FF192
:101B3000DDCF60F15FC161F160C162F10101636BF2
:101B40005E29646FA8EF0DF0D89063336233613380
:101B5000642FA4EF0DF001016151FF6E050E346E8C
:101B6000F28E120000018F6FF29E000186518711E4
:101B7000D8A4BDEF0DF0BFEF0DF057EF10F002014C
:101B800020EE01F0C451D926C551DA22020EDE182A
:101B9000D8A4CDEF0DF0CFEF0DF0DFEF0EF020EE7B
:101BA00001F0C451D926C551DA228FC0DFFF20EEE3
:101BB00008F0C451D926C551DA22E0CFDFFF20EE6C
:101BC0000CF0C451D926C551DA22EACFDFFF20EE4E
:101BD0000BF0C451D926C551DA22E9CFDFFF20EE40
:101BE0000EF0C451D926C551DA22E2CFDFFF20EE34
:101BF0000DF0C451D926C551DA22E1CFDFFF20EE26
:101C000010F0C451D926C551DA22DACFDFFF20EE19
:101C10000FF0C451D926C551DA22D9CFDFFF20EE0B
:101C200015F0C451D926C551DA22FACFDFFF20EED4
:101C300016F0C451D926C551DA22FBCFDFFF20EEC2
:101C40000AF0C451D926C551DA22F4CFDFFF20EEC5
:101C500009F0C451D926C551DA22F3CFDFFF20EEB7
:101C600011F0C451D926C551DA22F5CFDFFF20EE9D
:101C700013F0C451D926C551DA22F7CFDFFF20EE89
:101C800012F0C451D926C551DA22F6CFDFFF20EE7B
:101C900014F0C451D926C551DA22F8CFDFFF20EE67
:101CA00006F0C451D926C551DA22E8CFDFFF20EE75
:101CB00007F0C451D926C551DA22D8CFDFFF20EE74
:101CC00026F0C451D926C551DA22DF6AD7EF0EF0CB
:101CD000020120EE26F0C451D926C551DA22DF5088
:101CE0000001886F8851030DF3CF89F0F4CF8AF09B
:101CF00089510201C42500018B6F8A510201C5215F
:101D000000018C6F170E8B25D96E000E8C21DA6EB8
:101D1000FDCFDFFF020120EE26F0C451D926C551C8
:101D2000DA22DF500001886F8851030DF3CF89F06C
:101D3000F4CF8AF089510201C42500018B6F8A51CA
:101D40000201C52100018C6F180E8B25D96E000E83
:101D50008C21DA6EFECFDFFF020120EE26F0C451A7
:101D6000D926C551DA22DF500001886F8851030D52
:101D7000F3CF89F0F4CF8AF089510201C425000124
:101D80008B6F8A510201C52100018C6F190E8B25C2
:101D9000D96E000E8C21DA6EFFCFDFFF020120EE3C
:101DA00026F0C451D926C551DA22DF2A0600FC509C
:101DB000D8A4DDEF0EF0DFEF0EF068EF0EF096EC3A
:101DC00019F0020120EE01F0C451D926C551DA22E2
:101DD000DF50D8A4EEEF0EF0F0EF0EF05FEF10F052
:101DE00020EE01F0C451D926C551DA22020EDF6E71
:101DF00020EE08F0C451D926C551DA22DF50E06E3A
:101E000020EE0CF0C451D926C551DA22DF50EA6E1B
:101E100020EE0BF0C451D926C551DA22DF50E96E0D
:101E200020EE0EF0C451D926C551DA22DF50E26E01
:101E300020EE0DF0C451D926C551DA22DF50E16EF3
:101E400020EE10F0C451D926C551DA22DF50DA6EE7
:101E500020EE0FF0C451D926C551DA22DF50D96ED9
:101E600020EE15F0C451D926C551DA22DF50FA6EA2
:101E700020EE16F0C451D926C551DA22DF50FB6E90
:101E800020EE0AF0C451D926C551DA22DF50F46E93
:101E900020EE09F0C451D926C551DA22DF50F36E85
:101EA00020EE11F0C451D926C551DA22DF50F56E6B
:101EB00020EE13F0C451D926C551DA22DF50F76E57
:101EC00020EE12F0C451D926C551DA22DF50F66E49
:101ED00020EE14F0C451D926C551DA22DF50F86E35
:101EE00020EE07F0C451D926C551DA22DF50D86E52
:101EF00020EE06F0C451D926C551DA22DF50000188
:101F0000886F8851FC6A020120EE26F0C451D92660
:101F1000C551DA22DF50D8B490EF0FF092EF0FF0F6
:101F200011EF10F00500020120EE26F0C451D92671
:101F3000C551DA22DF0620EE26F0C451D926C5515C
:101F4000DA22DF500001886F8851030DF3CF89F04A
:101F5000F4CF8AF089510201C42500018B6F8A51A8
:101F60000201C52100018C6F170E8B25D96E000E62
:101F70008C21DA6EDF50FD6E020120EE26F0C45196
:101F8000D926C551DA22DF500001886F8851030D30
:101F9000F3CF89F0F4CF8AF089510201C425000102
:101FA0008B6F8A510201C52100018C6F180E8B25A1
:101FB000D96E000E8C21DA6EDF50FE6E020120EE2B
:101FC00026F0C451D926C551DA22DF500001886FAE
:101FD0008851030DF3CF89F0F4CF8AF089510201C3
:101FE000C42500018B6F8A510201C52100018C6F4D
:101FF000190E8B25D96E000E8C21DA6EDF50FF6E24
:10200000020120EE26F0C451D926C551DA22DF5054
:10201000D8A40DEF10F00FEF10F092EF0FF053EF88
:1020200010F00500020120EE02F0C451D926C5517E
:10203000DA22DF50FD6E20EE02F0C451D926C551E0
:10204000DA22DECF88F0DDCF89F088C08AF089C03F
:102050008BF000018C6B8BC08AF08CC08BF08C6B8A
:102060008A51FE6E100E886F020120EE02F0C451FC
:10207000D926C551DA22DECF89F0DDCF8AF089C0BA
:102080008BF08AC08CF000018D6B88298E6F4DEF2C
:1020900010F0D8908D338C338B338E2F49EF10F0A6
:1020A00000018B51FF6E050E346E5FEF10F020EED5
:1020B00001F08651D9268751DA228FC0DFFFF28ED8
:1020C0001200B0EC19F089EC19F0020120EE01F0D9
:1020D000C451D926C551DA22DF50D8A472EF10F0CE
:1020E00074EF10F0D9EF11F020EE01F0C451D926B1
:1020F000C551DA22020EDF6E20EE08F0C451D92657
:10210000C551DA22DF50E06E20EE0CF0C451D92622
:10211000C551DA22DF50EA6E20EE0BF0C451D92609
:10212000C551DA22DF50E96E20EE0EF0C451D926F7
:10213000C551DA22DF50E26E20EE0DF0C451D926EF
:10214000C551DA22DF50E16E20EE10F0C451D926DD
:10215000C551DA22DF50DA6E20EE0FF0C451D926D5
:10216000C551DA22DF50D96E20EE15F0C451D926C0
:10217000C551DA22DF50FA6E20EE16F0C451D9268E
:10218000C551DA22DF50FB6E20EE0AF0C451D92689
:10219000C551DA22DF50F46E20EE09F0C451D92681
:1021A000C551DA22DF50F36E20EE11F0C451D9266A
:1021B000C551DA22DF50F56E20EE13F0C451D92656
:1021C000C551DA22DF50F76E20EE12F0C451D92645
:1021D000C551DA22DF50F66E20EE14F0C451D92634
:1021E000C551DA22DF50F86E20EE07F0C451D9262F
:1021F000C551DA22DF50D86E20EE06F0C451D92640
:10220000C551DA22DF500101726F7251FC6A02017E
:1022100020EE26F0C451D926C551DA22DF50D8B4B9
:1022200014EF11F016EF11F095EF11F00500020117
:1022300020EE26F0C451D926C551DA22DF0620EE61
:1022400026F0C451D926C551DA22DF500101726F40
:102250007251030DF3CF73F1F4CF74F17351020196
:10226000C4250101756F74510201C5210101766F0A
:10227000170E7525D96E000E7621DA6EDF50FD6ED1
:10228000020120EE26F0C451D926C551DA22DF50D2
:102290000101726F7251030DF3CF73F1F4CF74F13A
:1022A00073510201C4250101756F74510201C521EA
:1022B0000101766F180E7525D96E000E7621DA6E43
:1022C000DF50FE6E020120EE26F0C451D926C55122
:1022D000DA22DF500101726F7251030DF3CF73F1F7
:1022E000F4CF74F173510201C4250101756F74516B
:1022F0000201C5210101766F190E7525D96E000EF8
:102300007621DA6EDF50FF6E020120EE26F0C45116
:10231000D926C551DA22DF50D8A491EF11F093EFFE
:1023200011F016EF11F0D7EF11F00500020120EEC9
:1023300002F0C451D926C551DA22DF50FD6E20EEDD
:1023400002F0C451D926C551DA22DECF72F1DDCFB9
:1023500073F172C174F173C175F10101766B75C1CE
:1023600074F176C175F1766B7451FE6E100E726F5A
:10237000020120EE02F0C451D926C551DA22DECF87
:1023800073F1DDCF74F173C175F174C176F10101A0
:10239000776B7229786FD1EF11F0D890773376335D
:1023A0007533782FCDEF11F001017551FF6E050ED9
:1023B000346EF28E1200076A046A1FEF12F00450A6
:1023C000270D010EF324D96E020EF420DA6EDF50D1
:1023D000D8A4EDEF11F0EFEF11F01EEF12F0045062
:1023E000270D020EF324D96E020EF420DA6E820E4F
:1023F000DE1809E1320EDE18D8B401EF12F003EF57
:1024000012F01EEF12F00450270D050EF324D96EC2
:10241000020EF420DA6EDE50075CD8B012EF12F034
:1024200014EF12F01EEF12F00450270D050EF324E6
:10243000D96E020EF420DA6EDF50076E042A020114
:10244000C351045CD8A027EF12F029EF12F0DFEFA0
:1024500011F0C6C206F0056A010E062401016A6F7A
:102460006B6B000E6B23C3C26CF16D6BD6EC15F079
:1024700001016A51066E052A0201C351055CD8A00C
:1024800044EF12F046EF12F08EEF12F0046A82EF82
:1024900012F00450270D010EF324D96E020EF42021
:1024A000DA6EDF50D8A457EF12F059EF12F081EF37
:1024B00012F00450270D050EF324D96E020EF420FD
:1024C000DA6E0750DE18D8A468EF12F06AEF12F047
:1024D00081EF12F00450270D020EF324D96E020E84
:1024E000F420DA6E820EDE1809E1320EDE18D8B45E
:1024F0007CEF12F07EEF12F081EF12F00450C4EF87
:1025000012F0042AC351045CD8A089EF12F08BEFBB
:1025100012F049EF12F0000EC4EF12F00650270D32
:10252000010EF324D96E020EF420DA6EDF50D8A427
:102530009CEF12F09EEF12F02CEF12F00650270DD8
:10254000050EF324D96E020EF420DA6E0750DE1861
:10255000D8A4ADEF12F0AFEF12F02CEF12F006504E
:10256000270D020EF324D96E020EF420DA6E820ECD
:10257000DE1809E1320EDE18D8B4C1EF12F0C3EF55
:1025800012F02CEF12F006501200076A046A09EFED
:1025900013F00450270D010EF324D96E020EF4201F
:1025A000DA6EDF50D8A4D7EF12F0D9EF12F008EFAF
:1025B00013F00450270D020EF324D96E020EF420FE
:1025C000DA6E820EDE1809E1320EDE18D8B4EBEFB7
:1025D00012F0EDEF12F008EF13F00450270D050E86
:1025E000F324D96E020EF420DA6EDE50075CD8B008
:1025F000FCEF12F0FEEF12F008EF13F00450270D7D
:10260000050EF324D96E020EF420DA6EDF50076E49
:10261000042A0201C351045CD8A011EF13F013EF98
:1026200013F0C9EF12F0C6C206F0056A010E0624C7
:102630000101576F586B000E5823C3C259F15A6BF2
:1026400074EC15F001015751066E052A0201C351C1
:10265000055CD8A02EEF13F030EF13F078EF13F0F5
:10266000046A6CEF13F00450270D010EF324D96EA9
:10267000020EF420DA6EDF50D8A441EF13F043EFDE
:1026800013F06BEF13F00450270D050EF324D96EF1
:10269000020EF420DA6E0750DE18D8A452EF13F0C1
:1026A00054EF13F06BEF13F00450270D020EF324D8
:1026B000D96E020EF420DA6E820EDE1809E1320EB7
:1026C000DE18D8B466EF13F068EF13F06BEF13F079
:1026D0000450AEEF13F0042AC351045CD8A073EF8A
:1026E00013F075EF13F033EF13F0000EAEEF13F0AD
:1026F0000650270D010EF324D96E020EF420DA6E77
:10270000DF50D8A486EF13F088EF13F016EF13F024
:102710000650270D050EF324D96E020EF420DA6E52
:102720000750DE18D8A497EF13F099EF13F016EFC7
:1027300013F00650270D020EF324D96E020EF4207A
:10274000DA6E820EDE1809E1320EDE18D8B4ABEF75
:1027500013F0ADEF13F016EF13F006501200076AF6
:10276000046AF3EF13F00450270D010EF324D96E21
:10277000020EF420DA6EDF50D8A4C1EF13F0C3EFDD
:1027800013F0F2EF13F00450270D020EF324D96E6C
:10279000020EF420DA6E820EDE1809E1320EDE1827
:1027A000D8B4D5EF13F0D7EF13F0F2EF13F00450D5
:1027B000270D050EF324D96E020EF420DA6EDE50DA
:1027C000075CD8B0E6EF13F0E8EF13F0F2EF13F088
:1027D0000450270D050EF324D96E020EF420DA6E94
:1027E000DF50076E042A0201C351045CD8A0FBEF3E
:1027F00013F0FDEF13F0B3EF13F0C6C206F0056A55
:10280000010E06241B6E1C6A000E1C22C3C21DF0A2
:102810001E6A2EEC16F01B50066E052A0201C351EB
:10282000055CD8A016EF14F018EF14F060EF14F068
:10283000046A54EF14F00450270D010EF324D96EEE
:10284000020EF420DA6EDF50D8A429EF14F02BEF3B
:1028500014F053EF14F00450270D050EF324D96E35
:10286000020EF420DA6E0750DE18D8A43AEF14F006
:102870003CEF14F053EF14F00450270D020EF32434
:10288000D96E020EF420DA6E820EDE1809E1320EE5
:10289000DE18D8B44EEF14F050EF14F053EF14F0EC
:1028A000045096EF14F0042AC351045CD8A05BEFE7
:1028B00014F05DEF14F01BEF14F0000E96EF14F01F
:1028C0000650270D010EF324D96E020EF420DA6EA5
:1028D000DF50D8A46EEF14F070EF14F000EF14F096
:1028E0000650270D050EF324D96E020EF420DA6E81
:1028F0000750DE18D8A47FEF14F081EF14F000EF3A
:1029000014F00650270D020EF324D96E020EF420A7
:10291000DA6E820EDE1809E1320EDE18D8B493EFBB
:1029200014F095EF14F000EF14F006501200096A4D
:10293000C0EF14F00950270D000EF324D96E020EDB
:10294000F420DA6E030EDE18D8A4A9EF14F0ABEF72
:1029500014F0BFEF14F00950270D260EF324D96EA2
:10296000020EF420DA6EDF6A0950270D010EF324FF
:10297000D96E020EF420DA6EDF6A0EEF15F0092A26
:102980000201C351095CD8A0C8EF14F0CAEF14F0DB
:102990009AEF14F0050EC361D0EF14F0D2EF14F0EB
:1029A0000EEF15F0C351270D000EF324D96E020E61
:1029B000F420DA6E030EDF6EC351270D040EF324EC
:1029C000D96E020EF420DA6EDF6AC351270D050EB0
:1029D000F324D96E020EF420DA6E020EDF6EC351BC
:1029E000270D020EF324D96E020EF420DA6E9A0E31
:1029F000DE6E2D0EDD6EC351270D010EF324D96E50
:102A0000020EF420DA6EDF6AC351270D260EF3247E
:102A1000D96E020EF420DA6EDF6AC32B1200F29E2A
:102A200000019351D96EDA6A010ED9260201C6510E
:102A3000DE18D8B41EEF15F020EF15F023EF15F0D7
:102A4000F28E73EF15F000019351D96EDA6A060E1B
:102A5000D926DF50D8B42FEF15F031EF15F067EF1E
:102A600015F09351D96EDA6A080ED926DF50946FAB
:102A700093519425D96EDA6A020ED926DF50956FEC
:102A80009351D96EDA6A080ED9269351E16EE26A43
:102A9000080EE126E750946F9429030BDF6E9351E3
:102AA000D96EDA6A060ED926DF069551270D010E7A
:102AB000F324D96E020EF420DA6EDF6A9351D96ED8
:102AC000DA6A010ED92695C0DFFF72EF15F0935137
:102AD000D96EDA6ADF6A9351D96EDA6A010ED926A5
:102AE000FF0EDF6EF28E12000001A26B010158BFD3
:102AF0007EEF15F07CEF15F085EF15F0576D581F40
:102B0000D8B0582B010E0001A26F01015ABF8DEF02
:102B100015F08BEF15F091EF15F0596D5A1FD8B0E5
:102B20005A2B59515A11D8B498EF15F09AEF15F065
:102B3000C3EF15F0010E0001A16FA4EF15F0D890BE
:102B400059375A370001A12B01015AAFAAEF15F0EE
:102B5000ACEF15F09FEF15F001015951575D5A5137
:102B60005859D8A0B6EF15F0B8EF15F0BCEF15F036
:102B70005951575F5A51585BD8905A335933000115
:102B8000A12FACEF15F00001A251D8B4CAEF15F097
:102B9000CCEF15F0D1EF15F00101576D581FD8B0EB
:102BA000582B57C157F158C158F1120001016F6BF2
:102BB0006BBFDFEF15F0DDEF15F0E5EF15F06A6D97
:102BC0006B1FD8B06B2B010E6F6F6DBFECEF15F064
:102BD000EAEF15F0F0EF15F06C6D6D1FD8B06D2BAE
:102BE0006C516D11D8B4F7EF15F0F9EF15F01DEF3A
:102BF00016F0010E6E6F01EF16F0D8906C376D373E
:102C00006E2B6DAF06EF16F008EF16F0FDEF15F026
:102C10006C516A5D6D516B59D8A011EF16F013EF2E
:102C200016F017EF16F06C516A5F6D516B5BD89020
:102C30006D336C336E2F08EF16F06F51D8B423EF5D
:102C400016F025EF16F029EF16F06A6D6B1FD8B05D
:102C50006B2B6AC16AF16BC16BF11200206A1CBE5A
:102C600036EF16F034EF16F03CEF16F01B6C1C1E1E
:102C7000D8B01C2A010E206E1EBE43EF16F041EFA5
:102C800016F047EF16F01D6C1E1ED8B01E2A1D5000
:102C90001E10D8B44EEF16F050EF16F074EF16F089
:102CA000010E1F6E58EF16F0D8901D361E361F2AE3
:102CB0001EAE5DEF16F05FEF16F054EF16F01D50EC
:102CC0001B5C1E501C58D8A068EF16F06AEF16F077
:102CD0006EEF16F01D501B5E1E501C5AD8901E320F
:102CE0001D321F2E5FEF16F02050D8B47AEF16F089
:102CF0007CEF16F080EF16F01B6C1C1ED8B01C2A5F
:102D00001BC01BF01CC01CF01200F29E01015751A9
:102D1000D96EDA6ADE2A000EDD225751D96EDA6AE0
:102D2000010EDBBE9FEF16F0010EDB5006E1DE0464
:102D3000D8B09DEF16F09FEF16F0CBEF16F057517D
:102D4000D96EDA6A070ED926DF500001A16F0101A2
:102D500057510001A125D96EDA6A020ED926DF503B
:102D6000A26FA251270D010EF324D96E020EF4209A
:102D7000DA6EDF6A01015751D96EDA6A070ED92679
:102D80005751E16EE26A070EE126E7500001A16F9C
:102D9000A129030BDF6EF28E12000A0E0001956F5F
:102DA00001EC08F068EC19F093C091F094C092F037
:102DB0000A0E0001936F0FEC15F000019105020E51
:102DC0009259D8B0E6EF16F0EAEF16F0906B902B20
:102DD000ECEF16F00001906B9047904790478B50B6
:102DE0009019F70B90198B6E130E0101576F85EC3C
:102DF00016F0000E0001866F000E876F010EB2EC18
:102E00000DF01200040E0101585DD8A00AEF17F072
:102E10000CEF17F00FEF17F0030E586F576957516B
:102E20005811D8A416EF17F018EF17F01DEF17F090
:102E3000BD6A94948B9436EF17F00C0EBD6E57C19B
:102E4000A1F058C1A2F00001D890A233A133D890CC
:102E5000A233A133A151BE6E57C1A1F0030EA11739
:102E6000A13BBD50A119CF0BA119BD6E12000101EC
:102E70006D6F6DC16EF10101726B6CC173F16AC14E
:102E800070F16BC171F16F6B766B7A6B796B7C6BE8
:102E90007B6B7E6B7D6B836B846B786B776B756BF9
:102EA0007F6B816B806B826B746B946B21EE6EF029
:102EB0000201C351270D000EF324E16E020EF4202F
:102EC000E26E260EDBCFE3FFE806FCE2C32B120026
:102ED000010165510E0F5D6FE9EC0AF001016551CA
:102EE000D96EDA6A050ED926DF50686F65516825FC
:102EF000D96EDA6A66C1E1FF67C1E2FFDFCFE7FFA3
:102F00006551D96EDA6A050ED9266551E16EE26A1D
:102F1000050EE126E750686F6829030BDF6E6551E7
:102F2000060F576F85EC16F012008A0EF66E330E00
:102F3000F76E000EF86E0900F5CF34F002EEC7F020
:102F400012EE00F0EE6AE550E150FCE1E250FAE1E9
:102F500002EE00F0C70EEE6AE806FDE100EEA3F017
:102F6000160EEE6AE806FDE100EE02F0190EEE6ABA
:102F7000E806FDE101900192000EF86E000143EFBA
:102F800018F0130E01015D6FE9EC0AF0086A050EF6
:102F90000864CDEF17F0CFEF17F0D1EF17F0E9EF9E
:102FA00017F08B78036A000E026E400E025C9C0ED6
:102FB0000358D8A0DEEF17F0E0EF17F0E2EF17F0BC
:102FC000E6EF17F0024A032AD5EF17F0082AC7EFF9
:102FD00017F08B98C1EF17F0120094948B9494968D
:102FE0008B9694988B9855EC19F0C3EC19F0630EFE
:102FF00079EC19F0BCEC19F00A0E01016A6FADEC26
:1030000018F0A30E01016E6FCCEC18F0130E010145
:103010006A6F000E6B6FE9EC18F02E0E01016A6FFB
:10302000290E6B6F000E8DEC18F0C0EC19F0120039
:1030300000019551060F01015D6FE9EC0AF00001F6
:103040009551D96EDA6A040ED926DF50976F9551E3
:103050009725D96EDA6A96C0DFFF9551D96EDA6A84
:10306000040ED9269551E16EE26A040EE126E7507E
:10307000976F9729030BDF6E95510E0F0101576F64
:1030800085EC16F012002DEC19F0820E01016A6F2A
:103090002F0E6B6F020E6C6F020E37EC17F0D20E14
:1030A00001016A6F300E6B6F020E6C6F040E37EC0D
:1030B00017F0300E01016A6F320E6B6F020E6C6FEB
:1030C000050E37EC17F061EC10F065EF18F014EF17
:1030D00003F00A0E0001956F01EC08F068EC19F09E
:1030E00093C09FF094C0A0F00A0E0001936F0FEC04
:1030F00015F0A30E0001956F9FC09DF0A0C09EF03B
:10310000D8909E339D33D8909E339D339D51966FBA
:1031100018EC18F069EF18F0120001016D6F6AC128
:1031200032F06BC133F093800F01399101016D5181
:10313000D8B49DEF18F0A1EF18F06C6B6C2BA3EFD7
:1031400018F001016C6B6C3B6C476C47F1506C19CB
:10315000BF0B6C19F16EF292120001016A51D96E27
:10316000DA6ADF6A6A51D96EDA6A010ED926FF0E71
:10317000DF6E6A51D96EDA6A060ED926DF6A6A51A5
:10318000D96EDA6A070ED926DF6A6A51D96EDA6A11
:10319000080ED926DF6A120001016E51D96EDA6A73
:1031A000040ED926DF6A6E51D96EDA6A050ED92669
:1031B000DF6A6E51060F6A6F040E6B6FE9EC18F050
:1031C00001016E510E0F6A6F000E6B6FE9EC18F083
:1031D000120001016B516C6F6D6B6A51D96EDA6A26
:1031E0006CC1DEFF6DC1DDFF6A51D96EDA6A060E71
:1031F000D926DF6A6A51D96EDA6A070ED926DF6AE4
:103200001200F29232503310D8B409EF19F00BEFDC
:1032100019F017EF19F002D817EF19F00500FA6E40
:103220003250FD6E3350FE6EFF6AFA5012001200EB
:10323000A30E0101656F690E666F010E676F68EC82
:1032400017F001016951040DF3CF57F1F4CF58F194
:1032500002EC17F018EF19F012000201C36B000E18
:10326000C46F020EC56FC66B820E01016A6F320E0B
:103270006B6F000E6C6F010E37EC17F0EDEC17F072
:103280001200949082B047EF19F04AEF19F0010E46
:103290004BEF19F0000EFF0A1B6E82501B18FE0B3D
:1032A0001B18826E42EF19F01200830EC216F30E45
:1032B000C116FC0EC116C08EC050C70B3009C06EBF
:1032C000C050F80B0409C06E92800F0138811200C3
:1032D000C282C2B26EEF19F070EF19F069EF19F007
:1032E000C3CF95F0C4CF96F095C093F096C094F0FC
:1032F000120001016A6F8B949494BA946AC1BBFF67
:10330000BD6ABE6ACF0EBD16BA50FC0B0109BA6E7B
:103310001200DBEC11F00201C66FC651270D000E42
:10332000F324C46F020EF420C56F1200C5EC12F036
:103330000201C66FC651270D000EF324C46F020EA2
:10334000F420C56F1200AFEC13F00201C66FC65136
:10335000270D000EF324C46F020EF420C56F120077
:10336000F28AF294D58CD59AD596070ED512D58EC1
:10337000D76A000ED66E1200BC6ABA84949412000A
:0B338000F292F2881200C280120005D9
:00000001FF
