:04000000FEEF7FF0A0
:1010000000000001606F60C061F00001656B03C00B
:1010100066F001C063F002C064F0626B696B6D6BD7
:101020006C6B6F6B6E6B716B706B766B776B6B6BE6
:101030006A6B686B726B746B736B756B676BD56B7C
:1010400020EE61F0AAC204F00450750DD60EF32410
:10105000E16E000EF420E26E740EDBCFE3FFE806D3
:10106000FCE2AAC2E8FF010FE8CFAAF212005AEC94
:1010700008F0000E016E000E026E050E036E020EE9
:1010800001EC08F0000E016E000E026E050E036EFC
:10109000030E01EC08F0000E016E000E026E050E4C
:1010A000036E040E01EC08F07FEC08F056EF08F038
:1010B000FEEF7FF0000EE8CFAAF2D60EE8CFABF23B
:1010C000000EE8CFACF2000EE8CFADF2000E016EDC
:1010D000000E026E000E036E010E01EC08F012000D
:1010E00000EED6F011EED8F0EE6AE550E150FCE1EA
:1010F000E250FAE1000EF86E000137EF08F0F28ED0
:021100001200DB
:04FFFC0070EF08F0AA
:00000001FF
