:040000008DEF03F08D
:100008000182E1CF16F0E2CF17F0D9CF18F0DACF9E
:1000180019F0F3CF1AF0F4CF1BF0F2A416EF00F0AA
:1000280018EF00F07FEF03F0F2941D6A000E1C6ECB
:100038006EEF00F0750E1C02F3CF0FF0F4CF10F046
:100048001D02F35010267E0E0F24D96E020E1020CA
:10005800DA6EDF50D8B433EF00F035EF00F06CEF14
:1000680000F0750E1C02F3CF0FF0F4CF10F01D0254
:10007800F35010267E0E0F24D96E020E1020DA6E71
:10008800DF06750E1C02F3CF0FF0F4CF10F01D023F
:10009800F35010267E0E0F24D96E020E1020DA6E51
:1000A800DF50D8A45AEF00F05CEF00F06CEF00F0DE
:1000B800750E1C02F3CF0FF0F4CF10F01D02F350B1
:1000C80010267B0E0F24D96E020E1020DA6EDF6A1E
:1000D8001C4A1D2A24EE4EF0DF500F6E106A0F5096
:1000E8001C5C1D50800A116E1050800A1158D8A04F
:1000F80080EF00F082EF00F01EEF00F01E061E50A9
:10010800D8A489EF00F08BEF00F07FEF03F0320EF8
:100118001E6E24EE4FF010EE01F0DE50E126DD50A9
:10012800E222020EE618D8A49CEF00F09EEF00F041
:10013800DAEF01F024EE4FF010EE01F0DE50E12688
:10014800DD50E222E76A24EE4FF010EE08F0DE50B0
:10015800E126DD50E222E0CFE7FF24EE4FF010EE7B
:100168000CF0DE50E126DD50E222EACFE7FF24EE74
:100178004FF010EE0BF0DE50E126DD50E222E9CF21
:10018800E7FF24EE4FF010EE0EF0DE50E126DD50D2
:10019800E222E2CFE7FF24EE4FF010EE0DF0DE5042
:1001A800E126DD50E222E1CFE7FF24EE4FF010EE2A
:1001B80010F0DE50E126DD50E222DACFE7FF24EE30
:1001C8004FF010EE0FF0DE50E126DD50E222D9CFDD
:1001D800E7FF24EE4FF010EE15F0DE50E126DD507B
:1001E800E222FACFE7FF24EE4FF010EE16F0DE50D1
:1001F800E126DD50E222FBCFE7FF24EE4FF010EEC0
:100208000AF0DE50E126DD50E222F4CFE7FF24EECB
:100218004FF010EE09F0DE50E126DD50E222F3CF78
:10022800E7FF24EE4FF010EE11F0DE50E126DD502E
:10023800E222F5CFE7FF24EE4FF010EE13F0DE5088
:10024800E126DD50E222F7CFE7FF24EE4FF010EE73
:1002580012F0DE50E126DD50E222F6CFE7FF24EE71
:100268004FF010EE14F0DE50E126DD50E222F8CF18
:10027800E7FF24EE4FF010EE06F0DE50E126DD50E9
:10028800E222E8CFE7FF24EE4FF010EE07F0DE5051
:10029800E126DD50E222D8CFE7FF24EE4FF010EE42
:1002A80074F0DE50E126DD50E222E76AD2EF01F079
:1002B80024EE4FF010EE74F0DE50E126DD50E2221D
:1002C800E7500F6E0F50030DF3CF10F0F4CF11F07D
:1002D80024EE4FF0DECF12F0DDCF13F010501224D1
:1002E800146E11501320156E170E1424D96E000EBB
:1002F8001520DA6EFDCFDFFF24EE4FF010EE74F01C
:10030800DE50E126DD50E222E7500F6E0F50030D5C
:10031800F3CF10F0F4CF11F024EE4FF0DECF12F04F
:10032800DDCF13F010501224146E11501320156EE7
:10033800180E1424D96E000E1520DA6EFECFDFFFDA
:1003480024EE4FF010EE74F0DE50E126DD50E2228C
:10035800E7500F6E0F50030DF3CF10F0F4CF11F0EC
:1003680024EE4FF0DECF12F0DDCF13F01050122440
:10037800146E11501320156E190E1424D96E000E28
:100388001520DA6EFFCFDFFF24EE4FF010EE74F089
:10039800DE50E126DD50E222E72A0600FC50D8A410
:1003A800D8EF01F0DAEF01F05CEF01F043EC10F068
:1003B80024EE4FF010EE01F0DE50E126DD50E2228F
:1003C800E750D8A4EAEF01F0ECEF01F07FEF03F07B
:1003D80024EE4FF010EE01F0DE50E126DD50E2226F
:1003E800020EE76E24EE4FF010EE08F0DE50E12624
:1003F800DD50E222E750E06E24EE4FF010EE0CF0F4
:10040800DE50E126DD50E222E750EA6E24EE4FF09E
:1004180010EE0BF0DE50E126DD50E222E750E96EE7
:1004280024EE4FF010EE0EF0DE50E126DD50E22211
:10043800E750E26E24EE4FF010EE0DF0DE50E126AC
:10044800DD50E222E750E16E24EE4FF010EE10F09E
:10045800DE50E126DD50E222E750DA6E24EE4FF05E
:1004680010EE0FF0DE50E126DD50E222E750D96EA3
:1004780024EE4FF010EE15F0DE50E126DD50E222BA
:10048800E750FA6E24EE4FF010EE16F0DE50E1263B
:10049800DD50E222E750FB6E24EE4FF010EE0AF03A
:1004A800DE50E126DD50E222E750F46E24EE4FF0F4
:1004B80010EE09F0DE50E126DD50E222E750F36E3F
:1004C80024EE4FF010EE11F0DE50E126DD50E2226E
:1004D800E750F56E24EE4FF010EE13F0DE50E126F3
:1004E800DD50E222E750F76E24EE4FF010EE12F0E6
:1004F800DE50E126DD50E222E750F66E24EE4FF0A2
:1005080010EE14F0DE50E126DD50E222E750F86EDE
:1005180024EE4FF010EE07F0DE50E126DD50E22227
:10052800E750D86E24EE4FF010EE06F0DE50E126CC
:10053800DD50E222E7500F6E0F50FC6A24EE4FF0B8
:1005480010EE74F0DE50E126DD50E222E750D8B418
:10055800B0EF02F0B2EF02F03AEF03F0050024EE3C
:100568004FF010EE74F0DE50E126DD50E222E7068F
:1005780024EE4FF010EE74F0DE50E126DD50E2225A
:10058800E7500F6E0F50030DF3CF10F0F4CF11F0BA
:1005980024EE4FF0DECF12F0DDCF13F0105012240E
:1005A800146E11501320156E170E1424D96E000EF8
:1005B8001520DA6EDF50FD6E24EE4FF010EE74F069
:1005C800DE50E126DD50E222E7500F6E0F50030D9A
:1005D800F3CF10F0F4CF11F024EE4FF0DECF12F08D
:1005E800DDCF13F010501224146E11501320156E25
:1005F800180E1424D96E000E1520DA6EDF50FE6E28
:1006080024EE4FF010EE74F0DE50E126DD50E222C9
:10061800E7500F6E0F50030DF3CF10F0F4CF11F029
:1006280024EE4FF0DECF12F0DDCF13F0105012247D
:10063800146E11501320156E190E1424D96E000E65
:100648001520DA6EDF50FF6E24EE4FF010EE74F0D6
:10065800DE50E126DD50E222E750D8A436EF03F061
:1006680038EF03F0B2EF02F07DEF03F0050024EE5F
:100678004FF010EE02F0DE50E126DD50E222E750A6
:10068800FD6E24EE4FF010EE02F0DE50E126DD5054
:10069800E222E6CF0FF0E5CF10F00FC011F010C046
:1006A80012F0136A12C011F013C012F0136A11503D
:1006B800FE6E100E0F6E24EE4FF010EE02F0DE50BC
:1006C800E126DD50E222E6CF10F0E5CF11F010C0B0
:1006D80012F011C013F0146A0F28156E78EF03F0AA
:1006E800D890143213321232152E74EF03F01250D0
:1006F800FF6E320E1E6E1BC0F4FF1AC0F3FF19C046
:10070800DAFF18C0D9FF17C0E2FF16C0E1FF019257
:0607180011009DEF0FF03F
:1010000000000101806FF29E24EE4FF010EE01F01F
:10101000DE50E126DD50E222020EE618D8A413EFDE
:1010200008F015EF08F053EF09F024EE4FF010EE42
:1010300001F0DE50E126DD50E222010EE76E24EEE3
:101040004FF010EE08F0DE50E126DD50E222E0CF56
:10105000E7FF24EE4FF010EE0CF0DE50E126DD50FD
:10106000E222EACFE7FF24EE4FF010EE0BF0DE5065
:10107000E126DD50E222E9CFE7FF24EE4FF010EE4B
:101080000EF0DE50E126DD50E222E2CFE7FF24EE53
:101090004FF010EE0DF0DE50E126DD50E222E1CF00
:1010A000E7FF24EE4FF010EE10F0DE50E126DD50A9
:1010B000E222DACFE7FF24EE4FF010EE0FF0DE5021
:1010C000E126DD50E222D9CFE7FF24EE4FF010EE0B
:1010D00015F0DE50E126DD50E222FACFE7FF24EEE4
:1010E0004FF010EE16F0DE50E126DD50E222FBCF8D
:1010F000E7FF24EE4FF010EE0AF0DE50E126DD505F
:10110000E222F4CFE7FF24EE4FF010EE09F0DE50BC
:10111000E126DD50E222F3CFE7FF24EE4FF010EEA0
:1011200011F0DE50E126DD50E222F5CFE7FF24EE9C
:101130004FF010EE13F0DE50E126DD50E222F7CF43
:10114000E7FF24EE4FF010EE12F0DE50E126DD5006
:10115000E222F6CFE7FF24EE4FF010EE14F0DE505F
:10116000E126DD50E222F8CFE7FF24EE4FF010EE4B
:1011700006F0DE50E126DD50E222E8CFE7FF24EE64
:101180004FF010EE07F0DE50E126DD50E222D8CF1E
:10119000E7FF24EE4FF010EE74F0DE50E126DD5054
:1011A000E222E76A4BEF09F024EE4FF010EE74F004
:1011B000DE50E126DD50E222E7500101796F7951DE
:1011C000030DF3CF7AF1F4CF7BF124EE4FF0DECFB5
:1011D0007CF1DDCF7DF17A517C257E6F7B517D21C5
:1011E0007F6F170E7E25D96E000E7F21DA6EFDCF40
:1011F000DFFF24EE4FF010EE74F0DE50E126DD50FC
:10120000E222E750796F7951030DF3CF7AF1F4CFF1
:101210007BF124EE4FF0DECF7CF1DDCF7DF17A5112
:101220007C257E6F7B517D217F6F180E7E25D96EC8
:10123000000E7F21DA6EFECFDFFF24EE4FF010EEBE
:1012400074F0DE50E126DD50E222E750796F7951EB
:10125000030DF3CF7AF1F4CF7BF124EE4FF0DECF24
:101260007CF1DDCF7DF17A517C257E6F7B517D2134
:101270007F6F190E7E25D96E000E7F21DA6EFFCFAB
:10128000DFFF24EE4FF010EE74F0DE50E126DD506B
:10129000E222E72A0600FC50D8A451EF09F053EFF0
:1012A00009F0D4EF08F051C479F101017951750DBD
:1012B0007E0EF324D96E020EF420DA6E80C1DFFFB9
:1012C0001AEC10F024EE4FF010EE01F0DE50E126A3
:1012D000DD50E222E750D8A470EF09F072EF09F078
:1012E00009EF0BF024EE4FF010EE01F0DE50E12696
:1012F000DD50E222020EE76E24EE4FF010EE08F011
:10130000DE50E126DD50E222E750E06E24EE4FF0A1
:1013100010EE0CF0DE50E126DD50E222E750EA6EDE
:1013200024EE4FF010EE0BF0DE50E126DD50E2220D
:10133000E750E96E24EE4FF010EE0EF0DE50E1269D
:10134000DD50E222E750E26E24EE4FF010EE0DF099
:10135000DE50E126DD50E222E750E16E24EE4FF050
:1013600010EE10F0DE50E126DD50E222E750DA6E9A
:1013700024EE4FF010EE0FF0DE50E126DD50E222B9
:10138000E750D96E24EE4FF010EE15F0DE50E12656
:10139000DD50E222E750FA6E24EE4FF010EE16F028
:1013A000DE50E126DD50E222E750FB6E24EE4FF0E6
:1013B00010EE0AF0DE50E126DD50E222E750F46E36
:1013C00024EE4FF010EE09F0DE50E126DD50E2226F
:1013D000E750F36E24EE4FF010EE11F0DE50E126F0
:1013E000DD50E222E750F56E24EE4FF010EE13F0E0
:1013F000DE50E126DD50E222E750F76E24EE4FF09A
:1014000010EE12F0DE50E126DD50E222E750F66EDB
:1014100024EE4FF010EE14F0DE50E126DD50E22213
:10142000E750F86E24EE4FF010EE07F0DE50E126A4
:10143000DD50E222E750D86E24EE4FF010EE06F0B9
:10144000DE50E126DD50E222E7500101796F79514B
:10145000FC6A24EE4FF010EE74F0DE50E126DD5011
:10146000E222E750D8B437EF0AF039EF0AF0C2EFC2
:101470000AF0050024EE4FF010EE74F0DE50E12685
:10148000DD50E222E70624EE4FF010EE74F0DE505D
:10149000E126DD50E222E7500101796F7951030D19
:1014A000F3CF7AF1F4CF7BF124EE4FF0DECF7CF175
:1014B000DDCF7DF17A517C257E6F7B517D217F6F61
:1014C000170E7E25D96E000E7F21DA6EDF50FD6E7D
:1014D00024EE4FF010EE74F0DE50E126DD50E222F3
:1014E000E750796F7951030DF3CF7AF1F4CF7BF1A7
:1014F00024EE4FF0DECF7CF1DDCF7DF17A517C25FB
:101500007E6F7B517D217F6F180E7E25D96E000E78
:101510007F21DA6EDF50FE6E24EE4FF010EE74F095
:10152000DE50E126DD50E222E750796F7951030D5C
:10153000F3CF7AF1F4CF7BF124EE4FF0DECF7CF1E4
:10154000DDCF7DF17A517C257E6F7B517D217F6FD0
:10155000190E7E25D96E000E7F21DA6EDF50FF6EE8
:1015600024EE4FF010EE74F0DE50E126DD50E22262
:10157000E750D8A4BEEF0AF0C0EF0AF039EF0AF046
:1015800007EF0BF0050024EE4FF010EE02F0DE50F6
:10159000E126DD50E222E750FD6E24EE4FF010EE22
:1015A00002F0DE50E126DD50E222E6CF79F1E5CF10
:1015B0007AF179C17BF17AC17CF101017D6B7CC14B
:1015C0007BF17DC17CF17D6B7B51FE6E100E796FDE
:1015D00024EE4FF010EE02F0DE50E126DD50E22264
:1015E000E6CF7AF1E5CF7BF17AC17CF17BC17DF169
:1015F0007E6B79297F6F01EF0BF0D8907E337D33BE
:101600007C337F2FFDEF0AF001017C51FF6E320E1B
:101610001E6EF28E120001016A6FF29E24EE4FF0F0
:1016200010EE01F0DE50E126DD50E222020EE61857
:10163000D8A41DEF0BF01FEF0BF05DEF0CF024EEC4
:101640004FF010EE01F0DE50E126DD50E2226AC1DB
:10165000E7FF24EE4FF010EE08F0DE50E126DD50FB
:10166000E222E0CFE7FF24EE4FF010EE0CF0DE5068
:10167000E126DD50E222EACFE7FF24EE4FF010EE44
:101680000BF0DE50E126DD50E222E9CFE7FF24EE49
:101690004FF010EE0EF0DE50E126DD50E222E2CFF8
:1016A000E7FF24EE4FF010EE0DF0DE50E126DD50A6
:1016B000E222E1CFE7FF24EE4FF010EE10F0DE5013
:1016C000E126DD50E222DACFE7FF24EE4FF010EE04
:1016D0000FF0DE50E126DD50E222D9CFE7FF24EE05
:1016E0004FF010EE15F0DE50E126DD50E222FACF89
:1016F000E7FF24EE4FF010EE16F0DE50E126DD504D
:10170000E222FBCFE7FF24EE4FF010EE0AF0DE50AE
:10171000E126DD50E222F4CFE7FF24EE4FF010EE99
:1017200009F0DE50E126DD50E222F3CFE7FF24EEA0
:101730004FF010EE11F0DE50E126DD50E222F5CF41
:10174000E7FF24EE4FF010EE13F0DE50E126DD50FF
:10175000E222F7CFE7FF24EE4FF010EE12F0DE505A
:10176000E126DD50E222F6CFE7FF24EE4FF010EE47
:1017700014F0DE50E126DD50E222F8CFE7FF24EE40
:101780004FF010EE06F0DE50E126DD50E222E8CF09
:10179000E7FF24EE4FF010EE07F0DE50E126DD50BB
:1017A000E222D8CFE7FF24EE4FF010EE74F0DE50C7
:1017B000E126DD50E222E76A55EF0CF024EE4FF00F
:1017C00010EE74F0DE50E126DD50E222E750010118
:1017D000636F6351030DF3CF64F1F4CF65F124EE31
:1017E0004FF0DECF66F1DDCF67F164516625686F9B
:1017F00065516721696F170E6825D96E000E692142
:10180000DA6EFDCFDFFF24EE4FF010EE74F0DE5005
:10181000E126DD50E222E750636F6351030DF3CF01
:1018200064F1F4CF65F124EE4FF0DECF66F1DDCF49
:1018300067F164516625686F65516721696F180EFD
:101840006825D96E000E6921DA6EFECFDFFF24EE27
:101850004FF010EE74F0DE50E126DD50E222E7504A
:10186000636F6351030DF3CF64F1F4CF65F124EEA0
:101870004FF0DECF66F1DDCF67F164516625686F0A
:1018800065516721696F190E6825D96E000E6921AF
:10189000DA6EFFCFDFFF24EE4FF010EE74F0DE5073
:1018A000E126DD50E222E72A0600FC50D8A45BEFD7
:1018B0000CF05DEF0CF0DEEF0BF01AEC10F024EE04
:1018C0004FF010EE01F0DE50E126DD50E222E7504D
:1018D000D8A46DEF0CF06FEF0CF006EF0EF024EED5
:1018E0004FF010EE01F0DE50E126DD50E222020E54
:1018F000E76E24EE4FF010EE08F0DE50E126DD50EA
:10190000E222E750E06E24EE4FF010EE0CF0DE50D5
:10191000E126DD50E222E750EA6E24EE4FF010EEB1
:101920000BF0DE50E126DD50E222E750E96E24EEB6
:101930004FF010EE0EF0DE50E126DD50E222E750CF
:10194000E26E24EE4FF010EE0DF0DE50E126DD5099
:10195000E222E750E16E24EE4FF010EE10F0DE5080
:10196000E126DD50E222E750DA6E24EE4FF010EE71
:101970000FF0DE50E126DD50E222E750D96E24EE72
:101980004FF010EE15F0DE50E126DD50E222E75078
:10199000FA6E24EE4FF010EE16F0DE50E126DD5028
:1019A000E222E750FB6E24EE4FF010EE0AF0DE501C
:1019B000E126DD50E222E750F46E24EE4FF010EE07
:1019C00009F0DE50E126DD50E222E750F36E24EE0E
:1019D0004FF010EE11F0DE50E126DD50E222E7502C
:1019E000F56E24EE4FF010EE13F0DE50E126DD50E0
:1019F000E222E750F76E24EE4FF010EE12F0DE50C8
:101A0000E126DD50E222E750F66E24EE4FF010EEB4
:101A100014F0DE50E126DD50E222E750F86E24EEAD
:101A20004FF010EE07F0DE50E126DD50E222E750E5
:101A3000D86E24EE4FF010EE06F0DE50E126DD50B9
:101A4000E222E7500101636F6351FC6A24EE4FF01C
:101A500010EE74F0DE50E126DD50E222E750D8B4FB
:101A600034EF0DF036EF0DF0BFEF0DF0050024EE72
:101A70004FF010EE74F0DE50E126DD50E222E70672
:101A800024EE4FF010EE74F0DE50E126DD50E2223D
:101A9000E7500101636F6351030DF3CF64F1F4CF9D
:101AA00065F124EE4FF0DECF66F1DDCF67F16451D2
:101AB0006625686F65516721696F170E6825D96EB5
:101AC000000E6921DA6EDF50FD6E24EE4FF010EE4D
:101AD00074F0DE50E126DD50E222E750636F63517F
:101AE000030DF3CF64F1F4CF65F124EE4FF0DECFB8
:101AF00066F1DDCF67F164516625686F6551672136
:101B0000696F180E6825D96E000E6921DA6EDF50F4
:101B1000FE6E24EE4FF010EE74F0DE50E126DD5044
:101B2000E222E750636F6351030DF3CF64F1F4CF0A
:101B300065F124EE4FF0DECF66F1DDCF67F1645141
:101B40006625686F65516721696F190E6825D96E22
:101B5000000E6921DA6EDF50FF6E24EE4FF010EEBA
:101B600074F0DE50E126DD50E222E750D8A4BBEF4E
:101B70000DF0BDEF0DF036EF0DF004EF0EF00500A7
:101B800024EE4FF010EE02F0DE50E126DD50E222AE
:101B9000E750FD6E24EE4FF010EE02F0DE50E1262D
:101BA000DD50E222E6CF63F1E5CF64F163C165F178
:101BB00064C166F10101676B66C165F167C166F1D9
:101BC000676B6551FE6E100E636F24EE4FF010EEE2
:101BD00002F0DE50E126DD50E222E6CF64F1E5CFEF
:101BE00065F164C166F165C167F1686B6329696F6E
:101BF000FEEF0DF0D890683367336633692FFAEF44
:101C00000DF001016651FF6E320E1E6EF28E120053
:101C10000101716B6DBF11EF0EF00FEF0EF017EFBA
:101C20000EF06C6D6D1FD8B06D2B010E716F6FBF14
:101C30001EEF0EF01CEF0EF022EF0EF06E6D6F1F18
:101C4000D8B06F2B6E516F11D8B429EF0EF02BEF77
:101C50000EF04FEF0EF0010E706F33EF0EF0D890D4
:101C60006E376F37702B6FAF38EF0EF03AEF0EF024
:101C70002FEF0EF06E516C5D6F516D59D8A043EF90
:101C80000EF045EF0EF049EF0EF06E516C5F6F51A4
:101C90006D5BD8906F336E33702F3AEF0EF0715149
:101CA000D8B455EF0EF057EF0EF05BEF0EF06C6D01
:101CB0006D1FD8B06D2B6CC16CF16DC16DF1120050
:101CC000076A03BE68EF0EF066EF0EF06EEF0EF0DF
:101CD000026C031ED8B0032A010E076E05BE75EF15
:101CE0000EF073EF0EF079EF0EF0046C051ED8B015
:101CF000052A04500510D8B480EF0EF082EF0EF0E4
:101D0000A6EF0EF0010E066E8AEF0EF0D8900436A4
:101D10000536062A05AE8FEF0EF091EF0EF086EF36
:101D20000EF00450025C05500358D8A09AEF0EF054
:101D30009CEF0EF0A0EF0EF00450025E0550035A27
:101D4000D89005320432062E91EF0EF00750D8B429
:101D5000ACEF0EF0AEEF0EF0B2EF0EF0026C031E21
:101D6000D8B0032A02C002F003C003F0120051C42D
:101D700075F10101746B010E75256C6F6D6B000EB2
:101D80006D234EC472F172516E6F6F6B08EC0EF0E2
:101D900001016C51756F742B030E7465D2EF0EF058
:101DA000D4EF0EF0D7EF0EF0000EFCEF0EF07551F1
:101DB000750D7B0EF324D96E020EF420DA6EDF501F
:101DC000D8A4E5EF0EF0E7EF0EF0BBEF0EF0755183
:101DD000750D7C0EF324D96E020EF420DA6E5E0EC1
:101DE000DE1809E1200EDE18D8B4F9EF0EF0FBEF93
:101DF0000EF0BBEF0EF07551120051C40BF00A6AE1
:101E0000010E0B24026E036A000E03224EC408F07A
:101E10000850046E056A60EC0EF002500B6E0A2A40
:101E2000030E0A6416EF0FF018EF0FF01BEF0FF020
:101E3000000E40EF0FF00B50750D7B0EF324D96EA2
:101E4000020EF420DA6EDF50D8A429EF0FF02BEF4A
:101E50000FF000EF0FF00B50750D7C0EF324D96ED0
:101E6000020EF420DA6E5E0EDE1809E1200EDE1896
:101E7000D8B43DEF0FF03FEF0FF000EF0FF00B5035
:101E800012000201046F04C205F20201096B02C2D2
:101E90000AF200C207F201C208F2066B0D6B116B69
:101EA000106B136B126B156B146B1A6B1B6B0F6B38
:101EB0000E6B0C6B166B186B176B196B0B6B796BCE
:101EC00022EE05F04EC403F20351750D7A0EF32491
:101ED000E16E020EF420E26E740EDBCFE3FFE80643
:101EE000FCE24EC4E8FF010FE8CF4EF41200D1EC43
:101EF0000FF06E0E0201006F1F0E016F050E026FD4
:101F0000020E41EC0FF0D40E0201006F1F0E016FA4
:101F1000050E026F030E41EC0FF0060E0201006F7A
:101F2000200E016F050E026F040E41EC0FF06BECFA
:101F300010F099EF0FF08DEF03F0DE0EF66E200E2D
:101F4000F76E000EF86E0900F5CF1EF002EE7AF083
:101F500011EED8F0EE6AE550E150FCE1E250FAE112
:101F600001900192000EF86E000177EF0FF082BC35
:101F7000BCEF0FF0BFEF0FF0010EC0EF0FF0000E3F
:101F8000FF0A0001616F613B61476147825061193F
:101F9000BF0B6119826E050E01EC08F0B7EF0FF070
:101FA0001200000EE8CF4EF47A0EE8CF4FF4020E86
:101FB000E8CF50F4000EE8CF51F45E0E0201006F3E
:101FC000200E016F000E026F010E41EC0FF063EC6A
:101FD00010F0120082BEEFEF0FF0F2EF0FF0010EE3
:101FE000F3EF0FF0000EFF0A01016B6F6B336B33E1
:101FF00082506B197F0B6B19826E010E0BEC0BF08C
:10200000EAEF0FF0120083B008EF10F00BEF10F0C2
:10201000010E0CEF10F0000EFF0A0101816F8350DA
:102020008119FE0B8119836E050E01EC08F003EF98
:1020300010F01200B7EC0EF00101766F76C151F48A
:1020400051C476F17651750D7A0EF324776F020E36
:10205000F420786F77C14FF478C150F41200949057
:1020600082B035EF10F038EF10F0010E39EF10F0BC
:10207000000EFF0A026E82500218FE0B0218826EDA
:1020800030EF10F01200FDEC0EF00C6E0CC051F4AD
:1020900051C40CF00C50750D7A0EF3240D6E020E27
:1020A000F4200E6E0DC04FF40EC050F41200F28AF0
:1020B000F294D58CD59AD596070ED512D58ED76ABF
:1020C000000ED66E1200949C949E95900F013B9149
:0F20D0003A9D3A9F120057EC10F0F28E12003238
:00000001FF
