:04000000A5EF03F075
:100008000182FACF19F0FBCF1AF0E1CF1BF0E2CF53
:100018001CF0D9CF1DF0DACF1EF0F3CF1FF0F4CFCC
:1000280020F0F2A81AEF00F01CEF00F025EF00F026
:10003800F2A221EF00F023EF00F025EF00F0A4EC8E
:100048001AF0F2A42AEF00F02CEF00F093EF03F07F
:10005800F294226A000E216E82EF00F0360E210221
:10006800F3CF12F0F4CF13F02202F3501326410E0F
:100078001224D96E050E1320DA6EDF50D8B447EF7C
:1000880000F049EF00F080EF00F0360E2102F3CFC8
:1000980012F0F4CF13F02202F3501326410E12246B
:1000A800D96E050E1320DA6EDF06360E2102F3CF65
:1000B80012F0F4CF13F02202F3501326410E12244B
:1000C800D96E050E1320DA6EDF50D8A46EEF00F05B
:1000D80070EF00F080EF00F0360E2102F3CF12F03F
:1000E800F4CF13F02202F35013263E0E1224D96ED9
:1000F800050E1320DA6EDF6A214A222A26EE4BF01B
:10010800DF50126E136A1250215C2250800A146E5E
:100118001350800A1458D8A094EF00F096EF00F01E
:1001280032EF00F023062350D8A49DEF00F09FEF94
:1001380000F093EF03F0050E236E26EE4CF010EE60
:1001480001F0DE50E126DD50E222020EE618D8A4C6
:10015800B0EF00F0B2EF00F0EEEF01F026EE4CF059
:1001680010EE01F0DE50E126DD50E222E76A26EECD
:100178004CF010EE08F0DE50E126DD50E222E0CF30
:10018800E7FF26EE4CF010EE0CF0DE50E126DD50D5
:10019800E222EACFE7FF26EE4CF010EE0BF0DE503D
:1001A800E126DD50E222E9CFE7FF26EE4CF010EE23
:1001B8000EF0DE50E126DD50E222E2CFE7FF26EE28
:1001C8004CF010EE0DF0DE50E126DD50E222E1CFDA
:1001D800E7FF26EE4CF010EE10F0DE50E126DD5081
:1001E800E222DACFE7FF26EE4CF010EE0FF0DE50F9
:1001F800E126DD50E222D9CFE7FF26EE4CF010EEE3
:1002080015F0DE50E126DD50E222FACFE7FF26EEB8
:100218004CF010EE16F0DE50E126DD50E222FBCF66
:10022800E7FF26EE4CF010EE0AF0DE50E126DD5036
:10023800E222F4CFE7FF26EE4CF010EE09F0DE5094
:10024800E126DD50E222F3CFE7FF26EE4CF010EE78
:1002580011F0DE50E126DD50E222F5CFE7FF26EE71
:100268004CF010EE13F0DE50E126DD50E222F7CF1D
:10027800E7FF26EE4CF010EE12F0DE50E126DD50DE
:10028800E222F6CFE7FF26EE4CF010EE14F0DE5037
:10029800E126DD50E222F8CFE7FF26EE4CF010EE23
:1002A80006F0DE50E126DD50E222E8CFE7FF26EE39
:1002B8004CF010EE07F0DE50E126DD50E222D8CFF8
:1002C800E7FF26EE4CF010EE35F0DE50E126DD506B
:1002D800E222E76AE6EF01F026EE4CF010EE35F088
:1002E800DE50E126DD50E222E750126E1250030D77
:1002F800F3CF13F0F4CF14F026EE4CF0DECF15F068
:10030800DDCF16F013501524176E14501620186EF2
:10031800170E1724D96E000E1820DA6EFDCFDFFFF6
:1003280026EE4CF010EE35F0DE50E126DD50E222EC
:10033800E750126E1250030DF3CF13F0F4CF14F000
:1003480026EE4CF0DECF15F0DDCF16F01350152455
:10035800176E14501620186E180E1724D96E000E3A
:100368001820DA6EFECFDFFF26EE4CF010EE35F0E7
:10037800DE50E126DD50E222E750126E1250030DE6
:10038800F3CF13F0F4CF14F026EE4CF0DECF15F0D7
:10039800DDCF16F013501524176E14501620186E62
:1003A800190E1724D96E000E1820DA6EFFCFDFFF62
:1003B80026EE4CF010EE35F0DE50E126DD50E2225C
:1003C800E72A0600FC50D8A4ECEF01F0EEEF01F0AC
:1003D80070EF01F011EC1BF026EE4CF010EE01F07E
:1003E800DE50E126DD50E222E750D8A4FEEF01F00E
:1003F80000EF02F093EF03F026EE4CF010EE01F060
:10040800DE50E126DD50E222020EE76E26EE4CF0C9
:1004180010EE08F0DE50E126DD50E222E750E06EF3
:1004280026EE4CF010EE0CF0DE50E126DD50E22214
:10043800E750EA6E26EE4CF010EE0BF0DE50E126A7
:10044800DD50E222E750E96E26EE4CF010EE0EF099
:10045800DE50E126DD50E222E750E26E26EE4CF057
:1004680010EE0DF0DE50E126DD50E222E750E16E9D
:1004780026EE4CF010EE10F0DE50E126DD50E222C0
:10048800E750DA6E26EE4CF010EE0FF0DE50E12663
:10049800DD50E222E750D96E26EE4CF010EE15F052
:1004A800DE50E126DD50E222E750FA6E26EE4CF0EF
:1004B80010EE16F0DE50E126DD50E222E750FB6E2A
:1004C80026EE4CF010EE0AF0DE50E126DD50E22276
:1004D800E750F46E26EE4CF010EE09F0DE50E126FF
:1004E800DD50E222E750F36E26EE4CF010EE11F0EC
:1004F800DE50E126DD50E222E750F56E26EE4CF0A4
:1005080010EE13F0DE50E126DD50E222E750F76EE0
:1005180026EE4CF010EE12F0DE50E126DD50E2221D
:10052800E750F66E26EE4CF010EE14F0DE50E126A1
:10053800DD50E222E750F86E26EE4CF010EE07F0A0
:10054800DE50E126DD50E222E750D86E26EE4CF070
:1005580010EE06F0DE50E126DD50E222E750126E82
:100568001250FC6A26EE4CF010EE35F0DE50E12613
:10057800DD50E222E750D8B4C4EF02F0C6EF02F033
:100588004EEF03F0050026EE4CF010EE35F0DE508D
:10059800E126DD50E222E70626EE4CF010EE35F0BB
:1005A800DE50E126DD50E222E750126E1250030DB4
:1005B800F3CF13F0F4CF14F026EE4CF0DECF15F0A5
:1005C800DDCF16F013501524176E14501620186E30
:1005D800170E1724D96E000E1820DA6EDF50FD6E44
:1005E80026EE4CF010EE35F0DE50E126DD50E2222A
:1005F800E750126E1250030DF3CF13F0F4CF14F03E
:1006080026EE4CF0DECF15F0DDCF16F01350152492
:10061800176E14501620186E180E1724D96E000E77
:100628001820DA6EDF50FE6E26EE4CF010EE35F034
:10063800DE50E126DD50E222E750126E1250030D23
:10064800F3CF13F0F4CF14F026EE4CF0DECF15F014
:10065800DDCF16F013501524176E14501620186E9F
:10066800190E1724D96E000E1820DA6EDF50FF6EAF
:1006780026EE4CF010EE35F0DE50E126DD50E22299
:10068800E750D8A44AEF03F04CEF03F0C6EF02F0AE
:1006980091EF03F0050026EE4CF010EE02F0DE506C
:1006A800E126DD50E222E750FD6E26EE4CF010EE1A
:1006B80002F0DE50E126DD50E222E6CF12F0E5CF6F
:1006C80013F012C014F013C015F0166A15C014F018
:1006D80016C015F0166A1450FE6E100E126E26EE35
:1006E8004CF010EE02F0DE50E126DD50E222E6CFBB
:1006F80013F0E5CF14F013C015F014C016F0176A04
:100708001228186E8CEF03F0D89017321632153273
:10071800182E88EF03F01550FF6E050E236E20C0CB
:10072800F4FF1FC0F3FF1EC0DAFF1DC0D9FF1CC0B5
:10073800E2FF1BC0E1FF1AC0FBFF19C0FAFF0192DC
:060748001100C0EF19F0E2
:101000000000F29E01011B51D96EDA6ADF50D8A4AC
:101010000CEF08F00EEF08F01FEF08F01B51D96E2F
:10102000DA6A010EDF6E26EE4EF01B51E16EE26AC7
:10103000010EE126DFCFE7FFF28E54EF0BF01B51DC
:10104000D96EDA6A060ED926040EDF602AEF08F0A0
:101050002CEF08F053EF0BF026EE4EF01B51E16E33
:10106000E26A070EE126E7500001876F01011B517C
:1010700000018725E16EE26A020EE126DFCFE7FF7D
:1010800001011B51D96EDA6A070ED9261B51E16E98
:10109000E26A070EE126E7500001876F8729030BFC
:1010A000DF6E01011B51D96EDA6A060ED926DF2ADE
:1010B00026EE4CF010EE01F0DE50E126DD50E2228B
:1010C000020EE618D8A467EF08F069EF08F0A7EF62
:1010D00009F026EE4CF010EE01F0DE50E126DD5076
:1010E000E222040EE76E26EE4CF010EE08F0DE5021
:1010F000E126DD50E222E0CFE7FF26EE4CF010EED5
:101100000CF0DE50E126DD50E222EACFE7FF26EECA
:101110004CF010EE0BF0DE50E126DD50E222E9CF7C
:10112000E7FF26EE4CF010EE0EF0DE50E126DD502B
:10113000E222E2CFE7FF26EE4CF010EE0DF0DE509B
:10114000E126DD50E222E1CFE7FF26EE4CF010EE83
:1011500010F0DE50E126DD50E222DACFE7FF26EE86
:101160004CF010EE0FF0DE50E126DD50E222D9CF38
:10117000E7FF26EE4CF010EE15F0DE50E126DD50D4
:10118000E222FACFE7FF26EE4CF010EE16F0DE502A
:10119000E126DD50E222FBCFE7FF26EE4CF010EE19
:1011A0000AF0DE50E126DD50E222F4CFE7FF26EE22
:1011B0004CF010EE09F0DE50E126DD50E222F3CFD4
:1011C000E7FF26EE4CF010EE11F0DE50E126DD5088
:1011D000E222F5CFE7FF26EE4CF010EE13F0DE50E2
:1011E000E126DD50E222F7CFE7FF26EE4CF010EECD
:1011F00012F0DE50E126DD50E222F6CFE7FF26EEC8
:101200004CF010EE14F0DE50E126DD50E222F8CF73
:10121000E7FF26EE4CF010EE06F0DE50E126DD5042
:10122000E222E8CFE7FF26EE4CF010EE07F0DE50AA
:10123000E126DD50E222D8CFE7FF26EE4CF010EE9B
:1012400035F0DE50E126DD50E222E76A9FEF09F03B
:1012500026EE4CF010EE35F0DE50E126DD50E222B5
:10126000E7500001876F8751030DF3CF88F0F4CF6B
:1012700089F026EE4CF0DECF8AF0DDCF8BF088517E
:101280008A258C6F89518B218D6F170E8C25D96E15
:10129000000E8D21DA6EFDCFDFFF26EE4CF010EE52
:1012A00035F0DE50E126DD50E222E750876F8751AE
:1012B000030DF3CF88F0F4CF89F026EE4CF0DECFAB
:1012C0008AF0DDCF8BF088518A258C6F89518B2174
:1012D0008D6F180E8C25D96E000E8D21DA6EFECF23
:1012E000DFFF26EE4CF010EE35F0DE50E126DD504B
:1012F000E222E750876F8751030DF3CF88F0F4CFD8
:1013000089F026EE4CF0DECF8AF0DDCF8BF08851ED
:101310008A258C6F89518B218D6F190E8C25D96E82
:10132000000E8D21DA6EFFCFDFFF26EE4CF010EEBF
:1013300035F0DE50E126DD50E222E72A0600FC50BF
:10134000D8A4A5EF09F0A7EF09F028EF09F0E8EC21
:101350001AF026EE4CF010EE01F0DE50E126DD50E2
:10136000E222E750D8A4B7EF09F0B9EF09F050EF47
:101370000BF026EE4CF010EE01F0DE50E126DD50D1
:10138000E222020EE76E26EE4CF010EE08F0DE5080
:10139000E126DD50E222E750E06E26EE4CF010EE42
:1013A0000CF0DE50E126DD50E222E750EA6E26EE38
:1013B0004CF010EE0BF0DE50E126DD50E222E7505B
:1013C000E96E26EE4CF010EE0EF0DE50E126DD5018
:1013D000E222E750E26E26EE4CF010EE0DF0DE5009
:1013E000E126DD50E222E750E16E26EE4CF010EEF1
:1013F00010F0DE50E126DD50E222E750DA6E26EEF4
:101400004CF010EE0FF0DE50E126DD50E222E75006
:10141000D96E26EE4CF010EE15F0DE50E126DD50D0
:10142000E222E750FA6E26EE4CF010EE16F0DE5097
:10143000E126DD50E222E750FB6E26EE4CF010EE86
:101440000AF0DE50E126DD50E222E750F46E26EE8F
:101450004CF010EE09F0DE50E126DD50E222E750BC
:10146000F36E26EE4CF010EE11F0DE50E126DD506A
:10147000E222E750F56E26EE4CF010EE13F0DE504F
:10148000E126DD50E222E750F76E26EE4CF010EE3A
:1014900012F0DE50E126DD50E222E750F66E26EE35
:1014A0004CF010EE14F0DE50E126DD50E222E75061
:1014B000F86E26EE4CF010EE07F0DE50E126DD501F
:1014C000E222E750D86E26EE4CF010EE06F0DE5029
:1014D000E126DD50E222E7500001876F8751FC6A68
:1014E00026EE4CF010EE35F0DE50E126DD50E22223
:1014F000E750D8B47EEF0AF080EF0AF009EF0BF066
:10150000050026EE4CF010EE35F0DE50E126DD5001
:10151000E222E70626EE4CF010EE35F0DE50E12632
:10152000DD50E222E7500001876F8751030DF3CFB2
:1015300088F0F4CF89F026EE4CF0DECF8AF0DDCFD4
:101540008BF088518A258C6F89518B218D6F170EF6
:101550008C25D96E000E8D21DA6EDF50FD6E26EEE1
:101560004CF010EE35F0DE50E126DD50E222E7507F
:10157000876F8751030DF3CF88F0F4CF89F026EE03
:101580004CF0DECF8AF0DDCF8BF088518A258C6F4E
:1015900089518B218D6F180E8C25D96E000E8D21EF
:1015A000DA6EDF50FE6E26EE4CF010EE35F0DE50B7
:1015B000E126DD50E222E750876F8751030DF3CF1C
:1015C00088F0F4CF89F026EE4CF0DECF8AF0DDCF44
:1015D0008BF088518A258C6F89518B218D6F190E64
:1015E0008C25D96E000E8D21DA6EDF50FF6E26EE4F
:1015F0004CF010EE35F0DE50E126DD50E222E750EF
:10160000D8A405EF0BF007EF0BF080EF0AF04EEFD8
:101610000BF0050026EE4CF010EE02F0DE50E12655
:10162000DD50E222E750FD6E26EE4CF010EE02F0A7
:10163000DE50E126DD50E222E6CF87F0E5CF88F0EC
:1016400087C089F088C08AF000018B6B8AC089F05E
:101650008BC08AF08B6B8951FE6E100E876F26EE61
:101660004CF010EE02F0DE50E126DD50E222E6CF33
:1016700088F0E5CF89F088C08AF089C08BF08C6B48
:1016800087298D6F48EF0BF0D8908C338B338A33DA
:101690008D2F44EF0BF000018A51FF6E050E236E73
:1016A000F28E54EF0BF0F28E1200F29E80C2D9FF40
:1016B00081C2DAFFDE06000EDD5A80C2D9FF81C288
:1016C000DAFF010EDBBE69EF0BF067EF0BF08BEF7B
:1016D0000EF026EE4EF0020110EE06F08051E126EB
:1016E0008151E222E750826F82518025836F000E84
:1016F0008121846F020E8325E16E000E8421E26E4B
:10170000DFCFE7FF20EE06F08051D9268151DA22A3
:1017100010EE06F08051E1268151E222E750826FFF
:101720008229030BDF6E26EE4CF010EE01F0DE5046
:10173000E126DD50E222020EE618D8A4A2EF0BF05B
:10174000A4EF0BF0E2EF0CF026EE4CF010EE01F0FF
:10175000DE50E126DD50E222030EE76E26EE4CF06D
:1017600010EE08F0DE50E126DD50E222E0CFE7FF88
:1017700026EE4CF010EE0CF0DE50E126DD50E222B9
:10178000EACFE7FF26EE4CF010EE0BF0DE50E1263C
:10179000DD50E222E9CFE7FF26EE4CF010EE0EF02E
:1017A000DE50E126DD50E222E2CFE7FF26EE4CF0EC
:1017B00010EE0DF0DE50E126DD50E222E1CFE7FF32
:1017C00026EE4CF010EE10F0DE50E126DD50E22265
:1017D000DACFE7FF26EE4CF010EE0FF0DE50E126F8
:1017E000DD50E222D9CFE7FF26EE4CF010EE15F0E7
:1017F000DE50E126DD50E222FACFE7FF26EE4CF084
:1018000010EE16F0DE50E126DD50E222FBCFE7FFBE
:1018100026EE4CF010EE0AF0DE50E126DD50E2221A
:10182000F4CFE7FF26EE4CF010EE09F0DE50E12693
:10183000DD50E222F3CFE7FF26EE4CF010EE11F080
:10184000DE50E126DD50E222F5CFE7FF26EE4CF038
:1018500010EE13F0DE50E126DD50E222F7CFE7FF75
:1018600026EE4CF010EE12F0DE50E126DD50E222C2
:10187000F6CFE7FF26EE4CF010EE14F0DE50E12636
:10188000DD50E222F8CFE7FF26EE4CF010EE06F036
:10189000DE50E126DD50E222E8CFE7FF26EE4CF0F5
:1018A00010EE07F0DE50E126DD50E222D8CFE7FF50
:1018B00026EE4CF010EE35F0DE50E126DD50E2224F
:1018C000E76ADAEF0CF026EE4CF010EE35F0DE5061
:1018D000E126DD50E222E7500201826F8251030DC2
:1018E000F3CF83F2F4CF84F226EE4CF0DECF85F214
:1018F000DDCF86F283518525876F84518621886FDD
:10190000170E8725D96E000E8821DA6EFDCFDFFF16
:1019100026EE4CF010EE35F0DE50E126DD50E222EE
:10192000E750826F8251030DF3CF83F2F4CF84F23C
:1019300026EE4CF0DECF85F2DDCF86F28351852591
:10194000876F84518621886F180E8725D96E000E07
:101950008821DA6EFECFDFFF26EE4CF010EE35F078
:10196000DE50E126DD50E222E750826F8251030D06
:10197000F3CF83F2F4CF84F226EE4CF0DECF85F283
:10198000DDCF86F283518525876F84518621886F4C
:10199000190E8725D96E000E8821DA6EFFCFDFFF82
:1019A00026EE4CF010EE35F0DE50E126DD50E2225E
:1019B000E72A0600FC50D8A4E0EF0CF0E2EF0CF0B0
:1019C00063EF0CF0E8EC1AF026EE4CF010EE01F0AC
:1019D000DE50E126DD50E222E750D8A4F2EF0CF011
:1019E000F4EF0CF08BEF0EF026EE4CF010EE01F061
:1019F000DE50E126DD50E222020EE76E26EE4CF0CC
:101A000010EE08F0DE50E126DD50E222E750E06EF5
:101A100026EE4CF010EE0CF0DE50E126DD50E22216
:101A2000E750EA6E26EE4CF010EE0BF0DE50E126A9
:101A3000DD50E222E750E96E26EE4CF010EE0EF09B
:101A4000DE50E126DD50E222E750E26E26EE4CF059
:101A500010EE0DF0DE50E126DD50E222E750E16E9F
:101A600026EE4CF010EE10F0DE50E126DD50E222C2
:101A7000E750DA6E26EE4CF010EE0FF0DE50E12665
:101A8000DD50E222E750D96E26EE4CF010EE15F054
:101A9000DE50E126DD50E222E750FA6E26EE4CF0F1
:101AA00010EE16F0DE50E126DD50E222E750FB6E2C
:101AB00026EE4CF010EE0AF0DE50E126DD50E22278
:101AC000E750F46E26EE4CF010EE09F0DE50E12601
:101AD000DD50E222E750F36E26EE4CF010EE11F0EE
:101AE000DE50E126DD50E222E750F56E26EE4CF0A6
:101AF00010EE13F0DE50E126DD50E222E750F76EE3
:101B000026EE4CF010EE12F0DE50E126DD50E2221F
:101B1000E750F66E26EE4CF010EE14F0DE50E126A3
:101B2000DD50E222E750F86E26EE4CF010EE07F0A2
:101B3000DE50E126DD50E222E750D86E26EE4CF072
:101B400010EE06F0DE50E126DD50E222E750020101
:101B5000826F8251FC6A26EE4CF010EE35F0DE50BA
:101B6000E126DD50E222E750D8B4B9EF0DF0BBEF2B
:101B70000DF044EF0EF0050026EE4CF010EE35F0BF
:101B8000DE50E126DD50E222E70626EE4CF010EEB4
:101B900035F0DE50E126DD50E222E7500201826F8F
:101BA0008251030DF3CF83F2F4CF84F226EE4CF092
:101BB000DECF85F2DDCF86F283518525876F845194
:101BC0008621886F170E8725D96E000E8821DA6E60
:101BD000DF50FD6E26EE4CF010EE35F0DE50E126C3
:101BE000DD50E222E750826F8251030DF3CF83F282
:101BF000F4CF84F226EE4CF0DECF85F2DDCF86F214
:101C000083518525876F84518621886F180E87251B
:101C1000D96E000E8821DA6EDF50FE6E26EE4CF093
:101C200010EE35F0DE50E126DD50E222E750826F03
:101C30008251030DF3CF83F2F4CF84F226EE4CF001
:101C4000DECF85F2DDCF86F283518525876F845103
:101C50008621886F190E8725D96E000E8821DA6ECD
:101C6000DF50FF6E26EE4CF010EE35F0DE50E12630
:101C7000DD50E222E750D8A440EF0EF042EF0EF024
:101C8000BBEF0DF089EF0EF0050026EE4CF010EEE4
:101C900002F0DE50E126DD50E222E750FD6E26EE36
:101CA0004CF010EE02F0DE50E126DD50E222E6CFED
:101CB00082F2E5CF83F282C284F283C285F202010E
:101CC000866B85C284F286C285F2866B8451FE6E75
:101CD000100E826F26EE4CF010EE02F0DE50E12680
:101CE000DD50E222E6CF83F2E5CF84F283C285F2B3
:101CF00084C286F2876B8229886F83EF0EF0D890BA
:101D0000873386338533882F7FEF0EF002018551AC
:101D1000FF6E050E236EF28E12000001836FF29E9D
:101D200000017A517B11D8A498EF0EF09AEF0EF0D3
:101D300094EF11F026EE4CF010EE01F0DE50E126AB
:101D4000DD50E222020EE618D8A4A9EF0EF0ABEFA8
:101D50000EF0E9EF0FF026EE4CF010EE01F0DE5041
:101D6000E126DD50E22283C0E7FF26EE4CF010EEC4
:101D700008F0DE50E126DD50E222E0CFE7FF26EE5C
:101D80004CF010EE0CF0DE50E126DD50E222EACFFE
:101D9000E7FF26EE4CF010EE0BF0DE50E126DD50B2
:101DA000E222E9CFE7FF26EE4CF010EE0EF0DE5017
:101DB000E126DD50E222E2CFE7FF26EE4CF010EE06
:101DC0000DF0DE50E126DD50E222E1CFE7FF26EE06
:101DD0004CF010EE10F0DE50E126DD50E222DACFBA
:101DE000E7FF26EE4CF010EE0FF0DE50E126DD505E
:101DF000E222D9CFE7FF26EE4CF010EE15F0DE50D0
:101E0000E126DD50E222FACFE7FF26EE4CF010EE9D
:101E100016F0DE50E126DD50E222FBCFE7FF26EE92
:101E20004CF010EE0AF0DE50E126DD50E222F4CF55
:101E3000E7FF26EE4CF010EE09F0DE50E126DD5013
:101E4000E222F3CFE7FF26EE4CF010EE11F0DE5069
:101E5000E126DD50E222F5CFE7FF26EE4CF010EE52
:101E600013F0DE50E126DD50E222F7CFE7FF26EE49
:101E70004CF010EE12F0DE50E126DD50E222F6CFFB
:101E8000E7FF26EE4CF010EE14F0DE50E126DD50B8
:101E9000E222F8CFE7FF26EE4CF010EE06F0DE501F
:101EA000E126DD50E222E8CFE7FF26EE4CF010EE0F
:101EB00007F0DE50E126DD50E222D8CFE7FF26EE24
:101EC0004CF010EE35F0DE50E126DD50E222E76AFC
:101ED000E1EF0FF026EE4CF010EE35F0DE50E1268B
:101EE000DD50E222E75000017C6F7C51030DF3CFFF
:101EF0007DF0F4CF7EF026EE4CF0DECF7FF0DDCF2C
:101F000080F07D517F25816F7E518021826F170E79
:101F10008125D96E000E8221DA6EFDCFDFFF26EE1D
:101F20004CF010EE35F0DE50E126DD50E222E750B5
:101F30007C6F7C51030DF3CF7DF0F4CF7EF026EE65
:101F40004CF0DECF7FF0DDCF80F07D517F25816FBB
:101F50007E518021826F180E8125D96E000E82215C
:101F6000DA6EFECFDFFF26EE4CF010EE35F0DE50DD
:101F7000E126DD50E222E7507C6F7C51030DF3CF68
:101F80007DF0F4CF7EF026EE4CF0DECF7FF0DDCF9B
:101F900080F07D517F25816F7E518021826F190EE7
:101FA0008125D96E000E8221DA6EFFCFDFFF26EE8B
:101FB0004CF010EE35F0DE50E126DD50E222E72A4B
:101FC0000600FC50D8A4E7EF0FF0E9EF0FF06AEF3E
:101FD0000FF0E8EC1AF026EE4CF010EE01F0DE50B7
:101FE000E126DD50E222E750D8A4F9EF0FF0FBEF35
:101FF0000FF09CEF11F026EE4CF010EE01F0DE50E9
:10200000E126DD50E222020EE76E26EE4CF010EEE5
:1020100008F0DE50E126DD50E222E750E06E26EEC9
:102020004CF010EE0CF0DE50E126DD50E222E750DD
:10203000EA6E26EE4CF010EE0BF0DE50E126DD509D
:10204000E222E750E96E26EE4CF010EE0EF0DE5084
:10205000E126DD50E222E750E26E26EE4CF010EE73
:102060000DF0DE50E126DD50E222E750E16E26EE73
:102070004CF010EE10F0DE50E126DD50E222E75089
:10208000DA6E26EE4CF010EE0FF0DE50E126DD5059
:10209000E222E750D96E26EE4CF010EE15F0DE503D
:1020A000E126DD50E222E750FA6E26EE4CF010EE0B
:1020B00016F0DE50E126DD50E222E750FB6E26EE00
:1020C0004CF010EE0AF0DE50E126DD50E222E7503F
:1020D000F46E26EE4CF010EE09F0DE50E126DD50F5
:1020E000E222E750F36E26EE4CF010EE11F0DE50D7
:1020F000E126DD50E222E750F56E26EE4CF010EEC0
:1021000013F0DE50E126DD50E222E750F76E26EEB6
:102110004CF010EE12F0DE50E126DD50E222E750E6
:10212000F66E26EE4CF010EE14F0DE50E126DD5097
:10213000E222E750F86E26EE4CF010EE07F0DE508B
:10214000E126DD50E222E750D86E26EE4CF010EE8C
:1021500006F0DE50E126DD50E222E75000017C6F00
:102160007C51FC6A26EE4CF010EE35F0DE50E12694
:10217000DD50E222E750D8B4C0EF10F0C2EF10F00B
:102180004BEF11F0050026EE4CF010EE35F0DE506E
:10219000E126DD50E222E70626EE4CF010EE35F0A7
:1021A000DE50E126DD50E222E75000017C6F7C51D9
:1021B000030DF3CF7DF0F4CF7EF026EE4CF0DECFB2
:1021C0007FF0DDCF80F07D517F25816F7E518021B2
:1021D000826F170E8125D96E000E8221DA6EDF50D4
:1021E000FD6E26EE4CF010EE35F0DE50E126DD50AF
:1021F000E222E7507C6F7C51030DF3CF7DF0F4CFEA
:102200007EF026EE4CF0DECF7FF0DDCF80F07D510A
:102210007F25816F7E518021826F180E8125D96EB6
:10222000000E8221DA6EDF50FE6E26EE4CF010EECC
:1022300035F0DE50E126DD50E222E7507C6F7C5124
:10224000030DF3CF7DF0F4CF7EF026EE4CF0DECF21
:102250007FF0DDCF80F07D517F25816F7E51802121
:10226000826F190E8125D96E000E8221DA6EDF5041
:10227000FF6E26EE4CF010EE35F0DE50E126DD501C
:10228000E222E750D8A447EF11F049EF11F0C2EF76
:1022900010F090EF11F0050026EE4CF010EE02F079
:1022A000DE50E126DD50E222E750FD6E26EE4CF0D6
:1022B00010EE02F0DE50E126DD50E222E6CF7CF0A7
:1022C000E5CF7DF07CC07EF07DC07FF00001806BAB
:1022D0007FC07EF080C07FF0806B7E51FE6E100E5E
:1022E0007C6F26EE4CF010EE02F0DE50E126DD5061
:1022F000E222E6CF7DF0E5CF7EF07DC07FF07EC0AC
:1023000080F0816B7C29826F8AEF11F0D890813345
:1023100080337F33822F86EF11F000017F51FF6EF3
:10232000050E236E9CEF11F020EE01F07A51D926B4
:102330007B51DA2283C0DFFFF28E120059EC1BF0D2
:10234000D3EC1AF026EE4CF010EE01F0DE50E12650
:10235000DD50E222E750D8A4B0EF11F0B2EF11F057
:1023600049EF13F026EE4CF010EE01F0DE50E126BE
:10237000DD50E222020EE76E26EE4CF010EE08F081
:10238000DE50E126DD50E222E750E06E26EE4CF012
:1023900010EE0CF0DE50E126DD50E222E750EA6E4E
:1023A00026EE4CF010EE0BF0DE50E126DD50E2227E
:1023B000E750E96E26EE4CF010EE0EF0DE50E1260E
:1023C000DD50E222E750E26E26EE4CF010EE0DF00A
:1023D000DE50E126DD50E222E750E16E26EE4CF0C1
:1023E00010EE10F0DE50E126DD50E222E750DA6E0A
:1023F00026EE4CF010EE0FF0DE50E126DD50E2222A
:10240000E750D96E26EE4CF010EE15F0DE50E126C6
:10241000DD50E222E750FA6E26EE4CF010EE16F098
:10242000DE50E126DD50E222E750FB6E26EE4CF056
:1024300010EE0AF0DE50E126DD50E222E750F46EA5
:1024400026EE4CF010EE09F0DE50E126DD50E222DF
:10245000E750F36E26EE4CF010EE11F0DE50E12660
:10246000DD50E222E750F56E26EE4CF010EE13F050
:10247000DE50E126DD50E222E750F76E26EE4CF00A
:1024800010EE12F0DE50E126DD50E222E750F66E4B
:1024900026EE4CF010EE14F0DE50E126DD50E22284
:1024A000E750F86E26EE4CF010EE07F0DE50E12615
:1024B000DD50E222E750D86E26EE4CF010EE06F02A
:1024C000DE50E126DD50E222E7500301126F125187
:1024D000FC6A26EE4CF010EE35F0DE50E126DD50C1
:1024E000E222E750D8B477EF12F079EF12F002EF62
:1024F00013F0050026EE4CF010EE35F0DE50E1262C
:10250000DD50E222E70626EE4CF010EE35F0DE500C
:10251000E126DD50E222E7500301126F1251030D54
:10252000F3CF13F3F4CF14F326EE4CF0DECF15F314
:10253000DDCF16F313511525176F14511621186F9F
:10254000170E1725D96E000E1821DA6EDF50FD6EBA
:1025500026EE4CF010EE35F0DE50E126DD50E222A2
:10256000E750126F1251030DF3CF13F3F4CF14F3AE
:1025700026EE4CF0DECF15F3DDCF16F31351152503
:10258000176F14511621186F180E1725D96E000EEB
:102590001821DA6EDF50FE6E26EE4CF010EE35F0AC
:1025A000DE50E126DD50E222E750126F1251030D9A
:1025B000F3CF13F3F4CF14F326EE4CF0DECF15F384
:1025C000DDCF16F313511525176F14511621186F0F
:1025D000190E1725D96E000E1821DA6EDF50FF6E26
:1025E00026EE4CF010EE35F0DE50E126DD50E22212
:1025F000E750D8A4FEEF12F000EF13F079EF12F0DD
:1026000047EF13F0050026EE4CF010EE02F0DE501E
:10261000E126DD50E222E750FD6E26EE4CF010EE92
:1026200002F0DE50E126DD50E222E6CF12F3E5CFE4
:1026300013F312C314F313C315F30301166B15C37D
:1026400014F316C315F3166B1451FE6E100E126FB1
:1026500026EE4CF010EE02F0DE50E126DD50E222D4
:10266000E6CF13F3E5CF14F313C315F314C316F336
:10267000176B1229186F41EF13F0D89017331633E8
:102680001533182F3DEF13F003011551FF6E050EA2
:10269000236EF28E120003010B6B0C6B90EF13F0A4
:1026A0000C51360D3E0EF324D96E050EF420DA6E71
:1026B000DF50D8A45EEF13F060EF13F08FEF13F04C
:1026C0000C51360D3F0EF324D96E050EF420DA6E50
:1026D000FA0EDE1809E1350EDE18D8B472EF13F0E9
:1026E00074EF13F08FEF13F00C51360D420EF324FC
:1026F000D96E050EF420DA6EDE500B5DD8B083EF94
:1027000013F085EF13F08FEF13F00C51360D420EDE
:10271000F324D96E050EF420DA6EDF500B6F0C2B0C
:1027200026EE4BF0DE500C5DD8A099EF13F09BEF36
:1027300013F050EF13F04EC60DF30A6B010E0D258A
:10274000026F036B000E03234BC608F30851046F9E
:10275000056B0AEC17F0030102510D6F0A2B26EEF0
:102760004BF0DE500A5DD8A0B8EF13F0BAEF13F0CB
:1027700004EF14F00E6BF6EF13F00E51360D3E0E13
:10278000F324D96E050EF420DA6EDF50D8A4CBEF17
:1027900013F0CDEF13F0F5EF13F00E51360D420E9E
:1027A000F324D96E050EF420DA6E0B51DE18D8A48E
:1027B000DCEF13F0DEEF13F0F5EF13F00E51360DF2
:1027C0003F0EF324D96E050EF420DA6EFA0EDE18F1
:1027D00009E1350EDE18D8B4F0EF13F0F2EF13F084
:1027E000F5EF13F00E513AEF14F00E2B26EE4BF0EE
:1027F000DE500E5DD8A0FFEF13F001EF14F0BDEF37
:1028000013F0000E3AEF14F00D51360D3E0EF32486
:10281000D96E050EF420DA6EDF50D8A412EF14F052
:1028200014EF14F09EEF13F00D51360D420EF32409
:10283000D96E050EF420DA6E0B51DE18D8A423EF02
:1028400014F025EF14F09EEF13F00D51360D3F0EEE
:10285000F324D96E050EF420DA6EFA0EDE1809E1C3
:10286000350EDE18D8B437EF14F039EF14F09EEFC0
:1028700013F00D5112000201796B7A6B80EF14F0A6
:102880007A51360D3E0EF324D96E050EF420DA6E21
:10289000DF50D8A44EEF14F050EF14F07FEF14F097
:1028A0007A51360D3F0EF324D96E050EF420DA6E00
:1028B000FA0EDE1809E1350EDE18D8B462EF14F016
:1028C00064EF14F07FEF14F07A51360D420EF324CA
:1028D000D96E050EF420DA6EDE50795DD8B073EF54
:1028E00014F075EF14F07FEF14F07A51360D420EAC
:1028F000F324D96E050EF420DA6EDF50796F7A2B4F
:1029000026EE4BF0DE507A5DD8A089EF14F08BEF05
:1029100014F040EF14F04EC67BF2786B010E7B256D
:10292000706F716B000E71234BC676F27651726F29
:10293000736B62EC17F0020170517B6F782B26EEFF
:102940004BF0DE50785DD8A0A8EF14F0AAEF14F099
:10295000F4EF14F07C6BE6EF14F07C51360D3E0E74
:10296000F324D96E050EF420DA6EDF50D8A4BBEF45
:1029700014F0BDEF14F0E5EF14F07C51360D420E6B
:10298000F324D96E050EF420DA6E7951DE18D8A43E
:10299000CCEF14F0CEEF14F0E5EF14F07C51360DCF
:1029A0003F0EF324D96E050EF420DA6EFA0EDE180F
:1029B00009E1350EDE18D8B4E0EF14F0E2EF14F0C0
:1029C000E5EF14F07C512AEF15F07C2B26EE4BF04E
:1029D000DE507C5DD8A0EFEF14F0F1EF14F0ADEF16
:1029E00014F0000E2AEF15F07B51360D3E0EF32445
:1029F000D96E050EF420DA6EDF50D8A402EF15F080
:102A000004EF15F08EEF14F07B51360D420EF324D7
:102A1000D96E050EF420DA6E7951DE18D8A413EFC2
:102A200015F015EF15F08EEF14F07B51360D3F0EBB
:102A3000F324D96E050EF420DA6EFA0EDE1809E1E1
:102A4000350EDE18D8B427EF15F029EF15F08EEF0C
:102A500014F07B5112000B6A0C6A6FEF15F00C50EA
:102A6000360D3E0EF324D96E050EF420DA6EDF50DB
:102A7000D8A43DEF15F03FEF15F06EEF15F00C50B8
:102A8000360D3F0EF324D96E050EF420DA6EFA0EE1
:102A9000DE1809E1350EDE18D8B451EF15F053EF0A
:102AA00015F06EEF15F00C50360D420EF324D96E72
:102AB000050EF420DA6EDE500B5CD8B062EF15F034
:102AC00064EF15F06EEF15F00C50360D420EF32446
:102AD000D96E050EF420DA6EDF500B6E0C2A26EE4E
:102AE0004BF0DE500C5CD8A078EF15F07AEF15F0C3
:102AF0002FEF15F04EC60DF00A6A010E0D24026E7E
:102B0000036A000E03224BC608F00850046E056AE3
:102B1000BAEC17F002500D6E0A2A26EE4BF0DE508A
:102B20000A5CD8A096EF15F098EF15F0E2EF15F0DB
:102B30000E6AD4EF15F00E50360D3E0EF324D96E0A
:102B4000050EF420DA6EDF50D8A4A9EF15F0ABEF34
:102B500015F0D3EF15F00E50360D420EF324D96E5A
:102B6000050EF420DA6E0B50DE18D8A4BAEF15F07B
:102B7000BCEF15F0D3EF15F00E50360D3F0EF324D9
:102B8000D96E050EF420DA6EFA0EDE1809E1350E64
:102B9000DE18D8B4CEEF15F0D0EF15F0D3EF15F066
:102BA0000E5018EF16F00E2A26EE4BF0DE500E5C9B
:102BB000D8A0DDEF15F0DFEF15F09BEF15F0000E5C
:102BC00018EF16F00D50360D3E0EF324D96E050E9B
:102BD000F420DA6EDF50D8A4F0EF15F0F2EF15F024
:102BE0007DEF15F00D50360D420EF324D96E050E13
:102BF000F420DA6E0B50DE18D8A401EF16F003EFC4
:102C000016F07DEF15F00D50360D3F0EF324D96E02
:102C1000050EF420DA6EFA0EDE1809E1350EDE1824
:102C2000D8B415EF16F017EF16F07DEF15F00D5034
:102C300012000001796B43EF16F07951360D3D0E0D
:102C4000F324D96E050EF420DA6E030EDE18D8A434
:102C50002CEF16F02EEF16F042EF16F07951360DEC
:102C6000720EF324D96E050EF420DA6EDF6A795104
:102C7000360D3E0EF324D96E050EF420DA6EDF6AAF
:102C8000A4EF16F0792B26EE4BF0DE50795DD8A03C
:102C90004CEF16F04EEF16F01DEF16F026EE4BF04F
:102CA000050EDF6056EF16F058EF16F0A4EF16F0A1
:102CB0004BC678F07851360D3D0EF324D96E050ED3
:102CC000F420DA6E030EDF6E4BC678F07851360DC5
:102CD000410EF324D96E050EF420DA6EDF6A4BC67E
:102CE00078F07851360D420EF324D96E050EF4209B
:102CF000DA6E020EDF6E4BC678F07851360D3F0E5D
:102D0000F324D96E050EF420DA6E820EDE6E320EDA
:102D1000DD6E4BC678F07851360D3E0EF324D96E39
:102D2000050EF420DA6EDF6A4BC678F07851360D66
:102D3000720EF324D96E050EF420DA6EDF6A4BC6EC
:102D4000E8FF010FE8CF4BF61200F29E26EE4EF0A0
:102D500000018751E16EE26A010EE126DE50E618BD
:102D6000D8B4B5EF16F0B7EF16F0BAEF16F0F28E52
:102D700009EF17F08751D96EDA6A060ED926DF50AF
:102D8000D8B4C5EF16F0C7EF16F0FDEF16F0875177
:102D9000D96EDA6A080ED926DF50886F87518825E8
:102DA000D96EDA6A020ED926DF508A6F8751D96E42
:102DB000DA6A080ED9268751E16EE26A080EE1262A
:102DC000E750886F8829030BDF6E8751D96EDA6A66
:102DD000060ED926DF068A51360D3E0EF324D96E33
:102DE000050EF420DA6EDF6A8751D96EDA6A010EB9
:102DF000D9268AC0DFFF08EF17F08751D96EDA6A4B
:102E0000DF6A8751D96EDA6A010ED926FF0EDF6EAE
:102E1000F28E12000301076B03BF13EF17F011EFDF
:102E200017F019EF17F0026D031FD8B0032B010E36
:102E3000076F05BF20EF17F01EEF17F024EF17F014
:102E4000046D051FD8B0052B04510511D8B42BEF24
:102E500017F02DEF17F051EF17F0010E066F35EF59
:102E600017F0D89004370537062B05AF3AEF17F067
:102E70003CEF17F031EF17F00451025D0551035993
:102E8000D8A045EF17F047EF17F04BEF17F00451BC
:102E9000025F0551035BD89005330433062F3CEFE6
:102EA00017F00751D8B457EF17F059EF17F05DEF4F
:102EB00017F0026D031FD8B0032B02C302F303C344
:102EC00003F312000201756B71BF6BEF17F069EF2E
:102ED00017F071EF17F0706D711FD8B0712B010EE4
:102EE000756F73BF78EF17F076EF17F07CEF17F080
:102EF000726D731FD8B0732B72517311D8B483EFF6
:102F000017F085EF17F0A9EF17F0010E746F8DEF32
:102F100017F0D89072377337742B73AF92EF17F0A6
:102F200094EF17F089EF17F07251705D735171597A
:102F3000D8A09DEF17F09FEF17F0A3EF17F0725195
:102F4000705F7351715BD89073337233742F94EF49
:102F500017F07551D8B4AFEF17F0B1EF17F0B5EF28
:102F600017F0706D711FD8B0712B70C270F271C202
:102F700071F21200076A03BEC2EF17F0C0EF17F03C
:102F8000C8EF17F0026C031ED8B0032A010E076EBB
:102F900005BECFEF17F0CDEF17F0D3EF17F0046CAD
:102FA000051ED8B0052A04500510D8B4DAEF17F082
:102FB000DCEF17F000EF18F0010E066EE4EF17F0EB
:102FC000D89004360536062A05AEE9EF17F0EBEF88
:102FD00017F0E0EF17F00450025C05500358D8A03A
:102FE000F4EF17F0F6EF17F0FAEF17F00450025E67
:102FF0000550035AD89005320432062EEBEF17F035
:103000000750D8B406EF18F008EF18F00CEF18F0DE
:10301000026C031ED8B0032A02C002F003C003F002
:103020001200F29E70C2D9FF71C2DAFFDE2A000ED2
:10303000DD2270C2D9FF71C2DAFF010EDBBE2CEFB8
:1030400018F0010EDB5006E1DE04D8B02AEF18F0CC
:103050002CEF18F05DEF18F0020120EE07F0705130
:10306000D9267151DA22DF50726F72517025736F59
:10307000000E7121746F020E7325D96E000E74213B
:10308000DA6EDF50756F7551360D3E0EF324D96E32
:10309000050EF420DA6EDF6A20EE07F07051D926B3
:1030A0007151DA2210EE07F07051E1267151E222DF
:1030B000E750726F7229030BDF6EF28E1200060E5C
:1030C00001011B250201806F000E01011C2102017C
:1030D000816F55EC0BF0010120EE04F01B51D92655
:1030E0001C51DA22DF500001876F875101011B2537
:1030F000D96E0001000E01011C21DA6E1DC1DFFF37
:1031000020EE04F01B51D9261C51DA2210EE04F0F7
:103110001B51E1261C51E222E7500001876F8729ED
:10312000030BDF6E0E0E01011B250201706F000EF6
:1031300001011C210201716F11EC18F012000E0E3A
:1031400002018925806F000E8A21816F55EC0BF0FA
:10315000020120EE05F08951D9268A51DA22DF508A
:103160008D6F8D518925D96E000E8A21DA6E8BC242
:10317000E1FF8CC2E2FFDFCFE7FF20EE05F08951CF
:10318000D9268A51DA2210EE05F08951E1268A51BA
:10319000E222E7508D6F8D29030BDF6E060E892525
:1031A000706F000E8A21716F11EC18F0120003018C
:1031B000066F06C307F303010B6B04C30CF302C3D2
:1031C00009F303C30AF3086B0F6B136B126B156BD8
:1031D000146B176B166B1C6B1D6B116B106B0E6BEE
:1031E000186B1A6B196B1B6B0D6B3C6B23EE07F0A6
:1031F0004BC605F30551360D3D0EF324E16E050E69
:10320000F420E26E350EDBCFE3FFE806FCE24BC6AE
:10321000E8FF010FE8CF4BF61200040E0201715DCA
:10322000D8A015EF19F017EF19F01AEF19F0030EE7
:10323000716F706970517111D8A421EF19F023EFEB
:1032400019F028EF19F0BD6A94948B9440EF19F0AF
:103250000C0EBD6E70C272F271C273F2D8907333ED
:103260007233D890733372337251BE6E70C272F281
:10327000030E7217723BBD507219CF0B7219BD6EDF
:103280001200920E01011B6F01EC08F038EC1BF0EC
:1032900087C085F088C086F0920E0001876FA5EC8C
:1032A00016F000018505020E8659D8B05AEF19F0C4
:1032B0005EEF19F0846B842B60EF19F00001846BD2
:1032C0008447844784478B508419F70B84198B6E8D
:1032D000000E7A6F000E7B6F010E8DEC0EF0120067
:1032E00094928B9294948B9494968B9694988B98BA
:1032F00025EC1BF070EC1BF0630E49EC1BF065EC49
:103300001BF0920E0301026F51EC1AF0000E030144
:10331000076F010E086F0CEC1AF0320E0301026FFA
:103320002C0E036F000E31EC1AF06DEC1BF0120046
:10333000920E01011B6F01EC08F038EC1BF087C006
:1033400090F088C091F0920E0001876FA5EC16F006
:10335000000E01011B6F010E1C6F90C08EF091C01A
:103360008FF00001D8908F338E33D8908F338E3307
:103370008E5101011D6F5FEC18F098EF19F01200EB
:10338000E40EF66E360EF76E000EF86E0900F5CFFD
:1033900023F003EE3DF013EE12F0EE6AE550E1503B
:1033A000FCE1E250FAE101EE00F0160EEE6AE806EA
:1033B000FDE100EE92F0090EEE6AE806FDE10190F3
:1033C0000192000EF86E0001E6EF19F08BEC1AF096
:1033D000D20E0301026F360E036F010E046F020E50
:1033E000D7EC18F0300E0301026F330E036F020E9C
:1033F000046F040ED7EC18F0780E0301026F350E3F
:10340000036F020E046F050ED7EC18F09EEC11F05E
:1034100008EF1AF0A5EF03F0030120EE04F00751C6
:10342000D9260851DA22DF6A20EE05F00751D926A5
:103430000851DA22DF6A060E0725026F000E082106
:10344000036F040E046F70EC1AF00E0E03010725D3
:10345000026F000E0821036F000E046F70EC1AF06B
:1034600012000301056F02C31EF103C31FF1938015
:103470000F01399103010551D8B441EF1AF045EF1E
:103480001AF0046B042B47EF1AF00301046B043BA2
:1034900004470447F1500419BF0B0419F16EF2926E
:1034A000120003010251D96EDA6ADF6A0251D96E45
:1034B000DA6A010ED926FF0EDF6E0251D96EDA6A82
:1034C000060ED926DF6A0251D96EDA6A070ED926AE
:1034D000DF6A0251D96EDA6A080ED926DF6A120055
:1034E00003010451056F066B02C3D9FF03C3DAFF62
:1034F00005C3DEFF06C3DDFF20EE06F00251D9262C
:103500000351DA22DF6A20EE07F00251D926035177
:10351000DA22DF6A1200000EE8CF4BF63D0EE8CF4C
:103520004CF6050EE8CF4DF6000EE8CF4EF6FA0E3B
:103530000301026F350E036F000E046F010ED7EC0E
:1035400018F070EC19F01200F29201011E511F11D7
:10355000D8B4ADEF1AF0AFEF1AF0BBEF1AF002D803
:10356000BBEF1AF00500FA6E1E51FD6E1F51FE6E84
:10357000FF6AFA5012001200000E0201896F010E5C
:103580008A6F010E8B6F030E8C6F9FEC18F0030196
:103590000151040DF3CF70F2F4CF71F20DEC19F07C
:1035A000BCEF1AF012004BEC13F003010F6F0FC3C6
:1035B0004EF64EC60FF30F51360D3D0EF324106F2D
:1035C000050EF420116F10C34CF611C34DF6120016
:1035D0003BEC14F002017D6F7DC24EF64EC67DF2CB
:1035E0007D51360D3D0EF3247E6F050EF4207F6F66
:1035F0007EC24CF67FC24DF61200949082B003EF6B
:103600001BF006EF1BF0010E07EF1BF0000EFF0A88
:10361000026E82500218FE0B0218826EFEEF1AF044
:1036200012002BEC15F00F6E0FC04EF64EC60FF0C9
:103630000F50360D3D0EF324106E050EF420116E62
:1036400010C04CF611C04DF61200830EC216F30ED8
:10365000C116FC0EC116C08EC050C70B3009C06E1B
:10366000C050F80B0409C06E92800F01388112001F
:10367000C282C2B23EEF1BF040EF1BF039EF1BF0ED
:10368000C3CF89F0C4CF8AF089C087F08AC088F0A0
:1036900012000301026F8B949494BA9402C3BBFF8F
:1036A000BD6ABE6ACF0EBD16BA50FC0B0109BA6ED8
:1036B0001200F28AF294D58CD59AD596070ED512BF
:1036C000D58ED76A000ED66E1200BC6ABA84949466
:1036D00012008B7269EF1BF01200F292F288120056
:0536E000C2801200058C
:00000001FF
