:040000008DEF03F08D
:100008000182E1CF16F0E2CF17F0D9CF18F0DACF9E
:1000180019F0F3CF1AF0F4CF1BF0F2A416EF00F0AA
:1000280018EF00F07FEF03F0F2941D6A000E1C6ECB
:100038006EEF00F0750E1C02F3CF0FF0F4CF10F046
:100048001D02F35010267A0E0F24D96E040E1020CC
:10005800DA6EDF50D8B433EF00F035EF00F06CEF14
:1000680000F0750E1C02F3CF0FF0F4CF10F01D0254
:10007800F35010267A0E0F24D96E040E1020DA6E73
:10008800DF06750E1C02F3CF0FF0F4CF10F01D023F
:10009800F35010267A0E0F24D96E040E1020DA6E53
:1000A800DF50D8A45AEF00F05CEF00F06CEF00F0DE
:1000B800750E1C02F3CF0FF0F4CF10F01D02F350B1
:1000C8001026770E0F24D96E040E1020DA6EDF6A20
:1000D8001C4A1D2A26EE4AF0DF500F6E106A0F5098
:1000E8001C5C1D50800A116E1050800A1158D8A04F
:1000F80080EF00F082EF00F01EEF00F0250625509B
:10010800D8A489EF00F08BEF00F07FEF03F0050E25
:10011800256E26EE4BF010EE01F0DE50E126DD50A4
:10012800E222020EE618D8A49CEF00F09EEF00F041
:10013800DAEF01F026EE4BF010EE01F0DE50E1268A
:10014800DD50E222E76A26EE4BF010EE08F0DE50B2
:10015800E126DD50E222E0CFE7FF26EE4BF010EE7D
:100168000CF0DE50E126DD50E222EACFE7FF26EE72
:100178004BF010EE0BF0DE50E126DD50E222E9CF25
:10018800E7FF26EE4BF010EE0EF0DE50E126DD50D4
:10019800E222E2CFE7FF26EE4BF010EE0DF0DE5044
:1001A800E126DD50E222E1CFE7FF26EE4BF010EE2C
:1001B80010F0DE50E126DD50E222DACFE7FF26EE2E
:1001C8004BF010EE0FF0DE50E126DD50E222D9CFE1
:1001D800E7FF26EE4BF010EE15F0DE50E126DD507D
:1001E800E222FACFE7FF26EE4BF010EE16F0DE50D3
:1001F800E126DD50E222FBCFE7FF26EE4BF010EEC2
:100208000AF0DE50E126DD50E222F4CFE7FF26EEC9
:100218004BF010EE09F0DE50E126DD50E222F3CF7C
:10022800E7FF26EE4BF010EE11F0DE50E126DD5030
:10023800E222F5CFE7FF26EE4BF010EE13F0DE508A
:10024800E126DD50E222F7CFE7FF26EE4BF010EE75
:1002580012F0DE50E126DD50E222F6CFE7FF26EE6F
:100268004BF010EE14F0DE50E126DD50E222F8CF1C
:10027800E7FF26EE4BF010EE06F0DE50E126DD50EB
:10028800E222E8CFE7FF26EE4BF010EE07F0DE5053
:10029800E126DD50E222D8CFE7FF26EE4BF010EE44
:1002A80074F0DE50E126DD50E222E76AD2EF01F079
:1002B80026EE4BF010EE74F0DE50E126DD50E2221F
:1002C800E7500F6E0F50030DF3CF10F0F4CF11F07D
:1002D80026EE4BF0DECF12F0DDCF13F010501224D3
:1002E800146E11501320156E170E1424D96E000EBB
:1002F8001520DA6EFDCFDFFF26EE4BF010EE74F01E
:10030800DE50E126DD50E222E7500F6E0F50030D5C
:10031800F3CF10F0F4CF11F026EE4BF0DECF12F051
:10032800DDCF13F010501224146E11501320156EE7
:10033800180E1424D96E000E1520DA6EFECFDFFFDA
:1003480026EE4BF010EE74F0DE50E126DD50E2228E
:10035800E7500F6E0F50030DF3CF10F0F4CF11F0EC
:1003680026EE4BF0DECF12F0DDCF13F01050122442
:10037800146E11501320156E190E1424D96E000E28
:100388001520DA6EFFCFDFFF26EE4BF010EE74F08B
:10039800DE50E126DD50E222E72A0600FC50D8A410
:1003A800D8EF01F0DAEF01F05CEF01F00EEC11F09C
:1003B80026EE4BF010EE01F0DE50E126DD50E22291
:1003C800E750D8A4EAEF01F0ECEF01F07FEF03F07B
:1003D80026EE4BF010EE01F0DE50E126DD50E22271
:1003E800020EE76E26EE4BF010EE08F0DE50E12626
:1003F800DD50E222E750E06E26EE4BF010EE0CF0F6
:10040800DE50E126DD50E222E750EA6E26EE4BF0A0
:1004180010EE0BF0DE50E126DD50E222E750E96EE7
:1004280026EE4BF010EE0EF0DE50E126DD50E22213
:10043800E750E26E26EE4BF010EE0DF0DE50E126AE
:10044800DD50E222E750E16E26EE4BF010EE10F0A0
:10045800DE50E126DD50E222E750DA6E26EE4BF060
:1004680010EE0FF0DE50E126DD50E222E750D96EA3
:1004780026EE4BF010EE15F0DE50E126DD50E222BC
:10048800E750FA6E26EE4BF010EE16F0DE50E1263D
:10049800DD50E222E750FB6E26EE4BF010EE0AF03C
:1004A800DE50E126DD50E222E750F46E26EE4BF0F6
:1004B80010EE09F0DE50E126DD50E222E750F36E3F
:1004C80026EE4BF010EE11F0DE50E126DD50E22270
:1004D800E750F56E26EE4BF010EE13F0DE50E126F5
:1004E800DD50E222E750F76E26EE4BF010EE12F0E8
:1004F800DE50E126DD50E222E750F66E26EE4BF0A4
:1005080010EE14F0DE50E126DD50E222E750F86EDE
:1005180026EE4BF010EE07F0DE50E126DD50E22229
:10052800E750D86E26EE4BF010EE06F0DE50E126CE
:10053800DD50E222E7500F6E0F50FC6A26EE4BF0BA
:1005480010EE74F0DE50E126DD50E222E750D8B418
:10055800B0EF02F0B2EF02F03AEF03F0050026EE3A
:100568004BF010EE74F0DE50E126DD50E222E70693
:1005780026EE4BF010EE74F0DE50E126DD50E2225C
:10058800E7500F6E0F50030DF3CF10F0F4CF11F0BA
:1005980026EE4BF0DECF12F0DDCF13F01050122410
:1005A800146E11501320156E170E1424D96E000EF8
:1005B8001520DA6EDF50FD6E26EE4BF010EE74F06B
:1005C800DE50E126DD50E222E7500F6E0F50030D9A
:1005D800F3CF10F0F4CF11F026EE4BF0DECF12F08F
:1005E800DDCF13F010501224146E11501320156E25
:1005F800180E1424D96E000E1520DA6EDF50FE6E28
:1006080026EE4BF010EE74F0DE50E126DD50E222CB
:10061800E7500F6E0F50030DF3CF10F0F4CF11F029
:1006280026EE4BF0DECF12F0DDCF13F0105012247F
:10063800146E11501320156E190E1424D96E000E65
:100648001520DA6EDF50FF6E26EE4BF010EE74F0D8
:10065800DE50E126DD50E222E750D8A436EF03F061
:1006680038EF03F0B2EF02F07DEF03F0050026EE5D
:100678004BF010EE02F0DE50E126DD50E222E750AA
:10068800FD6E26EE4BF010EE02F0DE50E126DD5056
:10069800E222E6CF0FF0E5CF10F00FC011F010C046
:1006A80012F0136A12C011F013C012F0136A11503D
:1006B800FE6E100E0F6E26EE4BF010EE02F0DE50BE
:1006C800E126DD50E222E6CF10F0E5CF11F010C0B0
:1006D80012F011C013F0146A0F28156E78EF03F0AA
:1006E800D890143213321232152E74EF03F01250D0
:1006F800FF6E050E256E1BC0F4FF1AC0F3FF19C06C
:10070800DAFF18C0D9FF17C0E2FF16C0E1FF019257
:06071800110081EF0FF05B
:101000000000F29E01016151D96EDA6ADE06000E1F
:10101000DD5A6151D96EDA6A010EDBBE14EF08F0B9
:1010200012EF08F037EF0BF026EE4DF06151E16E54
:10103000E26A050EE126E750626F61516225E16EBA
:10104000E26A020EE126DFCFE7FF6151D96EDA6A6C
:10105000050ED9266151E16EE26A050EE126E750E0
:10106000626F010E6225546F556B000E5523576B4E
:10107000030E566F3EEC0DF001015451DF6E26EE6B
:101080004BF010EE01F0DE50E126DD50E222020EC0
:10109000E618D8A44EEF08F050EF08F08EEF09F0F4
:1010A00026EE4BF010EE01F0DE50E126DD50E2229C
:1010B000030EE76E26EE4BF010EE08F0DE50E12650
:1010C000DD50E222E0CFE7FF26EE4BF010EE0CF011
:1010D000DE50E126DD50E222EACFE7FF26EE4BF0BC
:1010E00010EE0BF0DE50E126DD50E222E9CFE7FF03
:1010F00026EE4BF010EE0EF0DE50E126DD50E2223F
:10110000E2CFE7FF26EE4BF010EE0DF0DE50E126C9
:10111000DD50E222E1CFE7FF26EE4BF010EE10F0BB
:10112000DE50E126DD50E222DACFE7FF26EE4BF07B
:1011300010EE0FF0DE50E126DD50E222D9CFE7FFBE
:1011400026EE4BF010EE15F0DE50E126DD50E222E7
:10115000FACFE7FF26EE4BF010EE16F0DE50E12658
:10116000DD50E222FBCFE7FF26EE4BF010EE0AF057
:10117000DE50E126DD50E222F4CFE7FF26EE4BF011
:1011800010EE09F0DE50E126DD50E222F3CFE7FF5A
:1011900026EE4BF010EE11F0DE50E126DD50E2229B
:1011A000F5CFE7FF26EE4BF010EE13F0DE50E12610
:1011B000DD50E222F7CFE7FF26EE4BF010EE12F003
:1011C000DE50E126DD50E222F6CFE7FF26EE4BF0BF
:1011D00010EE14F0DE50E126DD50E222F8CFE7FFFA
:1011E00026EE4BF010EE06F0DE50E126DD50E22256
:1011F000E8CFE7FF26EE4BF010EE07F0DE50E126D9
:10120000DD50E222D8CFE7FF26EE4BF010EE74F06F
:10121000DE50E126DD50E222E76A86EF09F026EE95
:101220004BF010EE74F0DE50E126DD50E222E75084
:101230000101626F6251030DF3CF63F1F4CF64F1EA
:1012400026EE4BF0DECF65F1DDCF66F1635165250B
:10125000676F64516621686F170E6725D96E000E9F
:101260006821DA6EFDCFDFFF26EE4BF010EE74F052
:10127000DE50E126DD50E222E750626F6251030D3D
:10128000F3CF63F1F4CF64F126EE4BF0DECF65F1DE
:10129000DDCF66F163516525676F64516621686F24
:1012A000180E6725D96E000E6821DA6EFECFDFFFBB
:1012B00026EE4BF010EE74F0DE50E126DD50E22217
:1012C000E750626F6251030DF3CF63F1F4CF64F125
:1012D00026EE4BF0DECF65F1DDCF66F1635165257B
:1012E000676F64516621686F190E6725D96E000E0D
:1012F0006821DA6EFFCFDFFF26EE4BF010EE74F0C0
:10130000DE50E126DD50E222E72A0600FC50D8A498
:101310008CEF09F08EEF09F00FEF09F0D1EC10F02F
:1013200026EE4BF010EE01F0DE50E126DD50E22219
:10133000E750D8A49EEF09F0A0EF09F037EF0BF0CB
:1013400026EE4BF010EE01F0DE50E126DD50E222F9
:10135000020EE76E26EE4BF010EE08F0DE50E126AE
:10136000DD50E222E750E06E26EE4BF010EE0CF07E
:10137000DE50E126DD50E222E750EA6E26EE4BF029
:1013800010EE0BF0DE50E126DD50E222E750E96E70
:1013900026EE4BF010EE0EF0DE50E126DD50E2229C
:1013A000E750E26E26EE4BF010EE0DF0DE50E12637
:1013B000DD50E222E750E16E26EE4BF010EE10F029
:1013C000DE50E126DD50E222E750DA6E26EE4BF0E9
:1013D00010EE0FF0DE50E126DD50E222E750D96E2C
:1013E00026EE4BF010EE15F0DE50E126DD50E22245
:1013F000E750FA6E26EE4BF010EE16F0DE50E126C6
:10140000DD50E222E750FB6E26EE4BF010EE0AF0C4
:10141000DE50E126DD50E222E750F46E26EE4BF07E
:1014200010EE09F0DE50E126DD50E222E750F36EC7
:1014300026EE4BF010EE11F0DE50E126DD50E222F8
:10144000E750F56E26EE4BF010EE13F0DE50E1267D
:10145000DD50E222E750F76E26EE4BF010EE12F070
:10146000DE50E126DD50E222E750F66E26EE4BF02C
:1014700010EE14F0DE50E126DD50E222E750F86E67
:1014800026EE4BF010EE07F0DE50E126DD50E222B2
:10149000E750D86E26EE4BF010EE06F0DE50E12657
:1014A000DD50E222E7500101626F6251FC6A26EED4
:1014B0004BF010EE74F0DE50E126DD50E222E750F2
:1014C000D8B465EF0AF067EF0AF0F0EF0AF0050014
:1014D00026EE4BF010EE74F0DE50E126DD50E222F5
:1014E000E70626EE4BF010EE74F0DE50E126DD50FC
:1014F000E222E7500101626F6251030DF3CF63F105
:10150000F4CF64F126EE4BF0DECF65F1DDCF66F16E
:1015100063516525676F64516621686F170E6725F3
:10152000D96E000E6821DA6EDF50FD6E26EE4BF0AC
:1015300010EE74F0DE50E126DD50E222E750626FDB
:101540006251030DF3CF63F1F4CF64F126EE4BF05B
:10155000DECF65F1DDCF66F163516525676F6451BC
:101560006621686F180E6725D96E000E6821DA6E45
:10157000DF50FE6E26EE4BF010EE74F0DE50E126EA
:10158000DD50E222E750626F6251030DF3CF63F149
:10159000F4CF64F126EE4BF0DECF65F1DDCF66F1DE
:1015A00063516525676F64516621686F190E672561
:1015B000D96E000E6821DA6EDF50FF6E26EE4BF01A
:1015C00010EE74F0DE50E126DD50E222E750D8A4A0
:1015D000ECEF0AF0EEEF0AF067EF0AF035EF0BF0F0
:1015E000050026EE4BF010EE02F0DE50E126DD5055
:1015F000E222E750FD6E26EE4BF010EE02F0DE50D8
:10160000E126DD50E222E6CF62F1E5CF63F162C16F
:1016100064F163C165F10101666B65C164F166C186
:1016200065F1666B6451FE6E100E626F26EE4BF034
:1016300010EE02F0DE50E126DD50E222E6CF63F14B
:10164000E5CF64F163C165F164C166F1676B62293E
:10165000686F2FEF0BF0D890673366336533682FD0
:101660002BEF0BF001016551FF6E050E256EF28E1A
:10167000120022EC11F0BCEC10F026EE4BF010EE54
:1016800001F0DE50E126DD50E222E750D8A44BEF16
:101690000BF04DEF0BF0E4EF0CF026EE4BF010EEFC
:1016A00001F0DE50E126DD50E222020EE76E26EE6A
:1016B0004BF010EE08F0DE50E126DD50E222E7505C
:1016C000E06E26EE4BF010EE0CF0DE50E126DD5021
:1016D000E222E750EA6E26EE4BF010EE0BF0DE5001
:1016E000E126DD50E222E750E96E26EE4BF010EEE7
:1016F0000EF0DE50E126DD50E222E750E26E26EEEB
:101700004BF010EE0DF0DE50E126DD50E222E75006
:10171000E16E26EE4BF010EE10F0DE50E126DD50CB
:10172000E222E750DA6E26EE4BF010EE0FF0DE50BC
:10173000E126DD50E222E750D96E26EE4BF010EEA6
:1017400015F0DE50E126DD50E222E750FA6E26EE7B
:101750004BF010EE16F0DE50E126DD50E222E750AD
:10176000FB6E26EE4BF010EE0AF0DE50E126DD5067
:10177000E222E750F46E26EE4BF010EE09F0DE5058
:10178000E126DD50E222E750F36E26EE4BF010EE3C
:1017900011F0DE50E126DD50E222E750F56E26EE34
:1017A0004BF010EE13F0DE50E126DD50E222E75060
:1017B000F76E26EE4BF010EE12F0DE50E126DD5013
:1017C000E222E750F66E26EE4BF010EE14F0DE50FB
:1017D000E126DD50E222E750F86E26EE4BF010EEE7
:1017E00007F0DE50E126DD50E222E750D86E26EE0B
:1017F0004BF010EE06F0DE50E126DD50E222E7501D
:1018000001017B6F7B51FC6A26EE4BF010EE74F009
:10181000DE50E126DD50E222E750D8B412EF0CF0A2
:1018200014EF0CF09DEF0CF0050026EE4BF010EEDF
:1018300074F0DE50E126DD50E222E70626EE4BF0A2
:1018400010EE74F0DE50E126DD50E222E750010197
:101850007B6F7B51030DF3CF7CF1F4CF7DF126EE4E
:101860004BF0DECF7EF1DDCF7FF17C517E25806FA6
:101870007D517F21816F170E8025D96E000E812149
:10188000DA6EDF50FD6E26EE4BF010EE74F0DE5097
:10189000E126DD50E222E7507B6F7B51030DF3CF51
:1018A0007CF1F4CF7DF126EE4BF0DECF7EF1DDCF83
:1018B0007FF17C517E25806F7D517F21816F180ED5
:1018C0008025D96E000E8121DA6EDF50FE6E26EE85
:1018D0004BF010EE74F0DE50E126DD50E222E750CE
:1018E0007B6F7B51030DF3CF7CF1F4CF7DF126EEBE
:1018F0004BF0DECF7EF1DDCF7FF17C517E25806F16
:101900007D517F21816F190E8025D96E000E8121B6
:10191000DA6EDF50FF6E26EE4BF010EE74F0DE5004
:10192000E126DD50E222E750D8A499EF0CF09BEFBE
:101930000CF014EF0CF0E2EF0CF0050026EE4BF08B
:1019400010EE02F0DE50E126DD50E222E750FD6E9F
:1019500026EE4BF010EE02F0DE50E126DD50E222E2
:10196000E6CF7BF1E5CF7CF17BC17DF17CC17EF1DF
:1019700001017F6B7EC17DF17FC17EF17F6B7D5167
:10198000FE6E100E7B6F26EE4BF010EE02F0DE5076
:10199000E126DD50E222E6CF7CF1E5CF7DF17CC18E
:1019A0007EF17DC17FF1806B7B29816FDCEF0CF0D4
:1019B000D89080337F337E33812FD8EF0CF0010134
:1019C0007E51FF6E050E256EF28E12000101736BC3
:1019D0006FBFEFEF0CF0EDEF0CF0F5EF0CF06E6D6C
:1019E0006F1FD8B06F2B010E736F71BFFCEF0CF03F
:1019F000FAEF0CF000EF0DF0706D711FD8B0712B85
:101A000070517111D8B407EF0DF009EF0DF02DEF03
:101A10000DF0010E726F11EF0DF0D8907037713725
:101A2000722B71AF16EF0DF018EF0DF00DEF0DF0FA
:101A300070516E5D71516F59D8A021EF0DF023EFF9
:101A40000DF027EF0DF070516E5F71516F5BD89004
:101A500071337033722F18EF0DF07351D8B433EF28
:101A60000DF035EF0DF039EF0DF06E6D6F1FD8B042
:101A70006F2B6EC16EF16FC16FF112000101596BD6
:101A800055BF47EF0DF045EF0DF04DEF0DF0546DE4
:101A9000551FD8B0552B010E596F57BF54EF0DF09D
:101AA00052EF0DF058EF0DF0566D571FD8B0572B71
:101AB00056515711D8B45FEF0DF061EF0DF085EF7F
:101AC0000DF0010E586F69EF0DF0D890563757376B
:101AD000582B57AF6EEF0DF070EF0DF065EF0DF076
:101AE0005651545D57515559D8A079EF0DF07BEF01
:101AF0000DF07FEF0DF05651545F5751555BD89064
:101B000057335633582F70EF0DF05951D8B48BEF2F
:101B10000DF08DEF0DF091EF0DF0546D551FD8B015
:101B2000552B54C154F155C155F11200076A03BE3B
:101B30009EEF0DF09CEF0DF0A4EF0DF0026C031E74
:101B4000D8B0032A010E076E05BEABEF0DF0A9EF6A
:101B50000DF0AFEF0DF0046C051ED8B0052A04504F
:101B60000510D8B4B6EF0DF0B8EF0DF0DCEF0DF0C6
:101B7000010E066EC0EF0DF0D89004360536062A29
:101B800005AEC5EF0DF0C7EF0DF0BCEF0DF0045042
:101B9000025C05500358D8A0D0EF0DF0D2EF0DF045
:101BA000D6EF0DF00450025E0550035AD89005326E
:101BB0000432062EC7EF0DF00750D8B4E2EF0DF057
:101BC000E4EF0DF0E8EF0DF0026C031ED8B0032A2D
:101BD00002C002F003C003F01200F29E01015A514C
:101BE000D96EDA6ADE2A000EDD225A51D96EDA6A1F
:101BF000010EDBBE07EF0EF0010EDB5006E1DE0446
:101C0000D8B005EF0EF007EF0EF039EF0EF05A5195
:101C1000D96EDA6A060ED926DF505B6F5A515B2502
:101C2000D96EDA6A020ED926DF505C6F5C51750DF1
:101C3000770EF324D96E040EF420DA6EDF6A5A515F
:101C4000D96EDA6A060ED9265A51E16EE26A060E9C
:101C5000E126E7505B6F010E5B25546F556B000E5C
:101C60005523576B030E566F3EEC0DF00101545196
:101C7000DF6EF28E12004DC677F10101766B010E18
:101C800077256E6F6F6B000E6F234AC674F1745127
:101C9000706F716BE6EC0CF001016E51776F762B73
:101CA000030E766556EF0EF058EF0EF05BEF0EF078
:101CB000000E80EF0EF07751750D770EF324D96E7C
:101CC000040EF420DA6EDF50D8A469EF0EF06BEF4B
:101CD0000EF03FEF0EF07751750D780EF324D96EAC
:101CE000040EF420DA6EF40EDE1809E1210EDE187F
:101CF000D8B47DEF0EF07FEF0EF03FEF0EF077518E
:101D000012004DC65DF101015C6B010E5D25546F43
:101D1000556B000E55234AC65AF15A51566F576BF0
:101D20003EEC0DF0010154515D6F5C2B030E5C65C0
:101D30009CEF0EF09EEF0EF0A1EF0EF0000EC6EF3E
:101D40000EF05D51750D770EF324D96E040EF4205C
:101D5000DA6EDF50D8A4AFEF0EF0B1EF0EF085EFE2
:101D60000EF05D51750D780EF324D96E040EF4203B
:101D7000DA6EF40EDE1809E1210EDE18D8B4C3EFD6
:101D80000EF0C5EF0EF085EF0EF05D5112004DC65E
:101D90000BF00A6A010E0B24026E036A000E032286
:101DA0004AC608F00850046E056A96EC0DF0025021
:101DB0000B6E0A2A030E0A64E0EF0EF0E2EF0EF05B
:101DC000E5EF0EF0000E0AEF0FF00B50750D770ED9
:101DD000F324D96E040EF420DA6EDF50D8A4F3EFAA
:101DE0000EF0F5EF0EF0CAEF0EF00B50750D780EF9
:101DF000F324D96E040EF420DA6EF40EDE1809E135
:101E0000210EDE18D8B407EF0FF009EF0FF0CAEF7C
:101E10000EF00B50120020EE7CF011EE4CF0050E8F
:101E2000DBCFE3FFE806FCE20101526B82BC1BEF53
:101E30000FF01EEF0FF0010E1FEF0FF0000EFF0A64
:101E400000017B6F7B3B7B477B4782507B19BF0B3D
:101E50007B19826E600E786F4C0E01015225D96E8F
:101E6000DA6A010EDA22DF500001796FE4EC0FF03C
:101E7000010E01015225546F556B000E5523576B0F
:101E8000060E566F3EEC0DF001015451526F16EFE5
:101E90000FF012000201006F00C201F20201056B97
:101EA00070C106F26EC103F26FC104F2026B096BDE
:101EB0000D6B0C6B0F6B0E6B116B106B166B176B46
:101EC0000B6B0A6B086B126B146B136B156B076B48
:101ED000756B22EE01F04AC671F101017151750D69
:101EE000760EF324E16E040EF420E26E740EDBCF66
:101EF000E3FFE806FCE24AC6E8FF010FE8CF4AF636
:101F000012005C0EF66E220EF76E000EF86E00EEFA
:101F10007CF010EE06F00900F5CFEEFFE550E15041
:101F2000FAE1620EF66E220EF76E000EF86E0900F0
:101F3000F5CF25F002EE76F013EED8F0EE6AE5501C
:101F4000E150FCE1E250FAE100EE60F0140EEE6ABE
:101F5000E806FDE100EE1EF0070EEE6AE806FDE180
:101F600001900192000EF86E00010FEF10F00101D8
:101F700069510D0F616F01EC08F001016951D96ED3
:101F8000DA6A050ED926DF506C6F69516C25D96E5F
:101F9000DA6A6AC1E1FF6BC1E2FFDFCFE7FF695197
:101FA000D96EDA6A050ED9266951E16EE26A050E2C
:101FB000E126E7506C6F6C29030BDF6E6951060F49
:101FC0005A6FEDEC0DF0120000017851060F01017F
:101FD000616F01EC08F000017851D96EDA6A040EE5
:101FE000D926DF507A6F78517A25D96EDA6A79C0AE
:101FF000DFFF7851D96EDA6A040ED9267851E16E86
:10200000E26A040EE126E7507A6F7A29030BDF6E4D
:1020100078510D0F01015A6FEDEC0DF0120075ECC7
:1020200010F0160E01016E6F1E0E6F6F050E706FB1
:10203000020E4AEC0FF04C0E01016E6F210E6F6F15
:10204000050E706F030E4AEC0FF06A0E01016E6F01
:10205000200E6F6F050E706F040E4AEC0FF039EC16
:102060000BF031EF10F08DEF03F0600E0101696F9E
:102070006D0E6A6F010E6B6FB7EC0FF04C0E010125
:102080006D19D8A446EF10F048EF10F04BEF10F0A8
:10209000838035EF10F0440E6D19D8A452EF10F084
:1020A00054EF10F035EF10F0839035EF10F0120080
:1020B00001017251D96EDA6A040ED926DF6A7251B3
:1020C000D96EDA6A050ED926DF6A7251060F6E6F75
:1020D000040E6F6F8EEC10F0010172510D0F6E6FD8
:1020E000000E6F6F8EEC10F01200000EE8CF4AF673
:1020F000760EE8CF4BF6040EE8CF4CF6000EE8CF94
:102100004DF6F40E01016E6F210E6F6F000E706FB1
:10211000010E4AEC0FF0E6EC10F0120001016F51D5
:10212000706F716B6E51D96EDA6A70C1DEFF71C16A
:10213000DDFF6E51D96EDA6A050ED926DF6A6E515F
:10214000D96EDA6A060ED926DF6A120082BEABEFBC
:1021500010F0AEEF10F0010EAFEF10F0000EFF0A1E
:102160000101536F53335333825053197F0B53196B
:10217000826EA6EF10F012003BEC0EF00101786FBA
:1021800078C14DF64DC678F17851750D760EF32471
:10219000796F040EF4207A6F79C14BF67AC14CF650
:1021A000120081EC0EF001015E6F5EC14DF64DC66E
:1021B0005EF15E51750D760EF3245F6F040EF42010
:1021C000606F5FC14BF660C14CF61200949C949E08
:1021D00095900F013B913A9D3A9F1E0E01016E6F43
:1021E000000E6F6F8EEC10F0600E0101726F58ECF4
:1021F00010F01200949082B000EF11F003EF11F094
:10220000010E04EF11F0000EFF0A026E8250021858
:10221000FE0B0218826EFBEF10F01200C7EC0EF0FE
:102220000C6E0CC04DF64DC60CF00C50750D760EB4
:10223000F3240D6E040EF4200E6E0DC04BF60EC08E
:102240004CF61200F28AF294D58CD59AD596070EE8
:10225000D512D58ED76A000ED66E12004C4C444C67
:03226000444405EE
:00000001FF
