:0400000017EF03F003
:100008000182E1CF0DF0E2CF0EF0D9CF0FF0DACFB9
:1000180010F0F3CF11F0F4CF12F0F2A416EF00F0C5
:1000280018EF00F009EF03F0F29422EEABF010EEB7
:1000380001F0DE50E126DD50E222020EE618D8A4D7
:1000480028EF00F02AEF00F066EF01F022EEABF0A7
:1000580010EE01F0DE50E126DD50E222E76A22EEE2
:10006800ABF010EE08F0DE50E126DD50E222E0CFE2
:10007800E7FF22EEABF010EE0CF0DE50E126DD508B
:10008800E222EACFE7FF22EEABF010EE0BF0DE50F3
:10009800E126DD50E222E9CFE7FF22EEABF010EED9
:1000A8000EF0DE50E126DD50E222E2CFE7FF22EE3D
:1000B800ABF010EE0DF0DE50E126DD50E222E1CF8C
:1000C800E7FF22EEABF010EE10F0DE50E126DD5037
:1000D800E222DACFE7FF22EEABF010EE0FF0DE50AF
:1000E800E126DD50E222D9CFE7FF22EEABF010EE99
:1000F80015F0DE50E126DD50E222FACFE7FF22EECE
:10010800ABF010EE16F0DE50E126DD50E222FBCF18
:10011800E7FF22EEABF010EE0AF0DE50E126DD50EC
:10012800E222F4CFE7FF22EEABF010EE09F0DE504A
:10013800E126DD50E222F3CFE7FF22EEABF010EE2E
:1001480011F0DE50E126DD50E222F5CFE7FF22EE86
:10015800ABF010EE13F0DE50E126DD50E222F7CFCF
:10016800E7FF22EEABF010EE12F0DE50E126DD5094
:10017800E222F6CFE7FF22EEABF010EE14F0DE50ED
:10018800E126DD50E222F8CFE7FF22EEABF010EED9
:1001980006F0DE50E126DD50E222E8CFE7FF22EE4E
:1001A800ABF010EE07F0DE50E126DD50E222D8CFAA
:1001B800E7FF22EEABF010EE74F0DE50E126DD50E2
:1001C800E222E76A5EEF01F022EEABF010EE74F087
:1001D800DE50E126DD50E222E750066E0650030DA0
:1001E800F3CF07F0F4CF08F022EEABF0DECF09F042
:1001F800DDCF0AF0075009240B6E08500A200C6E58
:10020800170E0B24D96E000E0C20DA6EFDCFDFFF1F
:1002180022EEABF010EE74F0DE50E126DD50E22263
:10022800E750066E0650030DF3CF07F0F4CF08F041
:1002380022EEABF0DECF09F0DDCF0AF0075009243B
:100248000B6E08500A200C6E180E0B24D96E000E87
:100258000C20DA6EFECFDFFF22EEABF010EE74F06A
:10026800DE50E126DD50E222E750066E0650030D0F
:10027800F3CF07F0F4CF08F022EEABF0DECF09F0B1
:10028800DDCF0AF0075009240B6E08500A200C6EC7
:10029800190E0B24D96E000E0C20DA6EFFCFDFFF8B
:1002A80022EEABF010EE74F0DE50E126DD50E222D3
:1002B800E72A0600FC50D8A464EF01F066EF01F0CD
:1002C800E8EF00F0B4EC08F022EEABF010EE01F02D
:1002D800DE50E126DD50E222E750D8A476EF01F0A7
:1002E80078EF01F009EF03F022EEABF010EE01F029
:1002F800DE50E126DD50E222020EE76E22EEABF080
:1003080010EE08F0DE50E126DD50E222E750E06E04
:1003180022EEABF010EE0CF0DE50E126DD50E222CA
:10032800E750EA6E22EEABF010EE0BF0DE50E1265D
:10033800DD50E222E750E96E22EEABF010EE0EF04F
:10034800DE50E126DD50E222E750E26E22EEABF00D
:1003580010EE0DF0DE50E126DD50E222E750E16EAE
:1003680022EEABF010EE10F0DE50E126DD50E22276
:10037800E750DA6E22EEABF010EE0FF0DE50E12619
:10038800DD50E222E750D96E22EEABF010EE15F008
:10039800DE50E126DD50E222E750FA6E22EEABF0A5
:1003A80010EE16F0DE50E126DD50E222E750FB6E3B
:1003B80022EEABF010EE0AF0DE50E126DD50E2222C
:1003C800E750F46E22EEABF010EE09F0DE50E126B5
:1003D800DD50E222E750F36E22EEABF010EE11F0A2
:1003E800DE50E126DD50E222E750F56E22EEABF05A
:1003F80010EE13F0DE50E126DD50E222E750F76EF2
:1004080022EEABF010EE12F0DE50E126DD50E222D3
:10041800E750F66E22EEABF010EE14F0DE50E12657
:10042800DD50E222E750F86E22EEABF010EE07F056
:10043800DE50E126DD50E222E750D86E22EEABF026
:1004480010EE06F0DE50E126DD50E222E750066E9F
:100458000650FC6A22EEABF010EE74F0DE50E12696
:10046800DD50E222E750D8B43CEF02F03EEF02F054
:10047800C6EF02F0050022EEABF010EE74F0DE508D
:10048800E126DD50E222E70622EEABF010EE74F032
:10049800DE50E126DD50E222E750066E0650030DDD
:1004A800F3CF07F0F4CF08F022EEABF0DECF09F07F
:1004B800DDCF0AF0075009240B6E08500A200C6E95
:1004C800170E0B24D96E000E0C20DA6EDF50FD6E6D
:1004D80022EEABF010EE74F0DE50E126DD50E222A1
:1004E800E750066E0650030DF3CF07F0F4CF08F07F
:1004F80022EEABF0DECF09F0DDCF0AF00750092479
:100508000B6E08500A200C6E180E0B24D96E000EC4
:100518000C20DA6EDF50FE6E22EEABF010EE74F0B7
:10052800DE50E126DD50E222E750066E0650030D4C
:10053800F3CF07F0F4CF08F022EEABF0DECF09F0EE
:10054800DDCF0AF0075009240B6E08500A200C6E04
:10055800190E0B24D96E000E0C20DA6EDF50FF6ED8
:1005680022EEABF010EE74F0DE50E126DD50E22210
:10057800E750D8A4C2EF02F0C4EF02F03EEF02F059
:1005880009EF03F0050022EEABF010EE02F0DE50AA
:10059800E126DD50E222E750FD6E22EEABF010EED0
:1005A80002F0DE50E126DD50E222E6CF06F0E5CF8C
:1005B80007F006C008F007C009F00A6A09C008F089
:1005C8000AC009F00A6A0850FE6E100E066E22EE86
:1005D800ABF010EE02F0DE50E126DD50E222E6CF6D
:1005E80007F0E5CF08F007C009F008C00AF00B6A69
:1005F80006280C6E04EF03F0D8900B320A32093249
:100608000C2E00EF03F00950FF6E12C0F4FF11C06A
:10061800F3FF10C0DAFF0FC0D9FF0EC0E2FF0DC014
:0A062800E1FF01921100DBEF08F082
:1010000000000001606F60C061F00001656B1BC0F3
:1010100066F019C063F01AC064F0626B696B6D6BA7
:101020006C6B6F6B6E6B716B706B766B776B6B6BE6
:101030006A6B686B726B746B736B756B676BD56B7C
:1010400020EE61F0AAC21CF01C50750DD60EF324E0
:10105000E16E000EF420E26E740EDBCFE3FFE806D3
:10106000FCE2AAC2E8FF010FE8CFAAF212005AEC94
:1010700008F0120E196E110E1A6E050E1B6E020E7E
:1010800001EC08F03E0E196E110E1A6E050E1B6E65
:10109000030E01EC08F0900E196E110E1A6E050E7B
:1010A0001B6E040E01EC08F000EC09F056EF08F09E
:1010B00017EF03F0000EE8CFAAF2D60EE8CFABF29E
:1010C000000EE8CFACF2000EE8CFADF2000E196EC4
:1010D000000E1A6E000E1B6E010E01EC08F0F8EC0B
:1010E00008F01200ADC202F00228030B026E02509B
:1010F000750DD70EF324D96E000EF420DA6EDF5092
:10110000D8A485EF08F087EF08F074EF08F00250DC
:10111000120082BC8EEF08F091EF08F0010E92EF02
:1011200008F0000EFF0A166E163A16461646825052
:101130001618BF0B1618826E89EF08F0120082BED7
:10114000A4EF08F0A7EF08F0010EA8EF08F0000EDA
:10115000FF0A176E17321732825017187F0B1718B5
:10116000826E9FEF08F0120072EC08F0036E03C06D
:10117000ADF2ADC203F00350750DD60EF324046E2C
:10118000000EF420056E04C0ABF205C0ACF21200F4
:1011900083B0CDEF08F0D0EF08F0010ED1EF08F0EA
:1011A000000EFF0A186E83501818FE0B1818836E75
:1011B000C8EF08F0120000EED6F011EED8F0EE6A9B
:1011C000E550E150FCE1E250FAE101900192000E9D
:1011D000F86E000137EF08F0F28AF294D58CD59AB8
:1011E000D596070ED512D58ED76A000ED66E120090
:1011F000949C949E95900F013B913A9D3A9F1200CA
:08120000ECEC08F0F28E120084
:00000001FF
