:040000008DEF03F08D
:100008000182E1CF16F0E2CF17F0D9CF18F0DACF9E
:1000180019F0F3CF1AF0F4CF1BF0F2A416EF00F0AA
:1000280018EF00F07FEF03F0F2941D6A000E1C6ECB
:100038006EEF00F0750E1C02F3CF0FF0F4CF10F046
:100048001D02F35010267A0E0F24D96E010E1020CF
:10005800DA6EDF50D8B433EF00F035EF00F06CEF14
:1000680000F0750E1C02F3CF0FF0F4CF10F01D0254
:10007800F35010267A0E0F24D96E010E1020DA6E76
:10008800DF06750E1C02F3CF0FF0F4CF10F01D023F
:10009800F35010267A0E0F24D96E010E1020DA6E56
:1000A800DF50D8A45AEF00F05CEF00F06CEF00F0DE
:1000B800750E1C02F3CF0FF0F4CF10F01D02F350B1
:1000C8001026770E0F24D96E010E1020DA6EDF6A23
:1000D8001C4A1D2A23EE4AF0DF500F6E106A0F509B
:1000E8001C5C1D50800A116E1050800A1158D8A04F
:1000F80080EF00F082EF00F01EEF00F02B062B508F
:10010800D8A489EF00F08BEF00F07FEF03F0320EF8
:100118002B6E23EE4BF010EE01F0DE50E126DD50A1
:10012800E222020EE618D8A49CEF00F09EEF00F041
:10013800DAEF01F023EE4BF010EE01F0DE50E1268D
:10014800DD50E222E76A23EE4BF010EE08F0DE50B5
:10015800E126DD50E222E0CFE7FF23EE4BF010EE80
:100168000CF0DE50E126DD50E222EACFE7FF23EE75
:100178004BF010EE0BF0DE50E126DD50E222E9CF25
:10018800E7FF23EE4BF010EE0EF0DE50E126DD50D7
:10019800E222E2CFE7FF23EE4BF010EE0DF0DE5047
:1001A800E126DD50E222E1CFE7FF23EE4BF010EE2F
:1001B80010F0DE50E126DD50E222DACFE7FF23EE31
:1001C8004BF010EE0FF0DE50E126DD50E222D9CFE1
:1001D800E7FF23EE4BF010EE15F0DE50E126DD5080
:1001E800E222FACFE7FF23EE4BF010EE16F0DE50D6
:1001F800E126DD50E222FBCFE7FF23EE4BF010EEC5
:100208000AF0DE50E126DD50E222F4CFE7FF23EECC
:100218004BF010EE09F0DE50E126DD50E222F3CF7C
:10022800E7FF23EE4BF010EE11F0DE50E126DD5033
:10023800E222F5CFE7FF23EE4BF010EE13F0DE508D
:10024800E126DD50E222F7CFE7FF23EE4BF010EE78
:1002580012F0DE50E126DD50E222F6CFE7FF23EE72
:100268004BF010EE14F0DE50E126DD50E222F8CF1C
:10027800E7FF23EE4BF010EE06F0DE50E126DD50EE
:10028800E222E8CFE7FF23EE4BF010EE07F0DE5056
:10029800E126DD50E222D8CFE7FF23EE4BF010EE47
:1002A80074F0DE50E126DD50E222E76AD2EF01F079
:1002B80023EE4BF010EE74F0DE50E126DD50E22222
:1002C800E7500F6E0F50030DF3CF10F0F4CF11F07D
:1002D80023EE4BF0DECF12F0DDCF13F010501224D6
:1002E800146E11501320156E170E1424D96E000EBB
:1002F8001520DA6EFDCFDFFF23EE4BF010EE74F021
:10030800DE50E126DD50E222E7500F6E0F50030D5C
:10031800F3CF10F0F4CF11F023EE4BF0DECF12F054
:10032800DDCF13F010501224146E11501320156EE7
:10033800180E1424D96E000E1520DA6EFECFDFFFDA
:1003480023EE4BF010EE74F0DE50E126DD50E22291
:10035800E7500F6E0F50030DF3CF10F0F4CF11F0EC
:1003680023EE4BF0DECF12F0DDCF13F01050122445
:10037800146E11501320156E190E1424D96E000E28
:100388001520DA6EFFCFDFFF23EE4BF010EE74F08E
:10039800DE50E126DD50E222E72A0600FC50D8A410
:1003A800D8EF01F0DAEF01F05CEF01F04BEC10F060
:1003B80023EE4BF010EE01F0DE50E126DD50E22294
:1003C800E750D8A4EAEF01F0ECEF01F07FEF03F07B
:1003D80023EE4BF010EE01F0DE50E126DD50E22274
:1003E800020EE76E23EE4BF010EE08F0DE50E12629
:1003F800DD50E222E750E06E23EE4BF010EE0CF0F9
:10040800DE50E126DD50E222E750EA6E23EE4BF0A3
:1004180010EE0BF0DE50E126DD50E222E750E96EE7
:1004280023EE4BF010EE0EF0DE50E126DD50E22216
:10043800E750E26E23EE4BF010EE0DF0DE50E126B1
:10044800DD50E222E750E16E23EE4BF010EE10F0A3
:10045800DE50E126DD50E222E750DA6E23EE4BF063
:1004680010EE0FF0DE50E126DD50E222E750D96EA3
:1004780023EE4BF010EE15F0DE50E126DD50E222BF
:10048800E750FA6E23EE4BF010EE16F0DE50E12640
:10049800DD50E222E750FB6E23EE4BF010EE0AF03F
:1004A800DE50E126DD50E222E750F46E23EE4BF0F9
:1004B80010EE09F0DE50E126DD50E222E750F36E3F
:1004C80023EE4BF010EE11F0DE50E126DD50E22273
:1004D800E750F56E23EE4BF010EE13F0DE50E126F8
:1004E800DD50E222E750F76E23EE4BF010EE12F0EB
:1004F800DE50E126DD50E222E750F66E23EE4BF0A7
:1005080010EE14F0DE50E126DD50E222E750F86EDE
:1005180023EE4BF010EE07F0DE50E126DD50E2222C
:10052800E750D86E23EE4BF010EE06F0DE50E126D1
:10053800DD50E222E7500F6E0F50FC6A23EE4BF0BD
:1005480010EE74F0DE50E126DD50E222E750D8B418
:10055800B0EF02F0B2EF02F03AEF03F0050023EE3D
:100568004BF010EE74F0DE50E126DD50E222E70693
:1005780023EE4BF010EE74F0DE50E126DD50E2225F
:10058800E7500F6E0F50030DF3CF10F0F4CF11F0BA
:1005980023EE4BF0DECF12F0DDCF13F01050122413
:1005A800146E11501320156E170E1424D96E000EF8
:1005B8001520DA6EDF50FD6E23EE4BF010EE74F06E
:1005C800DE50E126DD50E222E7500F6E0F50030D9A
:1005D800F3CF10F0F4CF11F023EE4BF0DECF12F092
:1005E800DDCF13F010501224146E11501320156E25
:1005F800180E1424D96E000E1520DA6EDF50FE6E28
:1006080023EE4BF010EE74F0DE50E126DD50E222CE
:10061800E7500F6E0F50030DF3CF10F0F4CF11F029
:1006280023EE4BF0DECF12F0DDCF13F01050122482
:10063800146E11501320156E190E1424D96E000E65
:100648001520DA6EDF50FF6E23EE4BF010EE74F0DB
:10065800DE50E126DD50E222E750D8A436EF03F061
:1006680038EF03F0B2EF02F07DEF03F0050023EE60
:100678004BF010EE02F0DE50E126DD50E222E750AA
:10068800FD6E23EE4BF010EE02F0DE50E126DD5059
:10069800E222E6CF0FF0E5CF10F00FC011F010C046
:1006A80012F0136A12C011F013C012F0136A11503D
:1006B800FE6E100E0F6E23EE4BF010EE02F0DE50C1
:1006C800E126DD50E222E6CF10F0E5CF11F010C0B0
:1006D80012F011C013F0146A0F28156E78EF03F0AA
:1006E800D890143213321232152E74EF03F01250D0
:1006F800FF6E320E2B6E1BC0F4FF1AC0F3FF19C039
:10070800DAFF18C0D9FF17C0E2FF16C0E1FF019257
:0607180011006FEF0FF06D
:101000000000F29E1A50D96EDA6ADE06000EDD5A32
:101010001A50D96EDA6A010EDBBE13EF08F011EF39
:1010200008F038EF0BF023EE4DF01A50E16EE26A53
:10103000060EE126E7501B6E1A501B24E16EE26A91
:10104000020EE126DFCFE7FF1A50D96EDA6A050EED
:10105000D926DF2A1A50D96EDA6A060ED9261A5016
:10106000E16EE26A060EE126E7501B6E010E1B24BC
:101070000001776F786B000E78237A6B030E796F1F
:101080003FEC0DF000017751DF6E23EE4BF010EED8
:1010900001F0DE50E126DD50E222020EE618D8A46F
:1010A00054EF08F056EF08F093EF09F023EE4BF001
:1010B00010EE01F0DE50E126DD50E222030EE76E75
:1010C00023EE4BF010EE08F0DE50E126DD50E22278
:1010D000E0CFE7FF23EE4BF010EE0CF0DE50E12600
:1010E000DD50E222EACFE7FF23EE4BF010EE0BF0EB
:1010F000DE50E126DD50E222E9CFE7FF23EE4BF0A0
:1011000010EE0EF0DE50E126DD50E222E2CFE7FFE6
:1011100023EE4BF010EE0DF0DE50E126DD50E22222
:10112000E1CFE7FF23EE4BF010EE10F0DE50E126AA
:10113000DD50E222DACFE7FF23EE4BF010EE0FF0A6
:10114000DE50E126DD50E222D9CFE7FF23EE4BF05F
:1011500010EE15F0DE50E126DD50E222FACFE7FF77
:1011600023EE4BF010EE16F0DE50E126DD50E222C9
:10117000FBCFE7FF23EE4BF010EE0AF0DE50E12646
:10118000DD50E222F4CFE7FF23EE4BF010EE09F042
:10119000DE50E126DD50E222F3CFE7FF23EE4BF0F5
:1011A00010EE11F0DE50E126DD50E222F5CFE7FF30
:1011B00023EE4BF010EE13F0DE50E126DD50E2227C
:1011C000F7CFE7FF23EE4BF010EE12F0DE50E126F2
:1011D000DD50E222F6CFE7FF23EE4BF010EE14F0E5
:1011E000DE50E126DD50E222F8CFE7FF23EE4BF0A0
:1011F00010EE06F0DE50E126DD50E222E8CFE7FFF8
:1012000023EE4BF010EE07F0DE50E126DD50E22237
:10121000D8CFE7FF23EE4BF010EE74F0DE50E1265E
:10122000DD50E222E76A8BEF09F023EE4BF010EE7F
:1012300074F0DE50E126DD50E222E7501B6E1B50B9
:10124000030DF3CF1CF0F4CF1DF023EE4BF0DECFF7
:101250001EF0DDCF1FF01C501E24206E1D501F20DD
:10126000216E170E2024D96E000E2120DA6EFDCFDC
:10127000DFFF23EE4BF010EE74F0DE50E126DD5080
:10128000E222E7501B6E1B50030DF3CF1CF0F4CF8E
:101290001DF023EE4BF0DECF1EF0DDCF1FF01C5013
:1012A0001E24206E1D501F20216E180E2024D96E82
:1012B000000E2120DA6EFECFDFFF23EE4BF010EEA2
:1012C00074F0DE50E126DD50E222E7501B6E1B5029
:1012D000030DF3CF1CF0F4CF1DF023EE4BF0DECF67
:1012E0001EF0DDCF1FF01C501E24206E1D501F204D
:1012F000216E190E2024D96E000E2120DA6EFFCF48
:10130000DFFF23EE4BF010EE74F0DE50E126DD50EF
:10131000E222E72A0600FC50D8A491EF09F093EFEF
:1013200009F015EF09F023EC10F023EE4BF010EE6E
:1013300001F0DE50E126DD50E222E750D8A4A3EF11
:1013400009F0A5EF09F038EF0BF023EE4BF010EEAB
:1013500001F0DE50E126DD50E222020EE76E23EEC0
:101360004BF010EE08F0DE50E126DD50E222E750AF
:10137000E06E23EE4BF010EE0CF0DE50E126DD5077
:10138000E222E750EA6E23EE4BF010EE0BF0DE5057
:10139000E126DD50E222E750E96E23EE4BF010EE3D
:1013A0000EF0DE50E126DD50E222E750E26E23EE41
:1013B0004BF010EE0DF0DE50E126DD50E222E7505A
:1013C000E16E23EE4BF010EE10F0DE50E126DD5022
:1013D000E222E750DA6E23EE4BF010EE0FF0DE5013
:1013E000E126DD50E222E750D96E23EE4BF010EEFD
:1013F00015F0DE50E126DD50E222E750FA6E23EED2
:101400004BF010EE16F0DE50E126DD50E222E75000
:10141000FB6E23EE4BF010EE0AF0DE50E126DD50BD
:10142000E222E750F46E23EE4BF010EE09F0DE50AE
:10143000E126DD50E222E750F36E23EE4BF010EE92
:1014400011F0DE50E126DD50E222E750F56E23EE8A
:101450004BF010EE13F0DE50E126DD50E222E750B3
:10146000F76E23EE4BF010EE12F0DE50E126DD5069
:10147000E222E750F66E23EE4BF010EE14F0DE5051
:10148000E126DD50E222E750F86E23EE4BF010EE3D
:1014900007F0DE50E126DD50E222E750D86E23EE61
:1014A0004BF010EE06F0DE50E126DD50E222E75070
:1014B0001B6E1B50FC6A23EE4BF010EE74F0DE50F6
:1014C000E126DD50E222E750D8B469EF0AF06BEF75
:1014D0000AF0F3EF0AF0050023EE4BF010EE74F083
:1014E000DE50E126DD50E222E70623EE4BF010EE5F
:1014F00074F0DE50E126DD50E222E7501B6E1B50F7
:10150000030DF3CF1CF0F4CF1DF023EE4BF0DECF34
:101510001EF0DDCF1FF01C501E24206E1D501F201A
:10152000216E170E2024D96E000E2120DA6EDF50B6
:10153000FD6E23EE4BF010EE74F0DE50E126DD5030
:10154000E222E7501B6E1B50030DF3CF1CF0F4CFCB
:101550001DF023EE4BF0DECF1EF0DDCF1FF01C5050
:101560001E24206E1D501F20216E180E2024D96EBF
:10157000000E2120DA6EDF50FE6E23EE4BF010EEEF
:1015800074F0DE50E126DD50E222E7501B6E1B5066
:10159000030DF3CF1CF0F4CF1DF023EE4BF0DECFA4
:1015A0001EF0DDCF1FF01C501E24206E1D501F208A
:1015B000216E190E2024D96E000E2120DA6EDF5024
:1015C000FF6E23EE4BF010EE74F0DE50E126DD509E
:1015D000E222E750D8A4EFEF0AF0F1EF0AF06BEF48
:1015E0000AF036EF0BF0050023EE4BF010EE02F0A0
:1015F000DE50E126DD50E222E750FD6E23EE4BF097
:1016000010EE02F0DE50E126DD50E222E6CF1BF0C4
:10161000E5CF1CF01BC01DF01CC01EF01F6A1EC0D1
:101620001DF01FC01EF01F6A1D50FE6E100E1B6EB7
:1016300023EE4BF010EE02F0DE50E126DD50E22208
:10164000E6CF1CF0E5CF1DF01CC01EF01DC01FF042
:10165000206A1B28216E31EF0BF0D89020321F3208
:101660001E32212E2DEF0BF01E50FF6E320E2B6E10
:10167000F28E12006EEC10F0FAEC0FF023EE4BF04D
:1016800010EE01F0DE50E126DD50E222E750D8A452
:101690004CEF0BF04EEF0BF0E5EF0CF023EE4BF0C0
:1016A00010EE01F0DE50E126DD50E222020EE76E80
:1016B00023EE4BF010EE08F0DE50E126DD50E22282
:1016C000E750E06E23EE4BF010EE0CF0DE50E1261A
:1016D000DD50E222E750EA6E23EE4BF010EE0BF005
:1016E000DE50E126DD50E222E750E96E23EE4BF0BA
:1016F00010EE0EF0DE50E126DD50E222E750E26E01
:1017000023EE4BF010EE0DF0DE50E126DD50E2222C
:10171000E750E16E23EE4BF010EE10F0DE50E126C4
:10172000DD50E222E750DA6E23EE4BF010EE0FF0C0
:10173000DE50E126DD50E222E750D96E23EE4BF079
:1017400010EE15F0DE50E126DD50E222E750FA6E91
:1017500023EE4BF010EE16F0DE50E126DD50E222D3
:10176000E750FB6E23EE4BF010EE0AF0DE50E12660
:10177000DD50E222E750F46E23EE4BF010EE09F05C
:10178000DE50E126DD50E222E750F36E23EE4BF00F
:1017900010EE11F0DE50E126DD50E222E750F56E4A
:1017A00023EE4BF010EE13F0DE50E126DD50E22286
:1017B000E750F76E23EE4BF010EE12F0DE50E1260C
:1017C000DD50E222E750F66E23EE4BF010EE14F0FF
:1017D000DE50E126DD50E222E750F86E23EE4BF0BA
:1017E00010EE07F0DE50E126DD50E222E750D86E21
:1017F00023EE4BF010EE06F0DE50E126DD50E22243
:10180000E75000018F6F8F51FC6A23EE4BF010EE12
:1018100074F0DE50E126DD50E222E750D8B413EF39
:101820000CF015EF0CF09EEF0CF0050023EE4BF0E2
:1018300010EE74F0DE50E126DD50E222E70623EEE2
:101840004BF010EE74F0DE50E126DD50E222E7505E
:1018500000018F6F8F51030DF3CF90F0F4CF91F013
:1018600023EE4BF0DECF92F0DDCF93F09051922536
:10187000946F91519321956F170E9425D96E000E98
:101880009521DA6EDF50FD6E23EE4BF010EE74F012
:10189000DE50E126DD50E222E7508F6F8F51030DBD
:1018A000F3CF90F0F4CF91F023EE4BF0DECF92F037
:1018B000DDCF93F090519225946F91519321956FC4
:1018C000180E9425D96E000E9521DA6EDF50FE6E4B
:1018D00023EE4BF010EE74F0DE50E126DD50E222F4
:1018E000E7508F6F8F51030DF3CF90F0F4CF91F04D
:1018F00023EE4BF0DECF92F0DDCF93F090519225A6
:10190000946F91519321956F190E9425D96E000E05
:101910009521DA6EDF50FF6E23EE4BF010EE74F07F
:10192000DE50E126DD50E222E750D8A49AEF0CF019
:101930009CEF0CF015EF0CF0E3EF0CF0050023EE3C
:101940004BF010EE02F0DE50E126DD50E222E750CF
:10195000FD6E23EE4BF010EE02F0DE50E126DD507E
:10196000E222E6CF8FF0E5CF90F08FC091F090C0EB
:1019700092F00001936B92C091F093C092F0936B40
:101980009151FE6E100E8F6F23EE4BF010EE02F0B1
:10199000DE50E126DD50E222E6CF90F0E5CF91F077
:1019A00090C092F091C093F0946B8F29956FDDEF0A
:1019B0000CF0D890943393339233952FD9EF0CF0E9
:1019C00000019251FF6E320E2B6EF28E120000015A
:1019D000876B83BFF0EF0CF0EEEF0CF0F6EF0CF03E
:1019E000826D831FD8B0832B010E876F85BFFDEFFB
:1019F0000CF0FBEF0CF001EF0DF0846D851FD8B0FB
:101A0000852B84518511D8B408EF0DF00AEF0DF045
:101A10002EEF0DF0010E866F12EF0DF0D890843787
:101A20008537862B85AF17EF0DF019EF0DF00EEF10
:101A30000DF08451825D85518359D8A022EF0DF0BD
:101A400024EF0DF028EF0DF08451825F8551835B08
:101A5000D89085338433862F19EF0DF08751D8B491
:101A600034EF0DF036EF0DF03AEF0DF0826D831F7D
:101A7000D8B0832B82C082F083C083F012000001B3
:101A80007C6B78BF48EF0DF046EF0DF04EEF0DF098
:101A9000776D781FD8B0782B010E7C6F7ABF55EF29
:101AA0000DF053EF0DF059EF0DF0796D7A1FD8B0AE
:101AB0007A2B79517A11D8B460EF0DF062EF0DF006
:101AC00086EF0DF0010E7B6F6AEF0DF0D89079373D
:101AD0007A377B2B7AAF6FEF0DF071EF0DF066EF79
:101AE0000DF07951775D7A517859D8A07AEF0DF0E1
:101AF0007CEF0DF080EF0DF07951775F7A51785BD4
:101B0000D8907A3379337B2F71EF0DF07C51D8B4B4
:101B10008CEF0DF08EEF0DF092EF0DF0776D781FDA
:101B2000D8B0782B77C077F078C078F01200076AC9
:101B300003BE9FEF0DF09DEF0DF0A5EF0DF0026CD1
:101B4000031ED8B0032A010E076E05BEACEF0DF0E0
:101B5000AAEF0DF0B0EF0DF0046C051ED8B0052A09
:101B600004500510D8B4B7EF0DF0B9EF0DF0DDEF6C
:101B70000DF0010E066EC1EF0DF0D890043605365B
:101B8000062A05AEC6EF0DF0C8EF0DF0BDEF0DF063
:101B90000450025C05500358D8A0D1EF0DF0D3EFEC
:101BA0000DF0D7EF0DF00450025E0550035AD890A7
:101BB00005320432062EC8EF0DF00750D8B4E3EF1B
:101BC0000DF0E5EF0DF0E9EF0DF0026C031ED8B05B
:101BD000032A02C002F003C003F01200F29E0001CB
:101BE0007D51D96EDA6ADE2A000EDD227D51D96E72
:101BF000DA6A010EDBBE08EF0EF0010EDB5006E1E3
:101C0000DE04D8B006EF0EF008EF0EF040EF0EF055
:101C10007D51D96EDA6A070ED926DF507E6F7D516D
:101C20007E25D96EDA6A020ED926DF507F6F7F518A
:101C3000750D770EF324D96E010EF420DA6EDF6A8B
:101C40007D51D96EDA6A070ED9267D51E16EE26ABE
:101C5000070EE126E7507E6F010E7E25776F786BC9
:101C6000000E78237A6B030E796F3FEC0DF00001C4
:101C70007751DF6E7D51D96EDA6A050ED926DF06FF
:101C8000F28E12004DC38BF000018A6B010E8B2582
:101C9000826F836B000E83234AC388F08851846F60
:101CA000856BE7EC0CF0000182518B6F8A2B030EE1
:101CB0008A655DEF0EF05FEF0EF062EF0EF0000E42
:101CC00087EF0EF08B51750D770EF324D96E010E50
:101CD000F420DA6EDF50D8A470EF0EF072EF0EF041
:101CE00046EF0EF08B51750D780EF324D96E010E70
:101CF000F420DA6E1E0EDE1809E1200EDE18D8B4CC
:101D000084EF0EF086EF0EF046EF0EF08B511200CE
:101D10004DC316F0156A010E16240001776F786B1B
:101D2000000E78234AC313F01350796F7A6B3FEC9F
:101D30000DF000017751166E152A030E1564A3EFFE
:101D40000EF0A5EF0EF0A8EF0EF0000ECDEF0EF0A6
:101D50001650750D770EF324D96E010EF420DA6E4D
:101D6000DF50D8A4B6EF0EF0B8EF0EF08BEF0EF008
:101D70001650750D780EF324D96E010EF420DA6E2C
:101D80001E0EDE1809E1200EDE18D8B4CAEF0EF0E0
:101D9000CCEF0EF08BEF0EF0165012004DC30BF08F
:101DA0000A6A010E0B24026E036A000E03224AC364
:101DB00008F00850046E056A97EC0DF002500B6EA7
:101DC0000A2A030E0A64E7EF0EF0E9EF0EF0ECEFDB
:101DD0000EF0000E11EF0FF00B50750D770EF3247F
:101DE000D96E010EF420DA6EDF50D8A4FAEF0EF0AF
:101DF000FCEF0EF0D1EF0EF00B50750D780EF324C2
:101E0000D96E010EF420DA6E1E0EDE1809E1200EE6
:101E1000DE18D8B40EEF0FF010EF0FF0D1EF0EF088
:101E20000B5012000101006F00C101F10101056BAF
:101E300084C006F182C003F183C004F1026B096B18
:101E40000D6B0C6B0F6B0E6B116B106B166B176BB6
:101E50000B6B0A6B086B126B146B136B156B076BB8
:101E6000756B21EE01F04AC385F000018551750DB7
:101E7000760EF324E16E010EF420E26E740EDBCFD9
:101E8000E3FFE806FCE24AC3E8FF010FE8CF4AF3AC
:101E90001200E1EC0FF05A0E0001826F1F0E836FEB
:101EA000050E846F020E12EC0FF08E0E0001826F91
:101EB0001F0E836F050E846F030E12EC0FF06E0E73
:101EC0000001826F200E836F050E846F040E12ECEA
:101ED0000FF03AEC0BF06BEF0FF08DEF03F0F40E18
:101EE000F66E200EF76E000EF86E0900F5CF2BF09F
:101EF00001EE76F011EED8F0EE6AE550E150FCE12B
:101F0000E250FAE100EE23F0080EEE6AE806FDE189
:101F100001900192000EF86E000149EF0FF00001F0
:101F20008351846F856B8251D96EDA6A84C0DEFF7B
:101F300085C0DDFF8251D96EDA6A050ED926DF6AC7
:101F40008251D96EDA6A060ED926DF6A8251D96EBD
:101F5000DA6A070ED926DF6A120082BCB2EF0FF0F0
:101F6000B5EF0FF0010EB6EF0FF0000EFF0A226E74
:101F7000223A2246224682502218BF0B2218826E35
:101F8000230E1A6E01EC08F0ADEF0FF0120082BEC6
:101F9000CCEF0FF0CFEF0FF0010ED0EF0FF0000EEF
:101FA000FF0A0001806F80338033825080197F0BDD
:101FB0008019826E230E7D6FEEEC0DF0C7EF0FF0EF
:101FC0001200000EE8CF4AF3760EE8CF4BF3010E75
:101FD000E8CF4CF3000EE8CF4DF31E0E0001826FE8
:101FE000200E836F000E846F010E12EC0FF05FEC79
:101FF00010F0120042EC0EF000018C6F8CC04DF31B
:102000004DC38CF08C51750D760EF3248D6F010E3F
:10201000F4208E6F8DC04BF38EC04CF31200949061
:1020200082B015EF10F018EF10F0010E19EF10F05C
:10203000000EFF0A026E82500218FE0B0218826E1A
:1020400010EF10F0120088EC0EF0176E17C04DF371
:102050004DC317F01750750D760EF324186E010E50
:10206000F420196E18C04BF319C04CF3120083B062
:102070003CEF10F03FEF10F0010E40EF10F0000EBB
:10208000FF0A0001816F83508119FE0B8119836E55
:1020900037EF10F01200CEEC0EF00C6E0CC04DF3CA
:1020A0004DC30CF00C50750D760EF3240D6E010E21
:1020B000F4200E6E0DC04BF30EC04CF31200949C36
:1020C000949E95900F013B913A9D3A9F230E0001FB
:1020D000826F000E836F8FEC0FF01200F28AF29481
:1020E000D58CD59AD596070ED512D58ED76A000E07
:0520F000D66E12003263
:00000001FF
