:040000008DEF03F08D
:100008000182E1CF16F0E2CF17F0D9CF18F0DACF9E
:1000180019F0F3CF1AF0F4CF1BF0F2A416EF00F0AA
:1000280018EF00F07FEF03F0F2941D6A000E1C6ECB
:100038006EEF00F0750E1C02F3CF0FF0F4CF10F046
:100048001D02F35010267A0E0F24D96E030E1020CD
:10005800DA6EDF50D8B433EF00F035EF00F06CEF14
:1000680000F0750E1C02F3CF0FF0F4CF10F01D0254
:10007800F35010267A0E0F24D96E030E1020DA6E74
:10008800DF06750E1C02F3CF0FF0F4CF10F01D023F
:10009800F35010267A0E0F24D96E030E1020DA6E54
:1000A800DF50D8A45AEF00F05CEF00F06CEF00F0DE
:1000B800750E1C02F3CF0FF0F4CF10F01D02F350B1
:1000C8001026770E0F24D96E030E1020DA6EDF6A21
:1000D8001C4A1D2A25EE4AF0DF500F6E106A0F5099
:1000E8001C5C1D50800A116E1050800A1158D8A04F
:1000F80080EF00F082EF00F01EEF00F02A062A5091
:10010800D8A489EF00F08BEF00F07FEF03F0320EF8
:100118002A6E25EE4BF010EE01F0DE50E126DD50A0
:10012800E222020EE618D8A49CEF00F09EEF00F041
:10013800DAEF01F025EE4BF010EE01F0DE50E1268B
:10014800DD50E222E76A25EE4BF010EE08F0DE50B3
:10015800E126DD50E222E0CFE7FF25EE4BF010EE7E
:100168000CF0DE50E126DD50E222EACFE7FF25EE73
:100178004BF010EE0BF0DE50E126DD50E222E9CF25
:10018800E7FF25EE4BF010EE0EF0DE50E126DD50D5
:10019800E222E2CFE7FF25EE4BF010EE0DF0DE5045
:1001A800E126DD50E222E1CFE7FF25EE4BF010EE2D
:1001B80010F0DE50E126DD50E222DACFE7FF25EE2F
:1001C8004BF010EE0FF0DE50E126DD50E222D9CFE1
:1001D800E7FF25EE4BF010EE15F0DE50E126DD507E
:1001E800E222FACFE7FF25EE4BF010EE16F0DE50D4
:1001F800E126DD50E222FBCFE7FF25EE4BF010EEC3
:100208000AF0DE50E126DD50E222F4CFE7FF25EECA
:100218004BF010EE09F0DE50E126DD50E222F3CF7C
:10022800E7FF25EE4BF010EE11F0DE50E126DD5031
:10023800E222F5CFE7FF25EE4BF010EE13F0DE508B
:10024800E126DD50E222F7CFE7FF25EE4BF010EE76
:1002580012F0DE50E126DD50E222F6CFE7FF25EE70
:100268004BF010EE14F0DE50E126DD50E222F8CF1C
:10027800E7FF25EE4BF010EE06F0DE50E126DD50EC
:10028800E222E8CFE7FF25EE4BF010EE07F0DE5054
:10029800E126DD50E222D8CFE7FF25EE4BF010EE45
:1002A80074F0DE50E126DD50E222E76AD2EF01F079
:1002B80025EE4BF010EE74F0DE50E126DD50E22220
:1002C800E7500F6E0F50030DF3CF10F0F4CF11F07D
:1002D80025EE4BF0DECF12F0DDCF13F010501224D4
:1002E800146E11501320156E170E1424D96E000EBB
:1002F8001520DA6EFDCFDFFF25EE4BF010EE74F01F
:10030800DE50E126DD50E222E7500F6E0F50030D5C
:10031800F3CF10F0F4CF11F025EE4BF0DECF12F052
:10032800DDCF13F010501224146E11501320156EE7
:10033800180E1424D96E000E1520DA6EFECFDFFFDA
:1003480025EE4BF010EE74F0DE50E126DD50E2228F
:10035800E7500F6E0F50030DF3CF10F0F4CF11F0EC
:1003680025EE4BF0DECF12F0DDCF13F01050122443
:10037800146E11501320156E190E1424D96E000E28
:100388001520DA6EFFCFDFFF25EE4BF010EE74F08C
:10039800DE50E126DD50E222E72A0600FC50D8A410
:1003A800D8EF01F0DAEF01F05CEF01F039EC10F072
:1003B80025EE4BF010EE01F0DE50E126DD50E22292
:1003C800E750D8A4EAEF01F0ECEF01F07FEF03F07B
:1003D80025EE4BF010EE01F0DE50E126DD50E22272
:1003E800020EE76E25EE4BF010EE08F0DE50E12627
:1003F800DD50E222E750E06E25EE4BF010EE0CF0F7
:10040800DE50E126DD50E222E750EA6E25EE4BF0A1
:1004180010EE0BF0DE50E126DD50E222E750E96EE7
:1004280025EE4BF010EE0EF0DE50E126DD50E22214
:10043800E750E26E25EE4BF010EE0DF0DE50E126AF
:10044800DD50E222E750E16E25EE4BF010EE10F0A1
:10045800DE50E126DD50E222E750DA6E25EE4BF061
:1004680010EE0FF0DE50E126DD50E222E750D96EA3
:1004780025EE4BF010EE15F0DE50E126DD50E222BD
:10048800E750FA6E25EE4BF010EE16F0DE50E1263E
:10049800DD50E222E750FB6E25EE4BF010EE0AF03D
:1004A800DE50E126DD50E222E750F46E25EE4BF0F7
:1004B80010EE09F0DE50E126DD50E222E750F36E3F
:1004C80025EE4BF010EE11F0DE50E126DD50E22271
:1004D800E750F56E25EE4BF010EE13F0DE50E126F6
:1004E800DD50E222E750F76E25EE4BF010EE12F0E9
:1004F800DE50E126DD50E222E750F66E25EE4BF0A5
:1005080010EE14F0DE50E126DD50E222E750F86EDE
:1005180025EE4BF010EE07F0DE50E126DD50E2222A
:10052800E750D86E25EE4BF010EE06F0DE50E126CF
:10053800DD50E222E7500F6E0F50FC6A25EE4BF0BB
:1005480010EE74F0DE50E126DD50E222E750D8B418
:10055800B0EF02F0B2EF02F03AEF03F0050025EE3B
:100568004BF010EE74F0DE50E126DD50E222E70693
:1005780025EE4BF010EE74F0DE50E126DD50E2225D
:10058800E7500F6E0F50030DF3CF10F0F4CF11F0BA
:1005980025EE4BF0DECF12F0DDCF13F01050122411
:1005A800146E11501320156E170E1424D96E000EF8
:1005B8001520DA6EDF50FD6E25EE4BF010EE74F06C
:1005C800DE50E126DD50E222E7500F6E0F50030D9A
:1005D800F3CF10F0F4CF11F025EE4BF0DECF12F090
:1005E800DDCF13F010501224146E11501320156E25
:1005F800180E1424D96E000E1520DA6EDF50FE6E28
:1006080025EE4BF010EE74F0DE50E126DD50E222CC
:10061800E7500F6E0F50030DF3CF10F0F4CF11F029
:1006280025EE4BF0DECF12F0DDCF13F01050122480
:10063800146E11501320156E190E1424D96E000E65
:100648001520DA6EDF50FF6E25EE4BF010EE74F0D9
:10065800DE50E126DD50E222E750D8A436EF03F061
:1006680038EF03F0B2EF02F07DEF03F0050025EE5E
:100678004BF010EE02F0DE50E126DD50E222E750AA
:10068800FD6E25EE4BF010EE02F0DE50E126DD5057
:10069800E222E6CF0FF0E5CF10F00FC011F010C046
:1006A80012F0136A12C011F013C012F0136A11503D
:1006B800FE6E100E0F6E25EE4BF010EE02F0DE50BF
:1006C800E126DD50E222E6CF10F0E5CF11F010C0B0
:1006D80012F011C013F0146A0F28156E78EF03F0AA
:1006E800D890143213321232152E74EF03F01250D0
:1006F800FF6E320E2A6E1BC0F4FF1AC0F3FF19C03A
:10070800DAFF18C0D9FF17C0E2FF16C0E1FF019257
:06071800110063EF0FF079
:101000000000F29E1A50D96EDA6ADE06000EDD5A32
:101010001A50D96EDA6A010EDBBE13EF08F011EF39
:1010200008F032EF0BF025EE4DF01A50E16EE26A57
:10103000050EE126E7501B6E1A501B24E16EE26A92
:10104000020EE126DFCFE7FF1A50D96EDA6A050EED
:10105000D9261A50E16EE26A050EE126E7501B6EB2
:10106000010E1B240001776F786B000E78237A6BDA
:10107000030E796F39EC0DF000017751DF6E25EE2C
:101080004BF010EE01F0DE50E126DD50E222020EC0
:10109000E618D8A44EEF08F050EF08F08DEF09F0F5
:1010A00025EE4BF010EE01F0DE50E126DD50E2229D
:1010B000030EE76E25EE4BF010EE08F0DE50E12651
:1010C000DD50E222E0CFE7FF25EE4BF010EE0CF012
:1010D000DE50E126DD50E222EACFE7FF25EE4BF0BD
:1010E00010EE0BF0DE50E126DD50E222E9CFE7FF03
:1010F00025EE4BF010EE0EF0DE50E126DD50E22240
:10110000E2CFE7FF25EE4BF010EE0DF0DE50E126CA
:10111000DD50E222E1CFE7FF25EE4BF010EE10F0BC
:10112000DE50E126DD50E222DACFE7FF25EE4BF07C
:1011300010EE0FF0DE50E126DD50E222D9CFE7FFBE
:1011400025EE4BF010EE15F0DE50E126DD50E222E8
:10115000FACFE7FF25EE4BF010EE16F0DE50E12659
:10116000DD50E222FBCFE7FF25EE4BF010EE0AF058
:10117000DE50E126DD50E222F4CFE7FF25EE4BF012
:1011800010EE09F0DE50E126DD50E222F3CFE7FF5A
:1011900025EE4BF010EE11F0DE50E126DD50E2229C
:1011A000F5CFE7FF25EE4BF010EE13F0DE50E12611
:1011B000DD50E222F7CFE7FF25EE4BF010EE12F004
:1011C000DE50E126DD50E222F6CFE7FF25EE4BF0C0
:1011D00010EE14F0DE50E126DD50E222F8CFE7FFFA
:1011E00025EE4BF010EE06F0DE50E126DD50E22257
:1011F000E8CFE7FF25EE4BF010EE07F0DE50E126DA
:10120000DD50E222D8CFE7FF25EE4BF010EE74F070
:10121000DE50E126DD50E222E76A85EF09F025EE97
:101220004BF010EE74F0DE50E126DD50E222E75084
:101230001B6E1B50030DF3CF1CF0F4CF1DF025EEF9
:101240004BF0DECF1EF0DDCF1FF01C501E24206EB1
:101250001D501F20216E170E2024D96E000E212054
:10126000DA6EFDCFDFFF25EE4BF010EE74F0DE50AE
:10127000E126DD50E222E7501B6E1B50030DF3CF39
:101280001CF0F4CF1DF025EE4BF0DECF1EF0DDCFCD
:101290001FF01C501E24206E1D501F20216E180EA2
:1012A0002024D96E000E2120DA6EFECFDFFF25EE5E
:1012B0004BF010EE74F0DE50E126DD50E222E750F4
:1012C0001B6E1B50030DF3CF1CF0F4CF1DF025EE69
:1012D0004BF0DECF1EF0DDCF1FF01C501E24206E21
:1012E0001D501F20216E190E2024D96E000E2120C2
:1012F000DA6EFFCFDFFF25EE4BF010EE74F0DE501C
:10130000E126DD50E222E72A0600FC50D8A48BEF4C
:1013100009F08DEF09F00FEF09F011EC10F025EE58
:101320004BF010EE01F0DE50E126DD50E222E750F6
:10133000D8A49DEF09F09FEF09F032EF0BF025EEF6
:101340004BF010EE01F0DE50E126DD50E222020EFD
:10135000E76E25EE4BF010EE08F0DE50E126DD5092
:10136000E222E750E06E25EE4BF010EE0CF0DE507E
:10137000E126DD50E222E750EA6E25EE4BF010EE5A
:101380000BF0DE50E126DD50E222E750E96E25EE5B
:101390004BF010EE0EF0DE50E126DD50E222E75079
:1013A000E26E25EE4BF010EE0DF0DE50E126DD5042
:1013B000E222E750E16E25EE4BF010EE10F0DE5029
:1013C000E126DD50E222E750DA6E25EE4BF010EE1A
:1013D0000FF0DE50E126DD50E222E750D96E25EE17
:1013E0004BF010EE15F0DE50E126DD50E222E75022
:1013F000FA6E25EE4BF010EE16F0DE50E126DD50D1
:10140000E222E750FB6E25EE4BF010EE0AF0DE50C4
:10141000E126DD50E222E750F46E25EE4BF010EEAF
:1014200009F0DE50E126DD50E222E750F36E25EEB2
:101430004BF010EE11F0DE50E126DD50E222E750D5
:10144000F56E25EE4BF010EE13F0DE50E126DD5088
:10145000E222E750F76E25EE4BF010EE12F0DE5070
:10146000E126DD50E222E750F66E25EE4BF010EE5D
:1014700014F0DE50E126DD50E222E750F86E25EE52
:101480004BF010EE07F0DE50E126DD50E222E7508F
:10149000D86E25EE4BF010EE06F0DE50E126DD5062
:1014A000E222E7501B6E1B50FC6A25EE4BF010EE5B
:1014B00074F0DE50E126DD50E222E750D8B463EF4D
:1014C0000AF065EF0AF0EDEF0AF0050025EE4BF0AB
:1014D00010EE74F0DE50E126DD50E222E70625EE44
:1014E0004BF010EE74F0DE50E126DD50E222E750C2
:1014F0001B6E1B50030DF3CF1CF0F4CF1DF025EE37
:101500004BF0DECF1EF0DDCF1FF01C501E24206EEE
:101510001D501F20216E170E2024D96E000E212091
:10152000DA6EDF50FD6E25EE4BF010EE74F0DE50FB
:10153000E126DD50E222E7501B6E1B50030DF3CF76
:101540001CF0F4CF1DF025EE4BF0DECF1EF0DDCF0A
:101550001FF01C501E24206E1D501F20216E180EDF
:101560002024D96E000E2120DA6EDF50FE6E25EEAB
:101570004BF010EE74F0DE50E126DD50E222E75031
:101580001B6E1B50030DF3CF1CF0F4CF1DF025EEA6
:101590004BF0DECF1EF0DDCF1FF01C501E24206E5E
:1015A0001D501F20216E190E2024D96E000E2120FF
:1015B000DA6EDF50FF6E25EE4BF010EE74F0DE5069
:1015C000E126DD50E222E750D8A4E9EF0AF0EBEF84
:1015D0000AF065EF0AF030EF0BF0050025EE4BF056
:1015E00010EE02F0DE50E126DD50E222E750FD6E03
:1015F00025EE4BF010EE02F0DE50E126DD50E22247
:10160000E6CF1BF0E5CF1CF01BC01DF01CC01EF088
:101610001F6A1EC01DF01FC01EF01F6A1D50FE6E07
:10162000100E1B6E25EE4BF010EE02F0DE50E126A0
:10163000DD50E222E6CF1CF0E5CF1DF01CC01EF00D
:101640001DC01FF0206A1B28216E2BEF0BF0D890D5
:1016500020321F321E32212E27EF0BF01E50FF6E5C
:10166000320E2A6EF28E12005CEC10F0E8EC0FF0F5
:1016700025EE4BF010EE01F0DE50E126DD50E222C7
:10168000E750D8A446EF0BF048EF0BF0DFEF0CF07B
:1016900025EE4BF010EE01F0DE50E126DD50E222A7
:1016A000020EE76E25EE4BF010EE08F0DE50E1265C
:1016B000DD50E222E750E06E25EE4BF010EE0CF02C
:1016C000DE50E126DD50E222E750EA6E25EE4BF0D7
:1016D00010EE0BF0DE50E126DD50E222E750E96E1D
:1016E00025EE4BF010EE0EF0DE50E126DD50E2224A
:1016F000E750E26E25EE4BF010EE0DF0DE50E126E5
:10170000DD50E222E750E16E25EE4BF010EE10F0D6
:10171000DE50E126DD50E222E750DA6E25EE4BF096
:1017200010EE0FF0DE50E126DD50E222E750D96ED8
:1017300025EE4BF010EE15F0DE50E126DD50E222F2
:10174000E750FA6E25EE4BF010EE16F0DE50E12673
:10175000DD50E222E750FB6E25EE4BF010EE0AF072
:10176000DE50E126DD50E222E750F46E25EE4BF02C
:1017700010EE09F0DE50E126DD50E222E750F36E74
:1017800025EE4BF010EE11F0DE50E126DD50E222A6
:10179000E750F56E25EE4BF010EE13F0DE50E1262B
:1017A000DD50E222E750F76E25EE4BF010EE12F01E
:1017B000DE50E126DD50E222E750F66E25EE4BF0DA
:1017C00010EE14F0DE50E126DD50E222E750F86E14
:1017D00025EE4BF010EE07F0DE50E126DD50E22260
:1017E000E750D86E25EE4BF010EE06F0DE50E12605
:1017F000DD50E222E75000018F6F8F51FC6A25EE29
:101800004BF010EE74F0DE50E126DD50E222E7509E
:10181000D8B40DEF0CF00FEF0CF098EF0CF00500C2
:1018200025EE4BF010EE74F0DE50E126DD50E222A2
:10183000E70625EE4BF010EE74F0DE50E126DD50A9
:10184000E222E75000018F6F8F51030DF3CF90F02C
:10185000F4CF91F025EE4BF0DECF92F0DDCF93F098
:1018600090519225946F91519321956F170E942565
:10187000D96E000E9521DA6EDF50FD6E25EE4BF02D
:1018800010EE74F0DE50E126DD50E222E7508F6F5B
:101890008F51030DF3CF90F0F4CF91F025EE4BF084
:1018A000DECF92F0DDCF93F090519225946F91515D
:1018B0009321956F180E9425D96E000E9521DA6E3E
:1018C000DF50FE6E25EE4BF010EE74F0DE50E12698
:1018D000DD50E222E7508F6F8F51030DF3CF90F070
:1018E000F4CF91F025EE4BF0DECF92F0DDCF93F008
:1018F00090519225946F91519321956F190E9425D3
:10190000D96E000E9521DA6EDF50FF6E25EE4BF09A
:1019100010EE74F0DE50E126DD50E222E750D8A44C
:1019200094EF0CF096EF0CF00FEF0CF0DDEF0CF0F5
:10193000050025EE4BF010EE02F0DE50E126DD5002
:10194000E222E750FD6E25EE4BF010EE02F0DE5085
:10195000E126DD50E222E6CF8FF0E5CF90F08FC098
:1019600091F090C092F00001936B92C091F093C0FF
:1019700092F0936B9151FE6E100E8F6F25EE4BF02F
:1019800010EE02F0DE50E126DD50E222E6CF90F0CC
:10199000E5CF91F090C092F091C093F0946B8F29B5
:1019A000956FD7EF0CF0D890943393339233952FF3
:1019B000D3EF0CF000019251FF6E320E2A6EF28EC0
:1019C00012000001876B83BFEAEF0CF0E8EF0CF028
:1019D000F0EF0CF0826D831FD8B0832B010E876F60
:1019E00085BFF7EF0CF0F5EF0CF0FBEF0CF0846D1A
:1019F000851FD8B0852B84518511D8B402EF0DF026
:101A000004EF0DF028EF0DF0010E866F0CEF0DF0D6
:101A1000D89084378537862B85AF11EF0DF013EF03
:101A20000DF008EF0DF08451825D85518359D8A0E7
:101A30001CEF0DF01EEF0DF022EF0DF08451825FD0
:101A40008551835BD89085338433862F13EF0DF057
:101A50008751D8B42EEF0DF030EF0DF034EF0DF0CC
:101A6000826D831FD8B0832B82C082F083C083F045
:101A7000120000017C6B78BF42EF0DF040EF0DF0DB
:101A800048EF0DF0776D781FD8B0782B010E7C6F82
:101A90007ABF4FEF0DF04DEF0DF053EF0DF0796D74
:101AA0007A1FD8B07A2B79517A11D8B45AEF0DF049
:101AB0005CEF0DF080EF0DF0010E7B6F64EF0DF029
:101AC000D89079377A377B2B7AAF69EF0DF06BEFCF
:101AD0000DF060EF0DF07951775D7A517859D8A00B
:101AE00074EF0DF076EF0DF07AEF0DF07951775F2E
:101AF0007A51785BD8907A3379337B2F6BEF0DF086
:101B00007C51D8B486EF0DF088EF0DF08CEF0DF01E
:101B1000776D781FD8B0782B77C077F078C078F0E1
:101B20001200076A03BE99EF0DF097EF0DF09FEFDB
:101B30000DF0026C031ED8B0032A010E076E05BE1D
:101B4000A6EF0DF0A4EF0DF0AAEF0DF0046C051E4A
:101B5000D8B0052A04500510D8B4B1EF0DF0B3EF9A
:101B60000DF0D7EF0DF0010E066EBBEF0DF0D89023
:101B700004360536062A05AEC0EF0DF0C2EF0DF0B3
:101B8000B7EF0DF00450025C05500358D8A0CBEF1E
:101B90000DF0CDEF0DF0D1EF0DF00450025E0550C9
:101BA000035AD89005320432062EC2EF0DF00750CA
:101BB000D8B4DDEF0DF0DFEF0DF0E3EF0DF0026CC8
:101BC000031ED8B0032A02C002F003C003F01200C3
:101BD000F29E00017D51D96EDA6ADE2A000EDD2206
:101BE0007D51D96EDA6A010EDBBE02EF0EF0010EF6
:101BF000DB5006E1DE04D8B000EF0EF002EF0EF08D
:101C000034EF0EF07D51D96EDA6A060ED926DF5018
:101C10007E6F7D517E25D96EDA6A020ED926DF509D
:101C20007F6F7F51750D770EF324D96E030EF4206C
:101C3000DA6EDF6A7D51D96EDA6A060ED9267D51D9
:101C4000E16EE26A060EE126E7507E6F010E7E2508
:101C5000776F786B000E78237A6B030E796F39EC0F
:101C60000DF000017751DF6EF28E12004DC58BF042
:101C700000018A6B010E8B25826F836B000E83231C
:101C80004AC588F08851846F856BE1EC0CF0000147
:101C900082518B6F8A2B030E8A6551EF0EF053EF42
:101CA0000EF056EF0EF0000E7BEF0EF08B51750D1F
:101CB000770EF324D96E030EF420DA6EDF50D8A429
:101CC00064EF0EF066EF0EF03AEF0EF08B51750DEB
:101CD000780EF324D96E030EF420DA6EFA0EDE18B5
:101CE00009E11F0EDE18D8B478EF0EF07AEF0EF08F
:101CF0003AEF0EF08B5112004DC516F0156A010E29
:101D000016240001776F786B000E78234AC513F014
:101D10001350796F7A6B39EC0DF000017751166E24
:101D2000152A030E156497EF0EF099EF0EF09CEF55
:101D30000EF0000EC1EF0EF01650750D770EF32465
:101D4000D96E030EF420DA6EDF50D8A4AAEF0EF09D
:101D5000ACEF0EF07FEF0EF01650750D780EF324F9
:101D6000D96E030EF420DA6EFA0EDE1809E11F0EAA
:101D7000DE18D8B4BEEF0EF0C0EF0EF07FEF0EF01D
:101D8000165012004DC50BF00A6A010E0B24026EAC
:101D9000036A000E03224AC508F00850046E056A63
:101DA00091EC0DF002500B6E0A2A030E0A64DBEF71
:101DB0000EF0DDEF0EF0E0EF0EF0000E05EF0FF08D
:101DC0000B50750D770EF324D96E030EF420DA6EE6
:101DD000DF50D8A4EEEF0EF0F0EF0EF0C5EF0EF0EE
:101DE0000B50750D780EF324D96E030EF420DA6EC5
:101DF000FA0EDE1809E11F0EDE18D8B402EF0FF05C
:101E000004EF0FF0C5EF0EF00B5012000101006F50
:101E100000C101F10101056B84C006F182C003F12C
:101E200083C004F1026B096B0D6B0C6B0F6B0E6BB7
:101E3000116B106B166B176B0B6B0A6B086B126BCD
:101E4000146B136B156B076B756B21EE01F04AC5B4
:101E500085F000018551750D760EF324E16E030EB9
:101E6000F420E26E740EDBCFE3FFE806FCE24AC525
:101E7000E8FF010FE8CF4AF51200B7EC0FF0060EAD
:101E80000001826F1F0E836F050E846F020E06EC39
:101E90000FF03A0E0001826F1F0E836F050E846FE4
:101EA000030E06EC0FF04A0E0001826F200E836FC6
:101EB000050E846F040E06EC0FF034EC0BF05FEFB0
:101EC0000FF08DEF03F0D00EF66E200EF76E000EC1
:101ED000F86E0900F5CF2AF001EE76F013EED8F097
:101EE000EE6AE550E150FCE1E250FAE100EE23F049
:101EF000070EEE6AE806FDE101900192000EF86E11
:101F000000013DEF0FF082BC88EF0FF08BEF0FF078
:101F1000010E8CEF0FF0000EFF0A226E223A2246CD
:101F2000224682502218BF0B2218826E230E1A6E90
:101F300001EC08F083EF0FF0120082BEA2EF0FF069
:101F4000A5EF0FF0010EA6EF0FF0000EFF0A000143
:101F5000806F80338033825080197F0B8019826EAE
:101F6000230E7D6FE8EC0DF09DEF0FF01200000ED8
:101F7000E8CF4AF5760EE8CF4BF5030EE8CF4CF5E7
:101F8000000EE8CF4DF5FA0E0001826F1F0E836F31
:101F9000000E846F010E06EC0FF04DEC10F01200F5
:101FA00000018351846F856B8251D96EDA6A84C0D7
:101FB000DEFF85C0DDFF8251D96EDA6A050ED926B3
:101FC000DF6A8251D96EDA6A060ED926DF6A1200FC
:101FD00036EC0EF000018C6F8CC04DF54DC58CF0C9
:101FE0008C51750D760EF3248D6F030EF4208E6FD9
:101FF0008DC04BF58EC04CF51200949082B003EF6B
:1020000010F006EF10F0010E07EF10F0000EFF0ABF
:10201000026E82500218FE0B0218826EFEEF0FF065
:1020200012007CEC0EF0176E17C04DF54DC517F081
:102030001750750D760EF324186E030EF420196EEA
:1020400018C04BF519C04CF5120083B02AEF10F000
:102050002DEF10F0010E2EEF10F0000EFF0A000120
:10206000816F83508119FE0B8119836E25EF10F06B
:102070001200C2EC0EF00C6E0CC04DF54DC50CF00C
:102080000C50750D760EF3240D6E030EF4200E6EBB
:102090000DC04BF50EC04CF51200949C949E95908B
:1020A0000F013B913A9D3A9F230E0001826F000E73
:1020B000836FD0EC0FF01200F28AF294D58CD59A8F
:1020C000D596070ED512D58ED76A000ED66E1200A1
:0120D00032DD
:00000001FF
