:040000008DEF03F08D
:100008000182E1CF19F0E2CF1AF0D9CF1BF0DACF95
:100018001CF0F3CF1DF0F4CF1EF0F2A416EF00F0A1
:1000280018EF00F07FEF03F0F294206A000E1F6EC5
:100038006EEF00F0750E1F02F3CF12F0F4CF13F03D
:100048002002F35013267E0E1224D96E040E1320BC
:10005800DA6EDF50D8B433EF00F035EF00F06CEF14
:1000680000F0750E1F02F3CF12F0F4CF13F0200248
:10007800F35013267E0E1224D96E040E1320DA6E66
:10008800DF06750E1F02F3CF12F0F4CF13F0200233
:10009800F35013267E0E1224D96E040E1320DA6E46
:1000A800DF50D8A45AEF00F05CEF00F06CEF00F0DE
:1000B800750E1F02F3CF12F0F4CF13F02002F350A5
:1000C80013267B0E1224D96E040E1320DA6EDF6A13
:1000D8001F4A202A26EE4EF0DF50126E136A125085
:1000E8001F5C2050800A146E1350800A1458D8A040
:1000F80080EF00F082EF00F01EEF00F02806285095
:10010800D8A489EF00F08BEF00F07FEF03F0050E25
:10011800286E26EE4FF010EE01F0DE50E126DD509D
:10012800E222020EE618D8A49CEF00F09EEF00F041
:10013800DAEF01F026EE4FF010EE01F0DE50E12686
:10014800DD50E222E76A26EE4FF010EE08F0DE50AE
:10015800E126DD50E222E0CFE7FF26EE4FF010EE79
:100168000CF0DE50E126DD50E222EACFE7FF26EE72
:100178004FF010EE0BF0DE50E126DD50E222E9CF21
:10018800E7FF26EE4FF010EE0EF0DE50E126DD50D0
:10019800E222E2CFE7FF26EE4FF010EE0DF0DE5040
:1001A800E126DD50E222E1CFE7FF26EE4FF010EE28
:1001B80010F0DE50E126DD50E222DACFE7FF26EE2E
:1001C8004FF010EE0FF0DE50E126DD50E222D9CFDD
:1001D800E7FF26EE4FF010EE15F0DE50E126DD5079
:1001E800E222FACFE7FF26EE4FF010EE16F0DE50CF
:1001F800E126DD50E222FBCFE7FF26EE4FF010EEBE
:100208000AF0DE50E126DD50E222F4CFE7FF26EEC9
:100218004FF010EE09F0DE50E126DD50E222F3CF78
:10022800E7FF26EE4FF010EE11F0DE50E126DD502C
:10023800E222F5CFE7FF26EE4FF010EE13F0DE5086
:10024800E126DD50E222F7CFE7FF26EE4FF010EE71
:1002580012F0DE50E126DD50E222F6CFE7FF26EE6F
:100268004FF010EE14F0DE50E126DD50E222F8CF18
:10027800E7FF26EE4FF010EE06F0DE50E126DD50E7
:10028800E222E8CFE7FF26EE4FF010EE07F0DE504F
:10029800E126DD50E222D8CFE7FF26EE4FF010EE40
:1002A80074F0DE50E126DD50E222E76AD2EF01F079
:1002B80026EE4FF010EE74F0DE50E126DD50E2221B
:1002C800E750126E1250030DF3CF13F0F4CF14F071
:1002D80026EE4FF0DECF15F0DDCF16F013501524C3
:1002E800176E14501620186E170E1724D96E000EAC
:1002F8001820DA6EFDCFDFFF26EE4FF010EE74F017
:10030800DE50E126DD50E222E750126E1250030D56
:10031800F3CF13F0F4CF14F026EE4FF0DECF15F044
:10032800DDCF16F013501524176E14501620186ED2
:10033800180E1724D96E000E1820DA6EFECFDFFFD4
:1003480026EE4FF010EE74F0DE50E126DD50E2228A
:10035800E750126E1250030DF3CF13F0F4CF14F0E0
:1003680026EE4FF0DECF15F0DDCF16F01350152432
:10037800176E14501620186E190E1724D96E000E19
:100388001820DA6EFFCFDFFF26EE4FF010EE74F084
:10039800DE50E126DD50E222E72A0600FC50D8A410
:1003A800D8EF01F0DAEF01F05CEF01F006EC13F0A2
:1003B80026EE4FF010EE01F0DE50E126DD50E2228D
:1003C800E750D8A4EAEF01F0ECEF01F07FEF03F07B
:1003D80026EE4FF010EE01F0DE50E126DD50E2226D
:1003E800020EE76E26EE4FF010EE08F0DE50E12622
:1003F800DD50E222E750E06E26EE4FF010EE0CF0F2
:10040800DE50E126DD50E222E750EA6E26EE4FF09C
:1004180010EE0BF0DE50E126DD50E222E750E96EE7
:1004280026EE4FF010EE0EF0DE50E126DD50E2220F
:10043800E750E26E26EE4FF010EE0DF0DE50E126AA
:10044800DD50E222E750E16E26EE4FF010EE10F09C
:10045800DE50E126DD50E222E750DA6E26EE4FF05C
:1004680010EE0FF0DE50E126DD50E222E750D96EA3
:1004780026EE4FF010EE15F0DE50E126DD50E222B8
:10048800E750FA6E26EE4FF010EE16F0DE50E12639
:10049800DD50E222E750FB6E26EE4FF010EE0AF038
:1004A800DE50E126DD50E222E750F46E26EE4FF0F2
:1004B80010EE09F0DE50E126DD50E222E750F36E3F
:1004C80026EE4FF010EE11F0DE50E126DD50E2226C
:1004D800E750F56E26EE4FF010EE13F0DE50E126F1
:1004E800DD50E222E750F76E26EE4FF010EE12F0E4
:1004F800DE50E126DD50E222E750F66E26EE4FF0A0
:1005080010EE14F0DE50E126DD50E222E750F86EDE
:1005180026EE4FF010EE07F0DE50E126DD50E22225
:10052800E750D86E26EE4FF010EE06F0DE50E126CA
:10053800DD50E222E750126E1250FC6A26EE4FF0B0
:1005480010EE74F0DE50E126DD50E222E750D8B418
:10055800B0EF02F0B2EF02F03AEF03F0050026EE3A
:100568004FF010EE74F0DE50E126DD50E222E7068F
:1005780026EE4FF010EE74F0DE50E126DD50E22258
:10058800E750126E1250030DF3CF13F0F4CF14F0AE
:1005980026EE4FF0DECF15F0DDCF16F01350152400
:1005A800176E14501620186E170E1724D96E000EE9
:1005B8001820DA6EDF50FD6E26EE4FF010EE74F064
:1005C800DE50E126DD50E222E750126E1250030D94
:1005D800F3CF13F0F4CF14F026EE4FF0DECF15F082
:1005E800DDCF16F013501524176E14501620186E10
:1005F800180E1724D96E000E1820DA6EDF50FE6E22
:1006080026EE4FF010EE74F0DE50E126DD50E222C7
:10061800E750126E1250030DF3CF13F0F4CF14F01D
:1006280026EE4FF0DECF15F0DDCF16F0135015246F
:10063800176E14501620186E190E1724D96E000E56
:100648001820DA6EDF50FF6E26EE4FF010EE74F0D1
:10065800DE50E126DD50E222E750D8A436EF03F061
:1006680038EF03F0B2EF02F07DEF03F0050026EE5D
:100678004FF010EE02F0DE50E126DD50E222E750A6
:10068800FD6E26EE4FF010EE02F0DE50E126DD5052
:10069800E222E6CF12F0E5CF13F012C014F013C037
:1006A80015F0166A15C014F016C015F0166A145025
:1006B800FE6E100E126E26EE4FF010EE02F0DE50B7
:1006C800E126DD50E222E6CF13F0E5CF14F013C0A7
:1006D80015F014C016F0176A1228186E78EF03F098
:1006E800D890173216321532182E74EF03F01550C1
:1006F800FF6E050E286E1EC0F4FF1DC0F3FF1CC060
:10070800DAFF1BC0D9FF1AC0E2FF19C0E1FF01924E
:06071800110045EF11F095
:101000000000F29E01017551D96EDA6ADE06000E0B
:10101000DD5A7551D96EDA6A010EDBBE14EF08F0A5
:1010200012EF08F037EF0BF026EE51F07551E16E3C
:10103000E26A050EE126E750766F75517625E16E7E
:10104000E26A020EE126DFCFE7FF7551D96EDA6A58
:10105000050ED9267551E16EE26A050EE126E750CC
:10106000766F010E7625656F666B000E6623686BE2
:10107000030E676F0CEC10F001016551DF6E26EE78
:101080004FF010EE01F0DE50E126DD50E222020EBC
:10109000E618D8A44EEF08F050EF08F08EEF09F0F4
:1010A00026EE4FF010EE01F0DE50E126DD50E22298
:1010B000030EE76E26EE4FF010EE08F0DE50E1264C
:1010C000DD50E222E0CFE7FF26EE4FF010EE0CF00D
:1010D000DE50E126DD50E222EACFE7FF26EE4FF0B8
:1010E00010EE0BF0DE50E126DD50E222E9CFE7FF03
:1010F00026EE4FF010EE0EF0DE50E126DD50E2223B
:10110000E2CFE7FF26EE4FF010EE0DF0DE50E126C5
:10111000DD50E222E1CFE7FF26EE4FF010EE10F0B7
:10112000DE50E126DD50E222DACFE7FF26EE4FF077
:1011300010EE0FF0DE50E126DD50E222D9CFE7FFBE
:1011400026EE4FF010EE15F0DE50E126DD50E222E3
:10115000FACFE7FF26EE4FF010EE16F0DE50E12654
:10116000DD50E222FBCFE7FF26EE4FF010EE0AF053
:10117000DE50E126DD50E222F4CFE7FF26EE4FF00D
:1011800010EE09F0DE50E126DD50E222F3CFE7FF5A
:1011900026EE4FF010EE11F0DE50E126DD50E22297
:1011A000F5CFE7FF26EE4FF010EE13F0DE50E1260C
:1011B000DD50E222F7CFE7FF26EE4FF010EE12F0FF
:1011C000DE50E126DD50E222F6CFE7FF26EE4FF0BB
:1011D00010EE14F0DE50E126DD50E222F8CFE7FFFA
:1011E00026EE4FF010EE06F0DE50E126DD50E22252
:1011F000E8CFE7FF26EE4FF010EE07F0DE50E126D5
:10120000DD50E222D8CFE7FF26EE4FF010EE74F06B
:10121000DE50E126DD50E222E76A86EF09F026EE95
:101220004FF010EE74F0DE50E126DD50E222E75080
:101230000101766F7651030DF3CF77F1F4CF78F19A
:1012400026EE4FF0DECF79F1DDCF7AF177517925B7
:101250007B6F78517A217C6F170E7B25D96E000E3B
:101260007C21DA6EFDCFDFFF26EE4FF010EE74F03A
:10127000DE50E126DD50E222E750766F7651030D15
:10128000F3CF77F1F4CF78F126EE4FF0DECF79F19E
:10129000DDCF7AF1775179257B6F78517A217C6F98
:1012A000180E7B25D96E000E7C21DA6EFECFDFFF93
:1012B00026EE4FF010EE74F0DE50E126DD50E22213
:1012C000E750766F7651030DF3CF77F1F4CF78F1D5
:1012D00026EE4FF0DECF79F1DDCF7AF17751792527
:1012E0007B6F78517A217C6F190E7B25D96E000EA9
:1012F0007C21DA6EFFCFDFFF26EE4FF010EE74F0A8
:10130000DE50E126DD50E222E72A0600FC50D8A498
:101310008CEF09F08EEF09F00FEF09F0C9EC12F035
:1013200026EE4FF010EE01F0DE50E126DD50E22215
:10133000E750D8A49EEF09F0A0EF09F037EF0BF0CB
:1013400026EE4FF010EE01F0DE50E126DD50E222F5
:10135000020EE76E26EE4FF010EE08F0DE50E126AA
:10136000DD50E222E750E06E26EE4FF010EE0CF07A
:10137000DE50E126DD50E222E750EA6E26EE4FF025
:1013800010EE0BF0DE50E126DD50E222E750E96E70
:1013900026EE4FF010EE0EF0DE50E126DD50E22298
:1013A000E750E26E26EE4FF010EE0DF0DE50E12633
:1013B000DD50E222E750E16E26EE4FF010EE10F025
:1013C000DE50E126DD50E222E750DA6E26EE4FF0E5
:1013D00010EE0FF0DE50E126DD50E222E750D96E2C
:1013E00026EE4FF010EE15F0DE50E126DD50E22241
:1013F000E750FA6E26EE4FF010EE16F0DE50E126C2
:10140000DD50E222E750FB6E26EE4FF010EE0AF0C0
:10141000DE50E126DD50E222E750F46E26EE4FF07A
:1014200010EE09F0DE50E126DD50E222E750F36EC7
:1014300026EE4FF010EE11F0DE50E126DD50E222F4
:10144000E750F56E26EE4FF010EE13F0DE50E12679
:10145000DD50E222E750F76E26EE4FF010EE12F06C
:10146000DE50E126DD50E222E750F66E26EE4FF028
:1014700010EE14F0DE50E126DD50E222E750F86E67
:1014800026EE4FF010EE07F0DE50E126DD50E222AE
:10149000E750D86E26EE4FF010EE06F0DE50E12653
:1014A000DD50E222E7500101766F7651FC6A26EEAC
:1014B0004FF010EE74F0DE50E126DD50E222E750EE
:1014C000D8B465EF0AF067EF0AF0F0EF0AF0050014
:1014D00026EE4FF010EE74F0DE50E126DD50E222F1
:1014E000E70626EE4FF010EE74F0DE50E126DD50F8
:1014F000E222E7500101766F7651030DF3CF77F1C9
:10150000F4CF78F126EE4FF0DECF79F1DDCF7AF12E
:10151000775179257B6F78517A217C6F170E7B2567
:10152000D96E000E7C21DA6EDF50FD6E26EE4FF094
:1015300010EE74F0DE50E126DD50E222E750766FC7
:101540007651030DF3CF77F1F4CF78F126EE4FF01B
:10155000DECF79F1DDCF7AF1775179257B6F785144
:101560007A217C6F180E7B25D96E000E7C21DA6EF5
:10157000DF50FE6E26EE4FF010EE74F0DE50E126E6
:10158000DD50E222E750766F7651030DF3CF77F10D
:10159000F4CF78F126EE4FF0DECF79F1DDCF7AF19E
:1015A000775179257B6F78517A217C6F190E7B25D5
:1015B000D96E000E7C21DA6EDF50FF6E26EE4FF002
:1015C00010EE74F0DE50E126DD50E222E750D8A4A0
:1015D000ECEF0AF0EEEF0AF067EF0AF035EF0BF0F0
:1015E000050026EE4FF010EE02F0DE50E126DD5051
:1015F000E222E750FD6E26EE4FF010EE02F0DE50D4
:10160000E126DD50E222E6CF76F1E5CF77F176C133
:1016100078F177C179F101017A6B79C178F17AC1FA
:1016200079F17A6B7851FE6E100E766F26EE4FF0E0
:1016300010EE02F0DE50E126DD50E222E6CF77F137
:10164000E5CF78F177C179F178C17AF17B6B7629B2
:101650007C6F2FEF0BF0D8907B337A3379337C2F6C
:101660002BEF0BF001017951FF6E050E286EF28E03
:1016700012001AEC13F0B4EC12F026EE4FF010EE5C
:1016800001F0DE50E126DD50E222E750D8A44BEF16
:101690000BF04DEF0BF0E4EF0CF026EE4FF010EEF8
:1016A00001F0DE50E126DD50E222020EE76E26EE6A
:1016B0004FF010EE08F0DE50E126DD50E222E75058
:1016C000E06E26EE4FF010EE0CF0DE50E126DD501D
:1016D000E222E750EA6E26EE4FF010EE0BF0DE50FD
:1016E000E126DD50E222E750E96E26EE4FF010EEE3
:1016F0000EF0DE50E126DD50E222E750E26E26EEEB
:101700004FF010EE0DF0DE50E126DD50E222E75002
:10171000E16E26EE4FF010EE10F0DE50E126DD50C7
:10172000E222E750DA6E26EE4FF010EE0FF0DE50B8
:10173000E126DD50E222E750D96E26EE4FF010EEA2
:1017400015F0DE50E126DD50E222E750FA6E26EE7B
:101750004FF010EE16F0DE50E126DD50E222E750A9
:10176000FB6E26EE4FF010EE0AF0DE50E126DD5063
:10177000E222E750F46E26EE4FF010EE09F0DE5054
:10178000E126DD50E222E750F36E26EE4FF010EE38
:1017900011F0DE50E126DD50E222E750F56E26EE34
:1017A0004FF010EE13F0DE50E126DD50E222E7505C
:1017B000F76E26EE4FF010EE12F0DE50E126DD500F
:1017C000E222E750F66E26EE4FF010EE14F0DE50F7
:1017D000E126DD50E222E750F86E26EE4FF010EEE3
:1017E00007F0DE50E126DD50E222E750D86E26EE0B
:1017F0004FF010EE06F0DE50E126DD50E222E75019
:101800000201106F1051FC6A26EE4FF010EE74F0DA
:10181000DE50E126DD50E222E750D8B412EF0CF0A2
:1018200014EF0CF09DEF0CF0050026EE4FF010EEDB
:1018300074F0DE50E126DD50E222E70626EE4FF09E
:1018400010EE74F0DE50E126DD50E222E750020196
:10185000106F1051030DF3CF11F2F4CF12F226EEF8
:101860004FF0DECF13F2DDCF14F211511325156FB7
:1018700012511421166F170E1525D96E000E162160
:10188000DA6EDF50FD6E26EE4FF010EE74F0DE5093
:10189000E126DD50E222E750106F1051030DF3CF27
:1018A00011F2F4CF12F226EE4FF0DECF13F2DDCFBD
:1018B00014F211511325156F12511421166F180EC1
:1018C0001525D96E000E1621DA6EDF50FE6E26EE5B
:1018D0004FF010EE74F0DE50E126DD50E222E750CA
:1018E000106F1051030DF3CF11F2F4CF12F226EE68
:1018F0004FF0DECF13F2DDCF14F211511325156F27
:1019000012511421166F190E1525D96E000E1621CD
:10191000DA6EDF50FF6E26EE4FF010EE74F0DE5000
:10192000E126DD50E222E750D8A499EF0CF09BEFBE
:101930000CF014EF0CF0E2EF0CF0050026EE4FF087
:1019400010EE02F0DE50E126DD50E222E750FD6E9F
:1019500026EE4FF010EE02F0DE50E126DD50E222DE
:10196000E6CF10F2E5CF11F210C212F211C213F25B
:101970000201146B13C212F214C213F2146B12514F
:10198000FE6E100E106F26EE4FF010EE02F0DE50DD
:10199000E126DD50E222E6CF11F2E5CF12F211C2CC
:1019A00013F212C214F2156B1029166FDCEF0CF053
:1019B000D890153314331333162FD8EF0CF00201DF
:1019C0001351FF6E050E286EF28E12000201096B94
:1019D0000A6B2BEF0DF00A51750D7B0EF324D96EB7
:1019E000040EF420DA6EDF50D8A4F9EF0CF0FBEF10
:1019F0000CF02AEF0DF00A51750D7C0EF324D96E10
:101A0000040EF420DA6EE40EDE1809E1250EDE186D
:101A1000D8B40DEF0DF00FEF0DF02AEF0DF00A51D5
:101A2000750D7F0EF324D96E040EF420DA6EDE50AD
:101A3000095DD8B01EEF0DF020EF0DF02AEF0DF08C
:101A40000A51750D7F0EF324D96E040EF420DA6E60
:101A5000DF50096F0A2B26EE4EF0DE500A5DD8A04B
:101A600034EF0DF036EF0DF0EBEF0CF051C60BF24A
:101A7000086B010E0B25006F016B000E01234EC693
:101A800006F20651026F036BB4EC0FF00201005135
:101A90000B6F082B26EE4EF0DE50085DD8A053EFFA
:101AA0000DF055EF0DF09FEF0DF00C6B91EF0DF079
:101AB0000C51750D7B0EF324D96E040EF420DA6EF2
:101AC000DF50D8A466EF0DF068EF0DF090EF0DF049
:101AD0000C51750D7F0EF324D96E040EF420DA6ECE
:101AE0000951DE18D8A477EF0DF079EF0DF090EFE3
:101AF0000DF00C51750D7C0EF324D96E040EF420FC
:101B0000DA6EE40EDE1809E1250EDE18D8B48BEF8C
:101B10000DF08DEF0DF090EF0DF00C51D5EF0DF0B5
:101B20000C2B26EE4EF0DE500C5DD8A09AEF0DF097
:101B30009CEF0DF058EF0DF0000ED5EF0DF00B51AE
:101B4000750D7B0EF324D96E040EF420DA6EDF508F
:101B5000D8A4ADEF0DF0AFEF0DF039EF0DF00B5154
:101B6000750D7F0EF324D96E040EF420DA6E095140
:101B7000DE18D8A4BEEF0DF0C0EF0DF039EF0DF078
:101B80000B51750D7C0EF324D96E040EF420DA6E21
:101B9000E40EDE1809E1250EDE18D8B4D2EF0DF000
:101BA000D4EF0DF039EF0DF00B51120001016E6B07
:101BB0006F6B1BEF0EF06F51750D7B0EF324D96E1A
:101BC000040EF420DA6EDF50D8A4E9EF0DF0EBEF4D
:101BD0000DF01AEF0EF06F51750D7C0EF324D96ED7
:101BE000040EF420DA6EE40EDE1809E1250EDE188C
:101BF000D8B4FDEF0DF0FFEF0DF01AEF0EF06F51BE
:101C0000750D7F0EF324D96E040EF420DA6EDE50CB
:101C10006E5DD8B00EEF0EF010EF0EF01AEF0EF072
:101C20006F51750D7F0EF324D96E040EF420DA6E19
:101C3000DF506E6F6F2B26EE4EF0DE506F5DD8A03A
:101C400024EF0EF026EF0EF0DBEF0DF051C670F131
:101C50006D6B010E7025656F666B000E66234EC6B8
:101C60006BF16B51676F686B0CEC10F00101655103
:101C7000706F6D2B26EE4EF0DE506D5DD8A043EFF9
:101C80000EF045EF0EF08FEF0EF0716B81EF0EF05E
:101C90007151750D7B0EF324D96E040EF420DA6EAB
:101CA000DF50D8A456EF0EF058EF0EF080EF0EF094
:101CB0007151750D7F0EF324D96E040EF420DA6E87
:101CC0006E51DE18D8A467EF0EF069EF0EF080EFCA
:101CD0000EF07151750D7C0EF324D96E040EF420B4
:101CE000DA6EE40EDE1809E1250EDE18D8B47BEFBB
:101CF0000EF07DEF0EF080EF0EF07151C5EF0EF09B
:101D0000712B26EE4EF0DE50715DD8A08AEF0EF0FA
:101D10008CEF0EF048EF0EF0000EC5EF0EF0705194
:101D2000750D7B0EF324D96E040EF420DA6EDF50AD
:101D3000D8A49DEF0EF09FEF0EF029EF0EF070513A
:101D4000750D7F0EF324D96E040EF420DA6E6E51F9
:101D5000DE18D8A4AEEF0EF0B0EF0EF029EF0EF0C3
:101D60007051750D7C0EF324D96E040EF420DA6EDA
:101D7000E40EDE1809E1250EDE18D8B4C2EF0EF02D
:101D8000C4EF0EF029EF0EF0705112000B6A0C6ACE
:101D90000AEF0FF00C50750D7B0EF324D96E040E74
:101DA000F420DA6EDF50D8A4D8EF0EF0DAEF0EF0A0
:101DB00009EF0FF00C50750D7C0EF324D96E040E54
:101DC000F420DA6EE40EDE1809E1250EDE18D8B430
:101DD000ECEF0EF0EEEF0EF009EF0FF00C50750D7A
:101DE0007F0EF324D96E040EF420DA6EDE500B5C05
:101DF000D8B0FDEF0EF0FFEF0EF009EF0FF00C5032
:101E0000750D7F0EF324D96E040EF420DA6EDF50C8
:101E10000B6E0C2A26EE4EF0DE500C5CD8A013EFB1
:101E20000FF015EF0FF0CAEF0EF051C60DF00A6A71
:101E3000010E0D24026E036A000E03224EC608F046
:101E40000850046E056A64EC10F002500D6E0A2A08
:101E500026EE4EF0DE500A5CD8A031EF0FF033EFE3
:101E60000FF07DEF0FF00E6A6FEF0FF00E50750D53
:101E70007B0EF324D96E040EF420DA6EDF50D8A462
:101E800044EF0FF046EF0FF06EEF0FF00E50750DB0
:101E90007F0EF324D96E040EF420DA6E0B50DE1898
:101EA000D8A455EF0FF057EF0FF06EEF0FF00E5074
:101EB000750D7C0EF324D96E040EF420DA6EE40E58
:101EC000DE1809E1250EDE18D8B469EF0FF06BEFCC
:101ED0000FF06EEF0FF00E50B3EF0FF00E2A26EE5C
:101EE0004EF0DE500E5CD8A078EF0FF07AEF0FF0D6
:101EF00036EF0FF0000EB3EF0FF00D50750D7B0EA7
:101F0000F324D96E040EF420DA6EDF50D8A48BEFE0
:101F10000FF08DEF0FF018EF0FF00D50750D7F0ED5
:101F2000F324D96E040EF420DA6E0B50DE18D8A418
:101F30009CEF0FF09EEF0FF018EF0FF00D50750DA6
:101F40007C0EF324D96E040EF420DA6EE40EDE1853
:101F500009E1250EDE18D8B4B0EF0FF0B2EF0FF0A4
:101F600018EF0FF00D5012000201056B01BFBDEF1D
:101F70000FF0BBEF0FF0C3EF0FF0006D011FD8B0F3
:101F8000012B010E056F03BFCAEF0FF0C8EF0FF072
:101F9000CEEF0FF0026D031FD8B0032B02510311D7
:101FA000D8B4D5EF0FF0D7EF0FF0FBEF0FF0010E25
:101FB000046FDFEF0FF0D89002370337042B03AF25
:101FC000E4EF0FF0E6EF0FF0DBEF0FF00251005DF2
:101FD00003510159D8A0EFEF0FF0F1EF0FF0F5EF3B
:101FE0000FF00251005F0351015BD89003330233BD
:101FF000042FE6EF0FF00551D8B401EF10F003EF16
:1020000010F007EF10F0006D011FD8B0012B00C2D7
:1020100000F201C201F2120001016A6B66BF15EF06
:1020200010F013EF10F01BEF10F0656D661FD8B0C5
:10203000662B010E6A6F68BF22EF10F020EF10F0E0
:1020400026EF10F0676D681FD8B0682B67516811D4
:10205000D8B42DEF10F02FEF10F053EF10F0010E69
:10206000696F37EF10F0D89067376837692B68AF22
:102070003CEF10F03EEF10F033EF10F06751655D6C
:1020800068516659D8A047EF10F049EF10F04DEFB6
:1020900010F06751655F6851665BD89068336733AD
:1020A000692F3EEF10F06A51D8B459EF10F05BEF92
:1020B00010F05FEF10F0656D661FD8B0662B65C13C
:1020C00065F166C166F11200076A03BE6CEF10F09D
:1020D0006AEF10F072EF10F0026C031ED8B0032A02
:1020E000010E076E05BE79EF10F077EF10F07DEF6F
:1020F00010F0046C051ED8B0052A04500510D8B4A1
:1021000084EF10F086EF10F0AAEF10F0010E066ECB
:102110008EEF10F0D89004360536062A05AE93EF00
:1021200010F095EF10F08AEF10F00450025C0550AB
:102130000358D8A09EEF10F0A0EF10F0A4EF10F01D
:102140000450025E0550035AD89005320432062E20
:1021500095EF10F00750D8B4B0EF10F0B2EF10F0D8
:10216000B6EF10F0026C031ED8B0032A02C002F0D2
:1021700003C003F01200F29E01016B51D96EDA6ABE
:10218000DE2A000EDD226B51D96EDA6A010EDBBE4B
:10219000D5EF10F0010EDB5006E1DE04D8B0D3EF2E
:1021A00010F0D5EF10F007EF11F06B51D96EDA6A2D
:1021B000060ED926DF506C6F6B516C25D96EDA6A2A
:1021C000020ED926DF506D6F6D51750D7B0EF32415
:1021D000D96E040EF420DA6EDF6A6B51D96EDA6ABA
:1021E000060ED9266B51E16EE26A060EE126E75033
:1021F0006C6F010E6C25656F666B000E6623686B55
:10220000030E676F0CEC10F001016551DF6EF28E6A
:10221000120020EE74F011EE5DF0050EDBCFE3FF4F
:10222000E806FCE20101636B82BC19EF11F01CEFC0
:1022300011F0010E1DEF11F0000EFF0A5C6F5C3B08
:102240005C475C4782505C19BF0B5C19826E600E64
:10225000596F5D0E6325D96EDA6A010EDA22DF50FE
:102260005A6FDEEC11F0010E01016325656F666B9C
:10227000000E6623686B060E676F0CEC10F0010110
:102280006551636F14EF11F012004C0EF66E260EBE
:10229000F76E000EF86E00EE74F010EE06F0090016
:1022A000F5CFEEFFE550E150FAE1520EF66E260E44
:1022B000F76E000EF86E0900F5CF28F002EE7AF006
:1022C00013EED8F0EE6AE550E150FCE1E250FAE19D
:1022D00000EE60F0140EEE6AE806FDE100EE21F07B
:1022E000070EEE6AE806FDE101900192000EF86E1D
:1022F000000107EF12F00201046F04C205F20201AF
:10230000096B02C20AF200C207F201C208F2066BB0
:102310000D6B116B106B136B126B156B146B1A6BCF
:102320001B6B0F6B0E6B0C6B166B186B176B196BB3
:102330000B6B796B22EE05F04EC603F20351750D5F
:102340007A0EF324E16E040EF420E26E740EDBCFFD
:10235000E3FFE806FCE24EC6E8FF010FE8CF4EF6C9
:10236000120001017D510D0F756F01EC08F00101A4
:102370007D51D96EDA6A050ED926DF50806F7D5106
:102380008025D96EDA6A7EC1E1FF7FC1E2FFDFCF2F
:10239000E7FF7D51D96EDA6A050ED9267D51E16ECF
:1023A000E26A050EE126E750806F8029030BDF6E9D
:1023B0007D51060F6B6FBBEC10F0120001015951FB
:1023C000060F756F01EC08F001015951D96EDA6AF8
:1023D000040ED926DF505B6F59515B25D96EDA6A3E
:1023E0005AC1DFFF5951D96EDA6A040ED926595104
:1023F000E16EE26A040EE126E7505B6F5B29030B96
:10240000DF6E59510D0F6B6FBBEC10F012006DECCD
:1024100012F0120E0201006F220E016F050E026F04
:10242000020E7BEC11F03C0E0201006F250E016FD5
:10243000050E026F030E7BEC11F05A0E0201006FC5
:10244000240E016F050E026F040E7BEC11F039ECC7
:102450000BF029EF12F08DEF03F0600E01017D6F9C
:10246000810E7E6F010E7F6FB1EC11F04C0E0101F9
:102470008119D8A43EEF12F040EF12F043EF12F0B2
:1024800083802DEF12F0440E8119D8A44AEF12F088
:102490004CEF12F02DEF12F083902DEF12F012009E
:1024A00002010451D96EDA6A040ED926DF6A04519A
:1024B000D96EDA6A050ED926DF6A0451060F006F5D
:1024C000040E016F86EC12F0020104510D0F006F33
:1024D000000E016F86EC12F01200000EE8CF4EF6EF
:1024E0007A0EE8CF4FF6040EE8CF50F6000EE8CF94
:1024F00051F6E40E0201006F250E016F000E026F0F
:10250000010E7BEC11F0DEEC12F012000201015121
:10251000026F036B0051D96EDA6A02C2DEFF03C29A
:10252000DDFF0051D96EDA6A050ED926DF6A005147
:10253000D96EDA6A060ED926DF6A120082BEA3EFD0
:1025400012F0A6EF12F0010EA7EF12F0000EFF0A34
:102550000101646F64336433825064197F0B641922
:10256000826E9EEF12F01200E6EC0CF002010D6F8D
:102570000DC251F651C60DF20D51750D7A0EF324B0
:102580000E6F040EF4200F6F0EC24FF60FC250F6FE
:102590001200D6EC0DF00101726F72C151F651C6F6
:1025A00072F17251750D7A0EF324736F040EF420DC
:1025B000746F73C14FF674C150F61200949C949ED0
:1025C00095900F013B913A9D3A9F210E0201006FB9
:1025D000000E016F86EC12F0600E0201046F50ECE9
:1025E00012F01200949082B0F8EF12F0FBEF12F0AC
:1025F000010EFCEF12F0000EFF0A026E825002186C
:10260000FE0B0218826EF3EF12F01200C6EC0EF011
:102610000F6E0FC051F651C60FF00F50750D7A0EA8
:10262000F324106E040EF420116E10C04FF611C08A
:1026300050F61200F28AF294D58CD59AD596070EF0
:10264000D512D58ED76A000ED66E12004C4C444C73
:03265000444405FA
:00000001FF
