:040000009DEF03F07D
:100008000182E1CF19F0E2CF1AF0D9CF1BF0DACF95
:100018001CF0F3CF1DF0F4CF1EF0F2A416EF00F0A1
:1000280018EF00F07FEF03F0F294206A000E1F6EC5
:100038006EEF00F0360E1F02F3CF12F0F4CF13F07C
:100048002002F35013263B0E1224D96E040E1320FF
:10005800DA6EDF50D8B433EF00F035EF00F06CEF14
:1000680000F0360E1F02F3CF12F0F4CF13F0200287
:10007800F35013263B0E1224D96E040E1320DA6EA9
:10008800DF06360E1F02F3CF12F0F4CF13F0200272
:10009800F35013263B0E1224D96E040E1320DA6E89
:1000A800DF50D8A45AEF00F05CEF00F06CEF00F0DE
:1000B800360E1F02F3CF12F0F4CF13F02002F350E4
:1000C8001326380E1224D96E040E1320DA6EDF6A56
:1000D8001F4A202A25EE45F0DF50126E136A12508F
:1000E8001F5C2050800A146E1350800A1458D8A040
:1000F80080EF00F082EF00F01EEF00F0230623509F
:10010800D8A489EF00F08BEF00F07FEF03F0050E25
:10011800236E25EE46F010EE01F0DE50E126DD50AC
:10012800E222020EE618D8A49CEF00F09EEF00F041
:10013800DAEF01F025EE46F010EE01F0DE50E12690
:10014800DD50E222E76A25EE46F010EE08F0DE50B8
:10015800E126DD50E222E0CFE7FF25EE46F010EE83
:100168000CF0DE50E126DD50E222EACFE7FF25EE73
:1001780046F010EE0BF0DE50E126DD50E222E9CF2A
:10018800E7FF25EE46F010EE0EF0DE50E126DD50DA
:10019800E222E2CFE7FF25EE46F010EE0DF0DE504A
:1001A800E126DD50E222E1CFE7FF25EE46F010EE32
:1001B80010F0DE50E126DD50E222DACFE7FF25EE2F
:1001C80046F010EE0FF0DE50E126DD50E222D9CFE6
:1001D800E7FF25EE46F010EE15F0DE50E126DD5083
:1001E800E222FACFE7FF25EE46F010EE16F0DE50D9
:1001F800E126DD50E222FBCFE7FF25EE46F010EEC8
:100208000AF0DE50E126DD50E222F4CFE7FF25EECA
:1002180046F010EE09F0DE50E126DD50E222F3CF81
:10022800E7FF25EE46F010EE11F0DE50E126DD5036
:10023800E222F5CFE7FF25EE46F010EE13F0DE5090
:10024800E126DD50E222F7CFE7FF25EE46F010EE7B
:1002580012F0DE50E126DD50E222F6CFE7FF25EE70
:1002680046F010EE14F0DE50E126DD50E222F8CF21
:10027800E7FF25EE46F010EE06F0DE50E126DD50F1
:10028800E222E8CFE7FF25EE46F010EE07F0DE5059
:10029800E126DD50E222D8CFE7FF25EE46F010EE4A
:1002A80035F0DE50E126DD50E222E76AD2EF01F0B8
:1002B80025EE46F010EE35F0DE50E126DD50E22264
:1002C800E750126E1250030DF3CF13F0F4CF14F071
:1002D80025EE46F0DECF15F0DDCF16F013501524CD
:1002E800176E14501620186E170E1724D96E000EAC
:1002F8001820DA6EFDCFDFFF25EE46F010EE35F060
:10030800DE50E126DD50E222E750126E1250030D56
:10031800F3CF13F0F4CF14F025EE46F0DECF15F04E
:10032800DDCF16F013501524176E14501620186ED2
:10033800180E1724D96E000E1820DA6EFECFDFFFD4
:1003480025EE46F010EE35F0DE50E126DD50E222D3
:10035800E750126E1250030DF3CF13F0F4CF14F0E0
:1003680025EE46F0DECF15F0DDCF16F0135015243C
:10037800176E14501620186E190E1724D96E000E19
:100388001820DA6EFFCFDFFF25EE46F010EE35F0CD
:10039800DE50E126DD50E222E72A0600FC50D8A410
:1003A800D8EF01F0DAEF01F05CEF01F0B9EC16F0EC
:1003B80025EE46F010EE01F0DE50E126DD50E22297
:1003C800E750D8A4EAEF01F0ECEF01F07FEF03F07B
:1003D80025EE46F010EE01F0DE50E126DD50E22277
:1003E800020EE76E25EE46F010EE08F0DE50E1262C
:1003F800DD50E222E750E06E25EE46F010EE0CF0FC
:10040800DE50E126DD50E222E750EA6E25EE46F0A6
:1004180010EE0BF0DE50E126DD50E222E750E96EE7
:1004280025EE46F010EE0EF0DE50E126DD50E22219
:10043800E750E26E25EE46F010EE0DF0DE50E126B4
:10044800DD50E222E750E16E25EE46F010EE10F0A6
:10045800DE50E126DD50E222E750DA6E25EE46F066
:1004680010EE0FF0DE50E126DD50E222E750D96EA3
:1004780025EE46F010EE15F0DE50E126DD50E222C2
:10048800E750FA6E25EE46F010EE16F0DE50E12643
:10049800DD50E222E750FB6E25EE46F010EE0AF042
:1004A800DE50E126DD50E222E750F46E25EE46F0FC
:1004B80010EE09F0DE50E126DD50E222E750F36E3F
:1004C80025EE46F010EE11F0DE50E126DD50E22276
:1004D800E750F56E25EE46F010EE13F0DE50E126FB
:1004E800DD50E222E750F76E25EE46F010EE12F0EE
:1004F800DE50E126DD50E222E750F66E25EE46F0AA
:1005080010EE14F0DE50E126DD50E222E750F86EDE
:1005180025EE46F010EE07F0DE50E126DD50E2222F
:10052800E750D86E25EE46F010EE06F0DE50E126D4
:10053800DD50E222E750126E1250FC6A25EE46F0BA
:1005480010EE35F0DE50E126DD50E222E750D8B457
:10055800B0EF02F0B2EF02F03AEF03F0050025EE3B
:1005680046F010EE35F0DE50E126DD50E222E706D7
:1005780025EE46F010EE35F0DE50E126DD50E222A1
:10058800E750126E1250030DF3CF13F0F4CF14F0AE
:1005980025EE46F0DECF15F0DDCF16F0135015240A
:1005A800176E14501620186E170E1724D96E000EE9
:1005B8001820DA6EDF50FD6E25EE46F010EE35F0AD
:1005C800DE50E126DD50E222E750126E1250030D94
:1005D800F3CF13F0F4CF14F025EE46F0DECF15F08C
:1005E800DDCF16F013501524176E14501620186E10
:1005F800180E1724D96E000E1820DA6EDF50FE6E22
:1006080025EE46F010EE35F0DE50E126DD50E22210
:10061800E750126E1250030DF3CF13F0F4CF14F01D
:1006280025EE46F0DECF15F0DDCF16F01350152479
:10063800176E14501620186E190E1724D96E000E56
:100648001820DA6EDF50FF6E25EE46F010EE35F01A
:10065800DE50E126DD50E222E750D8A436EF03F061
:1006680038EF03F0B2EF02F07DEF03F0050025EE5E
:1006780046F010EE02F0DE50E126DD50E222E750AF
:10068800FD6E25EE46F010EE02F0DE50E126DD505C
:10069800E222E6CF12F0E5CF13F012C014F013C037
:1006A80015F0166A15C014F016C015F0166A145025
:1006B800FE6E100E126E25EE46F010EE02F0DE50C1
:1006C800E126DD50E222E6CF13F0E5CF14F013C0A7
:1006D80015F014C016F0176A1228186E78EF03F098
:1006E800D890173216321532182E74EF03F01550C1
:1006F800FF6E050E236EF2A884EF03F086EF03F079
:100708008FEF03F0F2A28BEF03F08DEF03F08FEF82
:1007180003F01BEC17F01EC0F4FF1DC0F3FF1CC054
:10072800DAFF1BC0D9FF1AC0E2FF19C0E1FF01922E
:060738001100BBEF15F0FB
:101000000000F29E01014C51D96EDA6ADF50D8A47B
:101010000CEF08F00EEF08F01FEF08F04C51D96EFE
:10102000DA6A010EDF6E25EE48F04C51E16EE26A9D
:10103000010EE126DFCFE7FFF28E4EEF0BF04C51B1
:10104000D96EDA6A060ED926040EDF602AEF08F0A0
:101050002CEF08F04DEF0BF025EE48F04C51E16E0F
:10106000E26A070EE126E7504D6F4C514D25E16EC7
:10107000E26A020EE126DFCFE7FF4C51D96EDA6A51
:10108000070ED9264C51E16EE26A070EE126E750C1
:101090004D6F4D29030BDF6E4C51D96EDA6A060E87
:1010A000D926DF2A25EE46F010EE01F0DE50E126CB
:1010B000DD50E222020EE618D8A461EF08F063EFDB
:1010C00008F0A1EF09F025EE46F010EE01F0DE5039
:1010D000E126DD50E222040EE76E25EE46F010EE2A
:1010E00008F0DE50E126DD50E222E0CFE7FF25EEFA
:1010F00046F010EE0CF0DE50E126DD50E222EACFA1
:10110000E7FF25EE46F010EE0BF0DE50E126DD5055
:10111000E222E9CFE7FF25EE46F010EE0EF0DE50BA
:10112000E126DD50E222E2CFE7FF25EE46F010EEA9
:101130000DF0DE50E126DD50E222E1CFE7FF25EEA3
:1011400046F010EE10F0DE50E126DD50E222DACF5C
:10115000E7FF25EE46F010EE0FF0DE50E126DD5001
:10116000E222D9CFE7FF25EE46F010EE15F0DE5073
:10117000E126DD50E222FACFE7FF25EE46F010EE41
:1011800016F0DE50E126DD50E222FBCFE7FF25EE30
:1011900046F010EE0AF0DE50E126DD50E222F4CFF8
:1011A000E7FF25EE46F010EE09F0DE50E126DD50B7
:1011B000E222F3CFE7FF25EE46F010EE11F0DE500D
:1011C000E126DD50E222F5CFE7FF25EE46F010EEF6
:1011D00013F0DE50E126DD50E222F7CFE7FF25EEE7
:1011E00046F010EE12F0DE50E126DD50E222F6CF9E
:1011F000E7FF25EE46F010EE14F0DE50E126DD505C
:10120000E222F8CFE7FF25EE46F010EE06F0DE50C2
:10121000E126DD50E222E8CFE7FF25EE46F010EEB2
:1012200007F0DE50E126DD50E222D8CFE7FF25EEC1
:1012300046F010EE35F0DE50E126DD50E222E76A9E
:1012400099EF09F025EE46F010EE35F0DE50E1267C
:10125000DD50E222E75001014D6F4D51030DF3CFF8
:101260004EF1F4CF4FF125EE46F0DECF50F1DDCF59
:1012700051F14E515025526F4F515121536F170E5E
:101280005225D96E000E5321DA6EFDCFDFFF25EE19
:1012900046F010EE35F0DE50E126DD50E222E75058
:1012A0004D6F4D51030DF3CF4EF1F4CF4FF125EEBD
:1012B00046F0DECF50F1DDCF51F14E515025526F47
:1012C0004F515121536F180E5225D96E000E5321E4
:1012D000DA6EFECFDFFF25EE46F010EE35F0DE5081
:1012E000E126DD50E222E7504D6F4D51030DF3CF63
:1012F0004EF1F4CF4FF125EE46F0DECF50F1DDCFC9
:1013000051F14E515025526F4F515121536F190ECB
:101310005225D96E000E5321DA6EFFCFDFFF25EE86
:1013200046F010EE35F0DE50E126DD50E222E72AED
:101330000600FC50D8A49FEF09F0A1EF09F022EFBE
:1013400009F07BEC16F025EE46F010EE01F0DE50D1
:10135000E126DD50E222E750D8A4B1EF09F0B3EF67
:1013600009F04AEF0BF025EE46F010EE01F0DE50EA
:10137000E126DD50E222020EE76E25EE46F010EE89
:1013800008F0DE50E126DD50E222E750E06E25EE67
:1013900046F010EE0CF0DE50E126DD50E222E75080
:1013A000EA6E25EE46F010EE0BF0DE50E126DD5041
:1013B000E222E750E96E25EE46F010EE0EF0DE5028
:1013C000E126DD50E222E750E26E25EE46F010EE17
:1013D0000DF0DE50E126DD50E222E750E16E25EE11
:1013E00046F010EE10F0DE50E126DD50E222E7502C
:1013F000DA6E25EE46F010EE0FF0DE50E126DD50FD
:10140000E222E750D96E25EE46F010EE15F0DE50E0
:10141000E126DD50E222E750FA6E25EE46F010EEAE
:1014200016F0DE50E126DD50E222E750FB6E25EE9D
:1014300046F010EE0AF0DE50E126DD50E222E750E1
:10144000F46E25EE46F010EE09F0DE50E126DD5098
:10145000E222E750F36E25EE46F010EE11F0DE507A
:10146000E126DD50E222E750F56E25EE46F010EE63
:1014700013F0DE50E126DD50E222E750F76E25EE54
:1014800046F010EE12F0DE50E126DD50E222E75089
:10149000F66E25EE46F010EE14F0DE50E126DD503B
:1014A000E222E750F86E25EE46F010EE07F0DE502F
:1014B000E126DD50E222E750D86E25EE46F010EE30
:1014C00006F0DE50E126DD50E222E75001014D6FCB
:1014D0004D51FC6A25EE46F010EE35F0DE50E12667
:1014E000DD50E222E750D8B478EF0AF07AEF0AF044
:1014F00003EF0BF0050025EE46F010EE35F0DE5060
:10150000E126DD50E222E70625EE46F010EE35F04A
:10151000DE50E126DD50E222E75001014D6F4D51D2
:10152000030DF3CF4EF1F4CF4FF125EE46F0DECFB1
:1015300050F1DDCF51F14E515025526F4F51512195
:10154000536F170E5225D96E000E5321DA6EDF50FD
:10155000FD6E25EE46F010EE35F0DE50E126DD5052
:10156000E222E7504D6F4D51030DF3CF4EF1F4CF12
:101570004FF125EE46F0DECF50F1DDCF51F14E5167
:101580005025526F4F515121536F180E5225D96E6D
:10159000000E5321DA6EDF50FE6E25EE46F010EE9F
:1015A00035F0DE50E126DD50E222E7504D6F4D511F
:1015B000030DF3CF4EF1F4CF4FF125EE46F0DECF21
:1015C00050F1DDCF51F14E515025526F4F51512105
:1015D000536F190E5225D96E000E5321DA6EDF506B
:1015E000FF6E25EE46F010EE35F0DE50E126DD50C0
:1015F000E222E750D8A4FFEF0AF001EF0BF07AEFF8
:101600000AF048EF0BF0050025EE46F010EE02F070
:10161000DE50E126DD50E222E750FD6E25EE46F079
:1016200010EE02F0DE50E126DD50E222E6CF4DF171
:10163000E5CF4EF14DC14FF14EC150F10101516B5B
:1016400050C14FF151C150F1516B4F51FE6E100E10
:101650004D6F25EE46F010EE02F0DE50E126DD5033
:10166000E222E6CF4EF1E5CF4FF14EC150F14FC12E
:1016700051F1526B4D29536F42EF0BF0D89052331A
:1016800051335033532F3EEF0BF001015051FF6E99
:10169000050E236EF28E4EEF0BF0F28E1200F29ECC
:1016A00001016B51D96EDA6ADE06000EDD5A6B510C
:1016B000D96EDA6A010EDBBE62EF0BF060EF0BF061
:1016C0007AEF0EF025EE48F06B51E16EE26A060EFD
:1016D000E126E7506C6F6B516C25E16EE26A020EF9
:1016E000E126DFCFE7FF6B51D96EDA6A060ED92605
:1016F0006B51E16EE26A060EE126E7506C6F6C29D1
:10170000030BDF6E25EE46F010EE01F0DE50E12611
:10171000DD50E222020EE618D8A491EF0BF093EF11
:101720000BF0D1EF0CF025EE46F010EE01F0DE509C
:10173000E126DD50E222030EE76E25EE46F010EEC4
:1017400008F0DE50E126DD50E222E0CFE7FF25EE93
:1017500046F010EE0CF0DE50E126DD50E222EACF3A
:10176000E7FF25EE46F010EE0BF0DE50E126DD50EF
:10177000E222E9CFE7FF25EE46F010EE0EF0DE5054
:10178000E126DD50E222E2CFE7FF25EE46F010EE43
:101790000DF0DE50E126DD50E222E1CFE7FF25EE3D
:1017A00046F010EE10F0DE50E126DD50E222DACFF6
:1017B000E7FF25EE46F010EE0FF0DE50E126DD509B
:1017C000E222D9CFE7FF25EE46F010EE15F0DE500D
:1017D000E126DD50E222FACFE7FF25EE46F010EEDB
:1017E00016F0DE50E126DD50E222FBCFE7FF25EECA
:1017F00046F010EE0AF0DE50E126DD50E222F4CF92
:10180000E7FF25EE46F010EE09F0DE50E126DD5050
:10181000E222F3CFE7FF25EE46F010EE11F0DE50A6
:10182000E126DD50E222F5CFE7FF25EE46F010EE8F
:1018300013F0DE50E126DD50E222F7CFE7FF25EE80
:1018400046F010EE12F0DE50E126DD50E222F6CF37
:10185000E7FF25EE46F010EE14F0DE50E126DD50F5
:10186000E222F8CFE7FF25EE46F010EE06F0DE505C
:10187000E126DD50E222E8CFE7FF25EE46F010EE4C
:1018800007F0DE50E126DD50E222D8CFE7FF25EE5B
:1018900046F010EE35F0DE50E126DD50E222E76A38
:1018A000C9EF0CF025EE46F010EE35F0DE50E126E3
:1018B000DD50E222E75001016C6F6C51030DF3CF54
:1018C0006DF1F4CF6EF125EE46F0DECF6FF1DDCF96
:1018D00070F16D516F25716F6E517021726F170E1F
:1018E0007125D96E000E7221DA6EFDCFDFFF25EE75
:1018F00046F010EE35F0DE50E126DD50E222E750F2
:101900006C6F6C51030DF3CF6DF1F4CF6EF125EEDA
:1019100046F0DECF6FF1DDCF70F16D516F25716F45
:101920006E517021726F180E7125D96E000E7221E2
:10193000DA6EFECFDFFF25EE46F010EE35F0DE501A
:10194000E126DD50E222E7506C6F6C51030DF3CFBE
:101950006DF1F4CF6EF125EE46F0DECF6FF1DDCF05
:1019600070F16D516F25716F6E517021726F190E8C
:101970007125D96E000E7221DA6EFFCFDFFF25EEE2
:1019800046F010EE35F0DE50E126DD50E222E72A87
:101990000600FC50D8A4CFEF0CF0D1EF0CF052EFC2
:1019A0000CF07BEC16F025EE46F010EE01F0DE5068
:1019B000E126DD50E222E750D8A4E1EF0CF0E3EF9E
:1019C0000CF07AEF0EF025EE46F010EE01F0DE504E
:1019D000E126DD50E222020EE76E25EE46F010EE23
:1019E00008F0DE50E126DD50E222E750E06E25EE01
:1019F00046F010EE0CF0DE50E126DD50E222E7501A
:101A0000EA6E25EE46F010EE0BF0DE50E126DD50DA
:101A1000E222E750E96E25EE46F010EE0EF0DE50C1
:101A2000E126DD50E222E750E26E25EE46F010EEB0
:101A30000DF0DE50E126DD50E222E750E16E25EEAA
:101A400046F010EE10F0DE50E126DD50E222E750C5
:101A5000DA6E25EE46F010EE0FF0DE50E126DD5096
:101A6000E222E750D96E25EE46F010EE15F0DE507A
:101A7000E126DD50E222E750FA6E25EE46F010EE48
:101A800016F0DE50E126DD50E222E750FB6E25EE37
:101A900046F010EE0AF0DE50E126DD50E222E7507B
:101AA000F46E25EE46F010EE09F0DE50E126DD5032
:101AB000E222E750F36E25EE46F010EE11F0DE5014
:101AC000E126DD50E222E750F56E25EE46F010EEFD
:101AD00013F0DE50E126DD50E222E750F76E25EEEE
:101AE00046F010EE12F0DE50E126DD50E222E75023
:101AF000F66E25EE46F010EE14F0DE50E126DD50D5
:101B0000E222E750F86E25EE46F010EE07F0DE50C8
:101B1000E126DD50E222E750D86E25EE46F010EEC9
:101B200006F0DE50E126DD50E222E75001016C6F45
:101B30006C51FC6A25EE46F010EE35F0DE50E126E1
:101B4000DD50E222E750D8B4A8EF0DF0AAEF0DF077
:101B500033EF0EF0050025EE46F010EE35F0DE50C6
:101B6000E126DD50E222E70625EE46F010EE35F0E4
:101B7000DE50E126DD50E222E75001016C6F6C512E
:101B8000030DF3CF6DF1F4CF6EF125EE46F0DECF0D
:101B90006FF1DDCF70F16D516F25716F6E51702156
:101BA000726F170E7125D96E000E7221DA6EDF503A
:101BB000FD6E25EE46F010EE35F0DE50E126DD50EC
:101BC000E222E7506C6F6C51030DF3CF6DF1F4CF4F
:101BD0006EF125EE46F0DECF6FF1DDCF70F16D5185
:101BE0006F25716F6E517021726F180E7125D96E4D
:101BF000000E7221DA6EDF50FE6E25EE46F010EE1A
:101C000035F0DE50E126DD50E222E7506C6F6C517A
:101C1000030DF3CF6DF1F4CF6EF125EE46F0DECF7C
:101C20006FF1DDCF70F16D516F25716F6E517021C5
:101C3000726F190E7125D96E000E7221DA6EDF50A7
:101C4000FF6E25EE46F010EE35F0DE50E126DD5059
:101C5000E222E750D8A42FEF0EF031EF0EF0AAEFFA
:101C60000DF078EF0EF0050025EE46F010EE02F0D4
:101C7000DE50E126DD50E222E750FD6E25EE46F013
:101C800010EE02F0DE50E126DD50E222E6CF6CF1EC
:101C9000E5CF6DF16CC16EF16DC16FF10101706B3B
:101CA0006FC16EF170C16FF1706B6E51FE6E100EF0
:101CB0006C6F25EE46F010EE02F0DE50E126DD50AE
:101CC000E222E6CF6DF1E5CF6EF16DC16FF16EC12D
:101CD00070F1716B6C29726F72EF0EF0D8907133E6
:101CE00070336F33722F6EEF0EF001016F51FF6E84
:101CF000050E236EF28E120001EC17F066EC16F062
:101D000025EE46F010EE01F0DE50E126DD50E22235
:101D1000E750D8A48EEF0EF090EF0EF027EF10F002
:101D200025EE46F010EE01F0DE50E126DD50E22215
:101D3000020EE76E25EE46F010EE08F0DE50E126CA
:101D4000DD50E222E750E06E25EE46F010EE0CF09A
:101D5000DE50E126DD50E222E750EA6E25EE46F045
:101D600010EE0BF0DE50E126DD50E222E750E96E86
:101D700025EE46F010EE0EF0DE50E126DD50E222B8
:101D8000E750E26E25EE46F010EE0DF0DE50E12653
:101D9000DD50E222E750E16E25EE46F010EE10F045
:101DA000DE50E126DD50E222E750DA6E25EE46F005
:101DB00010EE0FF0DE50E126DD50E222E750D96E42
:101DC00025EE46F010EE15F0DE50E126DD50E22261
:101DD000E750FA6E25EE46F010EE16F0DE50E126E2
:101DE000DD50E222E750FB6E25EE46F010EE0AF0E1
:101DF000DE50E126DD50E222E750F46E25EE46F09B
:101E000010EE09F0DE50E126DD50E222E750F36EDD
:101E100025EE46F010EE11F0DE50E126DD50E22214
:101E2000E750F56E25EE46F010EE13F0DE50E12699
:101E3000DD50E222E750F76E25EE46F010EE12F08C
:101E4000DE50E126DD50E222E750F66E25EE46F048
:101E500010EE14F0DE50E126DD50E222E750F86E7D
:101E600025EE46F010EE07F0DE50E126DD50E222CE
:101E7000E750D86E25EE46F010EE06F0DE50E12673
:101E8000DD50E222E7500201006F0051FC6A25EEAE
:101E900046F010EE35F0DE50E126DD50E222E7504C
:101EA000D8B455EF0FF057EF0FF0E0EF0FF005004B
:101EB00025EE46F010EE35F0DE50E126DD50E22250
:101EC000E70625EE46F010EE35F0DE50E126DD5057
:101ED000E222E7500201006F0051030DF3CF01F23F
:101EE000F4CF02F225EE46F0DECF03F2DDCF04F2AE
:101EF00001510325056F02510421066F170E0525B8
:101F0000D96E000E0621DA6EDF50FD6E25EE46F02A
:101F100010EE35F0DE50E126DD50E222E750006F92
:101F20000051030DF3CF01F2F4CF02F225EE46F09B
:101F3000DECF03F2DDCF04F201510325056F02511C
:101F40000421066F180E0525D96E000E0621DA6EE3
:101F5000DF50FE6E25EE46F010EE35F0DE50E12645
:101F6000DD50E222E750006F0051030DF3CF01F284
:101F7000F4CF02F225EE46F0DECF03F2DDCF04F21D
:101F800001510325056F02510421066F190E052525
:101F9000D96E000E0621DA6EDF50FF6E25EE46F098
:101FA00010EE35F0DE50E126DD50E222E750D8A4F5
:101FB000DCEF0FF0DEEF0FF057EF0FF025EF10F032
:101FC000050025EE46F010EE02F0DE50E126DD5071
:101FD000E222E750FD6E25EE46F010EE02F0DE50F4
:101FE000E126DD50E222E6CF00F2E5CF01F200C2A9
:101FF00002F201C203F20201046B03C202F204C244
:1020000003F2046B0251FE6E100E006F25EE46F0D7
:1020100010EE02F0DE50E126DD50E222E6CF01F2C2
:10202000E5CF02F201C203F202C204F2056B0029FD
:10203000066F1FEF10F0D890053304330333062FDB
:102040001BEF10F002010351FF6E050E236EF28E9E
:1020500012000101816B826B6EEF10F08251360D20
:10206000380EF324D96E040EF420DA6EDF50D8A4B3
:102070003CEF10F03EEF10F06DEF10F08251360D96
:10208000390EF324D96E040EF420DA6E4A0EDE18EF
:1020900009E12D0EDE18D8B450EF10F052EF10F019
:1020A0006DEF10F08251360D3C0EF324D96E040E04
:1020B000F420DA6EDE50815DD8B061EF10F063EF8E
:1020C00010F06DEF10F08251360D3C0EF324D96EF6
:1020D000040EF420DA6EDF50816F822B25EE45F07E
:1020E000DE50825DD8A077EF10F079EF10F02EEF80
:1020F00010F048C583F1806B010E8325786F796BF2
:10210000000E792345C57EF17E517A6F7B6B5CECC6
:1021100013F001017851836F802B25EE45F0DE50DE
:10212000805DD8A096EF10F098EF10F0E2EF10F07D
:10213000846BD4EF10F08451360D380EF324D96E31
:10214000040EF420DA6EDF50D8A4A9EF10F0ABEF44
:1021500010F0D3EF10F08451360D3C0EF324D96EFD
:10216000040EF420DA6E8151DE18D8A4BAEF10F014
:10217000BCEF10F0D3EF10F08451360D390EF3247C
:10218000D96E040EF420DA6E4A0EDE1809E12D0E27
:10219000DE18D8B4CEEF10F0D0EF10F0D3EF10F07F
:1021A000845118EF11F0842B25EE45F0DE50845D4C
:1021B000D8A0DDEF10F0DFEF10F09BEF10F0000E75
:1021C00018EF11F08351360D380EF324D96E040E3A
:1021D000F420DA6EDF50D8A4F0EF10F0F2EF10F038
:1021E0007CEF10F08351360D3C0EF324D96E040EB3
:1021F000F420DA6E8151DE18D8A401EF11F003EF5C
:1022000011F07CEF10F08351360D390EF324D96EA6
:10221000040EF420DA6E4A0EDE1809E12D0EDE18E7
:10222000D8B415EF11F017EF11F07CEF10F08351D7
:1022300012000101646B656B5EEF11F06551360DA4
:10224000380EF324D96E040EF420DA6EDF50D8A4D1
:102250002CEF11F02EEF11F05DEF11F06551360DFE
:10226000390EF324D96E040EF420DA6E4A0EDE180D
:1022700009E12D0EDE18D8B440EF11F042EF11F055
:102280005DEF11F06551360D3C0EF324D96E040E4E
:10229000F420DA6EDE50645DD8B051EF11F053EFE8
:1022A00011F05DEF11F06551360D3C0EF324D96E3F
:1022B000040EF420DA6EDF50646F652B25EE45F0D6
:1022C000DE50655DD8A067EF11F069EF11F01EEFE9
:1022D00011F048C566F1636B010E66255B6F5C6BA0
:1022E000000E5C2345C561F161515D6F5E6BB4EC1E
:1022F00013F001015B51666F632B25EE45F0DE5054
:10230000635DD8A086EF11F088EF11F0D2EF11F0E5
:10231000676BC4EF11F06751360D380EF324D96E98
:10232000040EF420DA6EDF50D8A499EF11F09BEF81
:1023300011F0C3EF11F06751360D3C0EF324D96E46
:10234000040EF420DA6E6451DE18D8A4AAEF11F05E
:10235000ACEF11F0C3EF11F06751360D390EF324D5
:10236000D96E040EF420DA6E4A0EDE1809E12D0E45
:10237000DE18D8B4BEEF11F0C0EF11F0C3EF11F0CA
:10238000675108EF12F0672B25EE45F0DE50675DD0
:10239000D8A0CDEF11F0CFEF11F08BEF11F0000EC0
:1023A00008EF12F06651360D380EF324D96E040E84
:1023B000F420DA6EDF50D8A4E0EF11F0E2EF11F074
:1023C0006CEF11F06651360D3C0EF324D96E040EFD
:1023D000F420DA6E6451DE18D8A4F1EF11F0F3EFB7
:1023E00011F06CEF11F06651360D390EF324D96EF1
:1023F000040EF420DA6E4A0EDE1809E12D0EDE1806
:10240000D8B405EF12F007EF12F06CEF11F066513F
:1024100012000B6A0C6A4DEF12F00C50360D380E9C
:10242000F324D96E040EF420DA6EDF50D8A41BEF2B
:1024300012F01DEF12F04CEF12F00C50360D390E69
:10244000F324D96E040EF420DA6E4A0EDE1809E188
:102450002D0EDE18D8B42FEF12F031EF12F04CEF42
:1024600012F00C50360D3C0EF324D96E040EF420FD
:10247000DA6EDE500B5CD8B040EF12F042EF12F093
:102480004CEF12F00C50360D3C0EF324D96E040EB6
:10249000F420DA6EDF500B6E0C2A25EE45F0DE508C
:1024A0000C5CD8A056EF12F058EF12F00DEF12F0BE
:1024B00048C50DF00A6A010E0D24026E036A000E73
:1024C000032245C508F00850046E056A0CEC14F0B0
:1024D00002500D6E0A2A25EE45F0DE500A5CD8A0A7
:1024E00074EF12F076EF12F0C0EF12F00E6AB2EF56
:1024F00012F00E50360D380EF324D96E040EF4206F
:10250000DA6EDF50D8A487EF12F089EF12F0B1EF46
:1025100012F00E50360D3C0EF324D96E040EF4204A
:10252000DA6E0B50DE18D8A498EF12F09AEF12F082
:10253000B1EF12F00E50360D390EF324D96E040EA1
:10254000F420DA6E4A0EDE1809E12D0EDE18D8B43A
:10255000ACEF12F0AEEF12F0B1EF12F00E50F6EF5A
:1025600012F00E2A25EE45F0DE500E5CD8A0BBEF2F
:1025700012F0BDEF12F079EF12F0000EF6EF12F04C
:102580000D50360D380EF324D96E040EF420DA6E99
:10259000DF50D8A4CEEF12F0D0EF12F05BEF12F0C4
:1025A0000D50360D3C0EF324D96E040EF420DA6E75
:1025B0000B50DE18D8A4DFEF12F0E1EF12F05BEF62
:1025C00012F00D50360D390EF324D96E040EF4209E
:1025D000DA6E4A0EDE1809E12D0EDE18D8B4F3EFDC
:1025E00012F0F5EF12F05BEF12F00D501200F29EB8
:1025F00025EE48F000018351E16EE26A010EE1260A
:10260000DE50E618D8B407EF13F009EF13F00CEF23
:1026100013F0F28E5BEF13F08351D96EDA6A060E77
:10262000D926DF50D8B417EF13F019EF13F04FEF9E
:1026300013F08351D96EDA6A080ED926DF50846F01
:1026400083518425D96EDA6A020ED926DF50866F4F
:102650008351D96EDA6A080ED9268351E16EE26A97
:10266000080EE126E750846F8429030BDF6E835147
:10267000D96EDA6A060ED926DF068651360D380E77
:10268000F324D96E040EF420DA6EDF6A8351D96E1A
:10269000DA6A010ED92686C0DFFF5AEF13F08351A4
:1026A000D96EDA6ADF6A8351D96EDA6A010ED926E9
:1026B000FF0EDF6EF28E120001017D6B79BF65EFB8
:1026C00013F063EF13F06BEF13F0786D791FD8B050
:1026D000792B010E7D6F7BBF72EF13F070EF13F05B
:1026E00076EF13F07A6D7B1FD8B07B2B7A517B117C
:1026F000D8B47DEF13F07FEF13F0A3EF13F0010ECA
:102700007C6F87EF13F0D8907A377B377C2B7BAFC9
:102710008CEF13F08EEF13F083EF13F07A51785DA6
:102720007B517959D8A097EF13F099EF13F09DEFF3
:1027300013F07A51785F7B51795BD8907B337A3391
:102740007C2F8EEF13F07D51D8B4A9EF13F0ABEFCF
:1027500013F0AFEF13F0786D791FD8B0792B78C1F3
:1027600078F179C179F112000101606B5CBFBDEFB6
:1027700013F0BBEF13F0C3EF13F05B6D5C1FD8B029
:102780005C2B010E606F5EBFCAEF13F0C8EF13F051
:10279000CEEF13F05D6D5E1FD8B05E2B5D515E1104
:1027A000D8B4D5EF13F0D7EF13F0FBEF13F0010E11
:1027B0005F6FDFEF13F0D8905D375E375F2B5EAF52
:1027C000E4EF13F0E6EF13F0DBEF13F05D515B5D28
:1027D0005E515C59D8A0EFEF13F0F1EF13F0F5EF75
:1027E00013F05D515B5F5E515C5BD8905E335D338F
:1027F0005F2FE6EF13F06051D8B401EF14F003EF50
:1028000014F007EF14F05B6D5C1FD8B05C2B5BC15C
:102810005BF15CC15CF11200076A03BE14EF14F0B7
:1028200012EF14F01AEF14F0026C031ED8B0032A52
:10283000010E076E05BE21EF14F01FEF14F025EF17
:1028400014F0046C051ED8B0052A04500510D8B445
:102850002CEF14F02EEF14F052EF14F0010E066E70
:1028600036EF14F0D89004360536062A05AE3BEF55
:1028700014F03DEF14F032EF14F00450025C0550F8
:102880000358D8A046EF14F048EF14F04CEF14F0C2
:102890000450025E0550035AD89005320432062EC9
:1028A0003DEF14F00750D8B458EF14F05AEF14F07D
:1028B0005EEF14F0026C031ED8B0032A02C002F0CF
:1028C00003C003F01200F29E01015B51D96EDA6A77
:1028D000DE2A000EDD225B51D96EDA6A010EDBBE04
:1028E0007DEF14F0010EDB5006E1DE04D8B07BEF83
:1028F00014F07DEF14F0A4EF14F05B51D96EDA6A96
:10290000070ED926DF505C6F5B515C25D96EDA6A01
:10291000020ED926DF505D6F5D51360D380EF3245F
:10292000D96E040EF420DA6EDF6A5B51D96EDA6A72
:10293000070ED9265B51E16EE26A070EE126E750E9
:102940005C6F5C29030BDF6EF28E12000201006FD8
:1029500000C201F20201056B7AC106F278C103F2EE
:1029600079C104F2026B096B0D6B0C6B0F6B0E6B74
:10297000116B106B166B176B0B6B0A6B086B126B82
:10298000146B136B156B076B366B22EE01F045C5AC
:102990007BF101017B51360D370EF324E16E040EFD
:1029A000F420E26E350EDBCFE3FFE806FCE245C51E
:1029B000E8FF010FE8CF45F51200040E01015C5D50
:1029C000D8A0E5EF14F0E7EF14F0EAEF14F0030EEF
:1029D0005C6F5B695B515C11D8A4F1EF14F0F3EF0D
:1029E00014F0F8EF14F0BD6A94948B9410EF15F086
:1029F0000C0EBD6E5BC15DF15CC15EF1D8905E33C3
:102A00005D33D8905E335D335D51BE6E5BC15DF169
:102A1000030E5D175D3BBD505D19CF0B5D19BD6E9B
:102A2000120035EC16F0220E0101786F2E0E796F30
:102A3000010E7A6F020EA6EC14F02A0E0101786FD7
:102A40002E0E796F010E7A6F030EA6EC14F02E0E87
:102A50000101786F2B0E796F020E7A6F040EA6ECCF
:102A600014F0200E0101786F2D0E796F020E7A6F2F
:102A7000050EA6EC14F07CEC0EF03DEF15F09DEF8A
:102A800003F0010173510E0F6B6F4FEC0BF001015E
:102A90007351D96EDA6A050ED926DF50766F7351FD
:102AA0007625D96EDA6A74C1E1FF75C1E2FFDFCF26
:102AB000E7FF7351D96EDA6A050ED9267351E16EBC
:102AC000E26A050EE126E750766F7629030BDF6E8A
:102AD0007351060F5B6F63EC14F012000101545147
:102AE000060F6B6F4FEC0BF001015451D96EDA6A8F
:102AF000040ED926DF50566F54515625D96EDA6A26
:102B000055C1DFFF5451D96EDA6A040ED9265451EB
:102B1000E16EE26A040EE126E750566F5629030B78
:102B2000DF6E54510E0F5B6F63EC14F01200760EE3
:102B300001014C6F01EC08F0E0EC16F083C059F194
:102B400084C05AF1760E0001836FF7EC12F0600E2C
:102B50000101546F59C157F15AC158F1D8905833F7
:102B60005733D890583357335751556F6EEC15F093
:102B700097EF15F012003A0EF66E2E0EF76E000E5D
:102B8000F86E0900F5CF23F002EE37F013EE12F0E5
:102B9000EE6AE550E150FCE1E250FAE100EE60F04F
:102BA0001F0EEE6AE806FDE1226A216A0190019299
:102BB000000EF86E000111EF15F001017851D96E89
:102BC000DA6ADF6A7851D96EDA6A010ED926FF0E09
:102BD000DF6E7851D96EDA6A060ED926DF6A78512F
:102BE000D96EDA6A070ED926DF6A7851D96EDA6AA9
:102BF000080ED926DF6A120001017C51D96EDA6A0B
:102C0000040ED926DF6A7C51D96EDA6A050ED92600
:102C1000DF6A7C51060F786F040E796F4EEC16F068
:102C200001017C510E0F786F000E796F4EEC16F09B
:102C3000120094928B9294948B9494968B96949881
:102C40008B98CDEC16F019EC17F0630EF1EC16F042
:102C50000DEC17F0760E0101786FDDEC15F0600ECB
:102C600001017C6FFCEC15F01200000EE8CF45F579
:102C7000370EE8CF46F5040EE8CF47F5000EE8CF53
:102C800048F54A0E0101786F2D0E796F000E7A6FAC
:102C9000010EA6EC14F019EC16F0120001017951A6
:102CA0007A6F7B6B7851D96EDA6A7AC1DEFF7BC1AD
:102CB000DDFF7851D96EDA6A060ED926DF6A7851BF
:102CC000D96EDA6A070ED926DF6A120029EC10F0F5
:102CD0000101856F85C148F548C585F18551360DDF
:102CE000370EF324866F040EF420876F86C146F5F5
:102CF00087C147F5120019EC11F00101686F68C136
:102D000048F548C568F16851360D370EF324696FF0
:102D1000040EF4206A6F69C146F56AC147F51200D6
:102D2000600E0101736F770E746F010E756F41ECC9
:102D300015F001017751040DF3CF5BF1F4CF5CF195
:102D4000DDEC14F090EF16F01200949082B0ABEF2F
:102D500016F0AEEF16F0010EAFEF16F0000EFF0A00
:102D6000026E82500218FE0B0218826EA6EF16F059
:102D7000120009EC12F00F6E0FC048F548C50FF0B5
:102D80000F50360D370EF324106E040EF420116E22
:102D900010C046F511C047F51200830EC216F30E9F
:102DA000C116FC0EC116C08EC050C70B3009C06ED4
:102DB000C050F80B0409C06E92800F0138811200D8
:102DC000C282C2B2E6EF16F0E8EF16F0E1EF16F0BD
:102DD000C3CF85F0C4CF86F085C083F086C084F071
:102DE00012000101786F8B949494BA9478C1BBFF60
:102DF000BD6ABE6ACF0EBD16BA50FC0B0109BA6E91
:102E00001200F28AF294D58CD59AD596070ED51277
:102E1000D58ED76A000ED66E1200BC6ABA8494941E
:102E200012008B7211EF17F012008B7415EF17F070
:0B2E30001200C2801200F29212000596
:00000001FF
