:0400000014EF03F006
:100008000182FACF2AF0FBCF2BF0D9CF2CF0DACF30
:100018002DF0F3CF2EF0F4CF2FF0F2A816EF00F06A
:1000280018EF00F021EF00F0F2A21DEF00F01FEF33
:1000380000F021EF00F069EC1AF0F2A426EF00F0CE
:1000480028EF00F006EF03F0F294316A000E306EEC
:100058007EEF00F0270E3002F3CF23F0F4CF24F028
:100068003102F3502426040E2324D96E020E2420D4
:10007800DA6EDF50D8B443EF00F045EF00F07CEFC4
:1000880000F0270E3002F3CF23F0F4CF24F0310232
:10009800F3502426040E2324D96E020E2420DA6E8F
:1000A800DF06270E3002F3CF23F0F4CF24F031021D
:1000B800F3502426040E2324D96E020E2420DA6E6F
:1000C800DF50D8A46AEF00F06CEF00F07CEF00F08E
:1000D800270E3002F3CF23F0F4CF24F03102F3508F
:1000E8002426010E2324D96E020E2420DA6EDF6A3C
:1000F800304A312A0201C351236E246A2350305CEE
:100108003150800A256E2450800A2558D8A08FEFD8
:1001180000F091EF00F02EEF00F032063250D8A434
:1001280098EF00F09AEF00F006EF03F0050E326E3C
:1001380020EE01F0C451D926C551DA22020EDE188C
:10014800D8A4A9EF00F0ABEF00F0A8EF01F020EE83
:1001580001F0C451D926C551DA22DF6A20EE08F031
:10016800C451D926C551DA22E0CFDFFF20EE0CF0CA
:10017800C451D926C551DA22EACFDFFF20EE0BF0B1
:10018800C451D926C551DA22E9CFDFFF20EE0EF09F
:10019800C451D926C551DA22E2CFDFFF20EE0DF097
:1001A800C451D926C551DA22E1CFDFFF20EE10F085
:1001B800C451D926C551DA22DACFDFFF20EE0FF07D
:1001C800C451D926C551DA22D9CFDFFF20EE15F068
:1001D800C451D926C551DA22FACFDFFF20EE16F036
:1001E800C451D926C551DA22FBCFDFFF20EE0AF031
:1001F800C451D926C551DA22F4CFDFFF20EE09F029
:10020800C451D926C551DA22F3CFDFFF20EE11F011
:10021800C451D926C551DA22F5CFDFFF20EE13F0FD
:10022800C451D926C551DA22F7CFDFFF20EE12F0EC
:10023800C451D926C551DA22F6CFDFFF20EE14F0DB
:10024800C451D926C551DA22F8CFDFFF20EE06F0D7
:10025800C451D926C551DA22E8CFDFFF20EE07F0D6
:10026800C451D926C551DA22D8CFDFFF20EE26F0B7
:10027800C451D926C551DA22DF6AA0EF01F0020184
:1002880020EE26F0C451D926C551DA22DF50236E5C
:100298002350030DF3CF24F0F4CF25F02450C425C8
:1002A800266E2550C521276E170E2624D96E000EFE
:1002B8002720DA6EFDCFDFFF20EE26F0C451D926C5
:1002C800C551DA22DF50236E2350030DF3CF24F0FB
:1002D800F4CF25F02450C425266E2550C521276E5D
:1002E800180E2624D96E000E2720DA6EFECFDFFF07
:1002F80020EE26F0C451D926C551DA22DF50236EEC
:100308002350030DF3CF24F0F4CF25F02450C42557
:10031800266E2550C521276E190E2624D96E000E8B
:100328002720DA6EFFCFDFFF20EE26F0C451D92652
:10033800C551DA22DF2A0600FC50D8A4A6EF01F046
:10034800A8EF01F043EF01F00EEC1BF0020120EEE4
:1003580001F0C451D926C551DA22DF50D8A4B7EF2D
:1003680001F0B9EF01F006EF03F020EE01F0C451FF
:10037800D926C551DA22020EDF6E20EE08F0C451EC
:10038800D926C551DA22DF50E06E20EE0CF0C451B8
:10039800D926C551DA22DF50EA6E20EE0BF0C4519F
:1003A800D926C551DA22DF50E96E20EE0EF0C4518D
:1003B800D926C551DA22DF50E26E20EE0DF0C45185
:1003C800D926C551DA22DF50E16E20EE10F0C45173
:1003D800D926C551DA22DF50DA6E20EE0FF0C4516B
:1003E800D926C551DA22DF50D96E20EE15F0C45156
:1003F800D926C551DA22DF50FA6E20EE16F0C45124
:10040800D926C551DA22DF50FB6E20EE0AF0C4511E
:10041800D926C551DA22DF50F46E20EE09F0C45116
:10042800D926C551DA22DF50F36E20EE11F0C451FF
:10043800D926C551DA22DF50F56E20EE13F0C451EB
:10044800D926C551DA22DF50F76E20EE12F0C451DA
:10045800D926C551DA22DF50F66E20EE14F0C451C9
:10046800D926C551DA22DF50F86E20EE07F0C451C4
:10047800D926C551DA22DF50D86E20EE06F0C451D5
:10048800D926C551DA22DF50236E2350FC6A20EEAC
:1004980026F0C451D926C551DA22DF50D8B457EF17
:1004A80002F059EF02F0C6EF02F00500020120EE5B
:1004B80026F0C451D926C551DA22DF0620EE26F0EF
:1004C800C451D926C551DA22DF50236E2350030DBB
:1004D800F3CF24F0F4CF25F02450C425266E255000
:1004E800C521276E170E2624D96E000E2720DA6E36
:1004F800DF50FD6E20EE26F0C451D926C551DA2210
:10050800DF50236E2350030DF3CF24F0F4CF25F0F2
:100518002450C425266E2550C521276E180E262482
:10052800D96E000E2720DA6EDF50FE6E20EE26F020
:10053800C451D926C551DA22DF50236E2350030D4A
:10054800F3CF24F0F4CF25F02450C425266E25508F
:10055800C521276E190E2624D96E000E2720DA6EC3
:10056800DF50FF6E20EE26F0C451D926C551DA229D
:10057800DF50D8A4C2EF02F0C4EF02F059EF02F046
:1005880004EF03F00500020120EE02F0C451D92661
:10059800C551DA22DF50FD6E20EE02F0C451D92693
:1005A800C551DA22DECF23F0DDCF24F023C025F0B9
:1005B80024C026F0276A26C025F027C026F0276A1F
:1005C8002550FE6E100E236E20EE02F0C451D9267F
:1005D800C551DA22DECF24F0DDCF25F024C026F085
:1005E80025C027F0286A2328296EFFEF02F0D8904B
:1005F800283227322632292EFBEF02F02650FF6ED2
:10060800050E326E2FC0F4FF2EC0F3FF2DC0DAFFA7
:100618002CC0D9FF2BC0FBFF2AC0FAFF01921100A2
:0406280073EF19F063
:101000000000F29E01011A51D96EDA6ADF50D8A4AD
:101010000CEF08F00EEF08F01DEF08F01A51D96E32
:10102000DA6A010EDF6E1A51D96EDA6A010ED9261C
:10103000C6C2DFFFF28EE8EF0AF01A51D96EDA6A03
:10104000060ED926040EDF6028EF08F02AEF08F01C
:10105000E7EF0AF01A51D96EDA6A070ED926DF5087
:101060001B6F1A511B25D96EDA6A020ED926C6C229
:10107000DFFF1A51D96EDA6A070ED9261A51E16ECE
:10108000E26A070EE126E7501B6F1B29030BDF6E98
:101090001A51D96EDA6A060ED926DF2A020120EE2D
:1010A00001F0C451D926C551DA22020EDE18D8A4A7
:1010B0005CEF08F05EEF08F06EEF09F020EE01F053
:1010C000C451D926C551DA22040EDF6E20EE08F095
:1010D000C451D926C551DA22E0CFDFFF20EE0CF053
:1010E000C451D926C551DA22EACFDFFF20EE0BF03A
:1010F000C451D926C551DA22E9CFDFFF20EE0EF028
:10110000C451D926C551DA22E2CFDFFF20EE0DF01F
:10111000C451D926C551DA22E1CFDFFF20EE10F00D
:10112000C451D926C551DA22DACFDFFF20EE0FF005
:10113000C451D926C551DA22D9CFDFFF20EE15F0F0
:10114000C451D926C551DA22FACFDFFF20EE16F0BE
:10115000C451D926C551DA22FBCFDFFF20EE0AF0B9
:10116000C451D926C551DA22F4CFDFFF20EE09F0B1
:10117000C451D926C551DA22F3CFDFFF20EE11F09A
:10118000C451D926C551DA22F5CFDFFF20EE13F086
:10119000C451D926C551DA22F7CFDFFF20EE12F075
:1011A000C451D926C551DA22F6CFDFFF20EE14F064
:1011B000C451D926C551DA22F8CFDFFF20EE06F060
:1011C000C451D926C551DA22E8CFDFFF20EE07F05F
:1011D000C451D926C551DA22D8CFDFFF20EE26F040
:1011E000C451D926C551DA22DF6A66EF09F002013F
:1011F00020EE26F0C451D926C551DA22DF50010174
:101200001B6F1B51030DF3CF1CF1F4CF1DF11C51CB
:101210000201C42501011E6F1D510201C5210101FA
:101220001F6F170E1E25D96E000E1F21DA6EFDCF1F
:10123000DFFF020120EE26F0C451D926C551DA2283
:10124000DF5001011B6F1B51030DF3CF1CF1F4CFD5
:101250001DF11C510201C42501011E6F1D51020127
:10126000C52101011F6F180E1E25D96E000E1F210A
:10127000DA6EFECFDFFF020120EE26F0C451D92640
:10128000C551DA22DF5001011B6F1B51030DF3CF53
:101290001CF1F4CF1DF11C510201C42501011E6F88
:1012A0001D510201C52101011F6F190E1E25D96EA6
:1012B000000E1F21DA6EFFCFDFFF020120EE26F0C5
:1012C000C451D926C551DA22DF2A0600FC50D8A421
:1012D0006CEF09F06EEF09F0F7EF08F001EC1BF08E
:1012E000020120EE01F0C451D926C551DA22DF50A7
:1012F000D8A47DEF09F07FEF09F0E4EF0AF020EECB
:1013000001F0C451D926C551DA22020EDF6E20EE5B
:1013100008F0C451D926C551DA22DF50E06E20EE24
:101320000CF0C451D926C551DA22DF50EA6E20EE06
:101330000BF0C451D926C551DA22DF50E96E20EEF8
:101340000EF0C451D926C551DA22DF50E26E20EEEC
:101350000DF0C451D926C551DA22DF50E16E20EEDE
:1013600010F0C451D926C551DA22DF50DA6E20EED2
:101370000FF0C451D926C551DA22DF50D96E20EEC4
:1013800015F0C451D926C551DA22DF50FA6E20EE8D
:1013900016F0C451D926C551DA22DF50FB6E20EE7B
:1013A0000AF0C451D926C551DA22DF50F46E20EE7E
:1013B00009F0C451D926C551DA22DF50F36E20EE70
:1013C00011F0C451D926C551DA22DF50F56E20EE56
:1013D00013F0C451D926C551DA22DF50F76E20EE42
:1013E00012F0C451D926C551DA22DF50F66E20EE34
:1013F00014F0C451D926C551DA22DF50F86E20EE20
:1014000007F0C451D926C551DA22DF50D86E20EE3C
:1014100006F0C451D926C551DA22DF5001011B6FF5
:101420001B51FC6A020120EE26F0C451D926C55199
:10143000DA22DF50D8B41FEF0AF021EF0AF0A0EF54
:101440000AF00500020120EE26F0C451D926C5514C
:10145000DA22DF0620EE26F0C451D926C551DA2261
:10146000DF5001011B6F1B51030DF3CF1CF1F4CFB3
:101470001DF11C510201C42501011E6F1D51020105
:10148000C52101011F6F170E1E25D96E000E1F21E9
:10149000DA6EDF50FD6E020120EE26F0C451D9262F
:1014A000C551DA22DF5001011B6F1B51030DF3CF31
:1014B0001CF1F4CF1DF11C510201C42501011E6F66
:1014C0001D510201C52101011F6F180E1E25D96E85
:1014D000000E1F21DA6EDF50FE6E020120EE26F0B4
:1014E000C451D926C551DA22DF5001011B6F1B51AF
:1014F000030DF3CF1CF1F4CF1DF11C510201C425E3
:1015000001011E6F1D510201C52101011F6F190E3E
:101510001E25D96E000E1F21DA6EDF50FF6E02010C
:1015200020EE26F0C451D926C551DA22DF50D8A4C6
:101530009CEF0AF09EEF0AF021EF0AF0E2EF0AF0CA
:101540000500020120EE02F0C451D926C551DA226D
:10155000DF50FD6E20EE02F0C451D926C551DA22CB
:10156000DECF1BF1DDCF1CF11BC11DF11CC11EF133
:1015700001011F6B1EC11DF11FC11EF11F6B1D510B
:10158000FE6E100E1B6F020120EE02F0C451D92630
:10159000C551DA22DECF1CF1DDCF1DF11CC11EF1D9
:1015A0001DC11FF10101206B1B29216FDCEF0AF027
:1015B000D89020331F331E33212FD8EF0AF00101BA
:1015C0001E51FF6E050E326EF28EE8EF0AF0F28EBB
:1015D0001200F29E77C3D9FF78C3DAFFDE06000E51
:1015E000DD5A77C3D9FF78C3DAFF010EDBBEFDEF0A
:1015F0000AF0FBEF0AF0BBEF0DF0030120EE06F05E
:101600007751D9267851DA22DF50796F79517725D1
:101610007A6F000E78217B6F020E7A25D96E000E4C
:101620007B21DA6EC6C2DFFF20EE06F07751D926A5
:101630007851DA2210EE06F07751E1267851E22255
:10164000E750796F7929030BDF6E020120EE01F07C
:10165000C451D926C551DA22020EDE18D8A433EFC0
:101660000BF035EF0BF045EF0CF020EE01F0C4511C
:10167000D926C551DA22030EDF6E20EE08F0C451E0
:10168000D926C551DA22E0CFDFFF20EE0CF0C4519D
:10169000D926C551DA22EACFDFFF20EE0BF0C45184
:1016A000D926C551DA22E9CFDFFF20EE0EF0C45172
:1016B000D926C551DA22E2CFDFFF20EE0DF0C4516A
:1016C000D926C551DA22E1CFDFFF20EE10F0C45158
:1016D000D926C551DA22DACFDFFF20EE0FF0C45150
:1016E000D926C551DA22D9CFDFFF20EE15F0C4513B
:1016F000D926C551DA22FACFDFFF20EE16F0C45109
:10170000D926C551DA22FBCFDFFF20EE0AF0C45103
:10171000D926C551DA22F4CFDFFF20EE09F0C451FB
:10172000D926C551DA22F3CFDFFF20EE11F0C451E4
:10173000D926C551DA22F5CFDFFF20EE13F0C451D0
:10174000D926C551DA22F7CFDFFF20EE12F0C451BF
:10175000D926C551DA22F6CFDFFF20EE14F0C451AE
:10176000D926C551DA22F8CFDFFF20EE06F0C451AA
:10177000D926C551DA22E8CFDFFF20EE07F0C451A9
:10178000D926C551DA22D8CFDFFF20EE26F0C4518A
:10179000D926C551DA22DF6A3DEF0CF0020120EEB6
:1017A00026F0C451D926C551DA22DF500301796FE2
:1017B0007951030DF3CF7AF3F4CF7BF37A51020121
:1017C000C42503017C6F7B510201C52103017D6F9C
:1017D000170E7C25D96E000E7D21DA6EFDCFDFFF5E
:1017E000020120EE26F0C451D926C551DA22DF507D
:1017F0000301796F7951030DF3CF7AF3F4CF7BF3C3
:101800007A510201C42503017C6F7B510201C5217D
:1018100003017D6F180E7C25D96E000E7D21DA6ED6
:10182000FECFDFFF020120EE26F0C451D926C551BC
:10183000DA22DF500301796F7951030DF3CF7AF388
:10184000F4CF7BF37A510201C42503017C6F7B51F5
:101850000201C52103017D6F190E7C25D96E000E92
:101860007D21DA6EFFCFDFFF020120EE26F0C451AA
:10187000D926C551DA22DF2A0600FC50D8A443EF4E
:101880000CF045EF0CF0CEEF0BF001EC1BF0020179
:1018900020EE01F0C451D926C551DA22DF50D8A478
:1018A00054EF0CF056EF0CF0BBEF0DF020EE01F012
:1018B000C451D926C551DA22020EDF6E20EE08F09F
:1018C000C451D926C551DA22DF50E06E20EE0CF06B
:1018D000C451D926C551DA22DF50EA6E20EE0BF052
:1018E000C451D926C551DA22DF50E96E20EE0EF040
:1018F000C451D926C551DA22DF50E26E20EE0DF038
:10190000C451D926C551DA22DF50E16E20EE10F025
:10191000C451D926C551DA22DF50DA6E20EE0FF01D
:10192000C451D926C551DA22DF50D96E20EE15F008
:10193000C451D926C551DA22DF50FA6E20EE16F0D6
:10194000C451D926C551DA22DF50FB6E20EE0AF0D1
:10195000C451D926C551DA22DF50F46E20EE09F0C9
:10196000C451D926C551DA22DF50F36E20EE11F0B2
:10197000C451D926C551DA22DF50F56E20EE13F09E
:10198000C451D926C551DA22DF50F76E20EE12F08D
:10199000C451D926C551DA22DF50F66E20EE14F07C
:1019A000C451D926C551DA22DF50F86E20EE07F077
:1019B000C451D926C551DA22DF50D86E20EE06F088
:1019C000C451D926C551DA22DF500301796F79510C
:1019D000FC6A020120EE26F0C451D926C551DA2254
:1019E000DF50D8B4F6EF0CF0F8EF0CF077EF0DF015
:1019F0000500020120EE26F0C451D926C551DA2295
:101A0000DF0620EE26F0C451D926C551DA22DF5078
:101A10000301796F7951030DF3CF7AF3F4CF7BF3A0
:101A20007A510201C42503017C6F7B510201C5215B
:101A300003017D6F170E7C25D96E000E7D21DA6EB5
:101A4000DF50FD6E020120EE26F0C451D926C551AB
:101A5000DA22DF500301796F7951030DF3CF7AF366
:101A6000F4CF7BF37A510201C42503017C6F7B51D3
:101A70000201C52103017D6F180E7C25D96E000E71
:101A80007D21DA6EDF50FE6E020120EE26F0C45199
:101A9000D926C551DA22DF500301796F7951030D40
:101AA000F3CF7AF3F4CF7BF37A510201C42503011B
:101AB0007C6F7B510201C52103017D6F190E7C25CE
:101AC000D96E000E7D21DA6EDF50FF6E020120EE2E
:101AD00026F0C451D926C551DA22DF50D8A473EFBD
:101AE0000DF075EF0DF0F8EF0CF0B9EF0DF005000B
:101AF000020120EE02F0C451D926C551DA22DF508E
:101B0000FD6E20EE02F0C451D926C551DA22DECF97
:101B100079F3DDCF7AF379C37BF37AC37CF30301E6
:101B20007D6B7CC37BF37DC37CF37D6B7B51FE6E51
:101B3000100E796F020120EE02F0C451D926C55172
:101B4000DA22DECF7AF3DDCF7BF37AC37CF37BC37B
:101B50007DF303017E6B79297F6FB3EF0DF0D89091
:101B60007E337D337C337F2FAFEF0DF003017C514B
:101B7000FF6E050E326EF28E12000001776FF29E3C
:101B800000016E516F11D8A4C8EF0DF0CAEF0DF02F
:101B900062EF10F0020120EE01F0C451D926C551C8
:101BA000DA22020EDE18D8A4D8EF0DF0DAEF0DF02D
:101BB000EAEF0EF020EE01F0C451D926C551DA2229
:101BC00077C0DFFF20EE08F0C451D926C551DA22D4
:101BD000E0CFDFFF20EE0CF0C451D926C551DA2248
:101BE000EACFDFFF20EE0BF0C451D926C551DA222F
:101BF000E9CFDFFF20EE0EF0C451D926C551DA221D
:101C0000E2CFDFFF20EE0DF0C451D926C551DA2214
:101C1000E1CFDFFF20EE10F0C451D926C551DA2202
:101C2000DACFDFFF20EE0FF0C451D926C551DA22FA
:101C3000D9CFDFFF20EE15F0C451D926C551DA22E5
:101C4000FACFDFFF20EE16F0C451D926C551DA22B3
:101C5000FBCFDFFF20EE0AF0C451D926C551DA22AE
:101C6000F4CFDFFF20EE09F0C451D926C551DA22A6
:101C7000F3CFDFFF20EE11F0C451D926C551DA228F
:101C8000F5CFDFFF20EE13F0C451D926C551DA227B
:101C9000F7CFDFFF20EE12F0C451D926C551DA226A
:101CA000F6CFDFFF20EE14F0C451D926C551DA2259
:101CB000F8CFDFFF20EE06F0C451D926C551DA2255
:101CC000E8CFDFFF20EE07F0C451D926C551DA2254
:101CD000D8CFDFFF20EE26F0C451D926C551DA2235
:101CE000DF6AE2EF0EF0020120EE26F0C451D926A1
:101CF000C551DA22DF500001706F7051030DF3CF30
:101D000071F0F4CF72F071510201C4250001736FBC
:101D100072510201C5210001746F170E7325D96E2F
:101D2000000E7421DA6EFDCFDFFF020120EE26F0F7
:101D3000C451D926C551DA22DF500001706F7051AD
:101D4000030DF3CF71F0F4CF72F071510201C4258D
:101D50000001736F72510201C5210001746F180EEA
:101D60007325D96E000E7421DA6EFECFDFFF0201FB
:101D700020EE26F0C451D926C551DA22DF500001E9
:101D8000706F7051030DF3CF71F0F4CF72F0715199
:101D90000201C4250001736F72510201C5210001C7
:101DA000746F190E7325D96E000E7421DA6EFFCF91
:101DB000DFFF020120EE26F0C451D926C551DA22F8
:101DC000DF2A0600FC50D8A4E8EF0EF0EAEF0EF090
:101DD00073EF0EF001EC1BF0020120EE01F0C45194
:101DE000D926C551DA22DF50D8A4F9EF0EF0FBEF67
:101DF0000EF06AEF10F020EE01F0C451D926C55163
:101E0000DA22020EDF6E20EE08F0C451D926C55149
:101E1000DA22DF50E06E20EE0CF0C451D926C55115
:101E2000DA22DF50EA6E20EE0BF0C451D926C551FC
:101E3000DA22DF50E96E20EE0EF0C451D926C551EA
:101E4000DA22DF50E26E20EE0DF0C451D926C551E2
:101E5000DA22DF50E16E20EE10F0C451D926C551D0
:101E6000DA22DF50DA6E20EE0FF0C451D926C551C8
:101E7000DA22DF50D96E20EE15F0C451D926C551B3
:101E8000DA22DF50FA6E20EE16F0C451D926C55181
:101E9000DA22DF50FB6E20EE0AF0C451D926C5517C
:101EA000DA22DF50F46E20EE09F0C451D926C55174
:101EB000DA22DF50F36E20EE11F0C451D926C5515D
:101EC000DA22DF50F56E20EE13F0C451D926C55149
:101ED000DA22DF50F76E20EE12F0C451D926C55138
:101EE000DA22DF50F66E20EE14F0C451D926C55127
:101EF000DA22DF50F86E20EE07F0C451D926C55122
:101F0000DA22DF50D86E20EE06F0C451D926C55132
:101F1000DA22DF500001706F7051FC6A020120EE7E
:101F200026F0C451D926C551DA22DF50D8B49BEF30
:101F30000FF09DEF0FF01CEF10F00500020120EEF6
:101F400026F0C451D926C551DA22DF0620EE26F04C
:101F5000C451D926C551DA22DF500001706F70518B
:101F6000030DF3CF71F0F4CF72F071510201C4256B
:101F70000001736F72510201C5210001746F170EC9
:101F80007325D96E000E7421DA6EDF50FD6E0201EA
:101F900020EE26F0C451D926C551DA22DF500001C7
:101FA000706F7051030DF3CF71F0F4CF72F0715177
:101FB0000201C4250001736F72510201C5210001A5
:101FC000746F180E7325D96E000E7421DA6EDF500F
:101FD000FE6E020120EE26F0C451D926C551DA2248
:101FE000DF500001706F7051030DF3CF71F0F4CF2B
:101FF00072F071510201C4250001736F7251020128
:10200000C5210001746F190E7325D96E000E74215D
:10201000DA6EDF50FF6E020120EE26F0C451D926A1
:10202000C551DA22DF50D8A418EF10F01AEF10F0E3
:102030009DEF0FF05EEF10F00500020120EE02F0C0
:10204000C451D926C551DA22DF50FD6E20EE02F0D0
:10205000C451D926C551DA22DECF70F0DDCF71F040
:1020600070C072F071C073F00001746B73C072F0D5
:1020700074C073F0746B7251FE6E100E706F0201BB
:1020800020EE02F0C451D926C551DA22DECF71F01C
:10209000DDCF72F071C073F072C074F00001756B27
:1020A0007029766F58EF10F0D8907533743373330E
:1020B000762F54EF10F000017351FF6E050E326E53
:1020C0006AEF10F020EE01F06E51D9266F51DA223E
:1020D00077C0DFFFF28E12001BEC1BF0F4EC1AF05D
:1020E000020120EE01F0C451D926C551DA22DF5099
:1020F000D8A47DEF10F07FEF10F0E4EF11F020EEA8
:1021000001F0C451D926C551DA22020EDF6E20EE4D
:1021100008F0C451D926C551DA22DF50E06E20EE16
:102120000CF0C451D926C551DA22DF50EA6E20EEF8
:102130000BF0C451D926C551DA22DF50E96E20EEEA
:102140000EF0C451D926C551DA22DF50E26E20EEDE
:102150000DF0C451D926C551DA22DF50E16E20EED0
:1021600010F0C451D926C551DA22DF50DA6E20EEC4
:102170000FF0C451D926C551DA22DF50D96E20EEB6
:1021800015F0C451D926C551DA22DF50FA6E20EE7F
:1021900016F0C451D926C551DA22DF50FB6E20EE6D
:1021A0000AF0C451D926C551DA22DF50F46E20EE70
:1021B00009F0C451D926C551DA22DF50F36E20EE62
:1021C00011F0C451D926C551DA22DF50F56E20EE48
:1021D00013F0C451D926C551DA22DF50F76E20EE34
:1021E00012F0C451D926C551DA22DF50F66E20EE26
:1021F00014F0C451D926C551DA22DF50F86E20EE12
:1022000007F0C451D926C551DA22DF50D86E20EE2E
:1022100006F0C451D926C551DA22DF500401086FF7
:102220000851FC6A020120EE26F0C451D926C5519E
:10223000DA22DF50D8B41FEF11F021EF11F0A0EF38
:1022400011F00500020120EE26F0C451D926C55137
:10225000DA22DF0620EE26F0C451D926C551DA2253
:10226000DF500401086F0851030DF3CF09F4F4CFD8
:102270000AF409510201C42504010B6F0A5102013D
:10228000C52104010C6F170E0B25D96E000E0C2111
:10229000DA6EDF50FD6E020120EE26F0C451D92621
:1022A000C551DA22DF500401086F0851030DF3CF46
:1022B00009F4F4CF0AF409510201C42504010B6F9B
:1022C0000A510201C52104010C6F180E0B25D96EAD
:1022D000000E0C21DA6EDF50FE6E020120EE26F0B9
:1022E000C451D926C551DA22DF500401086F0851C4
:1022F000030DF3CF09F4F4CF0AF409510201C42508
:1023000004010B6F0A510201C52104010C6F190E63
:102310000B25D96E000E0C21DA6EDF50FF6E020124
:1023200020EE26F0C451D926C551DA22DF50D8A4B8
:102330009CEF11F09EEF11F021EF11F0E2EF11F0A0
:102340000500020120EE02F0C451D926C551DA225F
:10235000DF50FD6E20EE02F0C451D926C551DA22BD
:10236000DECF08F4DDCF09F408C40AF409C40BF485
:1023700004010C6B0BC40AF40CC40BF40C6B0A5173
:10238000FE6E100E086F020120EE02F0C451D92635
:10239000C551DA22DECF09F4DDCF0AF409C40BF40B
:1023A0000AC40CF404010D6B08290E6FDCEF11F068
:1023B000D8900D330C330B330E2FD8EF11F00401EE
:1023C0000B51FF6E050E326EF28E1200076A046A20
:1023D0002AEF12F00450270D010EF324D96E020EDD
:1023E000F420DA6EDF50D8A4F8EF11F0FAEF11F014
:1023F00029EF12F00450270D020EF324D96E020EBD
:10240000F420DA6E580EDE1809E1350EDE18D8B465
:102410000CEF12F00EEF12F029EF12F00450270D1E
:10242000050EF324D96E020EF420DA6EDE50075C3E
:10243000D8B01DEF12F01FEF12F029EF12F0045088
:10244000270D050EF324D96E020EF420DA6EDF504C
:10245000076E042A0201C351045CD8A032EF12F0C7
:1024600034EF12F0EAEF11F0C6C206F0056A010E71
:1024700006240401006F016B000E0123C3C202F4A5
:10248000036B7BEC16F004010051066E052A020175
:10249000C351055CD8A04FEF12F051EF12F099EF45
:1024A00012F0046A8DEF12F00450270D010EF32490
:1024B000D96E020EF420DA6EDF50D8A462EF12F06B
:1024C00064EF12F08CEF12F00450270D050EF32488
:1024D000D96E020EF420DA6E0750DE18D8A473EF1E
:1024E00012F075EF12F08CEF12F00450270D020E6F
:1024F000F324D96E020EF420DA6E580EDE1809E1CC
:10250000350EDE18D8B487EF12F089EF12F08CEF99
:1025100012F00450CFEF12F0042AC351045CD8A08B
:1025200094EF12F096EF12F054EF12F0000ECFEF8E
:1025300012F00650270D010EF324D96E020EF4207E
:10254000DA6EDF50D8A4A7EF12F0A9EF12F037EF40
:1025500012F00650270D050EF324D96E020EF4205A
:10256000DA6E0750DE18D8A4B8EF12F0BAEF12F006
:1025700037EF12F00650270D020EF324D96E020E2B
:10258000F420DA6E580EDE1809E1350EDE18D8B4E4
:10259000CCEF12F0CEEF12F037EF12F0065012002F
:1025A000076A046A14EF13F00450270D010EF32498
:1025B000D96E020EF420DA6EDF50D8A4E2EF12F0EA
:1025C000E4EF12F013EF13F00450270D020EF32482
:1025D000D96E020EF420DA6E580EDE1809E1350EBF
:1025E000DE18D8B4F6EF12F0F8EF12F013EF13F094
:1025F0000450270D050EF324D96E020EF420DA6E76
:10260000DE50075CD8B007EF13F009EF13F013EFBB
:1026100013F00450270D050EF324D96E020EF4209A
:10262000DA6EDF50076E042A0201C351045CD8A0A1
:102630001CEF13F01EEF13F0D4EF12F0C6C206F039
:10264000056A010E062403016F6F706B000E702384
:10265000C3C271F3726BD3EC16F003016F51066EB7
:10266000052A0201C351055CD8A039EF13F03BEFF6
:1026700013F083EF13F0046A77EF13F00450270D83
:10268000010EF324D96E020EF420DA6EDF50D8A4C6
:102690004CEF13F04EEF13F076EF13F00450270DCC
:1026A000050EF324D96E020EF420DA6E0750DE1800
:1026B000D8A45DEF13F05FEF13F076EF13F0045042
:1026C000270D020EF324D96E020EF420DA6E580E96
:1026D000DE1809E1350EDE18D8B471EF13F073EF90
:1026E00013F076EF13F00450B9EF13F0042AC3513E
:1026F000045CD8A07EEF13F080EF13F03EEF13F0F0
:10270000000EB9EF13F00650270D010EF324D96E19
:10271000020EF420DA6EDF50D8A491EF13F093EF9D
:1027200013F021EF13F00650270D050EF324D96E98
:10273000020EF420DA6E0750DE18D8A4A2EF13F0D0
:10274000A4EF13F021EF13F00650270D020EF3242F
:10275000D96E020EF420DA6E580EDE1809E1350E3D
:10276000DE18D8B4B6EF13F0B8EF13F021EF13F082
:1027700006501200076A046AFEEF13F00450270D9A
:10278000010EF324D96E020EF420DA6EDF50D8A4C5
:10279000CCEF13F0CEEF13F0FDEF13F00450270D44
:1027A000020EF324D96E020EF420DA6E580EDE18F3
:1027B00009E1350EDE18D8B4E0EF13F0E2EF13F0C4
:1027C000FDEF13F00450270D050EF324D96E020E11
:1027D000F420DA6EDE50075CD8B0F1EF13F0F3EFBF
:1027E00013F0FDEF13F00450270D050EF324D96EFE
:1027F000020EF420DA6EDF50076E042A0201C35184
:10280000045CD8A006EF14F008EF14F0BEEF13F04C
:10281000C6C206F0056A010E06241B6E1C6A000E75
:102820001C22C3C21DF01E6A2BEC17F01B50066E53
:10283000052A0201C351055CD8A021EF14F023EF53
:1028400014F06BEF14F0046A5FEF14F00450270DDE
:10285000010EF324D96E020EF420DA6EDF50D8A4F4
:1028600034EF14F036EF14F05EEF14F00450270D3F
:10287000050EF324D96E020EF420DA6E0750DE182E
:10288000D8A445EF14F047EF14F05EEF14F00450B5
:10289000270D020EF324D96E020EF420DA6E580EC4
:1028A000DE1809E1350EDE18D8B459EF14F05BEFED
:1028B00014F05EEF14F00450A1EF14F0042AC35199
:1028C000045CD8A066EF14F068EF14F026EF14F063
:1028D000000EA1EF14F00650270D010EF324D96E5F
:1028E000020EF420DA6EDF50D8A479EF14F07BEFFB
:1028F00014F00BEF14F00650270D050EF324D96EDB
:10290000020EF420DA6E0750DE18D8A48AEF14F015
:102910008CEF14F00BEF14F00650270D020EF32489
:10292000D96E020EF420DA6E580EDE1809E1350E6B
:10293000DE18D8B49EEF14F0A0EF14F00BEF14F0F3
:10294000065012000401106F7E0E04011065ABEFFB
:1029500014F0ADEF14F0B3EF14F0000E086F000E9A
:10296000096F30EF15F02B0E116F040E126F11C4AA
:10297000D9FF12C4DAFFDF5004010F6F0F517F0B34
:102980000A6F0A050E6F0F51D8A4C9EF14F0CBEFF0
:1029900014F0CDEF14F0ADEF14F00FBFD2EF14F040
:1029A000D4EF14F0EBEF14F010510E5DD8B0DBEF64
:1029B00014F0DDEF14F0F7EF14F011C400F412C4BA
:1029C00001F4A9EC15F00009D8A4E9EF14F0EBEF3D
:1029D00014F0B7EF14F004010F517F0B0A6F0A5186
:1029E000010DF3501127F4501223B7EF14F00E51DC
:1029F0001019D8A4FEEF14F000EF15F00DEF15F04C
:102A000011C4D9FF12C4DAFFDF8E010E1125086F41
:102A1000000E1221096F30EF15F01051810F11C413
:102A2000D9FF12C4DAFFDF6E010E11250C6F000E04
:102A300012210D6F10510A6F0B6B010E0A27000E49
:102A40000B230A5111270B51122310510E5D11C493
:102A5000D9FF12C4DAFFDF6E0CC408F40DC409F408
:102A60001200096A5AEF15F00950270D000EF324E1
:102A7000D96E020EF420DA6E030EDE18D8A443EFEE
:102A800015F045EF15F059EF15F00950270D260EFA
:102A9000F324D96E020EF420DA6EDF6A0950270D96
:102AA000010EF324D96E020EF420DA6EDF6AA8EF6D
:102AB00015F0092A0201C351095CD8A062EF15F094
:102AC00064EF15F034EF15F0050EC3616AEF15F0F1
:102AD0006CEF15F0A8EF15F0C351270D000EF3248D
:102AE000D96E020EF420DA6E030EDF6EC351270D8D
:102AF000040EF324D96E020EF420DA6EDF6AC3519D
:102B0000270D050EF324D96E020EF420DA6E020EA4
:102B1000DF6EC351270D020EF324D96E020EF4208E
:102B2000DA6EF00EDE6E300EDD6EC351270D010E33
:102B3000F324D96E020EF420DA6EDF6AC351270D3A
:102B4000260EF324D96E020EF420DA6EDF6AC32B50
:102B5000120000C4D9FF01C4DAFFDF500401026F84
:102B600002510025046F000E0121056F00C4D9FF3A
:102B700001C4DAFFDF50066F04C4D9FF05C4DAFFD1
:102B8000DF50076F0751D8A4C8EF15F0CAEF15F052
:102B9000CDEF15F0000E15EF16F006BFD2EF15F0D1
:102BA000D4EF15F0CAEF15F007AFD9EF15F0DBEF52
:102BB00015F0DDEF15F0CAEF15F006517F0B7F0A17
:102BC000D8A4E5EF15F0E7EF15F0E9EF15F0CAEF3F
:102BD00015F006510725036F7F0E0365F2EF15F020
:102BE000F4EF15F00EEF16F000C4D9FF01C4DAFFC0
:102BF0007F0EDF6E7F0E0027000E01230751010DAF
:102C0000F3500427F45005230051045D00C4D9FF9C
:102C100001C4DAFFDF6E7F0E15EF16F000C4D9FF96
:102C200001C4DAFF03C4DFFFDF501200F29E01018E
:102C30001A51D96EDA6A010ED9260201C651DE1880
:102C4000D8B425EF16F027EF16F02AEF16F0F28E23
:102C50007AEF16F001011A51D96EDA6A060ED926FA
:102C6000DF50D8B436EF16F038EF16F06EEF16F0EE
:102C70001A51D96EDA6A080ED926DF501B6F1A5125
:102C80001B25D96EDA6A020ED926DF501C6F1A5145
:102C9000D96EDA6A080ED9261A51E16EE26A080E78
:102CA000E126E7501B6F1B29030BDF6E1A51D96E0B
:102CB000DA6A060ED926DF061C51270D010EF32411
:102CC000D96E020EF420DA6EDF6A1A51D96EDA6A12
:102CD000010ED9261CC1DFFF79EF16F01A51D96E0B
:102CE000DA6ADF6A1A51D96EDA6A010ED926FF0E46
:102CF000DF6EF28E12000401056B01BF84EF16F047
:102D000082EF16F08AEF16F0006D011FD8B0012B8C
:102D1000010E056F03BF91EF16F08FEF16F095EFE0
:102D200016F0026D031FD8B0032B02510311D8B463
:102D30009CEF16F09EEF16F0C2EF16F0010E046F36
:102D4000A6EF16F0D89002370337042B03AFABEF92
:102D500016F0ADEF16F0A2EF16F00251005D035130
:102D60000159D8A0B6EF16F0B8EF16F0BCEF16F088
:102D70000251005F0351015BD89003330233042FEB
:102D8000ADEF16F00551D8B4C8EF16F0CAEF16F043
:102D9000CEEF16F0006D011FD8B0012B00C400F477
:102DA00001C401F412000301746B70BFDCEF16F074
:102DB000DAEF16F0E2EF16F06F6D701FD8B0702BDF
:102DC000010E746F72BFE9EF16F0E7EF16F0EDEF4A
:102DD00016F0716D721FD8B0722B71517211D8B488
:102DE000F4EF16F0F6EF16F01AEF17F0010E736F0E
:102DF000FEEF16F0D89071377237732B72AF03EF76
:102E000017F005EF17F0FAEF16F071516F5D725180
:102E10007059D8A00EEF17F010EF17F014EF17F05D
:102E200071516F5F7251705BD89072337133732F31
:102E300005EF17F07451D8B420EF17F022EF17F018
:102E400026EF17F06F6D701FD8B0702B6FC36FF344
:102E500070C370F31200206A1CBE33EF17F031EF1D
:102E600017F039EF17F01B6C1C1ED8B01C2A010E8E
:102E7000206E1EBE40EF17F03EEF17F044EF17F044
:102E80001D6C1E1ED8B01E2A1D501E10D8B44BEF4C
:102E900017F04DEF17F071EF17F0010E1F6E55EFA1
:102EA00017F0D8901D361E361F2A1EAE5AEF17F0A7
:102EB0005CEF17F051EF17F01D501B5C1E501C58B3
:102EC000D8A065EF17F067EF17F06BEF17F01D5004
:102ED0001B5E1E501C5AD8901E321D321F2E5CEFF6
:102EE00017F02050D8B477EF17F079EF17F07DEF97
:102EF00017F01B6C1C1ED8B01C2A1BC01BF01CC07A
:102F00001CF01200F29E6FC3D9FF70C3DAFFDE2AF5
:102F1000000EDD226FC3D9FF70C3DAFF010EDBBEE6
:102F20009DEF17F0010EDB5006E1DE04D8B09BEFF9
:102F300017F09DEF17F0CEEF17F0030120EE07F02A
:102F40006F51D9267051DA22DF50716F71516F25A0
:102F5000726F000E7021736F020E7225D96E000E13
:102F60007321DA6EDF50746F7451270D010EF32454
:102F7000D96E020EF420DA6EDF6A20EE07F06F5190
:102F8000D9267051DA2210EE07F06F51E126705108
:102F9000E222E750716F7129030BDF6EF28E12008F
:102FA000060E01011A250301776F000E01011B2196
:102FB0000301786FE9EC0AF0010120EE04F01A51E8
:102FC000D9261B51DA22DF501D6F1D511A25D96EEB
:102FD000000E1B21DA6E1CC1DFFF20EE04F01A5137
:102FE000D9261B51DA2210EE04F01A51E1261B51AA
:102FF000E222E7501D6F1D29030BDF6E0E0E1A250E
:1030000003016F6F000E01011B210301706F82EC41
:1030100017F012000E0E03018025776F000E81213C
:10302000786FE9EC0AF0030120EE05F08051D92613
:103030008151DA22DF50846F84518025D96E000ED1
:103040008121DA6E82C3E1FF83C3E2FFDFCFE7FFB6
:1030500020EE05F08051D9268151DA2210EE05F0DC
:103060008051E1268151E222E750846F8429030BCD
:10307000DF6E060E80256F6F000E8121706F82EC6F
:1030800017F0120094948B9494968B9694988B9846
:10309000C0EC1AF02EEC1BF0630EE4EC1AF027ECF7
:1030A0001BF0E2EC18F0160EA2EC14F008C424F1A8
:1030B00009C425F10A0E0401006F2FEC1AF024C197
:1030C00005F425C106F4EAEC19F0130E0401006FB3
:1030D000016B000E026F4EEC1AF0620E0401006FDD
:1030E0002A0E016F000E0FEC1AF02BEC1BF01200F1
:1030F0000A0E01011A6F01EC08F0D3EC1AF01AC1A4
:1031000079F01BC17AF00A0E01011A6F16EC16F065
:1031100000017905020E7A59D8B091EF18F095EFB9
:1031200018F0786B782B97EF18F00001786B7847E0
:10313000784778478B507819F70B78198B6E130EF8
:1031400003016F6F706B82EC17F0000E00016E6F61
:10315000000E6F6F010EBDEC0DF01200040E0301A6
:10316000705DD8A0B6EF18F0B8EF18F0BBEF18F00C
:10317000030E706F6F696F517011D8A4C2EF18F011
:10318000C4EF18F0C9EF18F0BD6A94948B94E1EF86
:1031900018F00C0EBD6E6FC371F370C372F3D8904C
:1031A00072337133D890723371337151BE6E6FC305
:1031B00071F3030E7117713BBD507119CF0B71196B
:1031C000BD6E12002B0E0401006F040E016F010E84
:1031D000036F0269035109E1800E025DD8A0F3EF8D
:1031E00018F0F5EF18F007EF19F000C4D9FF01C48B
:1031F000DAFF7F0EDF6E7F0E0027000E0123810EA7
:103200000225026FFF0E0321036FEAEF18F000C4DE
:10321000D9FF01C4DAFF02C4DFFF02510025D96ED5
:1032200003510121DA6EDF6A12000401036F03C447
:1032300004F40401086B02C409F400C406F401C4D8
:1032400007F4056B0C6B106B0F6B126B116B146B2F
:10325000136B196B1A6B0E6B0D6B0B6B156B176B7E
:10326000166B186B0A6B2A6B24EE04F00201C35133
:10327000270D000EF324E16E020EF420E26E260EFE
:10328000DBCFE3FFE806FCE2C32B1200130E0301C1
:10329000776F786BE9EC0AF0086A050E086453EF63
:1032A00019F055EF19F057EF19F06FEF19F08B780F
:1032B000036A000E026E400E025C9C0E0358D8A0FA
:1032C00064EF19F066EF19F068EF19F06CEF19F080
:1032D000024A032A5BEF19F0082A4DEF19F08B9888
:1032E00046EF19F01200600EF66E360EF76E000E05
:1032F000F86E0900F5CF32F004EE2BF012EE00F07C
:10330000EE6AE550E150FCE1E250FAE102EE00F035
:10331000C70EEE6AE806FDE10101276B266B256BFF
:10332000246B00EE02F0190EEE6AE806FDE1019052
:103330000192000EF86E00019EEF19F098EC1AF061
:103340008C0E0401006F320E016F020E026F020E2E
:1033500015EC19F0880E0401006F330E016F020E98
:10336000026F040E15EC19F0020E0401006F350E09
:10337000016F020E026F050E15EC19F06CEC10F0E7
:10338000C0EF19F014EF03F00A0E01011A6F01ECFF
:1033900008F0D3EC1AF01AC16DF31BC16EF30A0EDC
:1033A00001011A6F16EC16F024C11AF125C11BF1A8
:1033B0006DC322F16EC323F10101D8902333223370
:1033C000D8902333223322511C6FD0EC17F0C4EF76
:1033D00019F01200040120EE04F00551D92606511F
:1033E000DA22DF6A20EE05F00551D9260651DA22ED
:1033F000DF6A060E0525006F000E0621016F040E20
:10340000026F4EEC1AF00E0E04010525006F000E3F
:103410000621016F000E026F4EEC1AF0120004013B
:10342000036F00C426F101C427F193800F01399185
:1034300004010351D8B41FEF1AF023EF1AF0026B06
:10344000022B25EF1AF00401026B023B02470247F0
:10345000F1500219BF0B0219F16EF2921200040131
:103460000051D96EDA6ADF6A0051D96EDA6A010E4C
:10347000D926FF0EDF6E0051D96EDA6A060ED92604
:10348000DF6A0051D96EDA6A070ED926DF6A005169
:10349000D96EDA6A080ED926DF6A120004010251D9
:1034A000036F046B00C4D9FF01C4DAFF03C4DEFF5D
:1034B00004C4DDFF20EE06F00051D9260151DA22C6
:1034C000DF6A20EE07F00051D9260151DA22DF6AC7
:1034D0001200F292010126512711D8B472EF1AF0AE
:1034E00074EF1AF080EF1AF002D880EF1AF005009E
:1034F000FA6E2651FD6E2751FE6EFF6AFA501200D9
:10350000120024C180F325C181F3850E0301826F6F
:10351000030E836F0AEC18F003018551040DF3CFFD
:103520006FF3F4CF70F3AEEC18F081EF1AF01200E5
:103530000201C36B000EC46F020EC56FC66B580E3E
:103540000401006F350E016F000E026F010E15ECC5
:1035500019F042EC18F01200949082B0B2EF1AF019
:10356000B5EF1AF0010EB6EF1AF0000EFF0A1B6E4F
:1035700082501B18FE0B1B18826EADEF1AF0120062
:10358000830EC216F30EC116FC0EC116C08EC050BB
:10359000C70B3009C06EC050F80B0409C06E928092
:1035A0000F0138811200C282C2B2D9EF1AF0DBEFEC
:1035B0001AF0D4EF1AF0C3CF1CF1C4CF1DF11CC117
:1035C0001AF11DC11BF112000401006F8B94949439
:1035D000BA9400C4BBFFBD6ABE6ACF0EBD16BA5016
:1035E000FC0B0109BA6E1200E6EC11F00201C66F85
:1035F000C651270D000EF324C46F020EF420C56FD0
:103600001200D0EC12F00201C66FC651270D000E59
:10361000F324C46F020EF420C56F1200BAEC13F04D
:103620000201C66FC651270D000EF324C46F020EAF
:10363000F420C56F1200F28AF294D58CD59AD596F3
:10364000070ED512D58ED76A000ED66E1200BC6A50
:10365000BA8494941200F292F2881200C28012008E
:013660000564
:00000001FF
