:040000008DEF03F08D
:100008000182E1CF16F0E2CF17F0D9CF18F0DACF9E
:1000180019F0F3CF1AF0F4CF1BF0F2A416EF00F0AA
:1000280018EF00F07FEF03F0F2941D6A000E1C6ECB
:100038006EEF00F0750E1C02F3CF0FF0F4CF10F046
:100048001D02F35010267E0E0F24D96E020E1020CA
:10005800DA6EDF50D8B433EF00F035EF00F06CEF14
:1000680000F0750E1C02F3CF0FF0F4CF10F01D0254
:10007800F35010267E0E0F24D96E020E1020DA6E71
:10008800DF06750E1C02F3CF0FF0F4CF10F01D023F
:10009800F35010267E0E0F24D96E020E1020DA6E51
:1000A800DF50D8A45AEF00F05CEF00F06CEF00F0DE
:1000B800750E1C02F3CF0FF0F4CF10F01D02F350B1
:1000C80010267B0E0F24D96E020E1020DA6EDF6A1E
:1000D8001C4A1D2A24EE4EF0DF500F6E106A0F5096
:1000E8001C5C1D50800A116E1050800A1158D8A04F
:1000F80080EF00F082EF00F01EEF00F01E061E50A9
:10010800D8A489EF00F08BEF00F07FEF03F0320EF8
:100118001E6E24EE4FF010EE01F0DE50E126DD50A9
:10012800E222020EE618D8A49CEF00F09EEF00F041
:10013800DAEF01F024EE4FF010EE01F0DE50E12688
:10014800DD50E222E76A24EE4FF010EE08F0DE50B0
:10015800E126DD50E222E0CFE7FF24EE4FF010EE7B
:100168000CF0DE50E126DD50E222EACFE7FF24EE74
:100178004FF010EE0BF0DE50E126DD50E222E9CF21
:10018800E7FF24EE4FF010EE0EF0DE50E126DD50D2
:10019800E222E2CFE7FF24EE4FF010EE0DF0DE5042
:1001A800E126DD50E222E1CFE7FF24EE4FF010EE2A
:1001B80010F0DE50E126DD50E222DACFE7FF24EE30
:1001C8004FF010EE0FF0DE50E126DD50E222D9CFDD
:1001D800E7FF24EE4FF010EE15F0DE50E126DD507B
:1001E800E222FACFE7FF24EE4FF010EE16F0DE50D1
:1001F800E126DD50E222FBCFE7FF24EE4FF010EEC0
:100208000AF0DE50E126DD50E222F4CFE7FF24EECB
:100218004FF010EE09F0DE50E126DD50E222F3CF78
:10022800E7FF24EE4FF010EE11F0DE50E126DD502E
:10023800E222F5CFE7FF24EE4FF010EE13F0DE5088
:10024800E126DD50E222F7CFE7FF24EE4FF010EE73
:1002580012F0DE50E126DD50E222F6CFE7FF24EE71
:100268004FF010EE14F0DE50E126DD50E222F8CF18
:10027800E7FF24EE4FF010EE06F0DE50E126DD50E9
:10028800E222E8CFE7FF24EE4FF010EE07F0DE5051
:10029800E126DD50E222D8CFE7FF24EE4FF010EE42
:1002A80074F0DE50E126DD50E222E76AD2EF01F079
:1002B80024EE4FF010EE74F0DE50E126DD50E2221D
:1002C800E7500F6E0F50030DF3CF10F0F4CF11F07D
:1002D80024EE4FF0DECF12F0DDCF13F010501224D1
:1002E800146E11501320156E170E1424D96E000EBB
:1002F8001520DA6EFDCFDFFF24EE4FF010EE74F01C
:10030800DE50E126DD50E222E7500F6E0F50030D5C
:10031800F3CF10F0F4CF11F024EE4FF0DECF12F04F
:10032800DDCF13F010501224146E11501320156EE7
:10033800180E1424D96E000E1520DA6EFECFDFFFDA
:1003480024EE4FF010EE74F0DE50E126DD50E2228C
:10035800E7500F6E0F50030DF3CF10F0F4CF11F0EC
:1003680024EE4FF0DECF12F0DDCF13F01050122440
:10037800146E11501320156E190E1424D96E000E28
:100388001520DA6EFFCFDFFF24EE4FF010EE74F089
:10039800DE50E126DD50E222E72A0600FC50D8A410
:1003A800D8EF01F0DAEF01F05CEF01F0BBEC12F0EE
:1003B80024EE4FF010EE01F0DE50E126DD50E2228F
:1003C800E750D8A4EAEF01F0ECEF01F07FEF03F07B
:1003D80024EE4FF010EE01F0DE50E126DD50E2226F
:1003E800020EE76E24EE4FF010EE08F0DE50E12624
:1003F800DD50E222E750E06E24EE4FF010EE0CF0F4
:10040800DE50E126DD50E222E750EA6E24EE4FF09E
:1004180010EE0BF0DE50E126DD50E222E750E96EE7
:1004280024EE4FF010EE0EF0DE50E126DD50E22211
:10043800E750E26E24EE4FF010EE0DF0DE50E126AC
:10044800DD50E222E750E16E24EE4FF010EE10F09E
:10045800DE50E126DD50E222E750DA6E24EE4FF05E
:1004680010EE0FF0DE50E126DD50E222E750D96EA3
:1004780024EE4FF010EE15F0DE50E126DD50E222BA
:10048800E750FA6E24EE4FF010EE16F0DE50E1263B
:10049800DD50E222E750FB6E24EE4FF010EE0AF03A
:1004A800DE50E126DD50E222E750F46E24EE4FF0F4
:1004B80010EE09F0DE50E126DD50E222E750F36E3F
:1004C80024EE4FF010EE11F0DE50E126DD50E2226E
:1004D800E750F56E24EE4FF010EE13F0DE50E126F3
:1004E800DD50E222E750F76E24EE4FF010EE12F0E6
:1004F800DE50E126DD50E222E750F66E24EE4FF0A2
:1005080010EE14F0DE50E126DD50E222E750F86EDE
:1005180024EE4FF010EE07F0DE50E126DD50E22227
:10052800E750D86E24EE4FF010EE06F0DE50E126CC
:10053800DD50E222E7500F6E0F50FC6A24EE4FF0B8
:1005480010EE74F0DE50E126DD50E222E750D8B418
:10055800B0EF02F0B2EF02F03AEF03F0050024EE3C
:100568004FF010EE74F0DE50E126DD50E222E7068F
:1005780024EE4FF010EE74F0DE50E126DD50E2225A
:10058800E7500F6E0F50030DF3CF10F0F4CF11F0BA
:1005980024EE4FF0DECF12F0DDCF13F0105012240E
:1005A800146E11501320156E170E1424D96E000EF8
:1005B8001520DA6EDF50FD6E24EE4FF010EE74F069
:1005C800DE50E126DD50E222E7500F6E0F50030D9A
:1005D800F3CF10F0F4CF11F024EE4FF0DECF12F08D
:1005E800DDCF13F010501224146E11501320156E25
:1005F800180E1424D96E000E1520DA6EDF50FE6E28
:1006080024EE4FF010EE74F0DE50E126DD50E222C9
:10061800E7500F6E0F50030DF3CF10F0F4CF11F029
:1006280024EE4FF0DECF12F0DDCF13F0105012247D
:10063800146E11501320156E190E1424D96E000E65
:100648001520DA6EDF50FF6E24EE4FF010EE74F0D6
:10065800DE50E126DD50E222E750D8A436EF03F061
:1006680038EF03F0B2EF02F07DEF03F0050024EE5F
:100678004FF010EE02F0DE50E126DD50E222E750A6
:10068800FD6E24EE4FF010EE02F0DE50E126DD5054
:10069800E222E6CF0FF0E5CF10F00FC011F010C046
:1006A80012F0136A12C011F013C012F0136A11503D
:1006B800FE6E100E0F6E24EE4FF010EE02F0DE50BC
:1006C800E126DD50E222E6CF10F0E5CF11F010C0B0
:1006D80012F011C013F0146A0F28156E78EF03F0AA
:1006E800D890143213321232152E74EF03F01250D0
:1006F800FF6E320E1E6E1BC0F4FF1AC0F3FF19C046
:10070800DAFF18C0D9FF17C0E2FF16C0E1FF019257
:06071800110019EF12F0C0
:10100000000001016E6FF29E010165516611D8A4C6
:101010000CEF08F00EEF08F008EF0BF024EE4FF0A5
:1010200010EE01F0DE50E126DD50E222020EE6185D
:10103000D8A41DEF08F01FEF08F05DEF09F024EED3
:101040004FF010EE01F0DE50E126DD50E2226EC1DD
:10105000E7FF24EE4FF010EE08F0DE50E126DD5001
:10106000E222E0CFE7FF24EE4FF010EE0CF0DE506E
:10107000E126DD50E222EACFE7FF24EE4FF010EE4A
:101080000BF0DE50E126DD50E222E9CFE7FF24EE4F
:101090004FF010EE0EF0DE50E126DD50E222E2CFFE
:1010A000E7FF24EE4FF010EE0DF0DE50E126DD50AC
:1010B000E222E1CFE7FF24EE4FF010EE10F0DE5019
:1010C000E126DD50E222DACFE7FF24EE4FF010EE0A
:1010D0000FF0DE50E126DD50E222D9CFE7FF24EE0B
:1010E0004FF010EE15F0DE50E126DD50E222FACF8F
:1010F000E7FF24EE4FF010EE16F0DE50E126DD5053
:10110000E222FBCFE7FF24EE4FF010EE0AF0DE50B4
:10111000E126DD50E222F4CFE7FF24EE4FF010EE9F
:1011200009F0DE50E126DD50E222F3CFE7FF24EEA6
:101130004FF010EE11F0DE50E126DD50E222F5CF47
:10114000E7FF24EE4FF010EE13F0DE50E126DD5005
:10115000E222F7CFE7FF24EE4FF010EE12F0DE5060
:10116000E126DD50E222F6CFE7FF24EE4FF010EE4D
:1011700014F0DE50E126DD50E222F8CFE7FF24EE46
:101180004FF010EE06F0DE50E126DD50E222E8CF0F
:10119000E7FF24EE4FF010EE07F0DE50E126DD50C1
:1011A000E222D8CFE7FF24EE4FF010EE74F0DE50CD
:1011B000E126DD50E222E76A55EF09F024EE4FF018
:1011C00010EE74F0DE50E126DD50E222E75001011E
:1011D000676F6751030DF3CF68F1F4CF69F124EE27
:1011E0004FF0DECF6AF1DDCF6BF168516A256C6F8D
:1011F00069516B216D6F170E6C25D96E000E6D2134
:10120000DA6EFDCFDFFF24EE4FF010EE74F0DE500B
:10121000E126DD50E222E750676F6751030DF3CFFF
:1012200068F1F4CF69F124EE4FF0DECF6AF1DDCF43
:101230006BF168516A256C6F69516B216D6F180EE7
:101240006C25D96E000E6D21DA6EFECFDFFF24EE25
:101250004FF010EE74F0DE50E126DD50E222E75050
:10126000676F6751030DF3CF68F1F4CF69F124EE96
:101270004FF0DECF6AF1DDCF6BF168516A256C6FFC
:1012800069516B216D6F190E6C25D96E000E6D21A1
:10129000DA6EFFCFDFFF24EE4FF010EE74F0DE5079
:1012A000E126DD50E222E72A0600FC50D8A45BEFDD
:1012B00009F05DEF09F0DEEF08F092EC12F024EE99
:1012C0004FF010EE01F0DE50E126DD50E222E75053
:1012D000D8A46DEF09F06FEF09F010EF0BF024EEDA
:1012E0004FF010EE01F0DE50E126DD50E222020E5A
:1012F000E76E24EE4FF010EE08F0DE50E126DD50F0
:10130000E222E750E06E24EE4FF010EE0CF0DE50DB
:10131000E126DD50E222E750EA6E24EE4FF010EEB7
:101320000BF0DE50E126DD50E222E750E96E24EEBC
:101330004FF010EE0EF0DE50E126DD50E222E750D5
:10134000E26E24EE4FF010EE0DF0DE50E126DD509F
:10135000E222E750E16E24EE4FF010EE10F0DE5086
:10136000E126DD50E222E750DA6E24EE4FF010EE77
:101370000FF0DE50E126DD50E222E750D96E24EE78
:101380004FF010EE15F0DE50E126DD50E222E7507E
:10139000FA6E24EE4FF010EE16F0DE50E126DD502E
:1013A000E222E750FB6E24EE4FF010EE0AF0DE5022
:1013B000E126DD50E222E750F46E24EE4FF010EE0D
:1013C00009F0DE50E126DD50E222E750F36E24EE14
:1013D0004FF010EE11F0DE50E126DD50E222E75032
:1013E000F56E24EE4FF010EE13F0DE50E126DD50E6
:1013F000E222E750F76E24EE4FF010EE12F0DE50CE
:10140000E126DD50E222E750F66E24EE4FF010EEBA
:1014100014F0DE50E126DD50E222E750F86E24EEB3
:101420004FF010EE07F0DE50E126DD50E222E750EB
:10143000D86E24EE4FF010EE06F0DE50E126DD50BF
:10144000E222E7500101676F6751FC6A24EE4FF01A
:1014500010EE74F0DE50E126DD50E222E750D8B401
:1014600034EF0AF036EF0AF0BFEF0AF0050024EE81
:101470004FF010EE74F0DE50E126DD50E222E70678
:1014800024EE4FF010EE74F0DE50E126DD50E22243
:10149000E7500101676F6751030DF3CF68F1F4CF97
:1014A00069F124EE4FF0DECF6AF1DDCF6BF16851C8
:1014B0006A256C6F69516B216D6F170E6C25D96EA3
:1014C000000E6D21DA6EDF50FD6E24EE4FF010EE4F
:1014D00074F0DE50E126DD50E222E750676F67517D
:1014E000030DF3CF68F1F4CF69F124EE4FF0DECFB6
:1014F0006AF1DDCF6BF168516A256C6F69516B2120
:101500006D6F180E6C25D96E000E6D21DA6EDF50EE
:10151000FE6E24EE4FF010EE74F0DE50E126DD504A
:10152000E222E750676F6751030DF3CF68F1F4CF04
:1015300069F124EE4FF0DECF6AF1DDCF6BF1685137
:101540006A256C6F69516B216D6F190E6C25D96E10
:10155000000E6D21DA6EDF50FF6E24EE4FF010EEBC
:1015600074F0DE50E126DD50E222E750D8A4BBEF54
:101570000AF0BDEF0AF036EF0AF004EF0BF00500B9
:1015800024EE4FF010EE02F0DE50E126DD50E222B4
:10159000E750FD6E24EE4FF010EE02F0DE50E12633
:1015A000DD50E222E6CF67F1E5CF68F167C169F16E
:1015B00068C16AF101016B6B6AC169F16BC16AF1C3
:1015C0006B6B6951FE6E100E676F24EE4FF010EEDC
:1015D00002F0DE50E126DD50E222E6CF68F1E5CFF1
:1015E00069F168C16AF169C16BF16C6B67296D6F54
:1015F000FEEF0AF0D8906C336B336A336D2FFAEF3D
:101600000AF001016A51FF6E320E1E6E10EF0BF0F0
:1016100020EE01F06551D9266651DA226EC1DFFF56
:10162000F28E12000101846FF29E24EE4FF010EE54
:1016300001F0DE50E126DD50E222020EE618D8A4C9
:1016400024EF0BF026EF0BF064EF0CF024EE4FF0DC
:1016500010EE01F0DE50E126DD50E222010EE76ED1
:1016600024EE4FF010EE08F0DE50E126DD50E222CD
:10167000E0CFE7FF24EE4FF010EE0CF0DE50E12655
:10168000DD50E222EACFE7FF24EE4FF010EE0BF040
:10169000DE50E126DD50E222E9CFE7FF24EE4FF0F5
:1016A00010EE0EF0DE50E126DD50E222E2CFE7FF41
:1016B00024EE4FF010EE0DF0DE50E126DD50E22278
:1016C000E1CFE7FF24EE4FF010EE10F0DE50E12600
:1016D000DD50E222DACFE7FF24EE4FF010EE0FF0FC
:1016E000DE50E126DD50E222D9CFE7FF24EE4FF0B5
:1016F00010EE15F0DE50E126DD50E222FACFE7FFD2
:1017000024EE4FF010EE16F0DE50E126DD50E2221E
:10171000FBCFE7FF24EE4FF010EE0AF0DE50E1269B
:10172000DD50E222F4CFE7FF24EE4FF010EE09F097
:10173000DE50E126DD50E222F3CFE7FF24EE4FF04A
:1017400010EE11F0DE50E126DD50E222F5CFE7FF8A
:1017500024EE4FF010EE13F0DE50E126DD50E222D1
:10176000F7CFE7FF24EE4FF010EE12F0DE50E12647
:10177000DD50E222F6CFE7FF24EE4FF010EE14F03A
:10178000DE50E126DD50E222F8CFE7FF24EE4FF0F5
:1017900010EE06F0DE50E126DD50E222E8CFE7FF52
:1017A00024EE4FF010EE07F0DE50E126DD50E2228D
:1017B000D8CFE7FF24EE4FF010EE74F0DE50E126B4
:1017C000DD50E222E76A5CEF0CF024EE4FF010EE01
:1017D00074F0DE50E126DD50E222E75001017D6F1A
:1017E0007D51030DF3CF7EF1F4CF7FF124EE4FF066
:1017F000DECF80F1DDCF81F17E518025826F7F5178
:101800008121836F170E8225D96E000E8321DA6E37
:10181000FDCFDFFF24EE4FF010EE74F0DE50E12636
:10182000DD50E222E7507D6F7D51030DF3CF7EF155
:10183000F4CF7FF124EE4FF0DECF80F1DDCF81F1E8
:101840007E518025826F7F518121836F180E822502
:10185000D96E000E8321DA6EFECFDFFF24EE4FF04B
:1018600010EE74F0DE50E126DD50E222E7507D6F8D
:101870007D51030DF3CF7EF1F4CF7FF124EE4FF0D5
:10188000DECF80F1DDCF81F17E518025826F7F51E7
:101890008121836F190E8225D96E000E8321DA6EA5
:1018A000FFCFDFFF24EE4FF010EE74F0DE50E126A4
:1018B000DD50E222E72A0600FC50D8A462EF0CF0CB
:1018C00064EF0CF0E5EF0BF051C47DF101017D51A7
:1018D000750D7E0EF324D96E020EF420DA6E84C1EB
:1018E000DFFF92EC12F024EE4FF010EE01F0DE502C
:1018F000E126DD50E222E750D8A481EF0CF083EF1F
:101900000CF01AEF0EF024EE4FF010EE01F0DE5066
:10191000E126DD50E222020EE76E24EE4FF010EEDB
:1019200008F0DE50E126DD50E222E750E06E24EEC2
:101930004FF010EE0CF0DE50E126DD50E222E750D1
:10194000EA6E24EE4FF010EE0BF0DE50E126DD5093
:10195000E222E750E96E24EE4FF010EE0EF0DE507A
:10196000E126DD50E222E750E26E24EE4FF010EE69
:101970000DF0DE50E126DD50E222E750E16E24EE6C
:101980004FF010EE10F0DE50E126DD50E222E7507D
:10199000DA6E24EE4FF010EE0FF0DE50E126DD504F
:1019A000E222E750D96E24EE4FF010EE15F0DE5033
:1019B000E126DD50E222E750FA6E24EE4FF010EE01
:1019C00016F0DE50E126DD50E222E750FB6E24EEF9
:1019D0004FF010EE0AF0DE50E126DD50E222E75033
:1019E000F46E24EE4FF010EE09F0DE50E126DD50EB
:1019F000E222E750F36E24EE4FF010EE11F0DE50CD
:101A0000E126DD50E222E750F56E24EE4FF010EEB5
:101A100013F0DE50E126DD50E222E750F76E24EEAF
:101A20004FF010EE12F0DE50E126DD50E222E750DA
:101A3000F66E24EE4FF010EE14F0DE50E126DD508D
:101A4000E222E750F86E24EE4FF010EE07F0DE5081
:101A5000E126DD50E222E750D86E24EE4FF010EE82
:101A600006F0DE50E126DD50E222E75001017D6FF5
:101A70007D51FC6A24EE4FF010EE74F0DE50E1264A
:101A8000DD50E222E750D8B448EF0DF04AEF0DF0F8
:101A9000D3EF0DF0050024EE4FF010EE74F0DE50A1
:101AA000E126DD50E222E70624EE4FF010EE74F05E
:101AB000DE50E126DD50E222E75001017D6F7D51CD
:101AC000030DF3CF7EF1F4CF7FF124EE4FF0DECFA4
:101AD00080F1DDCF81F17E518025826F7F518121A0
:101AE000836F170E8225D96E000E8321DA6EDF50C8
:101AF000FD6E24EE4FF010EE74F0DE50E126DD5066
:101B0000E222E7507D6F7D51030DF3CF7EF1F4CFDC
:101B10007FF124EE4FF0DECF80F1DDCF81F17E51F9
:101B20008025826F7F518121836F180E8225D96EA7
:101B3000000E8321DA6EDF50FE6E24EE4FF010EEC1
:101B400074F0DE50E126DD50E222E7507D6F7D51DA
:101B5000030DF3CF7EF1F4CF7FF124EE4FF0DECF13
:101B600080F1DDCF81F17E518025826F7F5181210F
:101B7000836F190E8225D96E000E8321DA6EDF5035
:101B8000FF6E24EE4FF010EE74F0DE50E126DD50D3
:101B9000E222E750D8A4CFEF0DF0D1EF0DF04AEFDD
:101BA0000DF018EF0EF0050024EE4FF010EE02F0ED
:101BB000DE50E126DD50E222E750FD6E24EE4FF0CC
:101BC00010EE02F0DE50E126DD50E222E6CF7DF19C
:101BD000E5CF7EF17DC17FF17EC180F10101816B96
:101BE00080C17FF181C180F1816B7F51FE6E100E4B
:101BF0007D6F24EE4FF010EE02F0DE50E126DD5056
:101C0000E222E6CF7EF1E5CF7FF17EC180F17FC198
:101C100081F1826B7D29836F12EF0EF0D8908233B1
:101C200081338033832F0EEF0EF001018051FF6E60
:101C3000320E1E6EF28E1200CFEC12F07DEC12F01E
:101C400024EE4FF010EE01F0DE50E126DD50E222EE
:101C5000E750D8A42EEF0EF030EF0EF0C7EF0FF0E4
:101C600024EE4FF010EE01F0DE50E126DD50E222CE
:101C7000020EE76E24EE4FF010EE08F0DE50E12683
:101C8000DD50E222E750E06E24EE4FF010EE0CF053
:101C9000DE50E126DD50E222E750EA6E24EE4FF0FE
:101CA00010EE0BF0DE50E126DD50E222E750E96E47
:101CB00024EE4FF010EE0EF0DE50E126DD50E22271
:101CC000E750E26E24EE4FF010EE0DF0DE50E1260C
:101CD000DD50E222E750E16E24EE4FF010EE10F0FE
:101CE000DE50E126DD50E222E750DA6E24EE4FF0BE
:101CF00010EE0FF0DE50E126DD50E222E750D96E03
:101D000024EE4FF010EE15F0DE50E126DD50E22219
:101D1000E750FA6E24EE4FF010EE16F0DE50E1269A
:101D2000DD50E222E750FB6E24EE4FF010EE0AF099
:101D3000DE50E126DD50E222E750F46E24EE4FF053
:101D400010EE09F0DE50E126DD50E222E750F36E9E
:101D500024EE4FF010EE11F0DE50E126DD50E222CD
:101D6000E750F56E24EE4FF010EE13F0DE50E12652
:101D7000DD50E222E750F76E24EE4FF010EE12F045
:101D8000DE50E126DD50E222E750F66E24EE4FF001
:101D900010EE14F0DE50E126DD50E222E750F86E3E
:101DA00024EE4FF010EE07F0DE50E126DD50E22287
:101DB000E750D86E24EE4FF010EE06F0DE50E1262C
:101DC000DD50E222E75002010D6F0D51FC6A24EE56
:101DD0004FF010EE74F0DE50E126DD50E222E750C5
:101DE000D8B4F5EF0EF0F7EF0EF080EF0FF005002E
:101DF00024EE4FF010EE74F0DE50E126DD50E222CA
:101E0000E70624EE4FF010EE74F0DE50E126DD50D0
:101E1000E222E75002010D6F0D51030DF3CF0EF2D8
:101E2000F4CF0FF224EE4FF0DECF10F2DDCF11F23F
:101E30000E511025126F0F511121136F170E12251D
:101E4000D96E000E1321DA6EDF50FD6E24EE4FF0D6
:101E500010EE74F0DE50E126DD50E222E7500D6F07
:101E60000D51030DF3CF0EF2F4CF0FF224EE4FF02D
:101E7000DECF10F2DDCF11F20E511025126F0F518F
:101E80001121136F180E1225D96E000E1321DA6E70
:101E9000DF50FE6E24EE4FF010EE74F0DE50E126BF
:101EA000DD50E222E7500D6F0D51030DF3CF0EF21E
:101EB000F4CF0FF224EE4FF0DECF10F2DDCF11F2AF
:101EC0000E511025126F0F511121136F190E12258B
:101ED000D96E000E1321DA6EDF50FF6E24EE4FF044
:101EE00010EE74F0DE50E126DD50E222E750D8A477
:101EF0007CEF0FF07EEF0FF0F7EF0EF0C5EF0FF075
:101F0000050024EE4FF010EE02F0DE50E126DD5029
:101F1000E222E750FD6E24EE4FF010EE02F0DE50AC
:101F2000E126DD50E222E6CF0DF2E5CF0EF20DC242
:101F30000FF20EC210F20201116B10C20FF211C2A9
:101F400010F2116B0F51FE6E100E0D6F24EE4FF05C
:101F500010EE02F0DE50E126DD50E222E6CF0EF276
:101F6000E5CF0FF20EC210F20FC211F2126B0D2963
:101F7000136FBFEF0FF0D890123311331033132FBC
:101F8000BBEF0FF002011051FF6E320E1E6EF28E8B
:101F900012000201056B01BFD2EF0FF0D0EF0FF07E
:101FA000D8EF0FF0006D011FD8B0012B010E056FA7
:101FB00003BFDFEF0FF0DDEF0FF0E3EF0FF0026D87
:101FC000031FD8B0032B02510311D8B4EAEF0FF06E
:101FD000ECEF0FF010EF10F0010E046FF4EF0FF0C4
:101FE000D89002370337042B03AFF9EF0FF0FBEF64
:101FF0000FF0F0EF0FF00251005D03510159D8A02E
:1020000004EF10F006EF10F00AEF10F00251005F3D
:102010000351015BD89003330233042FFBEF0FF021
:102020000551D8B416EF10F018EF10F01CEF10F0B7
:10203000006D011FD8B0012B00C200F201C201F2F5
:1020400012000101756B71BF2AEF10F028EF10F03C
:1020500030EF10F0706D711FD8B0712B010E756FDD
:1020600073BF37EF10F035EF10F03BEF10F0726DEB
:10207000731FD8B0732B72517311D8B442EF10F0A4
:1020800044EF10F068EF10F0010E746F4CEF10F099
:10209000D89072377337742B73AF51EF10F053EF42
:1020A00010F048EF10F07251705D73517159D8A063
:1020B0005CEF10F05EEF10F062EF10F07251705FA5
:1020C0007351715BD89073337233742F53EF10F0E8
:1020D0007551D8B46EEF10F070EF10F074EF10F08F
:1020E000706D711FD8B0712B70C170F171C171F139
:1020F0001200076A03BE81EF10F07FEF10F087EF48
:1021000010F0026C031ED8B0032A010E076E05BE44
:102110008EEF10F08CEF10F092EF10F0046C051EB3
:10212000D8B0052A04500510D8B499EF10F09BEFF1
:1021300010F0BFEF10F0010E066EA3EF10F0D89074
:1021400004360536062A05AEA8EF10F0AAEF10F007
:102150009FEF10F00450025C05500358D8A0B3EF75
:1021600010F0B5EF10F0B9EF10F00450025E05501A
:10217000035AD89005320432062EAAEF10F0075009
:10218000D8B4C5EF10F0C7EF10F0CBEF10F0026C31
:10219000031ED8B0032A02C002F003C003F01200ED
:1021A00051C409F20201086B010E0925006F016B91
:1021B000000E01234EC406F20651026F036BC9ECF8
:1021C0000FF002010051096F082B030E0865EBEFB9
:1021D00010F0EDEF10F0F0EF10F0000E15EF11F031
:1021E0000951750D7B0EF324D96E020EF420DA6EC0
:1021F000DF50D8A4FEEF10F000EF11F0D4EF10F094
:102200000951750D7C0EF324D96E020EF420DA6E9E
:102210004E0EDE1809E1250EDE18D8B412EF11F0CB
:1022200014EF11F0D4EF10F00951120051C479F1FC
:102230000101786B010E7925706F716B000E7123AF
:102240004EC476F17651726F736B21EC10F0010180
:102250007051796F782B030E786531EF11F033EF01
:1022600011F036EF11F0000E5BEF11F07951750DA2
:102270007B0EF324D96E020EF420DA6EDF50D8A460
:1022800044EF11F046EF11F01AEF11F07951750D8E
:102290007C0EF324D96E020EF420DA6E4E0EDE1898
:1022A00009E1250EDE18D8B458EF11F05AEF11F0FD
:1022B0001AEF11F07951120051C40BF00A6A010EA5
:1022C0000B24026E036A000E03224EC408F008506D
:1022D000046E056A79EC10F002500B6E0A2A030EA8
:1022E0000A6475EF11F077EF11F07AEF11F0000E3C
:1022F0009FEF11F00B50750D7B0EF324D96E020E7B
:10230000F420DA6EDF50D8A488EF11F08AEF11F0D4
:102310005FEF11F00B50750D7C0EF324D96E020E99
:10232000F420DA6E4E0EDE1809E1250EDE18D8B460
:102330009CEF11F09EEF11F05FEF11F00B501200C7
:102340000201046F04C205F20201096B02C20AF223
:1023500000C207F201C208F2066B0D6B116B106B25
:10236000136B126B156B146B1A6B1B6B0F6B0E6B75
:102370000C6B166B186B176B196B0B6B796B22EE72
:1023800005F04EC403F20351750D7A0EF324E16E8D
:10239000020EF420E26E740EDBCFE3FFE806FCE2EF
:1023A0004EC4E8FF010FE8CF4EF412004DEC12F0DE
:1023B000660E0201006F240E016F050E026F020E01
:1023C000A0EC11F0F80E0201006F230E016F050E54
:1023D000026F030EA0EC11F0CC0E0201006F240E70
:1023E000016F050E026F040EA0EC11F01CEC0EF054
:1023F000F8EF11F08DEF03F082BE01EF12F004EF61
:1024000012F0010E05EF12F0000EFF0A01016F6FCE
:102410006F336F3382506F197F0B6F19826E000E0E
:10242000656F000E666F010E01EC08F0FCEF11F015
:102430001200C60EF66E250EF76E000EF86E09003D
:10244000F5CF1EF002EE7AF011EED8F0EE6AE5500C
:10245000E150FCE1E250FAE101900192000EF86EC9
:102460000001D6EF11F082BC38EF12F03BEF12F012
:10247000010E3CEF12F0000EFF0A0001616F613B9C
:102480006147614782506119BF0B6119826E050E69
:1024900012EC0BF033EF12F01200000EE8CF4EF406
:1024A0007A0EE8CF4FF4020EE8CF50F4000EE8CFDA
:1024B00051F44E0E0201006F250E016F000E026FE7
:1024C000010EA0EC11F0DBEC12F0120083B06BEF08
:1024D00012F06EEF12F0010E6FEF12F0000EFF0A15
:1024E0000101856F83508519FE0B8519836E010EDE
:1024F00012EC0BF066EF12F01200D0EC10F00201BB
:102500000A6F0AC251F451C40AF20A51750D7A0ECB
:10251000F3240B6F020EF4200C6F0BC24FF40CC2AD
:1025200050F4120016EC11F001017A6F7AC151F4E7
:1025300051C47AF17A51750D7A0EF3247B6F020E35
:10254000F4207C6F7BC14FF47CC150F41200949056
:1025500082B0ADEF12F0B0EF12F0010EB1EF12F059
:10256000000EFF0A026E82500218FE0B0218826EE5
:10257000A8EF12F012005CEC11F00C6E0CC051F4DC
:1025800051C40CF00C50750D7A0EF3240D6E020E32
:10259000F4200E6E0DC04FF40EC050F41200F28AFB
:1025A000F294D58CD59AD596070ED512D58ED76ACA
:1025B000000ED66E1200949C949E95900F013B9154
:0725C0003A9D3A9F12003220
:00000001FF
