:040000009DEF03F07D
:100008000182E1CF19F0E2CF1AF0D9CF1BF0DACF95
:100018001CF0F3CF1DF0F4CF1EF0F2A416EF00F0A1
:1000280018EF00F07FEF03F0F294206A000E1F6EC5
:100038006EEF00F0360E1F02F3CF12F0F4CF13F07C
:100048002002F35013263B0E1224D96E040E1320FF
:10005800DA6EDF50D8B433EF00F035EF00F06CEF14
:1000680000F0360E1F02F3CF12F0F4CF13F0200287
:10007800F35013263B0E1224D96E040E1320DA6EA9
:10008800DF06360E1F02F3CF12F0F4CF13F0200272
:10009800F35013263B0E1224D96E040E1320DA6E89
:1000A800DF50D8A45AEF00F05CEF00F06CEF00F0DE
:1000B800360E1F02F3CF12F0F4CF13F02002F350E4
:1000C8001326380E1224D96E040E1320DA6EDF6A56
:1000D8001F4A202A25EE45F0DF50126E136A12508F
:1000E8001F5C2050800A146E1350800A1458D8A040
:1000F80080EF00F082EF00F01EEF00F0230623509F
:10010800D8A489EF00F08BEF00F07FEF03F0050E25
:10011800236E25EE46F010EE01F0DE50E126DD50AC
:10012800E222020EE618D8A49CEF00F09EEF00F041
:10013800DAEF01F025EE46F010EE01F0DE50E12690
:10014800DD50E222E76A25EE46F010EE08F0DE50B8
:10015800E126DD50E222E0CFE7FF25EE46F010EE83
:100168000CF0DE50E126DD50E222EACFE7FF25EE73
:1001780046F010EE0BF0DE50E126DD50E222E9CF2A
:10018800E7FF25EE46F010EE0EF0DE50E126DD50DA
:10019800E222E2CFE7FF25EE46F010EE0DF0DE504A
:1001A800E126DD50E222E1CFE7FF25EE46F010EE32
:1001B80010F0DE50E126DD50E222DACFE7FF25EE2F
:1001C80046F010EE0FF0DE50E126DD50E222D9CFE6
:1001D800E7FF25EE46F010EE15F0DE50E126DD5083
:1001E800E222FACFE7FF25EE46F010EE16F0DE50D9
:1001F800E126DD50E222FBCFE7FF25EE46F010EEC8
:100208000AF0DE50E126DD50E222F4CFE7FF25EECA
:1002180046F010EE09F0DE50E126DD50E222F3CF81
:10022800E7FF25EE46F010EE11F0DE50E126DD5036
:10023800E222F5CFE7FF25EE46F010EE13F0DE5090
:10024800E126DD50E222F7CFE7FF25EE46F010EE7B
:1002580012F0DE50E126DD50E222F6CFE7FF25EE70
:1002680046F010EE14F0DE50E126DD50E222F8CF21
:10027800E7FF25EE46F010EE06F0DE50E126DD50F1
:10028800E222E8CFE7FF25EE46F010EE07F0DE5059
:10029800E126DD50E222D8CFE7FF25EE46F010EE4A
:1002A80035F0DE50E126DD50E222E76AD2EF01F0B8
:1002B80025EE46F010EE35F0DE50E126DD50E22264
:1002C800E750126E1250030DF3CF13F0F4CF14F071
:1002D80025EE46F0DECF15F0DDCF16F013501524CD
:1002E800176E14501620186E170E1724D96E000EAC
:1002F8001820DA6EFDCFDFFF25EE46F010EE35F060
:10030800DE50E126DD50E222E750126E1250030D56
:10031800F3CF13F0F4CF14F025EE46F0DECF15F04E
:10032800DDCF16F013501524176E14501620186ED2
:10033800180E1724D96E000E1820DA6EFECFDFFFD4
:1003480025EE46F010EE35F0DE50E126DD50E222D3
:10035800E750126E1250030DF3CF13F0F4CF14F0E0
:1003680025EE46F0DECF15F0DDCF16F0135015243C
:10037800176E14501620186E190E1724D96E000E19
:100388001820DA6EFFCFDFFF25EE46F010EE35F0CD
:10039800DE50E126DD50E222E72A0600FC50D8A410
:1003A800D8EF01F0DAEF01F05CEF01F0C2EC12F0E7
:1003B80025EE46F010EE01F0DE50E126DD50E22297
:1003C800E750D8A4EAEF01F0ECEF01F07FEF03F07B
:1003D80025EE46F010EE01F0DE50E126DD50E22277
:1003E800020EE76E25EE46F010EE08F0DE50E1262C
:1003F800DD50E222E750E06E25EE46F010EE0CF0FC
:10040800DE50E126DD50E222E750EA6E25EE46F0A6
:1004180010EE0BF0DE50E126DD50E222E750E96EE7
:1004280025EE46F010EE0EF0DE50E126DD50E22219
:10043800E750E26E25EE46F010EE0DF0DE50E126B4
:10044800DD50E222E750E16E25EE46F010EE10F0A6
:10045800DE50E126DD50E222E750DA6E25EE46F066
:1004680010EE0FF0DE50E126DD50E222E750D96EA3
:1004780025EE46F010EE15F0DE50E126DD50E222C2
:10048800E750FA6E25EE46F010EE16F0DE50E12643
:10049800DD50E222E750FB6E25EE46F010EE0AF042
:1004A800DE50E126DD50E222E750F46E25EE46F0FC
:1004B80010EE09F0DE50E126DD50E222E750F36E3F
:1004C80025EE46F010EE11F0DE50E126DD50E22276
:1004D800E750F56E25EE46F010EE13F0DE50E126FB
:1004E800DD50E222E750F76E25EE46F010EE12F0EE
:1004F800DE50E126DD50E222E750F66E25EE46F0AA
:1005080010EE14F0DE50E126DD50E222E750F86EDE
:1005180025EE46F010EE07F0DE50E126DD50E2222F
:10052800E750D86E25EE46F010EE06F0DE50E126D4
:10053800DD50E222E750126E1250FC6A25EE46F0BA
:1005480010EE35F0DE50E126DD50E222E750D8B457
:10055800B0EF02F0B2EF02F03AEF03F0050025EE3B
:1005680046F010EE35F0DE50E126DD50E222E706D7
:1005780025EE46F010EE35F0DE50E126DD50E222A1
:10058800E750126E1250030DF3CF13F0F4CF14F0AE
:1005980025EE46F0DECF15F0DDCF16F0135015240A
:1005A800176E14501620186E170E1724D96E000EE9
:1005B8001820DA6EDF50FD6E25EE46F010EE35F0AD
:1005C800DE50E126DD50E222E750126E1250030D94
:1005D800F3CF13F0F4CF14F025EE46F0DECF15F08C
:1005E800DDCF16F013501524176E14501620186E10
:1005F800180E1724D96E000E1820DA6EDF50FE6E22
:1006080025EE46F010EE35F0DE50E126DD50E22210
:10061800E750126E1250030DF3CF13F0F4CF14F01D
:1006280025EE46F0DECF15F0DDCF16F01350152479
:10063800176E14501620186E190E1724D96E000E56
:100648001820DA6EDF50FF6E25EE46F010EE35F01A
:10065800DE50E126DD50E222E750D8A436EF03F061
:1006680038EF03F0B2EF02F07DEF03F0050025EE5E
:1006780046F010EE02F0DE50E126DD50E222E750AF
:10068800FD6E25EE46F010EE02F0DE50E126DD505C
:10069800E222E6CF12F0E5CF13F012C014F013C037
:1006A80015F0166A15C014F016C015F0166A145025
:1006B800FE6E100E126E25EE46F010EE02F0DE50C1
:1006C800E126DD50E222E6CF13F0E5CF14F013C0A7
:1006D80015F014C016F0176A1228186E78EF03F098
:1006E800D890173216321532182E74EF03F01550C1
:1006F800FF6E050E236EF2A884EF03F086EF03F079
:100708008FEF03F0F2A28BEF03F08DEF03F08FEF82
:1007180003F024EC13F01EC0F4FF1DC0F3FF1CC04F
:10072800DAFF1BC0D9FF1AC0E2FF19C0E1FF01922E
:060738001100FAEF11F0C0
:101000000000F29E01015A51D96EDA6ADF50D8A46D
:101010000CEF08F00EEF08F01FEF08F05A51D96EF0
:10102000DA6A010EDF6E25EE48F05A51E16EE26A8F
:10103000010EE126DFCFE7FFF28E4EEF0BF05A51A3
:10104000D96EDA6A060ED926040EDF602AEF08F0A0
:101050002CEF08F04DEF0BF025EE48F05A51E16E01
:10106000E26A070EE126E7505B6F5A515B25E16E9D
:10107000E26A020EE126DFCFE7FF5A51D96EDA6A43
:10108000070ED9265A51E16EE26A070EE126E750B3
:101090005B6F5B29030BDF6E5A51D96EDA6A060E5D
:1010A000D926DF2A25EE46F010EE01F0DE50E126CB
:1010B000DD50E222020EE618D8A461EF08F063EFDB
:1010C00008F0A1EF09F025EE46F010EE01F0DE5039
:1010D000E126DD50E222040EE76E25EE46F010EE2A
:1010E00008F0DE50E126DD50E222E0CFE7FF25EEFA
:1010F00046F010EE0CF0DE50E126DD50E222EACFA1
:10110000E7FF25EE46F010EE0BF0DE50E126DD5055
:10111000E222E9CFE7FF25EE46F010EE0EF0DE50BA
:10112000E126DD50E222E2CFE7FF25EE46F010EEA9
:101130000DF0DE50E126DD50E222E1CFE7FF25EEA3
:1011400046F010EE10F0DE50E126DD50E222DACF5C
:10115000E7FF25EE46F010EE0FF0DE50E126DD5001
:10116000E222D9CFE7FF25EE46F010EE15F0DE5073
:10117000E126DD50E222FACFE7FF25EE46F010EE41
:1011800016F0DE50E126DD50E222FBCFE7FF25EE30
:1011900046F010EE0AF0DE50E126DD50E222F4CFF8
:1011A000E7FF25EE46F010EE09F0DE50E126DD50B7
:1011B000E222F3CFE7FF25EE46F010EE11F0DE500D
:1011C000E126DD50E222F5CFE7FF25EE46F010EEF6
:1011D00013F0DE50E126DD50E222F7CFE7FF25EEE7
:1011E00046F010EE12F0DE50E126DD50E222F6CF9E
:1011F000E7FF25EE46F010EE14F0DE50E126DD505C
:10120000E222F8CFE7FF25EE46F010EE06F0DE50C2
:10121000E126DD50E222E8CFE7FF25EE46F010EEB2
:1012200007F0DE50E126DD50E222D8CFE7FF25EEC1
:1012300046F010EE35F0DE50E126DD50E222E76A9E
:1012400099EF09F025EE46F010EE35F0DE50E1267C
:10125000DD50E222E75001015B6F5B51030DF3CFDC
:101260005CF1F4CF5DF125EE46F0DECF5EF1DDCF2F
:101270005FF15C515E25606F5D515F21616F170EFC
:101280006025D96E000E6121DA6EFDCFDFFF25EEFD
:1012900046F010EE35F0DE50E126DD50E222E75058
:1012A0005B6F5B51030DF3CF5CF1F4CF5DF125EE85
:1012B00046F0DECF5EF1DDCF5FF15C515E25606F01
:1012C0005D515F21616F180E6025D96E000E61219E
:1012D000DA6EFECFDFFF25EE46F010EE35F0DE5081
:1012E000E126DD50E222E7505B6F5B51030DF3CF47
:1012F0005CF1F4CF5DF125EE46F0DECF5EF1DDCF9F
:101300005FF15C515E25606F5D515F21616F190E69
:101310006025D96E000E6121DA6EFFCFDFFF25EE6A
:1013200046F010EE35F0DE50E126DD50E222E72AED
:101330000600FC50D8A49FEF09F0A1EF09F022EFBE
:1013400009F099EC12F025EE46F010EE01F0DE50B7
:10135000E126DD50E222E750D8A4B1EF09F0B3EF67
:1013600009F04AEF0BF025EE46F010EE01F0DE50EA
:10137000E126DD50E222020EE76E25EE46F010EE89
:1013800008F0DE50E126DD50E222E750E06E25EE67
:1013900046F010EE0CF0DE50E126DD50E222E75080
:1013A000EA6E25EE46F010EE0BF0DE50E126DD5041
:1013B000E222E750E96E25EE46F010EE0EF0DE5028
:1013C000E126DD50E222E750E26E25EE46F010EE17
:1013D0000DF0DE50E126DD50E222E750E16E25EE11
:1013E00046F010EE10F0DE50E126DD50E222E7502C
:1013F000DA6E25EE46F010EE0FF0DE50E126DD50FD
:10140000E222E750D96E25EE46F010EE15F0DE50E0
:10141000E126DD50E222E750FA6E25EE46F010EEAE
:1014200016F0DE50E126DD50E222E750FB6E25EE9D
:1014300046F010EE0AF0DE50E126DD50E222E750E1
:10144000F46E25EE46F010EE09F0DE50E126DD5098
:10145000E222E750F36E25EE46F010EE11F0DE507A
:10146000E126DD50E222E750F56E25EE46F010EE63
:1014700013F0DE50E126DD50E222E750F76E25EE54
:1014800046F010EE12F0DE50E126DD50E222E75089
:10149000F66E25EE46F010EE14F0DE50E126DD503B
:1014A000E222E750F86E25EE46F010EE07F0DE502F
:1014B000E126DD50E222E750D86E25EE46F010EE30
:1014C00006F0DE50E126DD50E222E75001015B6FBD
:1014D0005B51FC6A25EE46F010EE35F0DE50E12659
:1014E000DD50E222E750D8B478EF0AF07AEF0AF044
:1014F00003EF0BF0050025EE46F010EE35F0DE5060
:10150000E126DD50E222E70625EE46F010EE35F04A
:10151000DE50E126DD50E222E75001015B6F5B51B6
:10152000030DF3CF5CF1F4CF5DF125EE46F0DECF95
:101530005EF1DDCF5FF15C515E25606F5D515F2133
:10154000616F170E6025D96E000E6121DA6EDF50D3
:10155000FD6E25EE46F010EE35F0DE50E126DD5052
:10156000E222E7505B6F5B51030DF3CF5CF1F4CFE8
:101570005DF125EE46F0DECF5EF1DDCF5FF15C512F
:101580005E25606F5D515F21616F180E6025D96E19
:10159000000E6121DA6EDF50FE6E25EE46F010EE91
:1015A00035F0DE50E126DD50E222E7505B6F5B5103
:1015B000030DF3CF5CF1F4CF5DF125EE46F0DECF05
:1015C0005EF1DDCF5FF15C515E25606F5D515F21A3
:1015D000616F190E6025D96E000E6121DA6EDF5041
:1015E000FF6E25EE46F010EE35F0DE50E126DD50C0
:1015F000E222E750D8A4FFEF0AF001EF0BF07AEFF8
:101600000AF048EF0BF0050025EE46F010EE02F070
:10161000DE50E126DD50E222E750FD6E25EE46F079
:1016200010EE02F0DE50E126DD50E222E6CF5BF163
:10163000E5CF5CF15BC15DF15CC15EF101015F6B07
:101640005EC15DF15FC15EF15F6B5D51FE6E100EBC
:101650005B6F25EE46F010EE02F0DE50E126DD5025
:10166000E222E6CF5CF1E5CF5DF15CC15EF15DC1E8
:101670005FF1606B5B29616F42EF0BF0D8906033D4
:101680005F335E33612F3EEF0BF001015E51FF6E61
:10169000050E236EF28E4EEF0BF0F28E12000AEC66
:1016A00013F084EC12F025EE46F010EE01F0DE505F
:1016B000E126DD50E222E750D8A461EF0BF063EFA2
:1016C0000BF0FAEF0CF025EE46F010EE01F0DE50D4
:1016D000E126DD50E222020EE76E25EE46F010EE26
:1016E00008F0DE50E126DD50E222E750E06E25EE04
:1016F00046F010EE0CF0DE50E126DD50E222E7501D
:10170000EA6E25EE46F010EE0BF0DE50E126DD50DD
:10171000E222E750E96E25EE46F010EE0EF0DE50C4
:10172000E126DD50E222E750E26E25EE46F010EEB3
:101730000DF0DE50E126DD50E222E750E16E25EEAD
:1017400046F010EE10F0DE50E126DD50E222E750C8
:10175000DA6E25EE46F010EE0FF0DE50E126DD5099
:10176000E222E750D96E25EE46F010EE15F0DE507D
:10177000E126DD50E222E750FA6E25EE46F010EE4B
:1017800016F0DE50E126DD50E222E750FB6E25EE3A
:1017900046F010EE0AF0DE50E126DD50E222E7507E
:1017A000F46E25EE46F010EE09F0DE50E126DD5035
:1017B000E222E750F36E25EE46F010EE11F0DE5017
:1017C000E126DD50E222E750F56E25EE46F010EE00
:1017D00013F0DE50E126DD50E222E750F76E25EEF1
:1017E00046F010EE12F0DE50E126DD50E222E75026
:1017F000F66E25EE46F010EE14F0DE50E126DD50D8
:10180000E222E750F86E25EE46F010EE07F0DE50CB
:10181000E126DD50E222E750D86E25EE46F010EECC
:1018200006F0DE50E126DD50E222E7500101746F40
:101830007451FC6A25EE46F010EE35F0DE50E126DC
:10184000DD50E222E750D8B428EF0CF02AEF0CF07C
:10185000B3EF0CF0050025EE46F010EE35F0DE504B
:10186000E126DD50E222E70625EE46F010EE35F0E7
:10187000DE50E126DD50E222E7500101746F745121
:10188000030DF3CF75F1F4CF76F125EE46F0DECF00
:1018900077F1DDCF78F175517725796F7651782121
:1018A0007A6F170E7925D96E000E7A21DA6EDF5025
:1018B000FD6E25EE46F010EE35F0DE50E126DD50EF
:1018C000E222E750746F7451030DF3CF75F1F4CF3A
:1018D00076F125EE46F0DECF77F1DDCF78F1755168
:1018E0007725796F765178217A6F180E7925D96E20
:1018F000000E7A21DA6EDF50FE6E25EE46F010EE15
:1019000035F0DE50E126DD50E222E750746F74516D
:10191000030DF3CF75F1F4CF76F125EE46F0DECF6F
:1019200077F1DDCF78F175517725796F7651782190
:101930007A6F190E7925D96E000E7A21DA6EDF5092
:10194000FF6E25EE46F010EE35F0DE50E126DD505C
:10195000E222E750D8A4AFEF0CF0B1EF0CF02AEF81
:101960000CF0F8EF0CF0050025EE46F010EE02F05A
:10197000DE50E126DD50E222E750FD6E25EE46F016
:1019800010EE02F0DE50E126DD50E222E6CF74F1E7
:10199000E5CF75F174C176F175C177F10101786B0E
:1019A00077C176F178C177F1786B7651FE6E100EC3
:1019B000746F25EE46F010EE02F0DE50E126DD50A9
:1019C000E222E6CF75F1E5CF76F175C177F176C108
:1019D00078F1796B74297A6FF2EF0CF0D890793343
:1019E000783377337A2FEEEF0CF001017751FF6EE9
:1019F000050E236EF28E120001016D6B6E6B41EFCE
:101A00000DF06E51360D380EF324D96E040EF4200D
:101A1000DA6EDF50D8A40FEF0DF011EF0DF040EFAC
:101A20000DF06E51360D390EF324D96E040EF420EC
:101A3000DA6E5C0EDE1809E1250EDE18D8B423EF4D
:101A40000DF025EF0DF040EF0DF06E51360D3C0E10
:101A5000F324D96E040EF420DA6EDE506D5DD8B03A
:101A600034EF0DF036EF0DF040EF0DF06E51360D06
:101A70003C0EF324D96E040EF420DA6EDF506D6F45
:101A80006E2B25EE45F0DE506E5DD8A04AEF0DF0CE
:101A90004CEF0DF001EF0DF048C56FF16C6B010ECE
:101AA0006F25646F656B000E652345C56AF16A5149
:101AB000666F676B2FEC10F0010164516F6F6C2B38
:101AC00025EE45F0DE506C5DD8A069EF0DF06BEFB0
:101AD0000DF0B5EF0DF0706BA7EF0DF07051360DF6
:101AE000380EF324D96E040EF420DA6EDF50D8A439
:101AF0007CEF0DF07EEF0DF0A6EF0DF07051360D7E
:101B00003C0EF324D96E040EF420DA6E6D51DE180B
:101B1000D8A48DEF0DF08FEF0DF0A6EF0DF0705102
:101B2000360D390EF324D96E040EF420DA6E5C0EF5
:101B3000DE1809E1250EDE18D8B4A1EF0DF0A3EFF1
:101B40000DF0A6EF0DF07051EBEF0DF0702B25EEC0
:101B500045F0DE50705DD8A0B0EF0DF0B2EF0DF0A3
:101B60006EEF0DF0000EEBEF0DF06F51360D380EED
:101B7000F324D96E040EF420DA6EDF50D8A4C3EF3C
:101B80000DF0C5EF0DF04FEF0DF06F51360D3C0E1F
:101B9000F324D96E040EF420DA6E6D51DE18D8A449
:101BA000D4EF0DF0D6EF0DF04FEF0DF06F51360D75
:101BB000390EF324D96E040EF420DA6E5C0EDE18B2
:101BC00009E1250EDE18D8B4E8EF0DF0EAEF0DF0CC
:101BD0004FEF0DF06F5112000101536B546B31EF59
:101BE0000EF05451360D380EF324D96E040EF42045
:101BF000DA6EDF50D8A4FFEF0DF001EF0EF030EFFA
:101C00000EF05451360D390EF324D96E040EF42023
:101C1000DA6E5C0EDE1809E1250EDE18D8B413EF7B
:101C20000EF015EF0EF030EF0EF05451360D3C0E65
:101C3000F324D96E040EF420DA6EDE50535DD8B072
:101C400024EF0EF026EF0EF030EF0EF05451360D6B
:101C50003C0EF324D96E040EF420DA6EDF50536F7D
:101C6000542B25EE45F0DE50545DD8A03AEF0EF02F
:101C70003CEF0EF0F1EF0DF048C555F1526B010E3F
:101C800055254A6F4B6B000E4B2345C550F1505103
:101C90004C6F4D6B87EC10F001014A51556F522B80
:101CA00025EE45F0DE50525DD8A059EF0EF05BEF07
:101CB0000EF0A5EF0EF0566B97EF0EF05651360D65
:101CC000380EF324D96E040EF420DA6EDF50D8A457
:101CD0006CEF0EF06EEF0EF096EF0EF05651360DE3
:101CE0003C0EF324D96E040EF420DA6E5351DE1844
:101CF000D8A47DEF0EF07FEF0EF096EF0EF0565168
:101D0000360D390EF324D96E040EF420DA6E5C0E13
:101D1000DE1809E1250EDE18D8B491EF0EF093EF2E
:101D20000EF096EF0EF05651DBEF0EF0562B25EE2F
:101D300045F0DE50565DD8A0A0EF0EF0A2EF0EF0F9
:101D40005EEF0EF0000EDBEF0EF05551360D380E43
:101D5000F324D96E040EF420DA6EDF50D8A4B3EF6A
:101D60000EF0B5EF0EF03FEF0EF05551360D3C0E74
:101D7000F324D96E040EF420DA6E5351DE18D8A481
:101D8000C4EF0EF0C6EF0EF03FEF0EF05551360DDA
:101D9000390EF324D96E040EF420DA6E5C0EDE18D0
:101DA00009E1250EDE18D8B4D8EF0EF0DAEF0EF008
:101DB0003FEF0EF0555112000B6A0C6A20EF0FF046
:101DC0000C50360D380EF324D96E040EF420DA6E62
:101DD000DF50D8A4EEEF0EF0F0EF0EF01FEF0FF093
:101DE0000C50360D390EF324D96E040EF420DA6E41
:101DF0005C0EDE1809E1250EDE18D8B402EF0FF0F4
:101E000004EF0FF01FEF0FF00C50360D3C0EF324D3
:101E1000D96E040EF420DA6EDE500B5CD8B013EFEE
:101E20000FF015EF0FF01FEF0FF00C50360D3C0EBA
:101E3000F324D96E040EF420DA6EDF500B6E0C2AF8
:101E400025EE45F0DE500C5CD8A029EF0FF02BEF0B
:101E50000FF0E0EF0EF048C50DF00A6A010E0D24F8
:101E6000026E036A000E032245C508F00850046E96
:101E7000056ADFEC10F002500D6E0A2A25EE45F0DF
:101E8000DE500A5CD8A047EF0FF049EF0FF093EF58
:101E90000FF00E6A85EF0FF00E50360D380EF3245A
:101EA000D96E040EF420DA6EDF50D8A45AEF0FF08A
:101EB0005CEF0FF084EF0FF00E50360D3C0EF32464
:101EC000D96E040EF420DA6E0B50DE18D8A46BEF36
:101ED0000FF06DEF0FF084EF0FF00E50360D390E4E
:101EE000F324D96E040EF420DA6E5C0EDE1809E1DC
:101EF000250EDE18D8B47FEF0FF081EF0FF084EFDE
:101F00000FF00E50C9EF0FF00E2A25EE45F0DE500F
:101F10000E5CD8A08EEF0FF090EF0FF04CEF0FF0AB
:101F2000000EC9EF0FF00D50360D380EF324D96EA8
:101F3000040EF420DA6EDF50D8A4A1EF0FF0A3EF67
:101F40000FF02EEF0FF00D50360D3C0EF324D96E2E
:101F5000040EF420DA6E0B50DE18D8A4B2EF0FF0A6
:101F6000B4EF0FF02EEF0FF00D50360D390EF324B5
:101F7000D96E040EF420DA6E5C0EDE1809E1250E2F
:101F8000DE18D8B4C6EF0FF0C8EF0FF02EEF0FF049
:101F90000D501200F29E25EE48F001014A51E16E0B
:101FA000E26A010EE126DE50E618D8B4DAEF0FF04F
:101FB000DCEF0FF0DFEF0FF0F28E2EEF10F04A5152
:101FC000D96EDA6A060ED926DF50D8B4EAEF0FF0E0
:101FD000ECEF0FF022EF10F04A51D96EDA6A080EDA
:101FE000D926DF504B6F4A514B25D96EDA6A020E63
:101FF000D926DF504D6F4A51D96EDA6A080ED926BC
:102000004A51E16EE26A080EE126E7504B6F4B2918
:10201000030BDF6E4A51D96EDA6A060ED926DF0647
:102020004D51360D380EF324D96E040EF420DA6EBD
:10203000DF6A4A51D96EDA6A010ED9264DC1DFFF37
:102040002DEF10F04A51D96EDA6ADF6A4A51D96E23
:10205000DA6A010ED926FF0EDF6EF28E1200010140
:10206000696B65BF38EF10F036EF10F03EEF10F0FF
:10207000646D651FD8B0652B010E696F67BF45EFB2
:1020800010F043EF10F049EF10F0666D671FD8B005
:10209000672B66516711D8B450EF10F052EF10F073
:1020A00076EF10F0010E686F5AEF10F0D890663797
:1020B0006737682B67AF5FEF10F061EF10F056EFF6
:1020C00010F06651645D67516559D8A06AEF10F051
:1020D0006CEF10F070EF10F06651645F6751655B54
:1020E000D89067336633682F61EF10F06951D8B428
:1020F0007CEF10F07EEF10F082EF10F0646D651F42
:10210000D8B0652B64C164F165C165F112000101AD
:102110004F6B4BBF90EF10F08EEF10F096EF10F07A
:102120004A6D4B1FD8B04B2B010E4F6F4DBF9DEF2B
:1021300010F09BEF10F0A1EF10F04C6D4D1FD8B0D8
:102140004D2B4C514D11D8B4A8EF10F0AAEF10F060
:10215000CEEF10F0010E4E6FB2EF10F0D8904C376A
:102160004D374E2B4DAFB7EF10F0B9EF10F0AEEF8B
:1021700010F04C514A5D4D514B59D8A0C2EF10F0B0
:10218000C4EF10F0C8EF10F04C514A5F4D514B5B5B
:10219000D8904D334C334E2FB9EF10F04F51D8B487
:1021A000D4EF10F0D6EF10F0DAEF10F04A6D4B1FBD
:1021B000D8B04B2B4AC14AF14BC14BF11200076A10
:1021C00003BEE7EF10F0E5EF10F0EDEF10F0026C5A
:1021D000031ED8B0032A010E076E05BEF4EF10F0FF
:1021E000F2EF10F0F8EF10F0046C051ED8B0052ADD
:1021F00004500510D8B4FFEF10F001EF11F025EFF7
:1022000011F0010E066E09EF11F0D8900436053674
:10221000062A05AE0EEF11F010EF11F005EF11F0E8
:102220000450025C05500358D8A019EF11F01BEFC1
:1022300011F01FEF11F00450025E0550035AD890C0
:1022400005320432062E10EF11F00750D8B42BEFF0
:1022500011F02DEF11F031EF11F0026C031ED8B028
:10226000032A02C002F003C003F012000201006F53
:1022700000C201F20201056B66C106F264C103F2FD
:1022800065C104F2026B096B0D6B0C6B0F6B0E6B6F
:10229000116B106B166B176B0B6B0A6B086B126B69
:1022A000146B136B156B076B366B22EE01F045C593
:1022B00067F101016751360D370EF324E16E040E0C
:1022C000F420E26E350EDBCFE3FFE806FCE245C505
:1022D000E8FF010FE8CF45F51200040E01014B5D48
:1022E000D8A075EF11F077EF11F07AEF11F0030E2F
:1022F0004B6F4A694A514B11D8A481EF11F083EF1B
:1023000011F088EF11F0BD6A94948B94A0EF11F056
:102310000C0EBD6E4AC14CF14BC14DF1D8904D33FE
:102320004C33D8904D334C334C51BE6E4AC14CF1B6
:10233000030E4C174C3BBD504C19CF0B4C19BD6EC6
:1023400012003BEC12F0340E0101646F260E656F33
:10235000010E666F020E36EC11F03C0E0101646F47
:10236000260E656F010E666F030E36EC11F0A20E9D
:102370000101646F230E656F020E666F040E36EC6A
:1023800011F0A80E0101646F240E656F020E666FD6
:10239000050E36EC11F04FEC0BF0CDEF11F09DEF88
:1023A00003F0600E01015A6F01EC08F0E9EC12F045
:1023B0004AC16DF04BC16EF0600E01014A6FCAEC6C
:1023C0000FF0020E00016E5DD8B0E9EF11F0EDEFF5
:1023D00011F06C6B6C2BEFEF11F000016C6B6C4724
:1023E0006C476C478B506C19F70B6C198B6ED1EFE7
:1023F00011F012004C0EF66E260EF76E000EF86EFF
:102400000900F5CF23F002EE37F013EE12F0EE6A7A
:10241000E550E150FCE1E250FAE100EE60F0090E17
:10242000EE6AE806FDE1226A216A01900192000E3F
:10243000F86E0001A1EF11F001016451D96EDA6A62
:10244000DF6A6451D96EDA6A010ED926FF0EDF6E9B
:102450006451D96EDA6A060ED926DF6A6451D96EE4
:10246000DA6A070ED926DF6A6451D96EDA6A080E75
:10247000D926DF6A1200000EE8CF45F5370EE8CF07
:1024800046F5040EE8CF47F5000EE8CF48F55C0EA0
:102490000101646F250E656F000E666F010E36EC4C
:1024A00011F06DEC12F01200600E01015A6F01EC98
:1024B00008F0E9EC12F04AC162F14BC163F1600E21
:1024C00001014A6FCAEC0FF062C14AF163C14BF1DE
:1024D0006DEC11F054EF12F0120094928B929494E0
:1024E0008B9494968B9694988B98D6EC12F022EC61
:1024F00013F0630EFAEC12F016EC13F0600E01010B
:10250000646F1CEC12F01200FCEC0CF00101716F16
:1025100071C148F548C571F17151360D370EF3247C
:10252000726F040EF420736F72C146F573C147F5E4
:102530001200ECEC0DF00101576F57C148F548C58A
:1025400057F15751360D370EF324586F040EF4200F
:10255000596F58C146F559C147F51200949082B0A1
:10256000B4EF12F0B7EF12F0010EB8EF12F0000E58
:10257000FF0A026E82500218FE0B0218826EAFEF45
:1025800012F01200DCEC0EF00F6E0FC048F548C5DB
:102590000FF00F50360D370EF324106E040EF4209A
:1025A000116E10C046F511C047F51200830EC21619
:1025B000F30EC116FC0EC116C08EC050C70B3009F9
:1025C000C06EC050F80B0409C06E92800F013881B4
:1025D0001200C282C2B2EFEF12F0F1EF12F0EAEF96
:1025E00012F0C3CF4CF1C4CF4DF14CC14AF14DC1F3
:1025F0004BF112000101646F8B949494BA9464C1FE
:10260000BBFFBD6ABE6ACF0EBD16BA50FC0B0109F6
:10261000BA6E1200F28AF294D58CD59AD596070E2E
:10262000D512D58ED76A000ED66E1200BC6ABA8457
:10263000949412008B721AEF13F012008B741EEF39
:0D26400013F01200C2801200F29212000589
:00000001FF
