:040000008DEF03F08D
:100008000182E1CF15F0E2CF16F0D9CF17F0DACFA1
:1000180018F0F3CF19F0F4CF1AF0F2A416EF00F0AD
:1000280018EF00F07FEF03F0F2941C6A000E1B6ECD
:100038006EEF00F0750E1B02F3CF0EF0F4CF0FF049
:100048001C02F3500F26DE0E0E24D96E000E0F2070
:10005800DA6EDF50D8B433EF00F035EF00F06CEF14
:1000680000F0750E1B02F3CF0EF0F4CF0FF01C0258
:10007800F3500F26DE0E0E24D96E000E0F20DA6E16
:10008800DF06750E1B02F3CF0EF0F4CF0FF01C0243
:10009800F3500F26DE0E0E24D96E000E0F20DA6EF6
:1000A800DF50D8A45AEF00F05CEF00F06CEF00F0DE
:1000B800750E1B02F3CF0EF0F4CF0FF01C02F350B5
:1000C8000F26DB0E0E24D96E000E0F20DA6EDF6AC3
:1000D8001B4A1C2A22EEAEF0DF500E6E0F6A0E503D
:1000E8001B5C1C50800A106E0F50800A1058D8A054
:1000F80080EF00F082EF00F01EEF00F03150D8A43E
:1001080088EF00F08AEF00F07EEF03F0320E316ED8
:1001180022EEAFF010EE01F0DE50E126DD50E222D3
:10012800020EE618D8A49BEF00F09DEF00F0D9EF7F
:1001380001F022EEAFF010EE01F0DE50E126DD50C6
:10014800E222E76A22EEAFF010EE08F0DE50E12678
:10015800DD50E222E0CFE7FF22EEAFF010EE0CF028
:10016800DE50E126DD50E222EACFE7FF22EEAFF0D3
:1001780010EE0BF0DE50E126DD50E222E9CFE7FF7A
:1001880022EEAFF010EE0EF0DE50E126DD50E22256
:10019800E2CFE7FF22EEAFF010EE0DF0DE50E126E1
:1001A800DD50E222E1CFE7FF22EEAFF010EE10F0D3
:1001B800DE50E126DD50E222DACFE7FF22EEAFF093
:1001C80010EE0FF0DE50E126DD50E222D9CFE7FF36
:1001D80022EEAFF010EE15F0DE50E126DD50E222FF
:1001E800FACFE7FF22EEAFF010EE16F0DE50E12670
:1001F800DD50E222FBCFE7FF22EEAFF010EE0AF06F
:10020800DE50E126DD50E222F4CFE7FF22EEAFF028
:1002180010EE09F0DE50E126DD50E222F3CFE7FFD1
:1002280022EEAFF010EE11F0DE50E126DD50E222B2
:10023800F5CFE7FF22EEAFF010EE13F0DE50E12627
:10024800DD50E222F7CFE7FF22EEAFF010EE12F01A
:10025800DE50E126DD50E222F6CFE7FF22EEAFF0D6
:1002680010EE14F0DE50E126DD50E222F8CFE7FF71
:1002780022EEAFF010EE06F0DE50E126DD50E2226D
:10028800E8CFE7FF22EEAFF010EE07F0DE50E126F0
:10029800DD50E222D8CFE7FF22EEAFF010EE74F087
:1002A800DE50E126DD50E222E76AD1EF01F022EECE
:1002B800AFF010EE74F0DE50E126DD50E222E75098
:1002C8000E6E0E50030DF3CF0FF0F4CF10F022EEA8
:1002D800AFF0DECF11F0DDCF12F00F501124136E06
:1002E80010501220146E170E1324D96E000E14200D
:1002F800DA6EFDCFDFFF22EEAFF010EE74F0DE50C5
:10030800E126DD50E222E7500E6E0E50030DF3CFCA
:100318000FF0F4CF10F022EEAFF0DECF11F0DDCF0A
:1003280012F00F501124136E10501220146E180E74
:100338001324D96E000E1420DA6EFECFDFFF22EEF2
:10034800AFF010EE74F0DE50E126DD50E222E75007
:100358000E6E0E50030DF3CF0FF0F4CF10F022EE17
:10036800AFF0DECF11F0DDCF12F00F501124136E75
:1003780010501220146E190E1324D96E000E14207A
:10038800DA6EFFCFDFFF22EEAFF010EE74F0DE5032
:10039800E126DD50E222E72A0600FC50D8A4D7EF78
:1003A80001F0D9EF01F05BEF01F003EC0DF022EE64
:1003B800AFF010EE01F0DE50E126DD50E222E7500A
:1003C800D8A4E9EF01F0EBEF01F07FEF03F022EEA4
:1003D800AFF010EE01F0DE50E126DD50E222020E11
:1003E800E76E22EEAFF010EE08F0DE50E126DD50A9
:1003F800E222E750E06E22EEAFF010EE0CF0DE5095
:10040800E126DD50E222E750EA6E22EEAFF010EE70
:100418000BF0DE50E126DD50E222E750E96E22EED5
:10042800AFF010EE0EF0DE50E126DD50E222E7508C
:10043800E26E22EEAFF010EE0DF0DE50E126DD5058
:10044800E222E750E16E22EEAFF010EE10F0DE503F
:10045800E126DD50E222E750DA6E22EEAFF010EE30
:100468000FF0DE50E126DD50E222E750D96E22EE91
:10047800AFF010EE15F0DE50E126DD50E222E75035
:10048800FA6E22EEAFF010EE16F0DE50E126DD50E7
:10049800E222E750FB6E22EEAFF010EE0AF0DE50DB
:1004A800E126DD50E222E750F46E22EEAFF010EEC6
:1004B80009F0DE50E126DD50E222E750F36E22EE2D
:1004C800AFF010EE11F0DE50E126DD50E222E750E9
:1004D800F56E22EEAFF010EE13F0DE50E126DD509F
:1004E800E222E750F76E22EEAFF010EE12F0DE5087
:1004F800E126DD50E222E750F66E22EEAFF010EE74
:1005080014F0DE50E126DD50E222E750F86E22EECC
:10051800AFF010EE07F0DE50E126DD50E222E750A2
:10052800D86E22EEAFF010EE06F0DE50E126DD5078
:10053800E222E7500E6E0E50FC6A22EEAFF010EE8B
:1005480074F0DE50E126DD50E222E750D8B4AFEF78
:1005580002F0B1EF02F039EF03F0050022EEAFF040
:1005680010EE74F0DE50E126DD50E222E70622EEBE
:10057800AFF010EE74F0DE50E126DD50E222E750D5
:100588000E6E0E50030DF3CF0FF0F4CF10F022EEE5
:10059800AFF0DECF11F0DDCF12F00F501124136E43
:1005A80010501220146E170E1324D96E000E14204A
:1005B800DA6EDF50FD6E22EEAFF010EE74F0DE5012
:1005C800E126DD50E222E7500E6E0E50030DF3CF08
:1005D8000FF0F4CF10F022EEAFF0DECF11F0DDCF48
:1005E80012F00F501124136E10501220146E180EB2
:1005F8001324D96E000E1420DA6EDF50FE6E22EE40
:10060800AFF010EE74F0DE50E126DD50E222E75044
:100618000E6E0E50030DF3CF0FF0F4CF10F022EE54
:10062800AFF0DECF11F0DDCF12F00F501124136EB2
:1006380010501220146E190E1324D96E000E1420B7
:10064800DA6EDF50FF6E22EEAFF010EE74F0DE507F
:10065800E126DD50E222E750D8A435EF03F037EF6A
:1006680003F0B1EF02F07FEF03F0050022EEAFF0E8
:1006780010EE02F0DE50E126DD50E222E750FD6E7A
:1006880022EEAFF010EE02F0DE50E126DD50E2225D
:10069800E6CF0EF0E5CF0FF00EC010F00FC011F04E
:1006A800126A11C010F012C011F0126A1050FE6EDA
:1006B800100E0E6E22EEAFF010EE02F0DE50E126C4
:1006C800DD50E222E6CF0FF0E5CF10F00FC011F0B9
:1006D80010C012F0136A0E28146E77EF03F0D8904A
:1006E800133212321132142E73EF03F01150FF6ED1
:1006F8007FEF03F031061AC0F4FF19C0F3FF18C0EA
:10070800DAFF17C0D9FF16C0E2FF15C0E1FF01925A
:0607180011007AEF0CF065
:1010000000002E6EF29E22EEAFF010EE01F0DE50E8
:10101000E126DD50E222020EE618D8A412EF08F015
:1010200014EF08F051EF09F022EEAFF010EE01F0EE
:10103000DE50E126DD50E222010EE76E22EEAFF037
:1010400010EE08F0DE50E126DD50E222E0CFE7FFAF
:1010500022EEAFF010EE0CF0DE50E126DD50E22281
:10106000EACFE7FF22EEAFF010EE0BF0DE50E12604
:10107000DD50E222E9CFE7FF22EEAFF010EE0EF0F6
:10108000DE50E126DD50E222E2CFE7FF22EEAFF0B4
:1010900010EE0DF0DE50E126DD50E222E1CFE7FF59
:1010A00022EEAFF010EE10F0DE50E126DD50E2222D
:1010B000DACFE7FF22EEAFF010EE0FF0DE50E126C0
:1010C000DD50E222D9CFE7FF22EEAFF010EE15F0AF
:1010D000DE50E126DD50E222FACFE7FF22EEAFF04C
:1010E00010EE16F0DE50E126DD50E222FBCFE7FFE6
:1010F00022EEAFF010EE0AF0DE50E126DD50E222E3
:10110000F4CFE7FF22EEAFF010EE09F0DE50E1265B
:10111000DD50E222F3CFE7FF22EEAFF010EE11F048
:10112000DE50E126DD50E222F5CFE7FF22EEAFF000
:1011300010EE13F0DE50E126DD50E222F7CFE7FF9C
:1011400022EEAFF010EE12F0DE50E126DD50E2228A
:10115000F6CFE7FF22EEAFF010EE14F0DE50E126FE
:10116000DD50E222F8CFE7FF22EEAFF010EE06F0FE
:10117000DE50E126DD50E222E8CFE7FF22EEAFF0BD
:1011800010EE07F0DE50E126DD50E222D8CFE7FF77
:1011900022EEAFF010EE74F0DE50E126DD50E222D8
:1011A000E76A49EF09F022EEAFF010EE74F0DE507E
:1011B000E126DD50E222E750276E2750030DF3CFE2
:1011C00028F0F4CF29F022EEAFF0DECF2AF0DDCF09
:1011D0002BF028502A242C6E29502B202D6E170E10
:1011E0002C24D96E000E2D20DA6EFDCFDFFF22EE0B
:1011F000AFF010EE74F0DE50E126DD50E222E75051
:10120000276E2750030DF3CF28F0F4CF29F022EEFC
:10121000AFF0DECF2AF0DDCF2BF028502A242C6E41
:1012200029502B202D6E180E2C24D96E000E2D2047
:10123000DA6EFECFDFFF22EEAFF010EE74F0DE507C
:10124000E126DD50E222E750276E2750030DF3CF51
:1012500028F0F4CF29F022EEAFF0DECF2AF0DDCF78
:101260002BF028502A242C6E29502B202D6E190E7D
:101270002C24D96E000E2D20DA6EFFCFDFFF22EE78
:10128000AFF010EE74F0DE50E126DD50E222E72AE6
:101290000600FC50D8A44FEF09F051EF09F0D3EF4E
:1012A00008F0B1C227F02750750DDE0EF324D96E79
:1012B000000EF420DA6E2EC0DFFFEFEC0CF022EE11
:1012C000AFF010EE01F0DE50E126DD50E222E750F3
:1012D000D8A46DEF09F06FEF09F000EF0BF022EEEC
:1012E000AFF010EE01F0DE50E126DD50E222020EFA
:1012F000E76E22EEAFF010EE08F0DE50E126DD5092
:10130000E222E750E06E22EEAFF010EE0CF0DE507D
:10131000E126DD50E222E750EA6E22EEAFF010EE59
:101320000BF0DE50E126DD50E222E750E96E22EEBE
:10133000AFF010EE0EF0DE50E126DD50E222E75075
:10134000E26E22EEAFF010EE0DF0DE50E126DD5041
:10135000E222E750E16E22EEAFF010EE10F0DE5028
:10136000E126DD50E222E750DA6E22EEAFF010EE19
:101370000FF0DE50E126DD50E222E750D96E22EE7A
:10138000AFF010EE15F0DE50E126DD50E222E7501E
:10139000FA6E22EEAFF010EE16F0DE50E126DD50D0
:1013A000E222E750FB6E22EEAFF010EE0AF0DE50C4
:1013B000E126DD50E222E750F46E22EEAFF010EEAF
:1013C00009F0DE50E126DD50E222E750F36E22EE16
:1013D000AFF010EE11F0DE50E126DD50E222E750D2
:1013E000F56E22EEAFF010EE13F0DE50E126DD5088
:1013F000E222E750F76E22EEAFF010EE12F0DE5070
:10140000E126DD50E222E750F66E22EEAFF010EE5C
:1014100014F0DE50E126DD50E222E750F86E22EEB5
:10142000AFF010EE07F0DE50E126DD50E222E7508B
:10143000D86E22EEAFF010EE06F0DE50E126DD5061
:10144000E222E750276E2750FC6A22EEAFF010EE42
:1014500074F0DE50E126DD50E222E750D8B433EFDD
:101460000AF035EF0AF0BDEF0AF0050022EEAFF00A
:1014700010EE74F0DE50E126DD50E222E70622EEA7
:10148000AFF010EE74F0DE50E126DD50E222E750BE
:10149000276E2750030DF3CF28F0F4CF29F022EE6A
:1014A000AFF0DECF2AF0DDCF2BF028502A242C6EAF
:1014B00029502B202D6E170E2C24D96E000E2D20B6
:1014C000DA6EDF50FD6E22EEAFF010EE74F0DE50FB
:1014D000E126DD50E222E750276E2750030DF3CFBF
:1014E00028F0F4CF29F022EEAFF0DECF2AF0DDCFE6
:1014F0002BF028502A242C6E29502B202D6E180EEC
:101500002C24D96E000E2D20DA6EDF50FE6E22EEF6
:10151000AFF010EE74F0DE50E126DD50E222E7502D
:10152000276E2750030DF3CF28F0F4CF29F022EED9
:10153000AFF0DECF2AF0DDCF2BF028502A242C6E1E
:1015400029502B202D6E190E2C24D96E000E2D2023
:10155000DA6EDF50FF6E22EEAFF010EE74F0DE5068
:10156000E126DD50E222E750D8A4B9EF0AF0BBEF44
:101570000AF035EF0AF000EF0BF0050022EEAFF0B5
:1015800010EE02F0DE50E126DD50E222E750FD6E63
:1015900022EEAFF010EE02F0DE50E126DD50E22246
:1015A000E6CF27F0E5CF28F027C029F028C02AF0A1
:1015B0002B6A2AC029F02BC02AF02B6A2950FE6E14
:1015C000100E276E22EEAFF010EE02F0DE50E12694
:1015D000DD50E222E6CF28F0E5CF29F028C02AF03E
:1015E00029C02BF02C6A27282D6EFBEF0AF0D8902B
:1015F0002C322B322A322D2EF7EF0AF02A50FF6EB2
:10160000F28E1200206A1CBE0AEF0BF008EF0BF0FE
:1016100010EF0BF01B6C1C1ED8B01C2A010E206EA4
:101620001EBE17EF0BF015EF0BF01BEF0BF01D6C50
:101630001E1ED8B01E2A1D501E10D8B422EF0BF06B
:1016400024EF0BF048EF0BF0010E1F6E2CEF0BF0A8
:10165000D8901D361E361F2A1EAE31EF0BF033EF29
:101660000BF028EF0BF01D501B5C1E501C58D8A02F
:101670003CEF0BF03EEF0BF042EF0BF01D501B5E0A
:101680001E501C5AD8901E321D321F2E33EF0BF005
:101690002050D8B44EEF0BF050EF0BF054EF0BF09E
:1016A0001B6C1C1ED8B01C2A1BC01BF01CC01CF0DD
:1016B0001200076A03BE61EF0BF05FEF0BF067EFFC
:1016C0000BF0026C031ED8B0032A010E076E05BE94
:1016D0006EEF0BF06CEF0BF072EF0BF0046C051E6D
:1016E000D8B0052A04500510D8B479EF0BF07BEF81
:1016F0000BF09FEF0BF0010E066E83EF0BF0D8900E
:1017000004360536062A05AE88EF0BF08AEF0BF09B
:101710007FEF0BF00450025C05500358D8A093EF04
:101720000BF095EF0BF099EF0BF00450025E0550B3
:10173000035AD89005320432062E8AEF0BF0075078
:10174000D8B4A5EF0BF0A7EF0BF0ABEF0BF0026CEA
:10175000031ED8B0032A02C002F003C003F0120037
:10176000B1C223F0010E23241B6E1C6A000E1C2242
:10177000AEC221F021501D6E1E6A02EC0BF01B5010
:10178000236E2350750DDB0EF324D96E000EF4206A
:10179000DA6EDF50D8A4CFEF0BF0D1EF0BF0B2EF41
:1017A0000BF02350750DDC0EF324D96E000EF420DF
:1017B000DA6EB60EDE1809E1190EDE18D8B4E3EFC2
:1017C0000BF0E5EF0BF0B2EF0BF023501200B1C2BB
:1017D0000AF0010E0A24026E036A000E0322AEC252
:1017E00008F00850046E056A59EC0BF002500A6EBE
:1017F0000A50750DDB0EF324D96E000EF420DA6E5C
:10180000DF50D8A406EF0CF008EF0CF0E9EF0BF076
:101810000A50750DDC0EF324D96E000EF420DA6E3A
:10182000B60EDE1809E1190EDE18D8B41AEF0CF066
:101830001CEF0CF0E9EF0BF00A5012000001646F8E
:1018400064C065F00001696B62C06AF060C067F057
:1018500061C068F0666B6D6B716B706B736B726BF4
:10186000756B746B7A6B7B6B6F6B6E6B6C6B766B83
:10187000786B776B796B6B6BD96B20EE65F0AEC2D2
:1018800063F06351750DDA0EF324E16E000EF4205F
:10189000E26E740EDBCFE3FFE806FCE2AEC2E8FFC7
:1018A000010FE8CFAEF2120094EC0CF08A0E0001AA
:1018B000606F190E616F050E626F020E1EEC0CF068
:1018C0005A0E0001606F190E616F050E626F030EF4
:1018D0001EEC0CF02E0E0001606F1A0E616F050EEB
:1018E000626F040E1EEC0CF03EEC0DF076EF0CF087
:1018F0008DEF03F0840EF66E1A0EF76E000EF86E82
:101900000900F5CF31F000EEDAF011EED8F0EE6A12
:10191000E550E150FCE1E250FAE101900192000E45
:10192000F86E000154EF0CF0000EE8CFAEF2DA0EC4
:10193000E8CFAFF2000EE8CFB0F2000EE8CFB1F280
:10194000B60E0001606F190E616F000E626F010E1E
:101950001EEC0CF036EC0DF0120082BEB2EF0CF073
:10196000B5EF0CF0010EB6EF0CF0000EFF0A2F6E73
:101970002F322F3282502F187F0B2F18826E640E59
:1019800001EC08F0ADEF0CF0120082BCCAEF0CF0D5
:10199000CDEF0CF0010ECEEF0CF0000EFF0A1A6E28
:1019A0001A3A1A461A4682501A18BF0B1A18826E33
:1019B000C5EF0CF01200949082B0E1EF0CF0E4EF70
:1019C0000CF0010EE5EF0CF0000EFF0A026E8250E3
:1019D0000218FE0B0218826EDCEF0CF01200B0EC65
:1019E0000BF0246E24C0B1F2B1C224F02450750D66
:1019F000DA0EF324256E000EF420266E25C0AFF219
:101A000026C0B0F21200E7EC0BF00B6E0BC0B1F287
:101A1000B1C20BF00B50750DDA0EF3240C6E000EF4
:101A2000F4200D6E0CC0AFF20DC0B0F2120083B006
:101A30001CEF0DF01FEF0DF0010E20EF0DF0000E6A
:101A4000FF0A306E83503018FE0B3018836E17EF8C
:101A50000DF01200F28AF294D58CD59AD596070E25
:101A6000D512D58ED76A000ED66E1200949C949E25
:101A700095900F013B913A9D3A9F12002AEC0DF090
:051A8000F28E1200329D
:00000001FF
